:10000000005B0020154600003F4A01004546000005
:10001000454600004546000045460000000000003F
:10002000000000000000000000000000DD430000B0
:10003000454600000000000089430000194A010005
:10004000D545000091EC0000D5450000D5450000E5
:10005000D5450000D5450000D5450000D545000038
:10006000D5450000D5450000D5450000D545000028
:10007000D5450000D5450000D5450000D545000018
:10008000D5450000D5450000D5450000D545000008
:10009000D5450000D5450000D5450000D5450000F8
:1000A000D5450000D5450000D5450000D5450000E8
:1000B000D5450000D5450000D5450000D5450000D8
:1000C000D5450000D5450000D5450000D5450000C8
:1000D000D5450000D5450000D5450000D5450000B8
:1000E000D5450000D5450000D5450000D5450000A8
:1000F000D5450000D5450000D5450000D545000098
:1001000053B94AB9002908BF00281CBF4FF0FF317E
:100110004FF0FF3000F06EB9ADF1080C6DE904CE80
:1001200000F006F8DDF804E0DDE9022304B07047D2
:100130002DE9F047089D0E4604468C46002B40F002
:1001400081808A42174645D9B2FA82F24AB1C2F199
:10015000200106FA02F320FA01F1974041EA030C6C
:1001600094404FEA174E230CBCFBFEF6B9B20EFBCF
:1001700016CC43EA0C4306FB01F0984209D9FB1860
:1001800006F1FF3C80F01581984240F21281023E58
:100190003B441B1AA4B2B3FBFEF00EFB103344EA3F
:1001A000034400FB01F1A14209D93C1900F1FF33DE
:1001B00080F00181A14240F2FE8002383C44641A82
:1001C00040EA064000211DB1D4400023C5E90043A8
:1001D000BDE8F08702B9FFDEB2FA82F2002A4FD101
:1001E000CB1B4FEA174E1FFA87F80121B3FBFEFC29
:1001F000260C0EFB1C3346EA034608FB0CF3B34205
:1002000007D9BE190CF1FF3002D2B34200F2EB80E5
:100210008446F61AA3B2B6FBFEF00EFB106643EA64
:10022000064408FB00F8A04507D93C1900F1FF334C
:1002300002D2A04500F2D2801846A4EB080440EA9E
:100240000C40C0E78B4208D9002D00F0AF800021A0
:10025000C5E900060846BDE8F087B3FA83F1002936
:1002600049D1B34202D3824200F2BB80841A66EBCA
:10027000030301209C46002DAAD0C5E9004CA7E746
:10028000C2F120039740D8409140DE404FEA174E1C
:1002900008434FEA104CB6FBFEF11FFA87F80EFB3D
:1002A00011664CEA064601FB08F3B34204FA02F475
:1002B00009D9BE1901F1FF3C80F08E80B34240F2B3
:1002C0008B8002393E44F31A86B2B3FBFEF00EFB7C
:1002D000103346EA034600FB08F3B34207D9BE19C0
:1002E00000F1FF3C74D2B34272D902383E44F31A93
:1002F00040EA01417AE7C1F1200703FA01F422FA4A
:1003000007F31C4320FA07F906FA01F34FEA144CED
:10031000FE4049EA03094FEA1943B6FBFCFE1FFA07
:1003200084F80CFB1E6643EA06460EFB08FAB2454B
:1003300002FA01F200FA01F308D9A6190EF1FF3012
:1003400048D2B24546D9AEF1020E2644A6EB0A06C3
:100350001FFA89F9B6FBFCF00CFB106649EA064669
:1003600000FB08F8B04507D9A61900F1FF3C2DD2D3
:10037000B0452BD90238264440EA0E40A6EB0806C9
:10038000A0FB02894E45C446CE4618D315D075B39E
:10039000B3EB0C0266EB0E0606FA07F722FA01F33E
:1003A000CE401F43C5E90076002111E729462846C3
:1003B0000EE76646EDE6184601E74345E7D2B8EB9F
:1003C000020C69EB04040138A646E0E76046D3E777
:1003D00060468CE78646B9E7614674E702383C44DC
:1003E0002BE7084647E7ACF1020C3E4411E72946EB
:1003F000EEE600BF704700BF2DE9F04FB34C94F814
:10040000D6608FB006F00106002800F0C981CEBB8F
:1004100094F87C7094F8290094F82C204FF0270968
:100420002D2309FB074700F0030019FB0239FF23C6
:1004300084F82A300DF0F2FD94F8D600410707F158
:100440007D0704EB090800F12A8114F80900314600
:10045000C0F3801006F074F906220146054608F143
:10046000020014F019FB29460622B81C14F014FBF4
:1004700014F809305A060AD413F00E0F40F0E78042
:10048000636A93B10C2630460FB0BDE8F08F0621A9
:1004900008F1020004F00EFC002800F02B8214F892
:1004A000093013F00E0FEBD0D1E008F053FF824675
:1004B000002800F03E8208F059FF8346002800F033
:1004C0004A820AF071F90546002800F041824FF691
:1004D000FF73806FAB8505F11C030B93002800F0C0
:1004E000248205F16C0205F1680104F0EFFBB5F818
:1004F0006420774995F840C095F83DE095F8DC0018
:10050000744B2B660A4042F4887242F0010295F85F
:100510002611A5F86420002262F3000C20F00300ED
:1005200021F0030185F840C00EF03F0E4FF01B1C78
:100530006EF07F0E85F8DC0085F826117F20664975
:10054000C5F85CC04FF0060CC5E9132285F83F20C2
:100550006A866A636A65A5F8C820A5F8CC20A5F864
:10056000E82085F8EA20C5F80021A5F80421A5F8BF
:100570001821C5F82021A5F8242185F82F2185F818
:100580003DE085F8C100A5F8C4C0C5F81C11C5F848
:1005900030A1AA6795F872E195F89AC195F87E00A6
:1005A00095F85211A5F87C2062F3C30C62F3041E87
:1005B00021F0070120F01F00A5F85021A5F87021B7
:1005C000A5F89821A5F8A42185F89AC185F872E1CB
:1005D00085F8521185F87E000AF044FCA5F8D60093
:1005E0000AF046FCD5F8A8313C49A5F8D8001940D6
:1005F000C5F8A8110AF042FC95F8AC1160F30201AD
:1006000085F8AC110AF040FCC4E933AB0B9B636284
:1006100095F8AC1195F820C0ED610301002203F0BC
:10062000700321F078010B4362F3000CC5E96E22E0
:10063000C5E96C22C5E90522C5F8C02185F8AC31B1
:1006400085F820C00EF09EFE002840F05F8194F8EF
:1006500028300121C3F342030DA88DF8343004F093
:10066000ADFC002800F0958014F8093003F00F036A
:10067000022B00F1FF3233D0012B00F04B81787850
:100680001030C100002B00F03781062B00F068818C
:100690004FF4DA704FF41B7100FB02102BE0C0F333
:1006A000C000324604F1D7010DF0A6FEFF2884F801
:1006B0002A0002D030460DF071FD414603480DF08E
:1006C000F3FC024839460DF0EFFCD1E6081B002090
:1006D00080F8FFFF48014801FF4901000000FFF6D4
:1006E00098F801301033DB0000FB03F000F5AA702E
:1006F000642303FB020094F82070A74AE4610025FC
:10070000312365F30007A0FB0201236084F8207009
:100710009FA3D3E90023C4E90555C4E90155FFF7B8
:10072000EFFCB4F8D480E06006F004F80746B8F1B6
:10073000000F08D114F8095005F00F05A5F10105C7
:10074000B5FA85F56D0994F82820E36865F3000291
:1007500012F0010584F8282076D0DFF848928F49FE
:100760000493002002250DF1300801930591CDE995
:1007700007980321CDE9020006942A4600903B46E3
:100780000C9505F0C7FE414608F06CFE002800F00D
:100790009E80636A002B3FF475AE09F005F971E69F
:1007A000002E3FF46FAE204608F06AFE844204D06B
:1007B0007B484FF4E56103F089F994F82830D807B5
:1007C0000DAD0ED502220D920321764B009501222C
:1007D000002005F00BFF294608F044FE002840F0F9
:1007E000C980022203216F4B009500200D9205F075
:1007F000FDFE294608F036FE002840F09C806A483D
:1008000008F07AFE002840F08A80684808F044FE2C
:10081000844204D0624840F24A7103F057F9636A97
:100820000BB109F0C1F894F8D63000206FF3000343
:1008300084F8D63009F010FC0646002844D0002683
:1008400030460FB0BDE8F08F59485A4ADFF854E1FE
:10085000DFF848C10694A8FB00014FF0910909FB9D
:10086000081103F24718C2F800804FF00209049300
:1008700009920DF1300846A3D3E900234FF6FF7A21
:10088000CDE907E80295CDF83090CDF814C0CDF849
:100890000CA0FFF735FC4A46CDE900503B46284600
:1008A000032105F0E1FD414608F0DCFD00287FF45E
:1008B00070AF94F8D63043F0010384F8D63009F0D5
:1008C000CBFB0028BBD101200DF086FBDBE53A49CC
:1008D00005914AF2D8320092CDE90798CDE903009C
:1008E000CDE9010006943B46012203210C9505F059
:1008F00011FED8E71226C6E598F801001030C000B6
:1009000000F54D73194400F59A70C5E609F04CF8EE
:100910000326B8E54FF4F2704FF47F71BCE620482F
:1009200040F2477103F0D2F86FE705F17000A86755
:10093000D7E50726A7E51D4808F0AEFD84423FF441
:10094000A1AD174840F2417103F0C0F80C269AE5BA
:10095000584608F011FD504608F002FD072692E5C2
:1009600098F801301033DB0003F54D70014403F5B6
:100970009A7091E60D4808F08FFD84423FF482ADF5
:10098000074840F2337103F0A1F80C267BE500BF65
:100990008D49FD1A0700000000CA9A3BB998000073
:1009A000E85D010059940000241B0020081B002072
:1009B000002AE784E81B002059980000000000008E
:1009C000F8B5194E9DF8184096F8485015F00107F3
:1009D00021D196F832C0DFF854E0A6F84210E400C6
:1009E00004F018040CF0670C44EAC01463F34205E9
:1009F000A2FB0E0144EA0C04912303FB021186F8CA
:100A0000485007A3D3E9002386F83240FFF778FB6C
:100A100070643846F8BD0C273846F8BDAFF3008047
:100A20008D49FD1A070000000C1C0020002AE784F5
:100A3000F8B59DF81840104E0546E400807DEA8424
:100A400004F01804A3FB066700F06700912244EA53
:100A5000C111014302FB0377A97505A3D3E9002364
:100A600030463946FFF74CFBA862F8BDAFF3008073
:100A70008D49FD1A07000000002AE78400000000ED
:100A80002DE9F04F90F83230044600F1350190F82E
:100A9000480003F0F903C0F3400060F386138DB003
:100AA00084F8323005F04CFEB4F8426094F82030FF
:100AB0004F48E4610025A6FB000165F30003912285
:100AC00002FB0611C4E9055584F8203046A3D3E99A
:100AD0000023FFF715FB636C656006460933A6F13A
:100AE000310293424FF03101A56028BF6564216057
:100AF00034BFE360E26005F01DFE656A80460DF1DB
:100B00002C09002D4ED03B4DCDF82090B4F842A0DA
:100B100039493748E268DFF8ECC00492651BAD083C
:100B2000A1FB0535AAFB0001912303FB0A11334BFE
:100B300005934FF0000A2CA3D3E900230227CDF838
:100B40001CC006940B97CDF80CA0FFF7D9FA1046FD
:100B500019464FF47A720023FFF7D2FA6D08043574
:100B6000EDB22A46029043460321CDF800A050463C
:100B7000019605F0CFFC494608F074FC054668B9BB
:100B800094F8483043F0010384F8483009F07CF8C9
:100B90000446F8B128460DB0BDE8F08F0C200DB02A
:100BA000BDE8F08FE1680A954B460AAA03200B9531
:100BB00002F0D6F90B990029A5D011480AA3D3E970
:100BC0000023A1FB0001FFF79BFA0A9B20F07F485E
:100BD000984498E738460DF0FFF920460DB0BDE87F
:100BE000F08F00BFAFF300808D49FD1A07000000B1
:100BF000002AE7840C1C0020BD86F21A519E0000DA
:100C000000CA9A3B599400002DE9F04F0446808DAC
:100C10004FF6FF7398428DB00E46154600F089805E
:100C200094F8E93094F8E80083420ED0C01A00F03E
:100C3000030002281BD094F82D2194F82C319A42FD
:100C400030D100200DB0BDE8F08F94F8527117F04C
:100C50000108F0D194F8051194F804218A4200F0BB
:100C60006383981E012284F8E90084F8EA2094F84E
:100C7000983194F899219A4206D094F89A2102F07A
:100C80000601042900F0948394F8EA707B1E052B7A
:100C900000F24483DFE813F06400DB0282024203C7
:100CA0000503AC012C4803F0BBFF58B394F82C317A
:100CB00084F82D310379022243F00303427103715A
:100CC000C271D4F8B03194F82E2102722BB394F88B
:100CD0005221910721D494F8AB21D2071DD4D4F826
:100CE000BC21934204BF1A68C4F8BC21D4F8B421D3
:100CF000B2B91A68026018600368C4E96D000BB9E4
:100D0000C4F8C001B4F8CC0000289AD1B4F8C630B9
:100D1000012B14D9A4F8CC3093E7D4F8B421A2B1B4
:100D2000D4F8B8311A6802601860C4F8B8010368D2
:100D3000E5E70A4840F2F32102F0C8FE70E701330C
:100D4000A4F8CC300DB0BDE8F08F0360C4E96C00AE
:100D5000C4F8B801D3E700BFF8390020685E01008D
:100D6000DFF82C84D8F80030002B00F09884E78E50
:100D7000628E94F8063117442F4413F00303BFB278
:100D800040F06283B4F8EC90A7EB09021FFA82FAF4
:100D900012043FF550AF94F8701194F8712194F853
:100DA000040184F805018A4294F8E80084F8E90017
:100DB00009D094F8722102F00702052A04BF84F8D2
:100DC0007111A4F8CC30D8F800309C4204BF002345
:100DD000C8F80030D4F80081B8F1000F00F0898520
:100DE000D8F80000002800F08485B4F80831E18DBF
:100DF0004268C4F800218B42B4F80A21B4F80CC14F
:100E000000F08B86A18DA8F806104FF00C0E002183
:100E1000A8F81E30A8F82020A8F822C088F804E01E
:100E200088F81C10414608F0ADFA08F0B5FA2368BE
:100E3000002B09DAD4E9011223F000438A422CBFC7
:100E4000B61876182360F61AE38DB4F8088113FB00
:100E50000AF39BB2B3FBF8F118FB01F292B2934292
:100E60001FFA81FB80F03385D31AC14840F2E24279
:100E700002FB03F3A3FB0001BBA3D3E90023FFF7AD
:100E80003FF920F07F400644638EA9EB07071D441D
:100E900094F93D305F442F4440F2E249002B6786CD
:100EA00009FB08F5C0F26D86D4F81001B049AEA375
:100EB000D3E90023A0FB0101FFF722F920F07F49CD
:100EC00009F10109AA46B4F80C21B4F80A11A94B9A
:100ED000A4F82E8042F2107000FB0252A648218630
:100EE0002B442844B3FBF5F3013AB2FBF5F2B0FB17
:100EF000F5F5A4F8C62098B28A1D9042A4F8D20055
:100F0000A4F8CA5002DD401A063880B294F80631BF
:100F1000A4F8CE005D0744BF0023A4F8C830022126
:100F2000012010F051FE002202218046012003F032
:100F30001BFF92494FF4E472204603F0A7FE451DC3
:100F4000EDB28F4B00942A460121002005F04EFBA4
:100F500030F0020304D08B4840F6581102F0B6FD81
:100F6000834BAAFB03AB50467FA3D3E9002359462A
:100F7000FFF7C6F8844A20F07F47A7FB022307212A
:100F8000BAEB020001FB07336BEB03014FF47A72FB
:100F90000023FFF7B5F8DFF8FCE17C49E268DFF8F1
:100FA000F8C1034694F93D00049211EA200138BFCC
:100FB00071460020029305913346019708940694E8
:100FC000CDF800902A46CDF81CC00390012105F011
:100FD000A1FA30F0020304D06A4840F6721102F020
:100FE00075FDB8F1000F40F0B2856FF0470029E6BB
:100FF000E38E628E94F8EC6013441D44F707ADB2A3
:10100000B34600F10A83B4F8EE20AD1A2F043FF581
:1010100012AE94F8DC2094F8648094F865A094F8FB
:10102000E810B4F8627084F8E910D50708F00708F2
:101030000AF0070A40F19485D4F81C21100540F10C
:101040008F85B4F8D890B9F5296F28BF4FF4296976
:10105000B9F5A47F4FF4296338BF4FF4A4790B93FB
:1010600016F01C0F40F08786B4F8605016F0E00FC1
:101070000CD094F8652094F85E00710961F30202C7
:1010800084F865200B9A09F06BF8074694F8AC21B8
:1010900094F86410D4F80061C2F3C00262F3C30193
:1010A00084F86410002E00F06C873068002800F08F
:1010B000688794F864E094F865104268C4F80021E9
:1010C0001BF0020FCEF3020CC1F302020EF0070E6A
:1010D00001F0070102D1F04500F0EA87A38DF3800B
:1010E00010210023317186F81DC0B2773377314665
:1010F00008F048F9D4F80061002E00F04C87306801
:10110000002800F04887B4F860304268C4F8002135
:10111000AB4209D34B4507D8B4F86230BB4203D386
:101120000B9A934241F2E380A4F86050A4F86270F5
:10113000337FA28DF28043F0030302210922317133
:1011400033777277B4F85E30B4F85C2033841523BB
:10115000B284F37731467784F58408F013F908F008
:101160001BF968E5AFF300808D49FD1A0700000008
:1011700000CA9A3B7FC3C901FF5962026C1C002060
:1011800035A40000685E01008D49FD1AD1D200002F
:10119000EC38002021D4000005A4000094F8EC30C5
:1011A00013F003057FF447ADA54803F039FD06466B
:1011B00000283FF440AD94F93D30002B80F2358596
:1011C00094F8ED50002D00F02D83037994F8DC2085
:1011D00043F00303D207037140F1CD86D4F81C31EC
:1011E0005B0740F1C886112203234572C271037266
:1011F0007771D4F8B031002284F8ED20002B00F094
:101200005B8394F85221950700F1568394F8AB2143
:10121000D00700F15183D4F8BC21934204BF1A686F
:10122000C4F8BC21D4F8B421002A01F03D80D4F8E0
:10123000B8311A6832601E60C4F8B8613368002B98
:1012400000F0958694F8E83084F8E930F3E4E38E12
:10125000618E94F8EC200B441D44D007ADB200F130
:101260009181B4F8F230ED1A29043FF5E4AC94F81A
:10127000E83084F8E93004F13805052204F1ED0185
:10128000284613F009FC2846052103F097FE94F840
:101290003D30012260F3050384F83D3084F8C42119
:1012A000C9E4674803F0BCFC00283FF4C4AC94F8E0
:1012B000E83084F8E930012302794371D4F8B03181
:1012C00042F0030212210271C171002B00F09F82D3
:1012D00094F85221910700F19A8294F8AB21D20739
:1012E00000F19582D4F8BC21934204BF1A68C4F877
:1012F000BC21D4F8B421002A00F0C487D4F8B83156
:101300001A6802601860C4F8B8010368002B00F086
:101310002E85B4F8CA30A4F8CC308CE4494840F2A9
:10132000793102F0D3FB86E494F8192194F818C1BE
:10133000624553D194F8252194F824C1624500F008
:10134000E182A2EB0C02D1077FF575AC94F826314F
:10135000DA0740F1F3869A0740F1E58608F040F895
:10136000014600B394F8243184F82531037FA28D1F
:10137000C28043F003030B77022006220C2308717E
:101380004A77CB7794F82701B4F82821B4F82A31AA
:10139000A1F8233081F82000A1F82120086807F087
:1013A000F1FF07F0F9FF94F8E80094F8E9303DE424
:1013B00002F00701062901F2E78001A050F821F0B0
:1013C0003D170000890C0000890C0000890C00000A
:1013D000A7160000A7160000890C0000A2EB0C0263
:1013E000D3077FF528AC94F8DC1011F0010700F06A
:1013F000638407F0F5FF07460028D4D094F818312D
:1014000084F81931037FA28DC28043F003030922BF
:10141000022041463B7738717A77FA7707F120004E
:10142000082213F064FBD4F8203187F82030C3F38E
:1014300007221B0C87F8212087F822303946ADE7B8
:10144000F8390020685E0100012007F0ABFF8046FC
:1014500000283FF4F0ABB54803F0E2FB0546002856
:101460003FF4E9AB07F0BCFFD8F80030D4F8002116
:101470005A6094F80631C4F8008103F00303012B8D
:1014800000F0BC85022B00F0998540F68301A84846
:1014900002F01CFB0021238E94F806C12A793B44FC
:1014A000063398B26FF3010C0C23A4F8EC0084F817
:1014B00006C142F003026B71D4F810319D4F2A71BE
:1014C0000022EA71A7FB032394F8147122682F729B
:1014D000B4F80871A5F80B70B4F80A71A5F80D708E
:1014E000C3F38F23B4F80C71A5F80F70002AA5F888
:1014F0001100A5F80930C4F8F4600ADAD4E9010350
:1015000022F0004283422CBFF31833189A1AC4F811
:10151000F420894B05F109000122C4F8F000D960DC
:10152000104602219C6003F053FC002840F06985BE
:10153000D4F8B031002B00F0198394F852219007B1
:1015400000F1148394F8AB21D10700F10F83D4F894
:10155000BC21934204BF1A68C4F8BC21D4F8B4215A
:10156000002A00F0B186D4F8B8311A682A601D60EC
:10157000C4F8B8512B68002B7FF45DABC4F8C051A0
:10158000FFF759BB694803F04BFB064600283FF4C0
:1015900052AB238E027994F8EC101D44AB1DA4F8D5
:1015A000F2306FF30001012342F00302082084F8B7
:1015B000EC1032717071F371052204F1ED013018F5
:1015C00013F06AFAD4F8B031B4F8F220A6F80D207E
:1015D000002B5AD094F85221910756D494F8AB219D
:1015E000D20752D4D4F8BC21934204BF1A68C4F87D
:1015F000BC21D4F8B421002A00F05E86D4F8B831BA
:101600001A6832601E60C4F8B8613368002B7FF43A
:1016100012ABC4F8C061FFF70EBB022007F0C2FE98
:10162000074600283FF407AB404803F0F9FA0646A6
:1016300000283FF400AB94F8EC306FF30003C3F3E1
:101640008200C3F3421250EA020884F8EC30DBB2A5
:1016500040F04B8594F8E820A4F8EE80980784F8D1
:10166000E92000F1C385434641460522727186F8A0
:10167000088032797372D4F8B031718142F003027C
:1016800018213271F171002BA4D1D4F8B421002AB1
:10169000B4D13360C4E96C66C4F8B861B6E7C8F881
:1016A0000040FFF764BB02F00702B4F89CC1B4F835
:1016B000A011B4F89E91B4F8A281A4F85EC0042AE7
:1016C000A4F8621000F0A48494F89A31062262F320
:1016D000020384F89A31D4F80071002F00F082845C
:1016E0003868002800F07E843B7F4268B4F82CE024
:1016F000C4F8002143F0030302223B774FF0090AAC
:101700001523A7F806E0A7F820C079843A71FB7783
:101710003946A7F82490A7F8268087F81DA007F07F
:1017200031FE07F039FEFFF7AFBA00BFF8390020ED
:10173000685E01005917B7D10C050020BC4803F0C2
:101740006FFA00283FF4A0AA94F89A21B4F89E11E9
:10175000B4F8A231A4F8D6100127A4F8D83067F362
:10176000020284F89A2109270279477194F8DC7003
:10177000D4F81CE1818142F0030202711B224FF078
:10178000140C00210272FA0780F807C0417240F180
:1017900018841EF4006F00F01484B3F5296F28BF7D
:1017A0004FF42963B3F5A47F38BF4FF4A4734FF40B
:1017B0002961D4F8B0214181C381002A00F0F3836C
:1017C00094F852319B0700F1EE8394F8AB31DF07B8
:1017D00000F1E983D4F8BC319A4204BF1368C4F81D
:1017E000BC31D4F8B431002B00F09185D4F8B83175
:1017F0001A6802601860C4F8B8010268002A00F094
:10180000E884B4F8CA30A4F8CC30FFF73DBAD4F875
:10181000B421002A7FF472AD0360C4E96C00C4F8FF
:10182000B80173E504F17F073B462A4604F1EE0157
:1018300004F25D100FF0F2FB3946102204F1A00013
:1018400013F02AF9082204F1980104F1B90013F009
:1018500023F994F8972094F8B81094F87E3084F81F
:101860008F5042F0010265F3000143F008030120AC
:1018700084F8972084F8B81084F87E3084F890506B
:1018800084F8915084F8925084F8935084F89450DE
:1018900084F8955084F89650C4F8B050C4F8B45009
:1018A00032797071D4F8B03142F0030205213271FF
:1018B000F171002B7FF4A5ACD4F8B421002A7FF499
:1018C000B6AC3360C4E96C66C4F8B861B7E408FB31
:1018D000113340F2E24257489BB202FB03F3A3FBF1
:1018E000000151A3D3E90023FEF70AFC361AFFF7E3
:1018F000CBBA514840F6B40102F0E8F8D8F800003D
:10190000FFF773BA94F871C194F87021944500F010
:101910005582DFF82881D8F80020002A00F087845B
:1019200094427FF488A994F8722102F00702052AF4
:1019300000F218860FF2040C5CF822F0411A000045
:10194000A5190000551900002D0C00002D0C0000F9
:101950002D0C0000BB073FF56EA907F041FD0146C5
:1019600000283FF420AD037F94F87221032060F338
:101970000202034384F87221A08D0B7702271823FB
:101980000F714B77B4F87421B4F87631C880B4F88D
:1019900078010A84B4F87A214B840F238884CA849E
:1019A000CB77FBE494F87371002F40F0C28494F974
:1019B0003D30002BC0F2EF8494F8723194F87C0132
:1019C000C4F81071052262F30203012284F8723117
:1019D00084F81421002800F0AE85B4F87431B3FB0C
:1019E000F0F3134413FB00F39BB294F8722194F8C4
:1019F0000601A4F80831C2F3C0039B0020F00702DF
:101A000043F002031343B4F87801B4F87A2184F860
:101A10000631013984F80511A4F80A01A4F80C2153
:101A2000FFF709B9AFF300808D49FD1A07000000E8
:101A3000F839002000CA9A3B685E0100EC380020AB
:101A4000D748B4F83690B4F832A003F0E9F8074666
:101A500000283FF4A8AC027994F87211042060F3D6
:101A6000020142F00302182084F8721109EB0A0304
:101A70003A717871B4F87401B4F87611B4F8782139
:101A800038812B44B4F87A017981BA810F21002280
:101A9000A7F811304FF0FF33F881F9713A74FA74F6
:101AA0003A757B75BB75FB753B767B76BB76FB76B3
:101AB0003B777B77BB773946204608F097FB226857
:101AC000B4F8CA30C8F80040002AC4F89061A4F8FD
:101AD000CC300ADAD4E9011322F000428B422CBF49
:101AE000F31873189B1AC4F89031AE4B13370122C8
:101AF000C4F88C71104602219C6003F069F900283B
:101B00003FF451ACA84840F66B3101F0DFFF94F888
:101B1000E80094F8E930FFF789B8218E91427FF40C
:101B200071A940F2E24101FB03FB42F21071B4F8EB
:101B3000C6E001FB0CB10139B1FBFBF189B28E4566
:101B40007FF460A9032388F80430FFF76BB9012202
:101B50001046022103F008F96FF04700FFF772B852
:101B60004FF4A479CDF82C90FFF77ABAD4F8B421C9
:101B7000002A7FF4F8AC2B60C4E96C55C4F8B85166
:101B8000F9E4E26C636C894F03FB1A23E3640EF003
:101B90003BFB804694F8DC00C0F382000EF036FB7D
:101BA00008EB000305FB03F38148E26C94F8141181
:101BB00003F5742303F23F23A0FB03034FEA934A88
:101BC0000AFB0BF06B080244963B9A4209FB01FCAE
:101BD00028BF1A464FF0000EC4E91232C4F844A0E0
:101BE0006DA3D3E90023C4F854C0C4F8E4E0A0FB1B
:101BF0000701FEF785FAD4F8103184466D48A0FB42
:101C00000330800A09FB00F063A3D3E90023A0FBA3
:101C10000701A6EB0C06FEF773FAA5EB0A0AB4F867
:101C2000088120F07F49FFF74EB904F17F073B465A
:101C30002A4604F1EE0104F25D100FF0EFF9394687
:101C4000102204F1A00012F027FF082204F19801ED
:101C500004F1B90012F020FF94F8971094F8B8201E
:101C600094F87E3084F88F5043F0080365F3000148
:101C700042F0010284F8971084F87E3084F8905086
:101C800084F8915084F8925084F8935084F89450DA
:101C900084F8955084F89650C4F8B050C4F8B45005
:101CA00084F8B820311D204608F044FCD4F8B03147
:101CB000002B7FF4A6AAFFE5394802F0B1FF804669
:101CC00000283FF470AB94F819313B4AC4F81C214A
:101CD000013B092284F81931427194F93D200379BE
:101CE000002AACBF08220E2243F00303C27108226F
:101CF00003713946104412F0FAFED4F81C3188F80A
:101D00000830C3F307221B0C88F8092088F80A3032
:101D1000D4F8B031002B00F0598194F85221970784
:101D200000F1548194F8AB21D00700F14F81D4F831
:101D3000BC21934204BF1A68C4F8BC21D4F8B42172
:101D4000002A00F0EC82D4F8B8311A68C8F80020F4
:101D5000C3F80080C4F8B881D8F80030002B00F038
:101D60007D82B4F8CA30A4F8CC30FFF71CBBC4F8AD
:101D7000C001FFF7CEBA94F8642094F85C00C6F373
:101D8000820161F3020284F864204A4608F0E8F90F
:101D90000546FFF76BB900BF8D49FD1A070000002B
:101DA000F83900201C050020685E010000CA9A3B3B
:101DB00083DE1B435917B7D1FF49010094F898718E
:101DC00094F89921BA4200F02E8194F89A1101F00A
:101DD0000702062A00F2D1830FF2040C5CF822F00D
:101DE000891E00002D0C00002D0C00002D0C0000A1
:101DF000FD1D0000FD1D00002D0C0000B4F89C31FD
:101E0000A4F85E3001F00703B4F8A021B4F89E9165
:101E1000B4F8A281A4F86220042B00F0AB820B4638
:101E2000062262F3020384F89A31D4F80071002F7D
:101E300000F066823868002800F062823B7F4268CA
:101E4000B4F82CC0C4F8002143F003033B7702220E
:101E500009237B773A71B4F85E10B4F862207A8473
:101E60001523FB77A7F806C03984A7F824903946D4
:101E7000A7F8268007F086FA07F08EFA94F8E800B3
:101E800094F8E930FEF7D2BED44802F0C9FE01460C
:101E900000283FF488AA94F89A21B4F89E01B4F877
:101EA000A231A4F8D6000127A4F8D83067F30202C3
:101EB000092784F89A210A794F7194F8DC70888197
:101EC00042F0030214204FF0000C0A71FF07D4F80F
:101ED0001C21C8714FF01B0081F809C0087240F145
:101EE0005382100540F1EA82B3F5296F28BF4FF401
:101EF0002963B3F5A47F38BF4FF4A4734FF429626C
:101F0000D4F8B001CB81B2F5A47F38BF4FF4A472EE
:101F10004A81002800F0E08194F852319B0700F1DB
:101F2000DB8194F8AB31DF0700F1D681D4F8BC3106
:101F3000984204BF0368C4F8BC31D4F8B431002B14
:101F400000F00383D4F8B8311A680A601960C4F845
:101F5000B8110B68002B00F01B82B4F8CA30A4F84B
:101F6000CC3094F8E80094F8E930FEF75FBEC4F88E
:101F7000C061FFF767B90D233572F3710227FFF7D0
:101F800037B9974840F62D6101F0A0FD306894F80C
:101F9000ECB0FFF78EB8924840F6596101F096FD1B
:101FA0003068FFF7B0B8D4F8B431002B7FF41EAC22
:101FB0000260C4E96C00C4F8B8011FE48949FFF766
:101FC0006ABA4FF4A4731946FFF7F3BBD4F8B421EF
:101FD000002A7FF4B8AEC8F80030C4E96C88C4F8B1
:101FE000B881BBE67E4840F6FD4101F06FFD3868E0
:101FF000B4F85EC0B4F86210FFF776BB7A49FFF719
:102000004ABA774840F63E0101F060FDFFF790BA0A
:10201000B4F8A421002A40F0248184F89931A4F86E
:10202000CC20FFF758BB94F8A82194F8A91191424D
:102030003EF401AE94F8AA1101F00300032800F069
:10204000F48100287EF4F7AD644802F0E9FD014612
:1020500000283FF4A8A994F8AA3194F8AC2194F888
:10206000AB71012060F30103C3F3820060F302024D
:10207000C3F3421060F30612C7F34007087984F8EF
:10208000AA3167F3C30284F8AC21C3F3820C40F099
:102090000300C3F34213032716220871CA7181F8A3
:1020A00008C04B724F710022204608F09FF858E696
:1020B0008A457FF413A803233371314607F062F990
:1020C000D4F80051002D00F0F2812868002800F0BB
:1020D000EE814368C4F8003103232B71294607F0D1
:1020E00051F907F059F9FEF7A6BD238E1D44AB1D2B
:1020F000A4F8EE3007F074F93B68D4F800215A6078
:10210000C4F8007107F06CF90368D4F800215A6034
:1021100094F8EC30B4F8EE10C4F80001C3F3820870
:102120005B09FFF7A2BA2E4840F61C3101F0CEFC45
:1021300094F8E80094F8E930FEF778BD274802F0FB
:102140006FFD00283FF42FA994F8252194F826313B
:10215000013A84F82521027943F00103062184F82D
:10216000263142F003024171D4F8B03102710B21E3
:102170006FF00E020C270172427205214FF0FF3200
:10218000C7718172C2720273002B00F0838094F8D1
:10219000522197077ED494F8AB21D1077AD4D4F892
:1021A000BC21934204BF1A68C4F8BC21D4F8B421FE
:1021B000002A00F0C481D4F8B8311A6802601860AF
:1021C000C4F8B8010368002B7FF4C7AEC4F8C0019F
:1021D000C3E6C4F8C001FFF714BB00BFF839002004
:1021E000685E01001131000049DA000007F0F8F8DC
:1021F0001023A28D87F81C803B7194F864303868F6
:10220000FA80C3F302037B7794F86530C3F30203CB
:10221000BB77394607F0B6F807F0BEF894F8EC3013
:10222000B4F8EE10C3F382085B09FFF71EBA94F806
:10223000723103F00703052B00F2948101A252F8DA
:1022400023F000BF411A0000A51900005519000035
:10225000370C0000370C0000370C0000C4F8C081B8
:102260007FE594F89A01B4F8A671A4F89E210023A2
:1022700063F3020084F89A01A4F8A431A4F8A271CF
:10228000FFF729BA1A68026018600368C4E96D0094
:10229000FFF73CB8D4F8B421002A8CD10360C4E91C
:1022A0006C00C4F8B8018DE71A6832601E603368AC
:1022B000C4E96D66FEF7C3BF1A6832601E603368FA
:1022C000C4E96D66FFF7A2B91A682A601D602B6821
:1022D000C4E96D55FFF74FB9D4F8B431002B7FF442
:1022E00031AE0860C4E96C11C4F8B81131E60323BB
:1022F0003371314607F046F807F04EF8FEF79BBC05
:10230000A54840F6FD4101F0E1FB386896E5136809
:10231000036010600268C4E96D00FFF76FBA1A68C5
:10232000C8F80020C3F80080D8F80030C4E96D88F0
:1023300014E59A4802F074FC014600283FF433A8E3
:10234000037943F003030B71112003220F23C8719B
:102350004A710B7294F873314B720022204607F0D9
:1023600045FF94F8703184F871310023C8F80030CB
:10237000FFF719B8B4F8A421002A40F0A58084F82A
:102380009971A4F8CC2050E54FF4A4731A46B7E530
:10239000C4F8C011E1E5814802F042FC0146002882
:1023A0003FF401A80379182243F00303037142713B
:1023B000B4F87421B4F87631B4F878010A81B4F82D
:1023C0007A214B8110238881CA81CB7194F87C31AA
:1023D0000B74B4F87E31B4F88001B4F88221A1F80E
:1023E0001130B4F88431A1F81300B4F88601A1F8D3
:1023F0001520B4F88821A1F81730B4F88A31A1F873
:102400001D30A1F81900A1F81B2020463A4607F01C
:10241000EDFE94F8703184F8713194F8E80094F886
:10242000E930C8F80070FEF701BC080784F8A9215C
:10243000C1F3820261D594F8AA21022161F38402DA
:1024400084F8AA2194F8AA2157064FEA52114CD5D4
:10245000022161F3471284F8AA2194F8AA1194F892
:1024600064C094F8650094F8AB21C1F382070CF0C6
:10247000070C00F00700C2F38002BC4508BF00272C
:102480005200B0EB511F42F001024FEA511108BF58
:10249000002142EA4112023B42EA8702062184F807
:1024A000E93084F8EC2084F8EA10FEF7EDBB3A48F6
:1024B00040F63C6101F00AFB28680AE6D2054FF4B9
:1024C000A47310D5A8221BE500200B4660F302037D
:1024D000A4F89E21B4F8A62184F89A31A4F8A401A6
:1024E000A4F8A221A1E41A460AE5C8070FD50121E4
:1024F00061F3471284F8AA21AFE7D10710D594F809
:10250000AA21012161F3840284F8AA219AE711F03B
:10251000040118BF042161F3471284F8AA219CE743
:1025200012F0040217D094F8AA21042161F3840266
:1025300084F8AA2186E7B4F87631FFF756BA1A680C
:1025400002601860C4E96D003CE603680B6001603E
:10255000C4E96D11FDE494F8AA1162F3840184F8D2
:10256000AA116FE70C4840F6294101F0AFFA94F840
:10257000E80094F8E930FEF759BB074840F62551CA
:1025800001F0A4FAFEF70FBF034840F6255101F011
:102590009DFAFEF779BB00BF685E0100F8390020A4
:1025A0002DE9F04F9C4695B05CF80C6B1D46136806
:1025B00086460C4660462E31174605F1080A03226E
:1025C000D3F80090CDF828E005F11C0812F064FA69
:1025D00004F12A010422504612F05EFA04F13A0195
:1025E0000522404612F058FA4046052102F0E6FC6A
:1025F00095F8213000F03F0060F30503012885F8CD
:1026000021300AD994F83F3003F01F02053AC3F392
:1026100004010B2A85F8221002D915B0BDE8F08F0D
:102620003A6896F8DC1000209060B4F83480A5F881
:10263000128094F8362094F837005B0942EA0022B1
:1026400063F38401AA82638E86F8DC10ADF8303023
:102650000DF0DAFD034696F8DC000B93C0F3820020
:102660000DF0D4FD0B9BDFF818C394F83110AA8A43
:1026700040F2E24B0BFB08F8184408FB00F000F5B1
:10268000742000F23F20ACFB00C04FEA580C800CD5
:102690000BFB01F1ACF1960CA862C5F82CC0E96304
:1026A000218FAF4BADF8361042F2107C0CFB01814C
:1026B000AC48434402F1060C0139B3FBF8F3B1FB1B
:1026C000F8F1A6F8C61099B261454044A6F8D210B8
:1026D000B0FBF8F0A6F8CA0002DD891A063989B203
:1026E000A6F8CE100422514606F1E00012F0D4F90B
:1026F000237F04F11E0A5146C3F38013062212A859
:102700008DF8403012F0C8F9237F4FF48072A28315
:1027100099F82A0097F812B0C3F340128DF83C20C4
:102720000B920CF057F90146062204F12B00002908
:1027300040F0E58012F0DBF904F12503BBF1FF0F57
:102740000E9304F11F0300F0E3801A4651465846E9
:102750000BF0A6FBA27F0E980232A27712A90622E6
:1027600012F09AF996F8DC30698AAA8AA286C3F335
:10277000820384F83830BDF83630E386618630460F
:1027800008F01EF821462882E0807C680A9806F04E
:10279000F9FD2B8AE3800F2323710B9B2068002B0C
:1027A00000F0B28095F809E02B7A95F80BC0A97A71
:1027B00095F8212041EA0C2143EA0E234B4042F0D8
:1027C000400201216B8485F821202177214606F003
:1027D000D9FD06F0E1FD95F84900012100F0070060
:1027E0000CF03CFD604A4FF0000A8346312300F2B2
:1027F0005240A0FB02013360C6E901AA56A3D3E907
:102800000023FDF77DFCFC68BDF83020AD6A20F0A8
:102810007F4040F2E24303FB023302215246F06064
:10282000A4F5AE7401201C4402F09EFA484607F05D
:1028300011FA821C4D4BCDF80090D2B250460121C6
:1028400003F0D4FE0128A8EB0508A4EB0B0477D015
:1028500099F82830DB076BD4304607F0B1FFDFF87A
:1028600008B1A8FB0B893CA3D3E9002305464946E0
:102870004046FDF745FC3E4A069620F07F4AAAFBFB
:102880000223072101FB0A3340F23D11BF68089182
:102890003849079138490591B8EB020069EB03010B
:1028A000F368049300264FF47A7200230396FDF731
:1028B00027FC29A3D3E900238446A4FB0B01CDE91F
:1028C00001ACFDF71DFC053520F07F40EDB2313F36
:1028D0003B4600902A463046012103F01BFE30F0B3
:1028E000020304D025484FF49F7101F0EFF8012254
:1028F0001046022102F038FA15B0BDE8F08F04F15D
:10290000240112F0C9F817E79DF83C3023775DE702
:102910000E9811930622002112F0E9F89DF840303C
:10292000A377119B12A91846062212F0B5F819E7F1
:102930000023012200931846114603F057FE8BE74F
:1029400006F0B6FD814583D00C484FF4EC7101F0E0
:10295000BDF87DE7AFF300808D49FD1A0700000048
:102960007FC3C901FF59620200CA9A3B4DD30000E0
:102970008D49FD1ABDD20000D1D20000B45E010025
:1029800083DE1B43000000002DE9F041D0E90BC7B6
:10299000D0F828800CEB07043034A0450E461546CD
:1029A00018D81B4F18A3D3E90023ACFB0701FDF790
:1029B000A7FBA4EB080420F07F40306012A3D3E90A
:1029C0000023A4FB0701FDF79BFB20F07F4028605C
:1029D000BDE8F0810E4C0CA3D3E90023A8FB040151
:1029E000FDF78EFB20F07F4307F130003360A0FB42
:1029F000040105A3D3E90023FDF782FB20F07F400B
:102A00002860BDE8F08100BF8D49FD1A0700000075
:102A100000CA9A3B000000002DE9F04F0E7F1746D8
:102A2000126891B00C464FF0000A1D46C2F808A08B
:102A3000C6F3C013D2F800908DF83430243106224A
:102A400080460EA82E6812F027F8237FA4F81CA059
:102A5000797C97F812A0C3F3401211F001018DF8B0
:102A600030200B9204F12B004FF0060200F0E780BB
:102A700004F11E0112F010F8BAF1FF0F04F1250362
:102A800004F11F0B00F0E5805A46504604F11E0188
:102A90000D930BF005FAA27F0D9B0232A2770EA9CF
:102AA0001846062211F0F8FF6B8AAA8A6386B9F8E5
:102AB0003030E386A2860DF0A5FB84F8380030465E
:102AC00007F07EFE034628822146E38040467C686C
:102AD00006F058FC2B8AE3800F2323710B9B2068A0
:102AE000002B00F0A88095F809E02B7A95F80BC030
:102AF000A97A95F8212041EA0C2143EA0E234B40A4
:102B000042F0400201216B8485F821202177214683
:102B100006F038FC06F040FC95F84800DFF868A1A4
:102B2000C0F3C00100F007000CF096FB00248346C0
:102B3000312300F252403360C6E901444CA3D3E98B
:102B40000023A0FB0A01FDF7DBFAB5F812C0FB6811
:102B500020F07F40F06022460221012040F2E2484E
:102B600008FB0CF8A3F5877502F0FEF8484607F05D
:102B700057FA021DD2B2404B00920121204603F0C9
:102B800035FD2346032201210094204603F02EFD4B
:102B9000304607F015FE069640F2C923BF68374A53
:102BA0000893374B07920593F368049388FB0A89CF
:102BB00000F1050C2EA3D3E90023404649465FFAF5
:102BC0008CF60394FDF79CFA104619464FF47A727E
:102BD0000023FDF795FA26A3D3E90023844649464E
:102BE0004046CDF808C0FDF78BFAA5EB0B058446EF
:102BF0001FA3D3E90023A5FB0A01CDF804C0FDF70C
:102C00007FFA313F20F07F403B460090324620461D
:102C1000012103F07FFC30F0020304D0194840F298
:102C2000CA2100F053FF01221046022102F09CF855
:102C300011B0BDE8F08F9DF83030237767E711F0D1
:102C400056FFBAF1FF0F04F1250304F11F0B7FF4C7
:102C50001BAF18460622002111F049FF9DF83430C1
:102C6000A3770EA95846062211F016FF1CE700BFF5
:102C70008D49FD1A0700000009D400000DD40000A2
:102C800021D40000F85E010000CA9A3B0000000059
:102C90002DE9F04F91B00446079090F93D00E468AB
:102CA0000B940028B8BF1434CDE9091205934FF0F6
:102CB000FF024FF00003B8BF0B94DDE91A7BCDE9AA
:102CC0000D3390461E468DF8332006921C469A46D8
:102CD00004931D4641E09DF83300FF2859D0B8F118
:102CE000FF0F09D00E9B534506D099484FF4BB7196
:102CF00000F0ECFE9DF83300831E122B00F29A8048
:102D0000042840F2A480069BFF2B40F08F800538FA
:102D100080B207F05DFD079B834200F08B8009992C
:102D200090F93D203B78002940F09F80002A12DB7B
:102D3000C268DDF83490DDF82480283208920A9ABF
:102D400012684A45C0F0A080089ADDF838A09DF8C6
:102D5000338004924D469C426FD20FAB02937D4B61
:102D600001930DAB022100930DF133020EAB002055
:102D70000F9103F081FC02286CD00F9B002BAAD08E
:102D8000734840F26D1100F0A1FE9DF83300FF285A
:102D9000A5D10A9B1A683B78954238BF1546A342D5
:102DA00042D9049BDFF8B481EB18A3FB0801072686
:102DB00006FB031164A3D3E90023FDF7A1F9664BD9
:102DC000A3FB0020059AC0F38F218A424FEA90208E
:102DD00040F2A9800FF2701ADAE9009A06930CE02B
:102DE000FDF78EF9069BA3FB0030059BC0F38F21F6
:102DF0008B424FEA902040F296800BEB440C0BF88C
:102E00001400090A8CF80110049997F800C00134E5
:102E1000283501EB050EE4B2AEFB0801A4454A4695
:102E2000534606FB0E11DBD80A9B1D603C7011B0A7
:102E3000BDE8F08F3B789C428FD39DF83330FF2B59
:102E4000F4D10A9B1B689D4238BF1D46ECE73B78D6
:102E5000069080E70F9B022B8FD10221002003F008
:102E600051FC0F9B022BF8D087E7002AC168DDF8E0
:102E700034904DDA01F13C0208920A9A12684A45F0
:102E80004FF01408BFF460AF954238BF15469C421E
:102E900037D2049B0B9A1A97134498441BE0FDF712
:102EA0002FF92D4B059FA3FB0030C0F38F26BE42A8
:102EB0000BEB440204F101034FEA16214FEA902084
:102EC00005F1280533D20BF8140051701A9A1278C4
:102ED000DCB2A24222D92946484603F02DFC049BCD
:102EE0001E4A2B448446C445A3FB02014FF007024F
:102EF00002FB03114FF0000A13A3D3E90023CED243
:102F00001A9F0A9B1D60059BB34215D93B781BE7AE
:102F100001F1280208924FF0000810E70A9B1A9F5F
:102F20001D603B7810E70A9B00251D607EE70A9B29
:102F30001A9FC3F800A055469DF83330FF2B7FF44D
:102F400075AF26E7AFF3008000CA9A3B000000008F
:102F50003C5F01002DDA00005917B7D18D49FD1AE9
:102F60002DE9F04F8FB01C4609934FF0FF0A002364
:102F70000431DFF8F890DFF8F8B0236004930446DA
:102F8000089115460C9305938DF82FA00DF1340888
:102F90000CAF0226CDE9019800972B460DF12F02C8
:102FA000214600200D9603F067FB022830D00D9BD0
:102FB000002B33D19DF82F00FF2837D00538C3B23E
:102FC0000F2BE7D880B207F003FC0028E2D090F97D
:102FD0003D30002BDEDBC3680C9ABAF1FF0F03F122
:102FE00004030CD0059907931046069203F0A4FB46
:102FF000049B089A99188842DDE9062319D8CDE97F
:1030000004329DF82FA0C5E72146002003F07AFB8B
:103010000D9B022BF8D00D9B002BCBD05846522194
:1030200000F054FD9DF82F00FF28C7D1BAF1FF0F23
:1030300010D0DDE904320C481344A3FB0001072241
:1030400002FB031106A3D3E90023FDF759F8099BFE
:10305000803018600FB0BDE8F08F00BFAFF3008084
:1030600000CA9A3B000000008D49FD1A2DDA0000CD
:103070003C5F01000000000070B51C4682B01546A0
:10308000064601AA02200195FFF76AFF23680BB3E9
:103090000198431B1B021FD4294603F04DFB1A4B1A
:1030A0000246A0FB0301072303FB021114A3D3E98B
:1030B0000023FDF725F8226802442260002A09DB7C
:1030C00040F2E24101FB06F0904203D2121A904214
:1030D000FCD3226002B070BD0146284603F02CFBF1
:1030E000094B0246A0FB0301072303FB021104A3C3
:1030F000D3E90023FDF704F82268121A2260DDE705
:1031000000CA9A3B000000008D49FD1A0000000033
:103110002DE9F041B0F8802188B0054640F2E24345
:10312000454805AE03FB02F3002783FB000106249C
:103130003FA3D3E9002377600597B7608DF80F4070
:10314000FCF7DEFF0DF10F020196B5F87631009223
:1031500004460121284604AA0494FFF799FD9DF82E
:103160000FC00CF1FF34E4B20DF11603394603EB46
:1031700044042F4605F10C0E4FF6FF7097F881318D
:1031800097F8802142EA03220FFA82F8BCF1000F7F
:1031900009D03346824203D01988914217D00121C9
:1031A00002339C42F6D10237BE45E7D1F1B9BDF8F2
:1031B0001430D5F8F01040F2E24202FB03F2180A94
:1031C000C5F810210B70487008B0BDE8F081D5F843
:1031D000F01040F2E24303FB02F3120AC5F810318B
:1031E00081F800804A7008B0BDE8F08195F8E820C9
:1031F00095F8703185F8E92085F871310AF058F8B2
:10320000D5F8F03013F8052C03252A4311240F209C
:10321000202103F8052C03F8045C03F8024C03F8A2
:10322000010C197008B0BDE8F08100BFAFF3008059
:103230008D49FD1A0700000000CA9A3B00000000FB
:103240002DE9F04F83B004460EF094F910F0FF0F13
:103250000AD10CF017F8A04821460EF041F803B04F
:10326000BDE8F04F0EF058B90EF0A4F95FFA80F8FF
:103270000EF02AFAC6B20EF031FA07460EF07CFCC8
:10328000C5B20EF067FC82460EF0E6F981460BF0FF
:10329000F9FF002E40F0AB80002D40F0BA80FF27F0
:1032A000B8F1000FD7D0A37D190700F1A880002E38
:1032B00040F0E781012006F051F98046002800F037
:1032C000F781A3685FFA89F6002B00F0D680A37D12
:1032D0001A0740F1E28198F81C0010F00F0340F04B
:1032E0009E8098F81D30252B00F2A481042006F062
:1032F00035F90028AFD00EF033FBA36A814643B9FD
:10330000E28C40F2712303FB02F3B0FBF3F203FB08
:10331000120923687148DB680722A3FB000102FB46
:1033200003116BA3D3E90023FCF7EAFEA0F24233BA
:103330004B4590D30EF06AF9D4F808A00EF048F986
:1033400098F81C200178C2F38012D20101F05001DC
:1033500042F025020A43222102704170834638461A
:103360000BF046FBE27D0090D20701460BF1020014
:1033700040F1AD81002900F0AA819BF8002042F0C5
:1033800040028BF80020062211F086FB062208F18D
:103390001E010BF1080011F07FFB04220AF1080165
:1033A0000BF10E0011F078FB03220AF10C010BF176
:1033B000120011F071FB0122BAF812308BF81520BF
:1033C00001930EF0CDFAD4F8109000F5DB62B9F15C
:1033D000000F00F0A281019B40F2E24101FB03F1EA
:1033E000B9F1000F01DB4A457AD98944F8E7A07D9D
:1033F000F9B2C0F3C0000BF019FB074650E7002EEE
:103400007FF458AF38460BF083FB00287FF452AFAF
:1034100021E75FFA8AF00BF049FB074640E7012BF2
:1034200040F0E08098F81D300C2B7FF414AF08F1C9
:103430002409C00949463A460BF000FC00287FF4F5
:1034400055AFE37DDB0700F1CE81A37D98F81C002A
:10345000C3F38012B2EBD01F00F0FF81C3F3C103AE
:1034600098070AD598F91C30002B06DA98F829300D
:1034700003F0C003402B3FF439AF98F81C0010F064
:103480000F0340F0AF8098F81D30252B3FF6E3AED8
:1034900094F91620002A03DAA268002A00F0548169
:1034A000252B98BF4FF0000900F2C480002B3FF499
:1034B000D2AEA368002B7FF4CEAE002D14BF3946E8
:1034C000FF214A4630460CF0DBFDC4E6AFF3008036
:1034D00000CA9A3B000000004DFE00008D49FD1A15
:1034E000CF489BF81510A9EB0202A0FB0232C2F3F1
:1034F0008F220131ABF816208BF81510BAF81200A4
:10350000BAF81410A28AABF81C20ABF81800ABF87C
:103510001A1005220AF11C010BF11E0011F0BCFA71
:103520009AF822109BF8232061F304028BF82320E1
:103530000CF068FE9BF8232060F347128BF82320E1
:1035400058460DF0BBFF0EF00BF8002840F0EB8062
:10355000B44821460DF0C4FE002E40F0F0802279E0
:1035600042F00101D307217100F1E38006F014F865
:103570000A22064602714FF6FF7298F81C80C2803C
:10358000594624221C3011F087FA337FB460C8F307
:10359000401868F3451333770EF086F90021306147
:1035A00008460DF09BFF002D08BFFF27B776E27D90
:1035B000A9EB000012F00102706103D0009B1A1EFB
:1035C00018BF0122737E62F30003737605F0E4FFF7
:1035D0003146F060306805F0F7FF03B0BDE8F04F0A
:1035E00006F002B8062B69D0022B6DD0012B21D139
:1035F00098F81D300C2B7FF42EAE08F1240AC00978
:1036000051463A460BF01AFB8146A8BBA37D98F8B9
:103610001C00C3F38012B2EBD01F00F0EB80C3F3A9
:10362000C103980704D598F91C30002BC0F2EB8039
:1036300098F81C0000F00F0004287FF40CAE98F8F6
:103640001D30252B3FF607AEA37DDA077FF503AECD
:103650000DF0BEFF98F81C300278C3F38013B3EB73
:10366000D21F7FF4F8AD0830062208F11E0111F0D8
:1036700003FA00287FF4EFAD98F81D304FF00009F1
:1036800014E7394628460BF073FA00287FF412AE8F
:10369000A37D1B077FF5DFAD0CE6FF2F26D0237E31
:1036A000DB1BB3FA83F35B09002B7FF414AEE4E673
:1036B0005D4840F2972100F009FA02E698F81D30C3
:1036C000252B7FF6E5AEB5E798F81D30E8E6A27D3C
:1036D0009BF80010C2F3801262F386118BF8001081
:1036E000062204F1190111F0D7F94FE698F81C00F1
:1036F000C3F34013C0F3801293427FF4C0AE06229E
:1037000008F11E0104F11F0011F0B6F9B0FA80F3C0
:103710005B09002B7FF4DFADAFE68BF816908BF8DA
:1037200017909146EAE640484FF4447100F0CEF914
:103730000EE73D4840F2363100F0C8F916E70DF0CB
:103740007DFF8AF8A5000AE796200DF0DDFF002036
:103750000DF042FF002D14BF3946FF2130460022F4
:103760000CF08EFC00287FF476AD0DF031FF98F858
:103770001C300278C3F38013DB01054602F07002AF
:1037800043F0030313430C222B7038466A700BF08E
:103790002FF9E37DDE0701464AD5002848D02B7873
:1037A000284643F0400300F8023B062211F074F96A
:1037B00008F11E01062205F1080011F06DF92846F6
:1037C0000DF07CFE0DF0CCFE002840D10EF0C0F8CC
:1037D000A37D164843F001032146A37503B0BDE85D
:1037E000F04F0DF07DBD38460BF002F900287FF454
:1037F00044AE2AE65146062204F1190011F03CF9C4
:10380000B0B3A37D0BE798F8293003F0C003402B39
:103810007FF40EAF98F81D304FF0010946E600BF67
:103820005917B7D1210001005C60010069FE00005A
:10383000A37D2A78C3F38013284663F3861200F829
:10384000022B04F11901062211F026F9B0E70A480B
:1038500040F2913100F03AF9B8E74946062204F106
:10386000190011F009F900283FF440ADA37DF5E5FA
:1038700098F81D301AE600BF5C60010038B5094DAC
:103880004FF0FF324FF0FF33284611F0E7F90446BE
:1038900001F084F910B120460EF0DCFB10F0C0F806
:1038A000EEE700BFE006002010B50F480F4C0FF008
:1038B000C7FC206098B110F0B6FC206810F0A8FC9E
:1038C0002068836823B19B6C13B109490022984793
:1038D000206883689B6A2BB19847002010BD6FF069
:1038E0001500FBE71846F9E7E8650100F00A00203B
:1038F000F53800002DE9F04F6B4D286883685B6B4D
:103900008DB043BB286810F088FC286810F085FC57
:1039100068B1664E336834460BBB6548002200230D
:1039200011F09CF93060D0B9286810F071FC28685B
:1039300083685B6B002B60D0984700285DD0DFF870
:1039400084A15C4E57469AF80030032B55D8DFE827
:1039500003F01D30799B98470028D6D1D2E728681C
:1039600083685B6983B121688A89896898470146C1
:103970002068083011F0B5F920688689002ED6D16C
:103980000EF068FB2660D2E71946F1E74A4C28683A
:103990000122214610F036FC78B323785A1E012A02
:1039A000D1D8012B0CBF03230423336001233B70C8
:1039B000C9E7DFF80491326899F80030DFF8FC803D
:1039C0002868012B0CBF03210421891A414410F0FF
:1039D00019FC33681B1A04463360002B50D10123B5
:1039E000CDE9009300220023062001F07BF8DFF8E8
:1039F000D8B0CBF8000018B938700DB0BDE8F08F22
:103A000099F80030CBB998F802203260012B0CBF36
:103A1000032204222949083011F051F9DBF8000093
:103A2000083011F06EF93368984209D2DBF80000D3
:103A30000EF010FB03233B7022E0B8F80220E4E70D
:103A40000223F8E7DFF880803268D8F80030286871
:103A500099899B68194410F0D5FBD8F800108B8920
:103A600003448B813368A3EB00080446C6F800804A
:103A7000B8F1000F04D1124811F00EF987F8008058
:103A8000002C7FF460AFB8E732682868212A28BF8D
:103A9000212203A910F0B6FB33681B1A04463360D9
:103AA000002BEDD1C7E700BFF00A0020EC0A002090
:103AB000F8060020F40A0020974A0020924A0020CD
:103AC000E0060020964A0020E80A0020F8B50546E6
:103AD0000F464FF02002EFF3118382F31188BFF3FA
:103AE0006F8F234C206810F09EFB206810F090FB35
:103AF000002D36D12E462068042110F099FB206855
:103B0000FF2110F095FBB11D2068C9B210F090FBA9
:103B10002068AA2110F08CFB36B1013D15F8011F79
:103B2000206809BB10F084FB2068F9B210F080FB1C
:103B30002068C7F3072110F07BFB2068C7F307411B
:103B400010F076FB2068390E10F072FBFEE70133AF
:103B50002F2A08BF1E46EA5C002AF8D135449E1B76
:103B6000C9E700263346F6E710F062FBD6E700BF50
:103B7000F00A002070B5184888B001F015F800224E
:103B80000023CDE9062300236FF00802CDE90323CB
:103B9000CDE9013300931149114B12484FF4806273
:103BA00010F04CF810490F480B4D104E104C11F00E
:103BB00005FD4FF0FF324FF0FF33284611F04EF86D
:103BC0000146304611F068F820688368DB69002BF5
:103BD000EFD09847EDE700BFC8060020E04E002078
:103BE0007D38000088070020EF650100F8060020FE
:103BF000F00A00202DE9F84FB0F8189019F00808E5
:103C0000044693460DD001290CBF49F0100949F034
:103C10002009A0F818908BF31188BFF36F8FBDE8CF
:103C2000F88F09F00709022907D1204610F030FB70
:103C30000028F0D00128238B50D16769218B002FF9
:103C400015DA256821F00701C4E9008841F0010177
:103C500021830026218B01F0070ACA4502D0A36800
:103C6000002B5CD10DB9002E74D0002358E001F078
:103C700007035A1F012A20D821F00701062B2568C7
:103C800089B2C4E900880CD1002D2B4638BF00232F
:103C90002BB1628B1B6801326283002BF8D141F09B
:103CA00002012183204610F0F3FA06460028D1D005
:103CB000238B43F020032383CBE7042B0CD121F08B
:103CC000070189B22183204610F0E2FA0546002858
:103CD000BFD041F0200121830025BAE7032809D194
:103CE000226923F00703166843F0060323830025A7
:103CF0002F46AFE7042806D1226923F00703566850
:103D000043F00403F2E7052806D1226923F00703F4
:103D1000966843F00503E9E700252E46E8E701230E
:103D200041F0080121838BF31188BFF36F8F03BB30
:103D3000002D33D116B121492046B0474FF0200362
:103D4000EFF3118B83F31188BFF36F8F238B23F075
:103D500008032383238BDA0628D523F0100323835B
:103D60000121B4F8189009F0070900297FF45BAF2E
:103D700051E7A1680029DBD00B68D1F804B0002B13
:103D800038BF0023994652463B462046D847B9F1F2
:103D9000000FCDD0D9F800304946EEE729463B4622
:103DA000524620462D6810F08FFAC1E713F020012B
:103DB0001EBF23F0200323830221D2E7F542010036
:103DC0000E4A70B5841AA3100D4C5C430546E4B24C
:103DD0000C2000FB04200E464021084410F08EFD0C
:103DE000011E05DB074B03EBC40463689847002101
:103DF00028463346BDE87040184700BF080B002036
:103E0000B76DDBB62C5C01002DE9F041104E841B30
:103E1000A310104C5C43E4B20C256543804605F1C9
:103E200040000F463044402110F081FD011E09DBA7
:103E3000094A7319C3E90E27084B53F83430BDE81B
:103E4000F041184740463B46BDE8F041184700BFE7
:103E5000080B0020B76DDBB6914901002C5C010016
:103E6000002270B501210446104600F0F9FA002046
:103E700000F0C4FA0F480FF0E9F80F4B984215D143
:103E800011F031F9E6680D49304610F050FA00287B
:103E90000BDB01253564E468084904F11C0010F0CF
:103EA00046FA002801DBE564002070BD6FF00400D5
:103EB000FBE700BFF53E00000000AD0B3C5C0100DD
:103EC00001460C2309484B4370B5C418D4E90E567B
:103ED00000224033A263184410F047FD2DB1324652
:103EE0002B460348BDE87040184770BD080B002002
:103EF0001406002010B1012804D07047034B1B6C3E
:103F00005B0701D1FFF7DCBF704700BF080B002043
:103F100008B54FF02003EFF3118183F31188BFF34D
:103F20006F8F124A136843F0020013F00103106010
:103F30000CD04FF08042D2F80C34D2F80C2413F09D
:103F4000010303D00A4810F010FD012381F311880A
:103F5000BFF36F8F23B1BDE808400020FFF7B0BF6B
:103F6000BDE8084001200FF081B800BF580B0020C9
:103F7000480B0020094BBFF35B8F53E8002F22F062
:103F8000020143E800100028F7D1BFF35B8FD3078D
:103F900002D401200FF09CB8704700BF580B0020DE
:103FA00010B58AB000230122CDE90632019308AA98
:103FB0000A4BCDE9082204AC01AACDE90444CDE9BD
:103FC000023410F00BFD002805DB4FF48042002383
:103FD00020460FF0BFFD0AB010BD00BFA34901008D
:103FE000024AC3B21C2003FB00207047080B0020CC
:103FF000094BBFF35B8F53E8002F42F0010143E808
:1040000000100028F7D1BFF35B8F930702D4012083
:104010000FF02CB8704700BF580B0020094BBFF3BE
:104020005B8F53E8002F22F0010143E800100028C5
:10403000F7D1BFF35B8F930702D401200FF048B88C
:10404000704700BF580B00202DE9F8433A49BFF3F1
:104050005B8F0646012251E8003F41E8002000281E
:10406000F9D1BFF35B8F33B9344935484B60CB602E
:104070008A6010F06FF9731E012B32D8012E07D120
:104080004FF08043D3F81C3403F00303012B28D0F6
:1040900011F08CFA044618B92A4B1B78002B44D136
:1040A0004FF02003EFF3118583F31188BFF36F8F77
:1040B0000124254FDFF89480DFF894904FF0804280
:1040C000D2F81834D2F81824D2030CD503F0030325
:1040D000012B01D0012E06D10CB385F31188BFF35B
:1040E0006F8FBDE8F883ACB1284600F043FA4FF07B
:1040F0008042D2F81835002BE0D139680029DDD094
:104100003B603B680123C2F81835C8F88031C9F814
:104110000030D3E7002121200FF0D0FCE7E74FF07B
:1041200080430222C3F80423DBE74FF080430222DE
:10413000C3F808230546BCE75C0B0020F80A002002
:10414000240B0020DC4E00200401004000E100E0D0
:1041500008000040821C084B22F07F42C3F8402533
:10416000D3F80425904200D17047D3F80405821C8F
:1041700022F07F42F2E700BF00100140074B00220F
:104180001A601B68064A074BD3F840051368C01A2B
:1041900020F07F40034413600FF014BF4011014032
:1041A000600B00200010014038B5104D104B00246A
:1041B000C5F808451C601B680E4B4FF40032C3F86D
:1041C00080214FF48033C5F80433224601211120A9
:1041D00000F046F9112000F011F9074A012313609D
:1041E00002202B60FFF730FF204638BD0010014051
:1041F0004011014000E100E008100140F8B52B4BF0
:104200002B4C1968D4F804252A4D521AB0F1FF3FFF
:1042100008BF284622F07F43120236D4013820EA34
:10422000E070A842A8BF284601331844A84294BFB2
:104230000D184D194FF48031C4F80813D4F8042533
:10424000D4F840351C4E00279B1A376023F07F437B
:104250003068012B22F07F40C4F84005C4F84413B5
:1042600004D10F2011F0A8F937603368134B4FF4D5
:104270000032C3F88021D4F804052B1A23F07F43C1
:10428000012B04D1FFF766FF0BE00020CCE725F0FF
:104290007F43C4F84035D4F804052D1A023D2B02A3
:1042A000F0D44FF48033C4F80433F8BD600B002021
:1042B00000100140FFFF7F004011014000E100E0DD
:1042C0004FF02002EFF3118382F31188BFF36F8F59
:1042D000064AD2F80405064A1268801A20F07F4088
:1042E00083F31188BFF36F8F704700BF0010014048
:1042F000600B002010B5114C114AA2610323C4E9E0
:104300000433104BE36122664FF480630E4A0F4979
:104310002362626600231022E01DA3626362E362EF
:104320002367E3666367A26610F090FB08492046A6
:1043300010F08CFB2023A37110BD00BF640B002084
:1043400014660100A84A0020984A00201D6601005A
:1043500021660100094A0A4993680968D967094931
:1043600098674B6843F080534B60002383F31188B8
:10437000BFF36F8F9368D86F704700BF484A002023
:10438000E465010000ED00E012498A684FF0380052
:104390001044EFF3098C80E8F01F202080F311888F
:1043A000BFF36F8F0C4F4FF000664A6A8A603E6021
:1043B000906F0023936780F3118804B5104600F0D6
:1043C0008DFABDE8044002F1380090E8F01F8CF34C
:1043D00009887047484A002004ED00E01EF0040FF1
:1043E0000CBFEFF30880EFF30980816911F8021C1C
:1043F0000229FFD001B510F01EFB01BD43B2002B16
:1044000008DB012200F01F0002FA00F05B09024AFB
:1044100042F82300704700BF00E100E043B2002BE8
:104420000DDB01225B0900F01F0002FA00F02033CF
:10443000034A42F82300BFF34F8FBFF36F8F7047DB
:1044400000E100E0054B420900F01F0053F8222074
:10445000012303FA00F01040704700BF00E100E0C4
:1044600043B2002BA8BF03F1604301F10101B8BFC3
:10447000064B4FEA4111ACBF03F5614300F00F005A
:10448000C9B2B4BF195483F80013704714ED00E0AB
:1044900008B572B6044B186A18B100221A6210F0FF
:1044A00055FE62B608BD00BF484A002042F8203CD5
:1044B000009B42F81C3C0A49019B42F8183C029BB5
:1044C00042F8143C21F001014FF0807342F8043CA3
:1044D00042F8081C0023203A82658367704700BFBA
:1044E000314401000B4A0346906890B113F1160F56
:1044F000806E05D0A0F120029A4206D8834204D2F1
:1045000081422CBF0021012100E00021002908BFC9
:1045100000207047484A002008B504460E4615465C
:1045200000F0C0F9084B20469C6000F0D7F92846FF
:1045300086F30988002163B681F31188BFF36F8F7A
:10454000002200230FF074FF484A00200149102286
:104550000A60704710ED00E072B6404080F31188A9
:10456000BFF36F8FBFF34F8F30BF62B6BFF36F8F54
:10457000704700BF72B6494081F3118820BF80F3B5
:10458000118862B6704700BF30BFFFF7FDBF00BFA4
:104590000E4A08B50E4B22F07F029A60BFF34F8F90
:1045A000BFF36F8FD3F8882022F47002C3F88820FD
:1045B000EFF3148323F0040383F314880EF082FED8
:1045C0000EF08AFE00F036F90EF0B8FE0000000092
:1045D00000ED00E001B572B60B4A106A00281EBF5C
:1045E0000021116210F0B2FD62B6EFF30580A0F178
:1045F00010004FEAC0000549014409C99847BDE8C9
:104600000140034908470000484A0020785A010049
:104610001948000010F08EFA202080F31188084815
:104620004FF40261401880F30988EFF314800221EF
:10463000084380F31488BFF36F8FFFF7A9FF0000D2
:10464000805C0020EFF30880EFF3098101B572462A
:1046500000F064F801BD00BF38B5174B14469A6AE4
:104660009A6A9A6A0546900716D5586B9A6A120696
:1046700004D519B19A6A22F080029A629A6A9A6AFB
:104680009A6AD2060BD400200B4A936A43F0FF03C8
:1046900093620023237038BD6FF01500EEE75B686E
:1046A0001B05F0D52946FFF71DFF0028EBD080F34E
:1046B00009880220E8E700BF00ED00E00D4B9A6A90
:1046C0009A6A9A6A920508D59A6B9A6A120404D576
:1046D00018B19A6A22F400429A62064B9A6A9A6A60
:1046E000D20558BF9A6A9A6A002042F47F429A62C1
:1046F0000870704700ED00E0074B9A6A9A6A9A6A60
:104700009A6A9A6A9A6A9A6A6FEA02426FEA12424F
:104710009A620020704700BF00ED00E070B5374B93
:104720005B688AB00E46C3F30803002585F3118841
:10473000BFF36F8F02F07F41B1F17F4F11D102F0D3
:104740000C0108290DD0110701D4064601250022CD
:10475000033B8DF80720032B48D8DFE803F0043F24
:10476000433C2E46F3E7254BDA6A92073ED4DC6AD7
:1047700014F0804409D028331B78F3B10DF10702FF
:1047800001213046FFF768FF04469DF8073093B9D2
:104790002022314602A810F07FF9099B45B3C3F3EC
:1047A000080222B96FEA53236FEA4323099302A94F
:1047B000204610F03EF90AB070BD114B1B782BB1AA
:1047C0000DF107010120FFF779FFDDE70D4B188898
:1047D00084B2002CD9D0FFF78FFFD5E70DF1070287
:1047E0000021CEE70DF107010020ECE70024CCE723
:1047F00023F4FF7323F00103D8E700BF00ED00E0CE
:1048000029ED00E02AED00E0024A536943F010036D
:104810005361704700ED00E0044B9968586A884284
:1048200003D003494FF080520A607047484A002085
:1048300004ED00E0044800232021C2180133302B8E
:1048400082F80013F9D1704700E100E010B504468A
:104850000EF0FCFF114B9B68A34207D1EFF30583D9
:1048600083B10F4A536843F0805353604FF02003E5
:10487000EFF3118083F31188BFF36F8FBDE8104011
:1048800010F0B2BD4FF02003EFF3118083F31188D5
:10489000BFF36F8FFFF75EFDE8E700BF484A0020D7
:1048A00000ED00E01FB5084B0193084B0293084B45
:1048B000039301AB0093074A074B0121684600F0C0
:1048C000A7F805B05DF804FB000000200000000020
:1048D00000000B0600000020000004201FB5836EBE
:1048E000203B0193064B2022CDE90223012101AB9D
:1048F0006846009300F096F805B05DF804FB00BF31
:1049000000000B15DFF884C0F0B5064600271046FE
:104910008F4200DBF0BD56F827E0DEF8044094B388
:1049200043B1651E2C4219D11F2C17D9DEF8002087
:10493000154213D1202CC2B2DEF80050DEF8080078
:104940000FD9B4F1004F0ED8013CB4FA84F4C4F18D
:104950001F046400072A44EA000406D96FF015001A
:10496000D8E70824F6E73E24F4E725F01F051543B1
:1049700045F0100544F00104CCF80820501CCCF898
:104980000C50CCF810400137C2E700BF90ED00E0BA
:10499000034B05225A60BFF34F8FBFF36F8F7047F1
:1049A00090ED00E0BFF35F8F014B00225A6070472B
:1049B00090ED00E013490868082810B51ED8FFF7ED
:1049C000F1FF114C49680022904201F10C0105D120
:1049D0000E4B1870FFF7DCFF002010BDA26051F8ED
:1049E0000C3C23F01F03134343F01003E36051F822
:1049F000043C43F0010323610132E5E74FF0FF304F
:104A0000EBE700BF485C010090ED00E0A84E0020FD
:104A100010B5034C01232278FFF774FF207010BDFE
:104A2000A84E002008B5084A00231278FFF76AFF55
:104A300010F1160F03D0054B0022072800DD08BD3A
:104A400098601A610130F8E7A84E002090ED00E070
:104A50004FF02003EFF3118283F31188BFF36F8FC0
:104A600006490123C1F840354FF08041C1F878353F
:104A700082F31188BFF36F8F0020704700E0014080
:104A800020B1034B800143F001031847704700BF7A
:104A9000105C0100074A0346106828B9D96831B193
:104AA000196921B1136070476FF0440070476FF0CF
:104AB000150070470C0C002070B500F0FD06012EAB
:104AC00005460BD1064810F0C4F8044620B1314623
:104AD000083010F0DDF82575204670BD0024FBE796
:104AE000600700202DE9F0410228DDE90667044651
:104AF00029D0062802D040B300251EE014490978C9
:104B00000129F9D13478012C1AD0022CF4D11148A2
:104B10000136013F10F09DF805460028ECD000F169
:104B200008080121404610F0B3F82C752EB127B1CA
:104B30003A463146404610F0C2F82846BDE8F081BA
:104B400005480024E4E70348E4E70348E2E700BF40
:104B500010060020100700203807002010B50D4B6C
:104B60001B78012B04460CD1037D012B04D0032BB1
:104B70000ED06FF0150010BD042104F1080010F0F4
:104B8000A7F8054B2146186810F086F80020F2E7D8
:104B90000221F2E710060020100C0020014B1B68D8
:104BA0001B6918470C0C0020044B054A1B68106059
:104BB0000BB1DB6818476FF0120070470C0C002037
:104BC000100C00202DE9F0411446C21D22F0030212
:104BD000671EBFB2186082B005460E4601FB070093
:104BE0001480002104220FF082FFB7B1023CA4B26E
:104BF00004FB066304FB06F71D44FF1A4FF6FF781B
:104C00000422013CE8190DEB0201A4B201950FF05A
:104C100043FF4445A5EB0605F2D102B0BDE8F081A3
:104C200070B5056882B095B1EB1D23F00303042233
:104C3000044629460DEB02001E880FF02DFF019B54
:104C400023B1DA1D22F00302013E168023602846BC
:104C500002B070BD0B6870B50C46054683B10733D2
:104C600023F003031E880136B6B2042221462846EB
:104C70000FF012FFEB1D23F003031E80256070BDB3
:104C80000126F2E702FB0100704700BF401A80B224
:104C9000B0FBF2F0704700BF531E11449BB242B10B
:104CA000DB43CA18013811F8013D00F8013F914279
:104CB000F9D17047014402E010F8013B1BB988426A
:104CC000FAD1002070470120704700BF10600860D3
:104CD000704700BF0A6803460068904205BF002283
:104CE0000A6000201A60704710B4146820601468CD
:104CF000616010BC10607047884203D01AB14368ED
:104D000013607047002070470B68834209D02AB1B6
:104D1000586810601A680A6018467047002BF9D16D
:104D2000FAE70023F8E700BF2DE9F041DFF834800F
:104D30000B4E0C2706F130044546221D214628461D
:104D40000C3CFFF7C3FFB442A5F10805F5D1043FC1
:104D50003B1DA8F12008A4F13006EBD1BDE8F0819D
:104D60001C0D00208C0C002030B403460C469AB178
:104D700001EB41010801144D03EB430100EB8101FC
:104D80002944487A0D7AA84204BF013008722146AE
:104D9000184630BC0CF004BF01EB41020A4D120171
:104DA00000EB400302EB83032B449D7ADA7AAA429C
:104DB00001D030BC7047054D01329A7201236B540B
:104DC00030BC0CF033BF00BF980C0020940C0020C6
:104DD00070B51C4606460D4622B363782278D21A77
:104DE00012F0030205D0012A40D00133DBB2237058
:104DF0000FE03022042112FB05110C2212FB0612D7
:104E000001331B496068DBB20A4423702146FFF777
:104E10006BFF184B3046012229465A550CF006FF0D
:104E2000002070BD0CF0E4FE0028D6D029463046A4
:104E30000CF0CAFE0028D0D005EB450211010C4849
:104E4000637806EB460201EB82020244917AD27A41
:104E50009142C3D12278D21A920702D00233DBB238
:104E60002370D4E902039847002070BD104670BD3E
:104E7000980C0020940C00204E490B5C002B00F095
:104E800098802DE9F04F4C4B4FF03C0B87B000223F
:104E90000BFB003B0A5400EB40070BF104010392AB
:104EA00003EB071701924FF0030988460290002395
:104EB000D7E9090105AA0593FFF71EFF07F12406AC
:104EC0008346002834D0059C25786378ED1A05F0D8
:104ED0000305012D06D1013B6370D4E90203984715
:104EE000059C637894F800C0B86AACEB030303F048
:104EF0000303012B4FF0000231465FFA8CFA0DD00C
:104F0000FFF702FF62782378C4F804B09B1A03F01D
:104F10000303012B84F801A044D0B86A014605AA16
:104F2000786AFFF7E9FE012D834629D00028CAD10F
:104F300097F82E3097F82F209A4203D087F82F3019
:104F40000123019397F82C3097F82D209A4203D033
:104F500087F82D300123039309F1FF395FFA89F9AE
:104F6000B9F1FF0FA7F10C07A1D1DDE9013AB3B107
:104F7000039BA3B91A46514650460CF011FE0EE0B1
:104F8000B9F1000F01D10028D2D0DDF808A0094AFC
:104F900001235146504602F80A300CF047FE07B094
:104FA000BDE8F08F6270214658464246FFF79CFEEE
:104FB000B3E77047940C0020980C0020A1B14B1E61
:104FC000DBB210B4411EC418002011F8013F3BB100
:104FD0005BB25A1E1340013013F0FF03C0B2F7D189
:104FE000A142F2D110BC7047084670472DE9F04F3E
:104FF000AD4D83B00446032701260421204609F065
:10500000FBFF6378E27894F802C020784CEA022C27
:1050100040EA03204FF0000840EA0C40C3464FEA44
:10502000DC3CC1461E234FF0010A1AE008F10101E1
:105030000E2BC9B25FFA83FC40F28A80CAB3944651
:10504000CE461C2B40F21D811B2B40F2F08019290B
:1050500039D088469246BEF10C0FF14633D0013B61
:1050600039D320FA03F202F001026245DED10AF1DF
:105070000102072BD2B240F2C480062A77D906FA81
:1050800003F2BCF1000F51D020EA0200CE464FF0EF
:10509000000C08F101010E2BC9B288BF0122D6D83D
:1050A000F14500F0A18019290DD088464FF0010A82
:1050B000D5E7CE460122052B75D9062A54D11929E8
:1050C0004FF0000CC5D1013306FA03F3BCF1000F19
:1050D00053D05B42184080EA050301930DF1040CA4
:1050E0000DF1080E00221CF8013B3BB15BB2591ECA
:1050F0000B40013213F0FF03D2B2F7D1F445F2D1E5
:10510000012A09D983B2B3EB104F4FEA104237D1CD
:10511000C3B2B3EB106F33D1013F17F0FF077FF439
:105120006CAF6FF00D0003B0BDE8F08F1043414647
:10513000CE464FF0010C8845ABD00E2B8BD8CE4518
:105140008DD141460EF1010E5FFA8EFE52467EE78A
:1051500009F1010EBCF1070F5FFA8EFE40F2948058
:10516000002A40F09A8001224FF0000C69E7BCF160
:10517000000F10D14146CE469FE7013B1843AAE7F6
:10518000C0F30721130A207000206170A270E37041
:1051900003B0BDE8F08F062A02D14146CE4658E75B
:1051A0004146CE464DE7BBF1000F0CD0BCF1040FD9
:1051B00083D8BBF1010F06D9BCF1030F3FF67DAFD9
:1051C000BBF1020F09D806FA03F210430BF1010BF1
:1051D0005FFA8BFB4FF0010CADE7062A3FF46FAF8F
:1051E00029B14FF0000C2FE74FF0010AAAE706FAA9
:1051F00003F2072B40EA020088BF4FF0010C9AD857
:10520000E4E7BCF1000F2AD00BF1010B062A5FFA8C
:105210008BFB1DD906FA03F220EA02004146CE4676
:105220000BF1FF3B5FFA8BFB4FF0000C83E701298A
:105230003FF60DAF06FA03F2BCF1000FD9D0072BF1
:1052400020EA020088BF4FF0000C3FF674AFE7E79A
:10525000A3D0B8F1000F0AD04146CE46F4E6062AA4
:105260000AD906FA03F210434146CE46AEE706FAE3
:1052700003F24146CE46E2E74146CE465FFA83FC62
:1052800019E70029D6D0DFE6002A3FF413AF0BF16F
:10529000010B5FFA8BFB9446D6E6012901D09446B8
:1052A000D5E601FA03F2CAE7D6BE898E2DE9F04FA2
:1052B000827F8DB001230492C377002A5BD1437FA4
:1052C000FF2B814656D00BF071FED9F8142099F8C7
:1052D0001C3099F81D60801AFF2B20F07F4B00F0E6
:1052E0003A81D9F818305B4594BF0023012301931C
:1052F000FF2ED9F800704FF0000866D0CDF8089066
:1053000006EB460607EB06143601A2685A455AD842
:1053100094F802A06378BE5DA3EB0A03DBB2012B15
:10532000ABEB020B90444CD1A06968B3019B002BFE
:1053300000F08D80E38B0393A36A3BB11A681AB126
:105340001A7A002A00F0F48000221A72039A94F864
:105350002C10013292B2E283002932D0A18B91420B
:105360002FD2002B00F0FA801A7A012A29D04FF0B0
:10537000010C0EE0C2770DB0BDE8F08FDDE909B891
:10538000DDF820A00B9E4C46A36A002B40D04FF0C6
:10539000000C00221A72E5685A600AF1FF33A3700C
:1053A0007DB1029B62695869616A2369A8EB0202B8
:1053B000104420F07F40BCF1000F39D04FF6FF724F
:1053C000A847FF2E9CD1DDF8089099F80B3099F88A
:1053D0000A209A420AD10132D2B2022A1CBF1346D5
:1053E0000493049A89F80B2008BF002309EB830378
:1053F000D9F82440C3F80C80002289F81F204B46BE
:10540000012204210320A4460DB0BDE8F04F6047FF
:10541000E5680AF1FF33A370002DD2D0029B6269C8
:105420005869616A2369A8EB0202104420F07F40AA
:10543000E28BA847A26900239A42019AE38318BF2E
:105440000122FF2E0192E3707FF45AAFBBE794F97B
:105450002D300593803397D0FF2E95D0E38BA28B10
:105460000393934228BF9B1A05996268CDF820A048
:10547000591A03FB02230693CDE909B80791334675
:105480000025A1460B9600922CE0009CAAEB080890
:10549000002C48D0069C0AFB0C8844458CBF4FF07A
:1054A00001084FF0000834BF4FF0010A4FF0000A26
:1054B000B14292F803B099F803200FD3934543D833
:1054C0001EF1800F40D0079AACEB0E0C944502DD24
:1054D000B8F1000F38D0059A724532D0FB5CFF2B33
:1054E0003FF44CAF1BB203EB430307EB03121B016A
:1054F000D2F808804544A842FFF440AF91690029E2
:10550000ECD0D18B968BD2F804A092F92DE0B14269
:105510008C4628BFA1EB060CBAF1000FB5D1009C58
:10552000D046002CB6D1DDF800A04FF00108BFE74F
:10553000A28B03998A423FF607AF4FF001021A721D
:1055400004E7BAF1000FC9D0DDE909B8DDF820A001
:105550000B9E4C46F0E6049B0193C9E6E5680AF110
:10556000FF33A370002D3FF42CAF029B60695A6992
:10557000616A2369A8EB0000104420F07F401DE71A
:10558000C27F002A40F01F862DE9F04F837AC17A4E
:105590008FB083464069059099424FF001008BF827
:1055A0001E0000F096800344DBB2022B08BF1346B6
:1055B0000BEB83028BF80A30D368059A0293D31859
:1055C00023F07F43CBF8143001230D939BF809306F
:1055D0009BF81D200692DBF80020DBF804100793EF
:1055E00004921A46013B0C91DBB2002A00F01583AD
:1055F00001EBC30600230893FF2301933746D946E6
:105600007B68079397F803C0BB78BA46079998461A
:1056100003EB430203EB8202581C634501EB820556
:10562000C3B200F082819AF80000984208BF0023BC
:105630008AF8023011F82220042A40F27481072AE5
:1056400000F286806978049C01EB410004EB0014B1
:105650000001A7780A906078C01B10F0FF0077D097
:10566000052A65D0012837D199F81DC0D9F8006006
:10567000BCF1FF0F17D00CEB4C00614506EB00109E
:1056800000F09080002301E0614570D0E64690F87C
:1056900000C0D0F80880BCF1FF0F0CEB4C00434475
:1056A00006EB0010F0D10026052AA66000F0268146
:1056B000677099F81C308B4222D0EB6A002028706A
:1056C000A8620BB1296B98479AF803C09AF8023088
:1056D0009CE70D92029279E704214B460122D9F80A
:1056E00024400846A0470C9A8AF8028057460123B6
:1056F000BA420893A7F1080300F01E811F467FE716
:10570000FF23072A89F81C3040F0DD816868D9F84A
:105710001430C21A140200F1CD8122F07F43029AA4
:105720001344D9F818209A4288BFC9F81830C4E742
:105730006E68002E96D1AE68002E93D1EE68002ED2
:1057400090D12E69002E8DD16E6936F07F4689D1B9
:10575000EA6A002101202970A862002A3FF456AFAE
:10576000296B90479AF803C09AF802304EE70EEB87
:105770004E07714506EB071716D00178D0F808C020
:105780003970FF2906D001EB410106EB0111886851
:10579000604488600CEB0306052AA66009D0A77850
:1057A000697885E707460023027889F81D202A7862
:1057B000E3E7D9F8147003970BF0F8FB029BA0EB1A
:1057C000070C2CF07F473B449E42804640F2A2806B
:1057D0006269F31A6668002E53D0A88A002850D058
:1057E000013880B29E42E18BA88225D206F1010BDE
:1057F0000B9211E000F1E87000F5D43000F5A570CF
:10580000DE46099A0139A3EB0E0389B2801A9E4243
:10581000E18360620ED2A88A884280F0B281D4E926
:105820000820DFF8D0E20992B14A86449645E1D8D3
:10583000B646E6E70B9AA88A884221D9206A0990E1
:1058400006F1010E0B9207E06062B346A88A0131AF
:1058500089B281425B4411D2099A606ADFF894B23E
:105860001044A34A83449345EED8A0F1E870A0F514
:10587000D430A0F5A5706062F346E7E70B9AE183A8
:10588000A083D5E9010EA66A03447244A360626155
:1058900036B1316821B1A0EB0E007060A368626977
:1058A0001CF4000F21D13B4493421BD99B1A0022C8
:1058B000A3606261E968A3692A690B44934288BFC7
:1058C0009B1AAA7D98BF0023A36102B1E270049BDA
:1058D0000A9A1946019B8B5463786A7801920133C6
:1058E0006370EAE6D21A0023E2E70399A1EB080706
:1058F00027F07F479F4213D2DB1BD5E7D9F81470FE
:1059000003970BF053FB029BA0EB070C2CF07F4797
:1059100080463B4461690B449A1B6261002359E74E
:105920003A44D21ADFE7984672E60C9A5746BA42D2
:10593000A7F108037FF4E2AE99F81D70069BDB1B0C
:1059400018BF012307930D9BCB46002B40F06D81C0
:1059500099F80920D9F80030D9F804100493531E9F
:105960000991DBB2002A00F0108101EBC3080D9B06
:105970000393D8F8043098F801600593019BFF2B3E
:105980005ED0DDF804A0049B0FFA8AF404EB440413
:105990004FEA041C03EB041413F80C3001930025A8
:1059A000FF222270DBF800709BF81D3007EB0C0023
:1059B0009342816818BF029211D193E0B1EB0C01C0
:1059C00006D1BEF81EE0B0F81E90F14500F2D68078
:1059D00017F802C00293BCF1FF0F77D0634603EBC8
:1059E000430C07EB0C1E4FEA0C12DEF808C08C4586
:1059F000E4D9029A8160FF2A03706CD18BF81DA054
:105A0000FF2B06D003EB430307EB0317BB68591AC0
:105A1000B960A37801336370002DAFD0EB6A039AAD
:105A20002A70AA6213B1296B002098476368002B83
:105A3000A4D1D5E90B23C4E90823019BFF2BA0D1F6
:105A400098F80230B3422ED0059F98F8000006EB7C
:105A5000460206EB8202013617F82210F6B2B04277
:105A600008BF0026042907EB82051AD195F801A08A
:105A7000049B0AEB4A0C03EB0C144FEA0C1C6178F4
:105A8000A378C91A11F0FF0136D0039B07F8223022
:105A9000EB6A0122AA6210460BB1296B984798F86D
:105AA0000230B342D1D1099A4245A8F108036AD025
:105AB00098465EE7029A1B1A23F07F439A428CBFF6
:105AC000D31A00232DE60BF071FA20E61A46816006
:105AD00080F800C0634612B202EB4202120107F8DE
:105AE00002A08DE707F80C308BF81DA091E700BFEE
:105AF000592B177F5A2B17FFAF8ADBF814E0686A1F
:105B00004FF6FF794F45D5E903232ED084F82C10AA
:105B1000A06262602362D5E906236868A2612A6AEE
:105B2000A783A0EB0E07C4E903323A02AB680CD49A
:105B300027F07F473B448BB1A360039B6362E38301
:105B40004FF001036161E3702AE7AEEB000222F03F
:105B50007F42934205D99B1A002BEDD119460023B1
:105B6000EAE7D31A19460023E6E74FF0010784F865
:105B70002C70A062626023620F46CCE7029A6146F5
:105B800038E70B9A58E69BF81D70069BBB4200F065
:105B90002483089B002B00F0468300239BF81D7094
:105BA0008BF81E30FF2F00F0CC83069BFF2B00F0FC
:105BB000E683DBF80030B94D07EB470703EB07132B
:105BC0000A279E680BF0F2F9DBF81430DBF8282086
:105BD000C41A24F07F440334B4422CBF1B199B1910
:105BE00023F07F448046204690470BF0DFF9A0EB7E
:105BF0000800A4EB080420F07F4024F07F44033029
:105C0000A04207F1FF3740F2F382002FDAD140F6CD
:105C10009A012846FDF75AFFD4E70D9B002B00F0B0
:105C2000F582079B0893FF2301930BF0BFF9DBF884
:105C300000309BF81D500393059BFF2DA0EB030044
:105C400020F07F4854D0DDF808A04FF000094B4603
:105C5000D146C2469846039B05EB450403EB04146A
:105C6000A3684B4500F2D88294F82C10A9EB0309E5
:105C70009844AAEB030A002900F03481E68B003E29
:105C800018BF0126DBF81820934225BF4FF0FF33E1
:105C90008BF81C30D31A0023A769CBF81830A26AFE
:105CA000606894F800C047B1637894F802E0A3EB11
:105CB0000E03DBB2022B00F043810023A3608BF8BC
:105CC0001DC0002840F0D6801AB1137A012B00F0D5
:105CD0001181A2786078801AC0B2012800F0C280D9
:105CE00062709BF81D50FF2DB5D1DBF80030039397
:105CF000DDE906409BF80920DBF804100991531EEA
:105D0000AC4218BF01200790DBB2002A00F0868168
:105D100001EBC308D8F8043098F801600593019BA3
:105D2000FF2B62D0DDF804A0039B0FFA8AF404EB8A
:105D300044044FEA041C03EB041413F80C300193E1
:105D40000025FF222270DBF800709BF81D3007EB66
:105D50000C009342816818BF049212D156E1B1EB56
:105D60000C0106D1BEF81EE0B0F81E90F14500F21D
:105D7000088117F802C00493BCF1FF0F00F0F58012
:105D8000634603EB430C07EB0C1E4FEA0C12DEF8E4
:105D900008C08C45E3D9049A8160FF2A037040F063
:105DA000E9808BF81DA0FF2B06D003EB430307EB24
:105DB0000317BB68591AB960A37801336370002DCB
:105DC000ADD04FF00002EB6A2A700022AA6213B134
:105DD000296B104698476368002BA0D1D5E90B23A7
:105DE000C4E90823019BFF2B9CD198F80230B342F1
:105DF00030D0059F98F8000006EB460206EB8202C1
:105E0000013617F82210F6B2B04208BF0026042966
:105E100007EB82051CD195F801A0039B0AEB4A0C05
:105E200003EB0C144FEA0C1C6178A378C91A11F02B
:105E3000FF0100F0A9804FF0000307F82230EB6A61
:105E40000122AA6210460BB1296B984798F80230DC
:105E5000B342CFD1099A4245A8F1080300F0DB8094
:105E6000984657E7236A002B3FF43AAF616A984798
:105E7000A27835E712B1137A012B3BD0E38B0A935A
:105E8000002B6CD1A38B667804939E46471C099720
:105E9000D4E908C200230B91774606E0985C010024
:105EA000013F8646791C734412D0DFF8D8E2B4492A
:105EB000624496448E45F3D8DDF824E0A2F1E872FE
:105EC000013FA2F5D432791CA2F5A5727344ECD13E
:105ED0000B996262002900F04B810A9A04990A44E6
:105EE000E28309E00E46CDE6A6608BF81DC00028CF
:105EF0003FF4EBAEA6784B460598DBF814206169B9
:105F000000EB0807B81A10F4000F0ED120F07F4004
:105F10000344994211D25B1A0021019A2270013682
:105F20006670A36061610195DBE6D21B22F07F42BF
:105F30009A4211D29B1A9942EDD3C91A0023ECE779
:105F4000002E7FF4BAAE12B1137A012BCCD08BF8AD
:105F50001C50CBF81870B0E61144C91AEEE74FF0A8
:105F6000000EA678CDF810E090E71A46816080F820
:105F700000C0634612B202EB4202120107F802A00F
:105F800011E7049A614607E7AF8ADBF814E0686A14
:105F90004FF6FF794F45D5E903232ED084F82C1016
:105FA000A06262602362D5E906236868A2612A6A5A
:105FB000A783A0EB0E07C4E903323A02AB680CD406
:105FC00027F07F473B448BB1A36000236362E383E8
:105FD0004FF001036161E370B3E6AEEB000222F023
:105FE0007F42934205D99B1A002BEDD1194600231D
:105FF000EAE7D31A19460023E6E74FF0010784F8D1
:106000002C70A062626023620F46CCE707F80C3068
:106010008BF81DA0D0E6DBF8003003939BF81D70D1
:10602000039E0023BA46BAF1FF0F10D0D1460FFAF3
:1060300089F202EB420206EB0212976A17B1397A33
:10604000012914D092F80090B9F1FF0FEFD1574613
:10605000002B3FF49AAD069ABA427FF49AAD089AA3
:10606000002A00F07C8100238BF81E309AE59BF813
:106070001C30FF2B71D0DBF81800029B83426CD2DE
:10608000C01AD7E90043A34292F800C06DD2BCF118
:10609000FF0FA4EB030468D09569AC424FF00003F6
:1060A00033D39E460195614603921DE0D1F80880E6
:1060B000A8F10403B8F1040F734409D9A342019A6B
:1060C00028BF2346934203D95B1B01D083421BD2D6
:1060D00088690978C6444044631B0EEB0502FF291A
:1060E000019211D094420FD301EB410106EB011153
:1060F000D1F82880B8F1000FD8D098F80880B8F10E
:10610000010FD3D10978E8E7039A936064464FF012
:10611000FF0E00E0044621B201EB410006EB00183F
:106120000001D8F808509D424ED25B1B9360305C52
:10613000FF28A646EED101EB410109018BF81DC0F5
:10614000735C137006F80190E246D38B013BD38356
:106150004FF0020201233A7265E7D7E90043A342F8
:1061600092F800C04FF0000091D300239360ECE759
:106170009A457FF6B2AE00F1010E09940AE000BF25
:10618000592B177F5A2B17FF07463B4401319A457D
:1061900089B211D9804F814C6244D719A742F3D8F4
:1061A0007746A2F1E8723B44A2F5D43201319A4518
:1061B000A2F5A57289B2EDD80498099C084481B271
:1061C0000491626289E67047EB1ABEF1FF0FC8F8CE
:1061D0000830BAD00FFA8EF1ADE7089B002B00F023
:1061E000A68000238BF81E30079B002B40F0C48054
:1061F0009BF81F206AB1DBF824405B460122032193
:106200000420A4460FB0BDE8F04F60470D9B8BF80B
:106210001E300FB0BDE8F08FA3EB0903A360DBF8DD
:106220000030039364E59BF80930DBF804605C1EE2
:10623000E4B2002B3FF4B1AC0123079306EBC40496
:106240004FF000096378E178656899420CD160E00D
:10625000012B5AD0637822780133DBB29A4208BF0F
:1062600000239942637054D01BB203EB430203EB4B
:10627000820305EB830215F82330022B1BD0032B7E
:10628000E6D153789BF80810994211D9DBF8001039
:10629000107903EB430301EB031383F82D00C2F8DD
:1062A0002890D36A13B1116B906A9847E178D1E7CF
:1062B00001239362F5E7D2E9017097F800E0D2F884
:1062C0000CC0DBF80010DBF81480BEF1FF0F02D029
:1062D0000368434524D09BF81D30C0F800804FF080
:1062E000000E0DE003EB430001EB00180001D8F8AD
:1062F00008A0D8F81880D644B8F1000F02D10B5C82
:10630000FF2BEFD13B70CCF800E0D36AC2F82890A5
:10631000C8E7A642A4F108033FF463AF1C4691E727
:106320000EEB4E031B01DCF800E0CB5CE8E79BF8CA
:106330000930DBF804605C1EE4B2002B7FF47EAF12
:106340004FE70AF019FE00287FF452AFCBF818008F
:106350000AF02CFE9BF81F20CBF814004AE79BF8AC
:106360000920DBF80460541EE4B2002A7FF465AF14
:10637000089B8BF81E3015E49BF81D7012E40AF0A0
:1063800015FE04460AF0E8FD9BF81D7000287FF416
:1063900010ACCBF814400CE45A2B17FF592B177F85
:1063A000F0B4049F9DF81440069E00283ED1DFF80B
:1063B00084C04D1E8CF80810CCF80020EDB249B115
:1063C00005EB450502EB0511914281F82D00A1F185
:1063D0003001F9D15A1E8CF80930CCF80470D2B2D1
:1063E0007BB107EBC2025660114612F8083903EB85
:1063F0004300E41A8F4203EB8003E4B206EB83060A
:10640000F1D19CB9079ACCF82020089ACCF8242026
:106410004FF6FF73099AACF80A402046CCE90544D0
:10642000F0BCCCF82820ACF81C3070470120F0BC40
:10643000704700BF580D00200A4B2C2202FB00328F
:1064400010B4546A5CB100EB800200EB420003EB35
:106450008003A446012210BC03210220604710BC27
:10646000704700BF580D00202DE9F843DFF8A080E9
:10647000BDF82CE02C2707FB008704467D6805EB60
:10648000C10C15F831909CF8036004EB840504EB13
:106490004504751C0846EDB29CF80110A94598BF4B
:1064A0000025A94208EB84082FD0DCF8041006EB85
:1064B000460406EB840601EB86044FF0040901F85C
:1064C00026906360089BA360099BE3600A9B23619D
:1064D0000C9BA361119B63620D9BE3610E9B236286
:1064E0000F9BE3620221109B6270A4F814E0236307
:1064F000A1628CF80350D7E90835984743464946CE
:106500000022A847A06ABDE8F8830120BDE8F8830F
:10651000580D002030B58BB0DDE90E540095109D6C
:1065200001940295BDF84440129D03940495139C78
:10653000149D05940695159C169D07940024CDE99D
:106540000854FFF791FF0BB030BD00BFDFF898C0D3
:106550002DE9F0472C2707FB00C704467D68BDF8EE
:106560002C809DF830E0084605EBC10115F830A0FD
:10657000CE7891F8019004EB840504EB4504751C7A
:10658000EDB2AA4598BF0025A9450CEB840A28D096
:10659000D1F804C006EB460406EB84060CEB860437
:1065A0004FF005090CF826906360089BA360099BD7
:1065B000E3600A9B23610D9BE36202260E9B6270DF
:1065C00084F816E02363A4F81480A662CD70D7E99E
:1065D00008359847534600220421A847A06ABDE821
:1065E000F0870120BDE8F087580D0020DFF884C057
:1065F0002DE9F0412C2707FB00C704467D680846BB
:1066000005EBC10115F83080CE7891F801E004EB7C
:10661000840504EB4504751CEDB2A84598BF002520
:10662000AE450CEB840421D0D1F804C006EB460E35
:1066300006EB8E060CEB86084FF0060E0CF826E0F3
:10664000C8F82C300226069B88F80120C8F83030A4
:10665000C8F82860CD70D7E908359847234600224E
:106660000421A847D8F82800BDE8F0810120BDE842
:10667000F08100BF580D00202DE9F041204F4FF070
:106680002C0C0CFB007C0446DCF80450084605EB9F
:10669000C10115F83080CE7891F801E004EB840553
:1066A00004EB4504751CEDB2A84598BF0025AE4526
:1066B00007EB840420D0D1F804E006EB460706EB94
:1066C00087060EEB86074FF602782EF82680C7E97C
:1066D0000123069BFB60079BFB620226089B3B6332
:1066E000BE62CD70DCE908359847234600220421BC
:1066F000A847B86ABDE8F0810120BDE8F08100BF7D
:10670000580D002070B50A4D2C2202FB0052D2E930
:10671000083604460846984704EB840304EB430319
:1067200005EB8303B4460022BDE8704004216047B6
:10673000580D00200AF03ABC401A20F07F40704704
:10674000012813D808B548B931B1084606220949CD
:106750000EF0A2F9074808BD064808BD41B1084639
:10676000062205490EF098F9034808BD002070473D
:10677000014808BD840D00208C0D002070B5044632
:1067800000200D4603F08EFA88B903F07FFC10F06C
:1067900006060CD12946062224B106480EF07CF9E3
:1067A000304670BD04480EF077F9204670BD0C20CD
:1067B00070BD00BF8C0D0020840D0020022801D088
:1067C0000120704738B5044608461D4604F008F815
:1067D00010B10020287038BD204638BD002303705A
:1067E0000B70704708B50248FEF754F9002008BD49
:1067F000385D010030B5838983B023B1037D044641
:10680000C3B1022B04D06FF01505284603B030BD8C
:1068100001A901F02BF9019B054613B118460EF0B2
:10682000D5F9002DF1D120460BF014FC00252846A7
:1068300003B030BD01A9019300F0E0FB0028F2D0C5
:106840000EF0C4F9019D002DEDD0284601F0F2FDB7
:106850006871019901480EF078FDE4E7B006002068
:106860002DE9F041DFF8B4802B4F82B00CE00EF040
:10687000AAF92246BDF80210044601F0C3FD2046E5
:106880000EF0A4F90DF0CCF80DF1020101A802F010
:10689000D9FA04464FF0FF324FF0FF3300211320A6
:1068A000002CE4D1019B93B102F09AFB019E30468B
:1068B00001F0C0FD019D70716B79032B02D12B7922
:1068C0000B2B0CD0294638460EF03FFDDCE74FF08D
:1068D000FF324FF0FF3340460DF03CF9D4E721463C
:1068E0004FF0FF334FF0FF320520EE880EF06BF9CA
:1068F0000446224605F11C00314601F01DF93046E0
:1069000001F02AF9204624B10EF060F920460BF080
:10691000A1FB019DD6E700BFB0060020980600202D
:10692000D0B51B4888B001F0DFFF044600282CD109
:10693000184801F095FD002600276FF00903039326
:10694000CDE90667CDE90144134B14490494009442
:106950004FF4E07212480DF071F9124910480EF030
:106960002DFE6FF007030393CDE90667CDE90144DF
:106970000D4B0E49049400944FF400720C480DF036
:106980005DF90C490A480EF019FE204608B0D0BD4A
:1069900098060020380000206168000000530020A5
:1069A00008080020D85C0100B9690000E05400200C
:1069B00088080020E45C01002DE9F04FB04CB14F95
:1069C000DFF8D492DFF8D482DFF8D4A285B0AC48E7
:1069D0004FF0FF324FF0FF3302210DF079FB00281A
:1069E00040F0A080E36803F4F833B3F5805F00F073
:1069F0009580236A03F4F833B3F5804F00F0E0800C
:106A00000025E268236AA0496FF31032D1F800B084
:106A1000E2606FF310339D4A2362BFF35B8F52E84D
:106A2000003F23F0010142E800100028F7D1BFF336
:106A30005B8FDB0744BF0023C7E90033BBF1000FC6
:106A400040F3C580D9F80030D8F800203E68ABEBA1
:106A5000030313448E4A1360002E00F0E480727921
:106A6000002D68D1042A39D8022A00F2908040F221
:106A70003D1150460192FDF729F8019A0396002A2C
:106A800040F08B805046CF21FDF720F8039800237B
:106A9000036003A802F032FBD9F80030D8F80010E8
:106AA0003A68ABEB03030B4479490B602AB1527986
:106AB000D11E01290DD9052A09D02DB1AB8928464F
:106AC000002B35D0FEF74AF80CF0AAFF7FE7002B29
:106AD000F3D000216F480DF05BFBEEE7052A16D1DD
:106AE000002BF1D07A6833683B60964200F0B980A1
:106AF0004FF0FF324FF0FF3303200396FDF7DCFF2A
:106B000001460546039801F049F80398BFE740F2B3
:106B10003D115046FCF7DAFF0396B3E723690025E1
:106B20009D606EE740F275115046FCF7CFFF59E7C4
:106B30000BF090FAC8E7D11E012963D9052A75D058
:106B400001336A794BD03E68042A62D8022A00F2E7
:106B50009080531E012B00F286800395022A00F0DC
:106B6000AD804FF0FF324FF0FF330120FDF7A4FF5F
:106B700005460398002D00F09C80294601F064F83A
:106B8000039A0023136003A802F0B8FA95E7796826
:106B900033683B608E4255D00396022A4AD04FF0AC
:106BA000FF324FF0FF330120FDF786FF05460398C3
:106BB000002D3FF46CAF294601F046F8039866E7D4
:106BC000606A002200230CF04DFC054619E7304AAC
:106BD0004FF0FF331360002D3FF476AF6A790395D1
:106BE000042A31D9052A31D14FF0FF324FF0FF335B
:106BF0000320FDF761FF01460546039800F0CEFF34
:106C0000039ABEE7234800210DF0C2FA204B1B680F
:106C100096E7052A27D1002E44D11D4B1B68002B77
:106C200040D00395E0E7002D8AD14DE7002BE9D154
:106C30006A7989E700220023012100200DF0C3FFBB
:106C40000546B4E77B60A7E7002A87D15046CF21ED
:106C5000FCF73CFF039B00221A6003A802F04EFAE7
:106C600032E77B6044E7F4215046FCF72FFF0395A1
:106C7000ECE7074A01231360A6B9039571E700BF4B
:106C800010000020980D0020580E00205C0E0020FF
:106C9000940D002038000020540E0020300E0020FB
:106CA000EC5C01007B6800222A607BB11D607D6086
:106CB0000AE7056003A802F021FA05E70022002395
:106CC000012100200DF07FFF054652E7C7E900557E
:106CD000FAE600BF38B5074B0546012118880DF0CC
:106CE00093FF0121044608300DF0E3FF03462046E0
:106CF0001D7038BD884A002070B500F108040E46AA
:106D00002046022115460DF0D4FF6B1C3E22027076
:106D10004370012120460DF0CCFF06702946204625
:106D2000BDE870400DF0C5BF70B502F1080504461E
:106D30000E46284602210DF0BCFF0346082204211E
:106D40001A70597028460DF0B4FFB4FA84F35B0949
:106D50000470C370A0F8016070BD00BF2DE9F84356
:106D6000174C66684FF000094C4606F00055174670
:106D700054EA050209D0134A12680646884602F012
:106D80000800494650EA010201D1BDE8F8831846DF
:106D90000B220421FFF7B0FF0670A0F801703EB986
:106DA00008F104010330BDE8F84308220DF074BE79
:106DB00049460330BDE8F84308220DF098BE00BFF5
:106DC0000000002008000020F8B5274E274D284A73
:106DD000284B4FF0FF3737604FF0FF3641F6FF7713
:106DE000C5E9006700260027C2E900671F260027C3
:106DF000C3E9006740B30C4601F0C8FE0020FFF76E
:106E000069FF1D4A20601D4B1D4E1E4D1E4800246B
:106E10001460214620221C6034602C600DF067FE57
:106E2000BFF35B8F194B53E8002F42F0010243E898
:106E300000210029F7D1BFF35B8F154B186821465D
:106E4000BDE8F8400DF0A4B90B4D0D4A0D4C0B4BAD
:106E5000014629601160216019600B48BDE8F840C7
:106E600020220DF044BE00BFA40D00200000002031
:106E70000809002008000020A00D0020300E00208E
:106E8000580E0020540E0020340E00205C0E00200E
:106E90002C0E002070B502F1080405460E4620466F
:106EA00002210DF006FF0346052204211A705970D5
:106EB00020460DF0FEFE0023A0F8016003702B7841
:106EC000C37070BD38B5064B054618880C460DF0EA
:106ED0009BFE21462860BDE8384008300DF0E9BE31
:106EE000884A002070B5431E86B01446092B06D888
:106EF000DFE803F0092037050545055064736FF09E
:106F0000150006B070BD20460D21FFF7DBFF0346DC
:106F1000022200200421D9711870987018715871DC
:106F2000187258729872D87218735A70DA709A710F
:106F300006B070BD20464121FFF7C4FF002405467E
:106F4000214600F8014B40220DF0D1FD6A78AB7864
:106F500062F0580243F0030320466A70AB7006B03B
:106F600070BD20460921FFF7ADFF002400F8014B5A
:106F7000214608220DF0BBFD204606B070BD896891
:106F80000020FFF7FBFB0020FFF7A4FE206000209D
:106F900006B070BD184E0FCE01AD0FC533682B7013
:106FA00020461221FFF78EFF002400F8014B11222A
:106FB00001A90DF071FD204606B070BD20461821D4
:106FC000FFF780FF00240546012100F8024B0AF07C
:106FD000D3FE6870204606B070BD20462121FFF721
:106FE00071FF0146002401F8114B01300AF036FF11
:106FF000204606B070BD00BF4C5D0100F0B583892E
:107000008FB00022022B099240F2918004460E4676
:10701000083003210DF06DFEA28983789A42C0F0FA
:1070200086800588834FB5F5105FA8B23D80C5F313
:1070300009034FEA95226BD2002A73D0013A072A3E
:1070400070D8DFE802F0906F9E57776F6F04013BB6
:107050004D2B67D8DFE813F0E1030504A9026600B1
:10706000A202850287037F037703A104440431044D
:1070700018041204EE030004FA037B04680462049B
:10708000520497048204D503C703C103B903A503BF
:107090009B0390036202530247023702210212024D
:1070A0006600660009021B02E701FD01EC016603B0
:1070B0005F0329030803E002C5023103BB02EB03AF
:1070C0006600660066006600660066006600660090
:1070D0006600660066006600660066006600660080
:1070E000660066006600660066006600780266005C
:1070F00066007102013B082B14D8DFE813F083000F
:107100009F00070113001300130013001300FB007E
:107110003F2A07D12146184609AAFFF7E3FE163099
:107120001FD1388801210DF081FD0FB0F0BD002086
:107130000FB0F0BD052BF5D1A368042109A81D8867
:10714000FFF7C0FE0446E11CA8B203F0C3FDA4F89B
:1071500001502070002840F02884E3785B425BB245
:10716000E3700998E1E7062B00F026841D2BD9D1A6
:10717000A368188803F0A4FC014638880DF056FD7A
:10718000D3E7352B24D82C2B0AD8012B00F01184FF
:10719000032BC7D1204609A9FFF716FE0998C4E7BB
:1071A0002D3B082BBED801A252F823F0B373000088
:1071B000257100002571000025710000D9730000C1
:1071C000257100008D730000257100002B730000F5
:1071D0007B2B00F004847C2B0FD1A3681D88598879
:1071E000284603F0B7FD0321044609A8FFF76AFE0D
:1071F0000470A0F80150099897E7632B92D1A26818
:107200000D4B0CE3092109A8FFF75CFE03460022A1
:107210000B204FF0FF316FF00E0505241A705870E7
:1072200018715D7109989C719A70DA70D971197230
:107230007BE700BF884A002008090020412109A8F7
:10724000FFF740FE00210446402200F8011B0DF02C
:107250004EFC227CA779E67AE57BE07DA17E63780F
:1072600094F803C042F0220267F03F0766F01B0665
:1072700045F0280540F0040061F0080143F02003C8
:107280002274627FA771E67294F8217094F82260EC
:10729000E573E07594F8255094F82300A1766370A7
:1072A00094F8281094F8273042F07F0260F006002E
:1072B00062776CF07F0CFF2247F0300766F00F0614
:1072C00045F0010541F0040163F07F0384F82300D9
:1072D00084F803C084F8217084F8226084F8255073
:1072E00084F82810E276227784F8242084F8273066
:1072F00009981AE7072109A8FFF7E4FD01460020D5
:1073000001F8010BFFF71CFA09980EE7092109A8FB
:10731000FFF7D8FD00210446082200F8011B0DF0FC
:10732000E6FB602309986371FFE6B64B1B68002BF0
:1073300040F34D83B44B1B6803B3A76897F800C0B4
:107340006446BCF1000F00F05F830024AF4D22467D
:107350000AE035F811008342A0EB03060ED862451F
:1073600025F8116000F0508307EB82030132B3F877
:107370000110B3F803300F291C44EAD9012109A8F0
:10738000FFF7A0FD122303700998CEE6A368012140
:1073900009A8B3F803401D88FFF794FD994B1A68BC
:1073A000002A40F018831A2DECD9644209981C6019
:1073B000BBE6A368042109A81D889E78FFF782FD1B
:1073C000A9B20446C31C32460220FFF7F7F9207029
:1073D0000998A4F80150A8E6A3688A4C1D780121F9
:1073E00009A8FFF76FFD2368002B00F0F482864A9E
:1073F0001268002A40F0EF820270002D00F0108326
:10740000012DBFD1002B3FF7ACAE814A814B7F48A5
:1074100000211160202219600DF069FB2368099892
:107420005B42236081E606F06BFDFFF753FC7CE6D0
:10743000A16807220AA80DF02FFB072109A8FFF772
:1074400041FD0446611C0AA807F0D8F9207009988C
:107450006BE6022109A8FFF735FD044606F04EFD54
:1074600000236070237009985FE6A06800F117029E
:10747000C11D07F05FF8FFF72DFC56E6A368598899
:10748000188803F095FBC0B2FFF724FC4DE6A06816
:1074900007F00EF9FFF71EFC47E6052109A8FFF7E4
:1074A00011FD0AA904460DF1220003F075FBBDF899
:1074B0002230A4F801300022BDF82830227009984B
:1074C000A4F8033031E6A3681D889A8859882846B5
:1074D00003F016FB0446032109A8FFF7F3FC047030
:1074E000A0F801503DE6A3681D889A780023CDE9F5
:1074F000013328460093022103F0F6F9EAE7A26877
:107500001189158853880291D1880191928800923F
:1075100028460022022103F0E7F9DBE70AA809F078
:10752000C5FC032109A8FFF7CDFC00220270BDF8BD
:107530002820A0F801200998F7E5A068C17907F094
:107540009BF9FFF7C7FBF0E5032109A8FFF7BAFC99
:1075500001460023013001F8023BFFF73FF909988B
:10756000E3E5A4682179208801290AD0638898423C
:1075700000F260821F2840F25D82B3F5804F00F276
:107580005982A57BA37962790295657B01950734C1
:10759000009402F039FAFFF79DFBC6E5A1680120CF
:1075A000FFF7ECF8FFF796FBBFE5092109A8FFF705
:1075B00089FC00210446082200F8011B0DF097FA0F
:1075C000FF21492201236170A270E370C9E5A3681D
:1075D0009A785978187809F03FFCC0B2FFF77AFB27
:1075E000A3E5A3681A78D10744BF0721597097070C
:1075F00044BF07229A709978587803F00FFBFFF781
:1076000069FB92E5580E0020A00D0020340E0020EA
:10761000540E0020300E0020A368052109A81D8803
:10762000FFF750FC0446221DA8B2E11C03F0D4FA77
:10763000E27823792070002A92FAA2F2B2FA82F25A
:1076400008BF4FF0FF32002B93FAA3F3B3FA83F392
:1076500002F1010208BF4FF0FF33E27001330998D5
:10766000A4F80150237160E5092109A8FFF72AFC5D
:107670000AAB04460DF122020DF11E0008A903F029
:10768000A1FABDF82030BDF81E20A4F80120A4F80E
:107690000330BDF82230A4F805300022BDF82830B0
:1076A00022700998A4F807303FE5A368188806F00F
:1076B00089FC0020FFF70EFB37E5A36899781D8849
:1076C000B3F80540CE0703D5DA7842F00702DA7046
:1076D0008A0703D51A7942F007021A71D9781B7903
:1076E00041EA030212F0F80F40F0AE814E0700F0BD
:1076F000A6815A0700F0A38114F003021CBF04F115
:10770000FF3404F00102284603F092FA014638885B
:107710000DF08CFA09E5A368187806F037FCFFF73E
:10772000D9FA02E5A16807220AA80DF0B5F90721E8
:1077300009A8FFF7C7FB0446611C0AA807F080F8F8
:1077400020700998F1E4A16811F8010B02F078FBB0
:10775000FFF7C0FAE9E4A16811F8010B02F01CFB85
:10776000FFF7B8FAE1E4022109A8FFF7ABFB00221A
:10777000027042700998D8E4A068012382784178A9
:10778000007809F0F9FAC0B2FFF7A4FACDE4A368D3
:1077900000221878012109F05FFBC0B2FFF79AFAC6
:1077A000C3E4092109A8FFF78DFB0346FF2200214E
:1077B0003F20D870197003205A709A709871D9714F
:1077C000099819721A715A71AFE4A3681D880022D2
:1077D0002846062105F0CEFD7CE6A26832F8025B61
:1077E00000212846F6E7A268114602F10C0331F8A1
:1077F000020B0A3206F0A8F8014638880DF016FA96
:1078000093E4092109A8FFF75DFB002300F8013B81
:10781000082107F0F1FB099887E4A2688D4B1168F5
:1078200052685A6019600020FFF754FA7DE4A0689E
:10783000C378A3E7022109A8FFF744FB00230370E4
:10784000044606F0C3FA607009986EE4A06806F07A
:107850000FFEFFF73FFA68E406F0BAFAFFF73AFACC
:1078600063E4042109A8FFF72DFB07210022C17062
:1078700002701B2141708270099856E4304605F071
:10788000F5FFFFF727FA50E4A468B4F813506188B5
:107890006379227920880495B4F811500395B4F8DF
:1078A0000F500295257B01950634009405F0FEFDEE
:1078B000014638880DF0BAF937E4A3681878002833
:1078C00000F0B3805B78002B00F0AF806249634A20
:1078D00000230B60136002F059FBFFF7FBF924E46F
:1078E000A4686379B4F80320B4F801102078A4796F
:1078F0000094F9F765F8FFF7EDF916E4A36808219D
:1079000009A81D88FFF7DEFA0446E11CA8B203F0BF
:1079100075F820700998A4F8015006E4A06805F0F5
:10792000E1FFFFF7D7F900E4A268118953881088B6
:107930000291D1880191928800920022114602F0B2
:10794000D3FF014638880DF071F9FFF7EEBBA06850
:1079500006F06CFAFFF7BEF9FFF7E7BBA0680AAACA
:1079600000F11001002309F059FB112109A8FFF7CC
:10797000A9FA002300F8013B0AA910220DF08CF8A7
:107980000998FFF7D2BBA368188803F079F801467D
:1079900038880DF04BF9FFF7C8BBA3681878F8F7E3
:1079A0002BFDFFF797F9FFF7C0BB7F23E370FFF7CD
:1079B000D8BBA2682A4B32E7A3689978188803F0ED
:1079C00041F8014638880DF031F9FFF7AEBB0121CF
:1079D00009A8FFF777FA0C230370FFF7C2BBA3686F
:1079E0001D880AA9284603F08FF90521044609A835
:1079F000FFF768FA0470A0F80150BDF82830A0F82D
:107A000003300998FFF791BB164A174913680868B5
:107A10002344136000210CF0BBFB0998FFF785BBE2
:107A2000002BBFF6F2ACFFF79CBB0B4B4FF0FF32C5
:107A30001A6050E71220FFF74DF9FFF776BB1221CD
:107A40000DF0F4F8FFF771BB11210DF0EFF8FFF71F
:107A50006CBB00BF08000020A40D0020A80D002072
:107A600000000020300E00202C0E00208389002210
:107A7000032B0A6041D92DE9F04105460E46083036
:107A800004210DF036F9AB894788B0F80080BB427D
:107A90000AD302F0B9FE4FEA1833044618B39A0825
:107AA00002D1D3B1012B03D06FF01500BDE8F081F6
:107AB000027963F3010202716771A9683A46E01D19
:107AC0000CF0EAFF2146C8F30B0002F0A9FE0028E3
:107AD000ECD0204602F09EFEE6E70379022262F334
:107AE00001030371E8E7134B1968034601F00072C4
:107AF000134305D16FF03600D8E76FF015007047DB
:107B00004FF0FF334FF0FF320120FCF7D5FF022189
:107B1000306008300DF0CDF801241A220270447054
:107B20003068214608300DF0C4F803466FF0360087
:107B30001C70BBE700000020064B1B6830B403F04C
:107B40001004002554EA050301D130BC704730BC55
:107B5000FFF7A0B9000000200F2870B504460ED82A
:107B60000A4D0B480B492E6830F814200B6832443C
:107B7000013B2A60002220F814200B6070BD0648EB
:107B800040F64C71FBF7A2FFEAE700BF300E002081
:107B9000340E0020A00D0020605D0100037F03F083
:107BA0000303013B012B04D9224841F24711FBF7A3
:107BB0008DBF70B5044601F1080528460421E6880A
:107BC0000DF077F8237F03F00303022B0CBF46F47C
:107BD000005346F480530380617F418028460DF0B6
:107BE00068F8627F04F11F010CF056FF124B1A680F
:107BF000002A10DD114C124923680968591A914274
:107C000010D201330F2E236006D80E4A32F81630F8
:107C1000013322F8163070BD06484FF48A51FBF745
:107C200055FFF2E7034841F23A11FBF74FFF236893
:107C3000E7E700BF605D0100580E0020540E0020F1
:107C4000300E0020340E00202DE9F04F0579C78852
:107C5000022D044689B00E4600F11C0011D0043DEF
:107C60000C2D59D8DFE815F02C01580058005800A9
:107C700058005800C9001301600082009B00B10049
:107C80002700E37F033B122B00F2C181DFE813F0F2
:107C90005302BF01BF013D024902BF011602BF01ED
:107CA000BF01E2010502BF011F02BF01BF01BF0109
:107CB000BF01C201C2017D4B586800210A4600F095
:107CC0000053134325D07A4B18680B4600F400622A
:107CD00013431ED0052230460C21FFF70DF8237FF9
:107CE0000370A0F80170627F002A92FAA2F3B3FA3F
:107CF00083F308BF4FF0FF330133C370A27F92FAC2
:107D0000A2F3002AB3FA83F308BF4FF0FF33013325
:107D1000037109B0BDE8F08F41F25201654809B026
:107D2000BDE8F04FFBF7D2BE604B586800210A4611
:107D300000F000531343ECD05D4B18680B4600F085
:107D400004021343E5D0092203213046FEF7D4FF95
:107D5000237F0370E18B228C638CA0F80730A0F89E
:107D60000170A0F80310A0F80520D2E74F4B596826
:107D70000024224601F400431343CAD008360221EE
:107D800030460CF096FF03463022032130461A702D
:107D900059700CF08EFF0470A0F80170B9E7464BE3
:107DA0001968002301F400021343B2D008360221FF
:107DB00030460CF07EFF03465722022130461A70EF
:107DC00059700CF076FF0780A3E7384B5868002104
:107DD0000A4600F0005313439BD0354B18680B46FE
:107DE00000F40022134394D0304603221421FEF7FE
:107DF00083FF0780237F83708BE7257F002D00F0B2
:107E0000C2812A4B59684FF00008424601F00053E6
:107E100013433FF47EAF264BD3F800C040F201215C
:107E20000CEA0102434613430CF4007041463FF450
:107E300070AF002D40F0C281204A136801331360F7
:107E400050EA010304F11F08304640F05682122226
:107E50000121FEF751FF0570A0F80170637FC37028
:107E6000A37F03F001030646037141460622053055
:107E70000CF012FEE38E618EA28EA6F80D20A6F8FD
:107E80000B10A6F80F3094F83830737441E7074BA5
:107E90001968002301F0100213433FF43AAF324651
:107EA000394609B0BDE8F04FFEF7F4BF00000020EE
:107EB00008000020605D010008090020A00D0020DE
:107EC000C64A237E257F94F81A9094F81BA092E866
:107ED00003005B420A0C5BB26F060690ADF81C1003
:107EE0008DF81E20059300F15781BD4B5868002185
:107EF0000A4600F00053BAF1000F40F07D811343B1
:107F00003FF407AFB74B1968534601F00202134321
:107F10003FF4FFAEDFF8DC82D8F80020002A3FDB18
:107F200004F11E0B16D0B04D57460622294658467E
:107F30000CF0A2FD38B9227F15F8011CC2F38010A5
:107F4000884200F02382D8F800200137974205F1DB
:107F50000805EADBA54DA64F2A6807EBC202594681
:107F6000901C06220CF098FD2A68217FD8F800307A
:107F700007EBC200C1F380114170207F012100F0A6
:107F80000F0081400F2B07F8321000F3FC81591CC1
:107F90000A46C8F800102960102A04BF00232B608D
:107FA000237F03F00F03012B00F0EA81637FA3F12D
:107FB000060A5FFA8AFA0533DAB2574602213046DA
:107FC000FEF79AFE01230370237F08AA03F00F0334
:107FD0001344054613F8083C437005F08FFF8145B4
:107FE00080F0C3814846EA1CA91C05F059FFAB7814
:107FF0000233AB7005F10A0685F809A004F12401EB
:1080000030463A460CF048FD059BF35581E641F2B7
:108010001B1183E6724B586800210A4600F000539A
:1080200013433FF476AE6F4B18680B4600F04002E6
:1080300013433FF46EAE30460A220721FEF75CFE82
:108040000780A38C4380E38C8380238CC380638C64
:1080500003815EE6624B1968002501F400622B463D
:1080600013433FF456AE0836022130460CF021FE91
:1080700003460C2208211A70597030460CF019FE84
:108080000570A0F8017094F82030C370B4F8213066
:108090008380B4F82330C3803BE6514B196800233A
:1080A00001F0800213433FF434AE94F820003246CE
:1080B000394609B0BDE8F04FFEF736BE0B463A46EA
:1080C0000146002009B0BDE8F04FFEF747BE444B23
:1080D000586800210A4600F00053134364D0414B16
:1080E00018680B4600F0200213435DD030460A2288
:1080F0000621FEF701FE0780238C4380638C83807A
:10810000A38CC380E38C038103E6354B1968002000
:1081100001F08002034613433FF4FBAD324639467B
:10812000C7E794F820300E2B7FF4F3AD0B463A46A8
:1081300000211A20C6E72A4B586800210A4600F0A1
:10814000005313433FF4E5AD264B18680B4600F08F
:10815000100213433FF4DDAD30460C220521FEF73B
:10816000CBFD04F120010546082220F8027B0CF02B
:1081700093FC05F10A0004F12801022209B0BDE8D0
:10818000F04F0CF089BCA07F04F12503FF2204F11D
:108190001F0106F00FFB34E60021084604F11E0320
:1081A0004A4606F007FBA0E60023CDE90133384636
:1081B00000931A22022102F097FBAAE550EA01037C
:1081C00040F0C780122201213046FEF795FD04469B
:1081D000414612220CF08BFC25709AE5005C0100F0
:1081E0000000002008000020AE0D0020A80D002097
:1081F000AC0D0020A40D002013433FF48AAD7B4B4F
:1082000018680B4600F4806213433FF482AD237F6D
:1082100003F00F03012B04D0754840F6DD31FBF766
:1082200055FCDFF8DC81D8F80020002A42DB04F19D
:108230001E0A16D06F4D00270622294650460CF024
:108240001BFC38B9227F15F8011CC2F3801088424C
:1082500000F0BB80D8F800200137974205F10805EF
:10826000EADB654D654F2A6807EBC2025146901C58
:1082700006220CF011FC2A68207FD8F8001007EBCA
:10828000C20CC0F380108CF8010094F81CC00120CF
:108290000CF00F0C00FA0CF00F2907F8320000F375
:1082A000918001310A46C8F800102960102A04BFE5
:1082B00000232B6011220B213046FEF71DFD012308
:1082C00003704370054605F019FE81456FD248469C
:1082D000EA1CA91C05F0E4FDAB780233AB70237FE8
:1082E000C3F3C0136B7204F12401062205F10A00E6
:1082F0000CF0D2FB059B2B740BE51E220A21FEF726
:10830000FBFC0570A0F80170637FC370A37F03714D
:1083100006464146062205300CF0BEFB062204F15B
:108320002B0106F10B000CF0B7FB062204F125012E
:1083300006F111000CF0B0FBE38E618EA28EA6F860
:108340001920A6F81710A6F81B3094F83830737768
:10835000DFE41E220A213046FEF7CEFC04464146E9
:108360001E220CF0C4FB2570D3E4237FC3F38013DB
:10837000AB70062204F11E01E81C0CF08DFB39E6FF
:1083800000270B221AE601322A6005E61B4911F884
:10839000373002F00F0223FA02F0C0073FF5B9AC04
:1083A000012000FA02F2134301F83730F8E5237F89
:1083B000C3F38013AB70062204F11E01E81C0CF01D
:1083C0006BFB8CE701322A6070E70C4810F83730FD
:1083D00002F00F0223FA02F1CD073FF59AAC01211A
:1083E00001FA02F2134300F8373063E70800002077
:1083F000605D0100AE0D0020A80D0020AC0D002036
:10840000A40D002070B500F108040E46204602219C
:1084100015460CF04EFC0346132205211A705970C4
:1084200020460CF046FC01230370A0F80160A0F880
:10843000035070BD0379022B08D0043BDBB20C2B38
:1084400001D900207047054AD05C7047037F03F0D4
:108450000303032B0CBF0420052070479C5D010023
:10846000034B0021024608461A60FEF7ADBC00BF70
:108470002C0E002006F0C0BD08B5002308F0CEFD8C
:10848000002008BD10B5044606F0D8FD68B907F015
:10849000CFF998B907F01CFEC8B907F0B1FEF8B9DA
:1084A0002046BDE810400BF02FBB124840F22D5182
:1084B000FBF70CFB07F0BCF90028EBD00D4840F2AD
:1084C0003251FBF703FB07F003FE0028E5D0094813
:1084D0004FF4A761FBF7FAFA07F092FE0028DFD00D
:1084E000044840F23E51FBF7F1FA2046BDE8104047
:1084F0000BF00ABBAC5D01000BF006BB2DE9F84F99
:108500002F4F0B783C780D46797899429CBFBB7809
:108510002B709A428346924645D05A1C294ED2B2BD
:1085200013FB04F3914208BF0022F1182A703AD0DD
:10853000F35A03804FF000084FF0010922E07BB3AB
:10854000037903F00303013B012B31D902234B6074
:1085500002F060F92B787978387899429CBFBB7823
:108560002B709A4521D05C1CE4B213FB00F3A142AE
:1085700008BF0024F1182C7017D0F05ABBF8003057
:10858000984212D14868012820F00303D7D808F197
:1085900001085FFA88F8C1F80490002BDAD0D7E719
:1085A00002234B60D6E74FF000084046BDE8F88F45
:1085B00008F101085FFA88F8C1F80490C8E700BF25
:1085C000C0010020C40100202DE9F04FB64EDFF8B5
:1085D000EC82DFF8ECA2DFF8EC9289B0D6E900017A
:1085E00005AAFCF789FB0546002840D0059B002B17
:1085F00000F01E81187806AA04A904F03FFC044686
:1086000000286AD0DDE90512BDF8103091F800B0FD
:108610000792ADF8123007AF0DF1120504F044FCDB
:108620002146079ABDF8120004F07AFC0346204662
:108630001C4604F0FDFB012004F09EF801212046B9
:108640000CB104F00DFB3A462946584604F016FCDE
:1086500004460028E2D1D8F800000BF055FAD6E91C
:10866000000105AAFCF748FB05460028BED106AA72
:1086700004A90DF10F0004F0E7FB0446002863D0C5
:10868000069ABDF810309DF80FB00792ADF8123081
:1086900007AF0DF1120504F007FC2146079ABDF85B
:1086A000120004F03DFC034620461C4604F0C0FBCB
:1086B000012004F061F8012120460CB104F0D0FA49
:1086C0003A462946584604F0D9FB04460028E2D130
:1086D000D8F800000BF018FAC1E7059B07931B7947
:1086E000013B0A2B07D8DFE803F03228060C060608
:1086F0000606061E0C0040F2E3615046FBF7E6F961
:108700006CE7694970680022FCF7FEFA674B07992D
:10871000DB78674A0B702846FCF7E6FAD8F80000C9
:108720000BF0F2F99BE7604970680022FCF7ECFA65
:108730000799284602F0AEFB50E707A9284602F049
:10874000B9FB002800F0958009B0BDE8F08F5649CC
:1087500070680022FCF7D8FA079C94F82030E7698B
:108760003BB1012B00F0818040F21A715046FBF7BB
:10877000ADF9DFF854C19CF803209CF801009CF887
:108780000210531CDBB2984208BF002399424FF0FD
:10879000000084F8200000F0818025609CF8001023
:1087A00001FB02C254608CF80330424CA378E2789B
:1087B00021789A4229D003FB019CBCF1000F24D000
:1087C00001979CF820309A07C3F3400B03F0010592
:1087D00035D5E278A37894F800C061789A4213D036
:1087E0000133DBB299423AD09A42A3700CD003FB1A
:1087F0000C9CBCF1000F07D0BBF1000FE1D11DB103
:108800009CF82030DB07DCD5019F002F3FF4E6AE5B
:108810003B78002B5AD0013BDBB23B70002B7FF43E
:10882000DDAE7B68002B3FF4D9AEB8689847D5E63B
:1088300040F22F615046FBF749F9059BDAE61E4BE3
:108840005A4659460120C3F808C0FCF7C1FA00286F
:10885000BFD040F232715046FBF738F9B9E7002338
:10886000A370002AD0D0CC46C6E7204604F074F8A6
:108870007FE70D4902467068FCF746FA0799002920
:108880003FF4ACAE094B0A4ADB780B702846FCF784
:108890002BFAD8F800000BF037F99FE640F221716F
:1088A0005046FBF713F980E788140020C001002030
:1088B000841400209C00002034020020901400202A
:1088C000AC5D0100A00000204800002040F244718F
:1088D0005046FBF7FBF83B78013BDBB23B70002BCB
:1088E0007FF47CAE9DE700BF2DE9F047944B954D9A
:1088F000186086B008F022FBFCF716FA9248059043
:108900009248934C934A0492CDE9020503210B222D
:1089100002250423019200948F4A217023721521AD
:10892000002025742576FDF73BFD002840F0F180FE
:108930000122002189480CF029FE06F02BFB044699
:1089400018B1204606B0BDE8F087854BDFF81882E5
:10895000844D834F181D03223421FCF733F943461D
:108960000322181D0821FCF72DF9EC786A78AB7802
:108970000134E4B2A24208BF00249C42404613D016
:10898000FCF74EF90646384676B1FCF749F938B19E
:108990000660EA782B7802FB03535860EC70E5E739
:1089A00071493046FCF756F9704B0F22181D4821CB
:1089B000FCF708F96E4B1F22181D0821FCF702F97D
:1089C0006B48FCF72DF90446002800F0AE80694A98
:1089D0002046111FFCF77AF96548FCF721F9044697
:1089E000002800F09C80644A644DDFF89C91DFF819
:1089F0007C812046111F2E46FCF768F90C2306F8EF
:108A0000043B99F80340002799F8012099F80230B7
:108A10000134E4B2A24208BF00249C42304649D04F
:108A2000FCF7FEF882464046BAF1000F42D0FCF750
:108A3000F7F800283AD0CAF80470C0F800A099F8F6
:108A4000031099F800202B7801FB0292013BDBB266
:108A500050602B7089F80340002BD5D106F0E6FE5C
:108A6000044600287FF46DAF01F074F80446002836
:108A70007FF467AF07F02AFB044600287FF461AF5C
:108A800001F016FA044600287FF45BAF07F0B6FB4E
:108A9000044600287FF455AF02F082F9044600280E
:108AA0007FF44FAF012005F01DFF4AE730495046E3
:108AB000FCF7D0F82B785F1EFFB2002BCED0304EE3
:108AC000DFF8AC90F478DFF8A4807278B3780134E2
:108AD000E4B2A24208BF00249C424846BED0FCF744
:108AE0009FF882464046BAF1000FB7D0FCF798F8DD
:108AF000013FFFB2F8B1C0F800A0F17832782B78CE
:108B000001FB0262013BFF2F50602B70F470DCD13F
:108B1000A4E71C484FF49871FAF7D8FF08E7194802
:108B200040F21B51FAF7D2FF5DE7164840F21451AC
:108B3000FAF7CCFF4BE70E495046FCF78BF88DE770
:108B400090140020611C0100711D01009C18002080
:108B5000D81A0020991C0100AC14002094140020A5
:108B6000880E002048000020280F0020441000201C
:108B7000480F00208C14002084140020440F002093
:108B800070000020AC5D01005C0000202DE9F04F7A
:108B900087B000F0E1FF002840F0EF8001F03AFAE2
:108BA000002840F0F480684604F060FE002800F0E1
:108BB000F98002F0F7F8002840F00581934B944EBD
:108BC000944F954D00245C80204605F08BFE934B1E
:108BD00074805C807C806C800122214668460CF0A9
:108BE000D5FC8F4B224621460320C3F808D0FCF762
:108BF000EFF8002840F0ED804FF0FF324FF0FF33E8
:108C000068460AF0A7FF874BDFF81C92DFF8148252
:108C1000181D03223421FBF7D5FF4B460322181DF4
:108C20000821FBF7CFFFF4787278B3780134E4B20F
:108C3000A24208BF00249C42484616D0FBF7F0FF32
:108C400082464046BAF1000F0FD0FBF7E9FF40B172
:108C5000C0F800A0F278337802FB03635860F47028
:108C6000E2E771495046FBF7F5FF704B0F22181DE4
:108C70004821FBF7A7FF6E4B1F22181D0821FBF7A9
:108C8000A1FF6B48FBF7CCFF0446002800F0AD8045
:108C9000684A2046111FFCF719F86548FBF7C0FF2A
:108CA0000446002800F09B80634A644EDFF87CA1F4
:108CB0002046111FB046FCF709F80C2308F8043BC6
:108CC000EC784FF000096A78AB780134E4B2A24244
:108CD00008BF00249C42404620D0FBF7A1FF8346FA
:108CE0005046BBF1000F19D0FBF79AFF90B1CBF8BB
:108CF0000490C0F800B0E9782A78337801FB02527A
:108D0000013BDBB250603370EC70002BDBD107B05D
:108D1000BDE8F08F46495846FBF79CFF33785D1E4F
:108D2000EDB2002BF3D0FC78DFF80491DFF8FC8083
:108D30007A78BB780134E4B2A24208BF00249C4296
:108D40004846E4D0FBF76CFF82464046BAF1000F7C
:108D5000DDD0FBF765FF013DEDB200284BD0C0F838
:108D600000A0F9783A78337801FB0272013BFF2DBD
:108D700050603370FC70DBD1C9E731484FF4BF71EC
:108D8000FAF7A4FE01F046F900283FF40CAF2C4896
:108D90004FF4C271FAF79AFE684604F067FD0028A6
:108DA0007FF407AF01F058F9044648B394F848300F
:108DB00000226FF3000384F84830626201F0F2FF92
:108DC00000283FF4FBAE1E484FF4CF71FAF77EFE49
:108DD000F4E61B484FF4E871FAF778FE0CE7184800
:108DE00040F21B51FAF772FE5EE7154840F214514B
:108DF000FAF76CFE4CE70E495046FBF72BFF86E76F
:108E00000F484FF4C971FAF761FECFE7C0010020A7
:108E100048000020700000205C0000209C00002022
:108E200004020020880E0020280F0020441000209B
:108E3000480F00208C14002084140020440F0020D0
:108E4000AC5D01002DE9F04F85B0CDE900015B4C30
:108E50005B4DDFF87491009A00231360D9E900019B
:108E600003AAFBF749FF0746002800F09C80039BFC
:108E700054491A780198FFF741FB0346002840F057
:108E80008980A2788DF80920E2780DF109010DF1B1
:108E90000A001E46FFF732FB46EA000212F0FF020C
:108EA0000346F1D1039B1979032970D14649D9F8BA
:108EB0000400FBF729FF45493846FBF7CBFE2B782A
:108EC0000B2B5DD80133424903982B70FBF7C2FE90
:108ED0002B78002BBFD03F4FDFF8F080FE78DFF813
:108EE000F0A07A78BB780136F6B2B24208BF00260D
:108EF0009E4240461FD0FBF793FE83465046BBF18F
:108F0000000F18D0FBF78CFE88B10023CBF804309B
:108F1000C0F800B0F9783A782B7801FB0272013B77
:108F2000DBB250602B70FE70002BDAD193E727493B
:108F30005846FBF78FFE2B78002B8CD0264FFE78FF
:108F40007A78BB780136F6B2B24208BF00269E425C
:108F500081D01E48FBF764FE804600283FF47BAFBB
:108F60001B48FBF75DFEC8B1C0F80080F9783A787D
:108F70002B7801FB0272013B50602B70FE706AE798
:108F8000164840F2C231FAF7A1FD2B789AE7009912
:108F90000B601346184605B0BDE8F08F0B494046FC
:108FA000FBF758FE57E7E27806490198FFF7A6FA63
:108FB0000346184605B0BDE8F08F00BFC001002091
:108FC000440F0020C201002080140020480F002020
:108FD000441000205C00002070000020AC5D010007
:108FE00070B5424982B000234868019301AAFBF79B
:108FF0008BFE0446002848D03D492046FBF72AFE58
:10900000019A1379102B0ED8DFE803F0090D090D32
:10901000090D0D0D0D0D1409090909090900002B91
:1090200039D002B070BD33484FF44071FAF74EFDAD
:1090300002B070BD137F95683C2B2C6832D0537FF3
:10904000E3B1D4F8D00028B100232B49C4F8D030C4
:10905000FBF700FE94F8D6306FF3000384F8D630A7
:10906000002001F013F80446002000F01BFE50EA37
:109070004400D6D104F0B0FF02B070BD94F848208F
:1090800063F3000284F84820EAE71A4840F22E21F0
:10909000FAF71CFDB0E717484FF43F71FAF716FDD9
:1090A00002B070BDAE68AEB1F36D0022AA6023B10C
:1090B000104840F28F21FAF709FD06F1500106F140
:1090C0004C00FBF707FE054650B13068F56501F02E
:1090D00071FBBFE707484FF42371FAF7F7FCE3E7AA
:1090E000044840F29221FAF7F1FCEEE780140020E8
:1090F000480F0020AC5D0100441000202DE9F0472E
:1091000004688E4E82B080468CB38D4FDFF840925B
:10911000254624682B79102B5CD8DFE803F0175B19
:10912000175B175B5B5B5B5B096317171717170010
:109130002B7F3C2B00F0DC80022B00F0AA805BB17F
:109140004FF456713846FAF7C1FC2B7923B94FF426
:1091500067713846FAF7BAFC33780B2B5ED80133C7
:10916000284649463370FBF775FD002CD0D1002707
:10917000C8F80070337853B3724DDFF8CC81EC78C7
:10918000DFF8CC916A78AB780134E4B2A24208BF30
:1091900000249C4240464CD0FBF742FD82464846A4
:1091A000BAF1000F45D0FBF73BFD00283DD0CAF8CF
:1091B0000470C0F800A0E9782A78337801FB0252E5
:1091C000013BDBB250603370EC70002BDAD102B09F
:1091D000BDE8F08740F2B6313846FAF777FC002C4C
:1091E00096D1C4E7E88801F0F3FA836F054623B10E
:1091F00040F2A9313846FAF769FC05F16C0105F136
:109200006800FBF767FD0346002879D0AB67284666
:1092100001F0D0FA002C7FF47BAFA8E740F2C23116
:109220003846FAF753FC337899E747495046FBF73D
:1092300011FD33785F1EFFB2002BC8D0434DDFF81D
:109240000881EC78DFF808916A78AB780134E4B2F1
:10925000A24208BF00249C424046B8D0FBF7E0FC85
:1092600082464846BAF1000FB1D0FBF7D9FC013F66
:10927000FFB200285AD0C0F800A0E9782A783378E5
:1092800001FB0252013BFF2F50603370EC70DBD1C9
:109290009DE7AB68D3F800A0DAF82450002D3FD04A
:1092A000EB6D0022CAF8242023B140F24131384648
:1092B000FAF70CFC05F1500105F14C00FBF70AFD33
:1092C000034628B32868EB6501F074FA9AF8483031
:1092D0006FF300038AF84830002000F0D5FC002826
:1092E0007FF443AF04F078FE002C7FF411AF3EE72B
:1092F00028464946FBF7AEFC002C7FF409AF36E761
:1093000001904FF46B713846FAF7E0FB019B7DE763
:1093100001904FF451713846FAF7D8FB019BD1E721
:1093200040F23E313846FAF7D1FBB9E706495046DC
:1093300002B0BDE8F047FBF78DBC00BF440F002032
:10934000AC5D01005C000020480F00207000002090
:10935000441000200148FBF763BC00BF480F002009
:109360000149FBF777BC00BF480F00200148FBF71D
:1093700057BC00BF441000200149FBF76BBC00BF85
:1093800044100020024B034ADB780B70FBF7ACBCA7
:10939000C001002084140020014B18680AF0B4BBFF
:1093A0009014002010B40D4B9A78DC78A24209D8B2
:1093B000A11AC9B2884202D8A242197809D1002064
:1093C00010BC70475978891A2144C9B28842F6D82E
:1093D000197810BC02FB0133586870475C0000200C
:1093E00010B40A4B9978DA7818785C788A420AD0F7
:1093F0004A1CD2B201FB0031944208BF00224868E7
:109400009A7010BC70470020FBE700BF5C00002092
:1094100070B50F4AD67855789478731CDBB29D42AC
:1094200008BF00239C420AD0154615F8044B14FBD4
:1094300006F42E1903D02853D370716070BD05480F
:1094400040F20C41FAF742FB00231B80FFDE00BF15
:10945000C0010020AC5D0100086001480AF054BB67
:109460009414002010B54FF0FF320C464FF0FF333C
:1094700002480AF06FFB206810BD00BF9414002062
:10948000044A13680BB1184670470346106018462B
:10949000704700BF800E0020044A136823B1984231
:1094A00006BF00211160002318467047800E00207F
:1094B000014B1868704700BF800E0020044A1368F3
:1094C0000BB118467047034610601846704700BF3E
:1094D000840E0020044A136823B1984206BF00217D
:1094E0001160002318467047840E0020014B186855
:1094F000704700BF840E002030B5056815F1100FCD
:1095000087B00BD004460122684600210CF03EF8DB
:109510002B7C0F4AC5F818D06A6113B9002007B038
:1095200030BD0C4B0022114603209C60FBF750FC21
:1095300040B94FF0FF324FF0FF3368460AF00AFBA4
:1095400007B030BD044840F27741FAF7BFFAF0E7C0
:10955000F984000014020020AC5D010010B40D4B32
:109560009A78DC78A24209D8A11AC9B2884202D8F6
:10957000A242197809D1002010BC70475978891A85
:109580002144C9B28842F6D8197810BC02FB0133D5
:10959000586870477000002010B40A4B9978DA7848
:1095A00018785C788A420AD04A1CD2B201FB00319A
:1095B000944208BF002248689A7010BC704700208F
:1095C000FBE700BF7000002038B50C46054603F0ED
:1095D00035FC21462070034A2846BDE83840FBF799
:1095E00083BB00BF8C1400200122024B11460020D7
:1095F000FBF7EEBB240200202DE9F047194E9DF841
:1096000024A0F478777896F802C0651CEDB2AF42DA
:1096100008BF0025AC4521D0994633460F46114678
:1096200013F8042B02FB0434C4B1804610222046F8
:109630000BF032FA94F82020C4F810900AF0010AD6
:1096400022F0030343EA0A03089AE261C4E90587AA
:10965000F57084F820300020BDE8F0876FF0360008
:10966000BDE8F0879C000020054B9A78D9781878DF
:1096700091421ABF043302FB00300020704700BF44
:109680009C00002030B40C4B02785C78DD781978AF
:1096900094429CBF9A78027095420AD0531C074DA1
:1096A000DBB29C4208BF0023037002FB015030BCB8
:1096B00070470020FBE700BF9C000020A0000020B6
:1096C000064B9978D8781A78884205D001FB023386
:1096D000586810B1203070470020704748000020C3
:1096E000F8B5144A9378D478117855789C421FD0F5
:1096F00003FB012101334C68DBB29D4208BF00230C
:1097000093709CB1012500262768E06125712660D1
:1097100003F094FB084A207021463846FBF7E4FA30
:10972000064B30462A462946FBF752FB2046F8BD39
:109730000024FBE7480000208C14002024020020B5
:10974000F8B50568D5F8CC700646EFB1D5F8D0402D
:109750000023C5F8CC302CB300214FF6FF730A224A
:10976000C5F8D01004F11C002271E3801E220BF01A
:10977000BEF93C23A660384623772146FFF702FE58
:10978000BDE8F840FFF708BE0A484FF4D761FAF782
:109790009DF9D5F8D040D5F8CC700023C5F8CC3071
:1097A000002CD9D1034840F2BC61FAF78FF9D5F803
:1097B000D040D1E7E85D010060BB38B5194D0A7CA7
:1097C00001F11C030C46AB60A2B14A692AB11648EC
:1097D00040F29E61FAF77AF9AB6814491448A36124
:1097E00000226161E8600F4B11460220FBF7F0FA9E
:1097F00088B938BD0D4BEB6001212B460220FBF7E9
:10980000E7FA0028F5D0BDE83840074840F2AA61E1
:10981000FAF75CB97047BDE83840034840F2A561EB
:10982000FAF754B954020020E85D010041970000A6
:109830008DF0000000B9704710B50C46FFF738FEF8
:10984000844206D0BDE81040024840F25F61FAF75A
:109850003DB910BDE85D010030B5134C134A1C1B27
:1098600064091D46A2FB043414F0FF0F83B014D129
:10987000A21C0F4B0095D2B201210020FCF7B6FECE
:1098800030F0020307D00B484FF4D06103B0BDE8BD
:109890003040FAF71BB903B030BD064840F27B6197
:1098A000FAF714F9E4E700BF081B002029499224C5
:1098B000B9970000E85D01002DE9F04115464FF62B
:1098C000FF7295428AB01C4618D01B7C0133DBB274
:1098D00080460F462374002B51D02C4E2C4BC6F8DB
:1098E0000080002204F11C0C114601209E6077606C
:1098F0003581C6F80CC0FBF76BFA38B994F82850DC
:1099000015F001050CD00AB0BDE8F08121484FF4F4
:10991000C561FAF7DBF894F8285015F00105F2D18B
:10992000042109A805F088FB09981B491B4A0694E5
:10993000A1FB0031431A01EB5303A21A184C049502
:1099400040F247111B0A520901FB1303A4FB021248
:109950000232144905910133CDE90255CDE9005594
:109960002846D2B201210993FCF7F0FD30F0020342
:10997000C9D0084840F23E61FAF7A8F8C3E70548A5
:1099800040F21C61FAF7A2F8A7E700BFF41B002021
:1099900044020020E85D010021F1D490081B002062
:1099A000294992243598000070B5154C656AEB6D15
:1099B00023B1144840F2D361FAF788F805F1500159
:1099C00005F14C00FBF786F9064690B12868EE6574
:1099D00000F0F0FE0025D4F8D0006562FFF7CCFC63
:1099E000D4F8CC00C4F8D050FFF7BAFCC4F8CC507F
:1099F00070BD044840F2D561FAF768F8E6E700BFA9
:109A0000081B0020E85D01002DE9F0474E4D4F4C4A
:109A1000844694F8D6608A4695E8030082B016F032
:109A2000010699469DF82C809DF8303000908DF805
:109A3000041072D194F82C10208DDFF814E1154633
:109A400027272D2217FB012702AA5244BAF1010F42
:109A500008F0070112F808ACE25D4FEA410103F09B
:109A6000030308BF4FF0000C0AF00F081AF00E0FA6
:109A700041EA032322F01F0294F8D610A4F8D4C0C0
:109A800048EA02020CBF4FF0010C4FF0000C00EA54
:109A90000E0065F342016CF3451203432385E25542
:109AA0004A0704EB0708CBB284F8D61009D569F34E
:109AB000C3030A9984F8D630062204F1D7000AF0CD
:109AC000EBFFE25D02F00F03012B05F0010129D04D
:109AD00098F8013061F38612C3B16FF3C712E255F3
:109AE00094F87C10AD0127237D2213FB012305F0A0
:109AF000400545F00405E5541C44637813B906227B
:109B00001E466270304602B0BDE8F08763F3C712AC
:109B10000623E25588F80130E2E70C26304602B011
:109B2000BDE8F08761F38612944669F3C71C0A9971
:109B300004F807C0062208F108000AF0ADFF0C2364
:109B400088F80130CCE700BF085C0100081B00204A
:109B5000F1FCFFFF0020704730B53A4C94F8D63046
:109B6000DA0785B037D52046FFF78AFC844204D057
:109B700035484FF4E561F9F7A9FF94F82830DB0781
:109B800003AD2BD402220321304B00950020039219
:109B9000FCF72CFD2946FFF765FC002842D12C4834
:109BA000FFF7AAFC98BB2748FFF776FC844204D055
:109BB000254840F24A71F9F789FF636A0BB1FFF754
:109BC000F3FE94F8D63000206FF3000384F8D6300B
:109BD00000F042FA88B3002005B030BD02220392A3
:109BE00003211A4B009501220020FCF7FFFC2946B7
:109BF000FFF738FC0028C5D01248FFF74DFC84421F
:109C0000E9D0114840F23371F9F760FFE3E70E48FD
:109C100040F24771F9F75AFF0A48FFF73DFC8442CA
:109C2000C6D1CAE70748FFF737FC8442D3D00648BD
:109C300040F24171F9F74AFFCDE704F0CDF9002079
:109C400005B030BD081B0020E85D010059940000FC
:109C5000241B0020034A044B801A4009A3FB003058
:109C600080B27047081B002029499224044A0068EA
:109C7000044B801A4009A3FB003080B2704700BF3C
:109C8000081B00202949922438B9054890F8D6309D
:109C900013F0010F08BF002070470020704700BF7D
:109CA000081B002028B9044B93F8D60000F00100EF
:109CB00070470020704700BF081B002050B9064BBA
:109CC00093F8D60010F0010005D093F8290000F0B9
:109CD0000300704700207047081B00202DE9F04169
:109CE00090F82C4004EB8403C4EBC30300F11C0C7C
:109CF00003F1110605461CF8060000F00F0EBEF138
:109D0000010F0F460CEB060138D0904695F82B203A
:109D100094425FFA82FE34D085F82CE0BFF34F8F77
:109D200095F82B20964533D00134E4B2022C1CF870
:109D300006002AD02722022312FB0433C0F340126C
:109D4000C0F3030646EA4216C0F3801246EA8216C2
:109D500000F0800005F12B023043D618D0540231B8
:109D60000622B01C0AF098FE3A46414606F1080069
:109D700006370AF091FE777085F82C400020BDE888
:109D8000F0810134E4B2022CD4D102230024D5E7BF
:109D90001CF806000233D1E70A4601460148FFF7E6
:109DA0009DBF00BF081B00202DE9F04190F87C40CA
:109DB00090F87BE004EB84030546C4EBC30303F196
:109DC000610005F11C0CA6450E4617460CEB000180
:109DD00009D05FFA8EF285F87C20BFF34F8F95F89B
:109DE0007BE0724527D00134E4B2022C25D0272233
:109DF000022312FB04331CF80000C0F3801005F1AD
:109E00007B02800102EB030840F00400D054B31D34
:109E100088F80130023108F1020006220AF03CFE07
:109E20003246394608F108000AF036FE85F87C40D3
:109E30000020BDE8F0810233DDE702230024DAE7E9
:109E40000A4601460148FFF7AFBF00BF081B0020CC
:109E50002DE9F0411C461B7C0133DBB280460F46E6
:109E60001646237483B10F4D0F4BC5F800800022B6
:109E70001C34114601209D60EC606F602E81FAF762
:109E8000A7FF38B9BDE8F08108484FF4F871F9F739
:109E90001DFEE8E7BDE8F04104484FF4FE71F9F714
:109EA00015BE00BF581C002064020020285E01007F
:109EB0000020704730B5054685B008460C46FFF7D0
:109EC000DFFA844204D01F484FF4BB71F9F7FEFD5E
:109ED0002A1D022103AD03911B4B00950321D2B231
:109EE0000020FCF783FB2946FFF7BCFAD0B904F148
:109EF0001C00FFF701FB78B92046FFF7CDFA84423A
:109F000007D010484FF4C471F9F7E0FD002005B008
:109F100030BD002005B030BD0A4840F28511F9F788
:109F2000D5FDE9E72046FFF7B7FA844207D0054898
:109F300040F27F11F9F7CAFD0C2005B030BD0C20AE
:109F400005B030BD285E01005994000038B50E4CB4
:109F500094F84830DB0701D5606A10B10C2528461B
:109F600038BD2146FFF7A6FF05460028F7D194F833
:109F7000483060F3000384F84830FFF785FE00287E
:109F8000EDD104F029F8EAE70C1C002080B338B5C5
:109F90001F4C94F8483013F0010135D1C3F341054B
:109FA0009B070AD50120FCF7CBFB0621FAF782FEBE
:109FB00060B394F84850C5F3410594F83200C0F3FB
:109FC000C10004F04DF894F8333094F832206FF368
:109FD0000003FF2184F83330D30984F8341002D011
:109FE000023D012D06D9BDE838400948F6F748BDC5
:109FF000FFF7ACBF002004F0D1F894F8333043F001
:10A00000010384F83330EEE70C2038BD122038BD50
:10A010000C1C002008B5FFF799FF002008BD00BF09
:10A02000044A054B801A8008A3FB0030C0F34700A8
:10A03000704700BF0C1C0020BD86F21A044A00685D
:10A04000044B801A8008A3FB0030C0F34700704720
:10A050000C1C0020BD86F21A38B9054890F848302B
:10A0600013F0010F08BF002070470020704700BFA9
:10A070000C1C0020044A92F8483003F0010303430B
:10A080000CBF1046002070470C1C002088B90A4AFB
:10A0900092F8483013F001000CD092F83200526A66
:10A0A00003F00103C00903FA00F01AB140F0040004
:10A0B00070470020704700BF0C1C002050B9064BB1
:10A0C00093F8480010F0010005D093F83200C0F377
:10A0D000C1007047002070470C1C002010B4D0E96C
:10A0E0006C240346084664B1944227D0D3F8BC11CF
:10A0F000914218D01268C3F8B021002310BC03604D
:10A100007047D3F8BC11914223D0117901F00301BB
:10A1100003290DD01268C3F8B0210022C3E96D22D3
:10A1200010BC0060704711460968C3F8BC11E1E734
:10A13000D1790329DED00A29ECD1DBE7D3F8B811B5
:10A140001268C3F8B021A14218BFC3F8B421E7D107
:10A15000E3E7002AE8D1D3F8B8111446F0E700BFCE
:10A160004B070CD5810101F57470904228BF104651
:10A170004FF42961884238BF084680B2704710B456
:10A1800000F10D0401F003000444C1F34001E400B8
:10A19000CC40A3B2B3F5A47F00F1280038BF4FF440
:10A1A000A473C4009A4224FA01F128BF1A468A42D5
:10A1B000104638BF084680B210BC704710B50C4638
:10A1C00030B994F8DC306FF3410384F8DC3010BD13
:10A1D00005484FF4C961F9F779FC94F8DC306FF366
:10A1E000410384F8DC3010BD685E010038B5D0F85A
:10A1F000B03104460D461BB190F8521188070DD5B9
:10A20000D4F8B41119B362BBD4F8B8311A682A6013
:10A210001D60C4F8B8512B68B3B138BD94F8AB11C8
:10A22000C907EDD4D4F8BC118B4204BF1968C4F837
:10A23000BC11D4F8B411D1B1002AE5D0114840F2D4
:10A240005F71F9F743FCDFE7C4F8C05138BD2B60FC
:10A25000C4F8B051002ADFD1C4E96D55002BDCD120
:10A26000F2E7084840F27171F9F730FCCCE7196861
:10A2700029601D60002ACED1C4E96D552B68002BE2
:10A28000CBD1E1E7685E010038B51348134B1022CB
:10A290004FF4E471FAF796FC114B0722181D2421A4
:10A2A000FAF790FC0F4B4022181D2021FAF78AFC88
:10A2B0000D4B4722181D0821FAF784FC0B4B0C4963
:10A2C0000C4A0D481B251D8007234FF4A4740B7006
:10A2D00013700480002038BD6C1C0020681C002016
:10A2E000F8380020F8390020FC4100208A4A00207C
:10A2F000AA4E0020A94E00208C4A00202DE9F043F0
:10A30000D0F800802D4983B005464FF4E4724046F2
:10A31000FAF7BCFC05F14C06294606F0AFFA286DA9
:10A32000314601AAFAF7F0FC40B3254C4FF6FF770F
:10A3300004F10409E17894F801C0A2784B1CDBB267
:10A340009C4508BF00239A4230D0227812FB01F2CC
:10A3500019EB020E2AD0DDF804C029F80270DCF8EF
:10A360000010CEF804C001AA0160CCF8000031460C
:10A37000286DE370FAF7C8FC0028DBD1D8F830016B
:10A3800008F5987450B100232146C8F83031FFF722
:10A390001BF9FFF729F903B0BDE8F083094840F243
:10A3A0000471F9F793FBD8F83001ECE705484FF456
:10A3B000DE61F9F78BFB00231B80FFDE6C1C0020A5
:10A3C00074020020685E010010B50C4640B90B4BCA
:10A3D0000022114602209C60FAF7FAFC30B910BD49
:10A3E000074840F27161F9F771FBF0E7BDE81040F2
:10A3F00003484FF4CF61F9F769BB00BFFC040020AC
:10A40000685E010010B50C4660B92046FFF762F89F
:10A41000844206D0BDE8104005484FF4CD61F9F7FD
:10A4200055BB10BD024840F26461F9F74FFBECE701
:10A43000685E010010B50C4660B92046FFF73EF893
:10A44000844206D0BDE81040054840F25F61F9F74C
:10A450003DBB10BD024840F25B61F9F737FBECE70A
:10A46000685E010000B9704710B50C46FFF73EF872
:10A4700084420AD0FFF71CF8844206D0BDE81040A1
:10A48000024840F25461F9F721BB10BD685E01003B
:10A490002DE9F041054626480E4690461F46FAF73C
:10A4A000BFFB002841D0032304794371D5F8B021C4
:10A4B00080F808802343112147720371C1711AB1DA
:10A4C00095F85231990710D5D5F8B4313BB3D5F88A
:10A4D000B8311A6802601860C5F8B8010268DAB1CC
:10A4E000032333700020BDE8F08195F8AB31DB0722
:10A4F000EAD4D5F8BC319A4204BF1368C5F8BC3120
:10A50000D5F8B431002BE2D1136803601060026803
:10A51000C5E96D00002AE3D1C5F8C001E0E702609B
:10A52000C5E96C00C5F8B801D9E76FF03600DAE785
:10A53000F839002070B5044679B190F87E200B7888
:10A5400042F01002012680F87E2043F00303062526
:10A550004E7000200B70CD7070BD2648FAF760FB7E
:10A56000002843D094F87E30027943F01003012193
:10A5700084F87E304171D4F8B03142F003020621F4
:10A580000271C171E3B194F85221910718D494F883
:10A59000AB21D20714D4D4F8BC21934204BF1A686B
:10A5A000C4F8BC21D4F8B421CAB1D4F8B8311A68BF
:10A5B00002601860C4F8B801036863B1002070BD80
:10A5C000D4F8B421002AF0D10360C4E96C00C4F8C7
:10A5D000B801002BF2D1C4F8C001184670BD1A684A
:10A5E000026018600368C4E96D00E6E76FF03600AA
:10A5F00070BD00BFF839002090F85231D0F8B42176
:10A600009B0770B504460D4609D5002A3CD0D0F80A
:10A61000B8311A680A6019602B6833B370BDD0F87E
:10A62000B011E1B190F8AB3190F8E86090F8E90032
:10A63000864203F0010303D094F8EA0003282BD0EC
:10A64000B3B9D4F8BC3199423CD092B90B682B60B5
:10A650000D60C4E96D552B68002BDFD105E042B9D0
:10A660002A60C0E96C55C0F8B851C4F8C05170BD3B
:10A6700072B3D4F8B8311A682A601D60C4F8B851B2
:10A680002B68002BCAD1F0E7D0F8B0310B60C4F8CA
:10A69000B011002BC2D1E8E7087900F003000328CD
:10A6A000CED1C879032801D00A28C9D1B3B9D4F8CA
:10A6B000BC318B421DD00AB3124840F25F71F9F7EA
:10A6C00005FAD6E70B68C4F8BC31002AD1D1BDE742
:10A6D0002960C4E96C55C4F8B85170BD2AB1094865
:10A6E00040F27171F9F7F2F9C3E72960C4F8B0518B
:10A6F00070BD0B68C4F8BC31002ADDD10B682B603B
:10A700000D6089E7685E0100F8B5064624480D46ED
:10A710001746FAF785FA00283ED0BB793979214AE5
:10A72000044678791B0443EA00230B43D6F81C1136
:10A7300096F8DC0013430B40C3F31003C6F81C313A
:10A74000BB7997F805C039791B0443EA0C230B4306
:10A7500021791343C3F310030927082240F00100B5
:10A7600041F00301C6F8203186F8DC002171A01801
:10A770006771E77100210AF0BAF996F81C3123726B
:10A78000492201233046A37262722146FFF734FF4B
:10A7900003232B700020F8BD6FF03600F8BD00BF1A
:10A7A000F8390020D030FEFF0148FAF739BA00BF6F
:10A7B000681C00200149FAF74DBA00BF681C002050
:10A7C00002494FF4E472FAF761BA00BF6C1C002032
:10A7D00002464FF4E4710148FAF754BA6C1C0020A9
:10A7E0000F280CD810B5024604464FF4E471054812
:10A7F000FAF748FA838DA34218BF002010BD00204D
:10A80000704700BF6C1C00200148FAF709BA00BF6E
:10A81000F83800200149FAF71DBA00BFF8380020C7
:10A820000F2852D8F0B50246044689B02A480D4692
:10A830004FF4E471FAF726FA868DA6421CD1274A16
:10A84000D778547891787B1CDBB29C4208BF0023F8
:10A8500099423DD0144614F8041B11FB07F1671808
:10A8600036D090F93DC06652BCF1000F7D60D370C8
:10A8700006DB002009B0F0BD6FF0150009B0F0BD97
:10A88000838E002BF5D090F8DC3013F00204F0D169
:10A8900043F0020380F8DC30114906900123721D59
:10A8A00005910393CDE901442346D2B20494009468
:10A8B00003212046FBF74AFE30F00203D9D00948B5
:10A8C000FD21F9F703F92046D4E76FF01500704732
:10A8D0006FF0360009B0F0BD6C1C0020B8040020F9
:10A8E000BDA10000685E01002DE9F0470F28BDF80A
:10A8F00020A0BDF82490BDF8288035D804460D4628
:10A9000017464FF4E47102463B481E46FAF7BAF97F
:10A91000838DA34228D155BB90F87231D90643D517
:10A9200090F93D30002B65DB90F8042190F805315B
:10A9300093425CD190F80621A0F808A101330121CF
:10A9400022F0070280F8043142F00502002380F86B
:10A950001411A0F80A91A0F80C8180F80621C0F823
:10A9600010311846BDE8F0870220BDE8F087013DB0
:10A9700015F0FF0590F8703190F8712120D09342C6
:10A9800035D090F8723103F00702032A2FD105F079
:10A99000070545F0080523F00F031D4380F87251A9
:10A9A00080F873710020E0E790F8DC30DA0703D517
:10A9B000D0F81C319B07B3D590F8703190F8712115
:10A9C000934214D1B0F87221A0F8746102F0F00241
:10A9D000013342F0080280F87031A0F876A1A0F8A7
:10A9E0007891A0F87A81A0F872210020BDE70C20B0
:10A9F000BDE8F0871A20B8E76C1C00200F281DD88E
:10AA0000F8B5024606460D460D484FF4E471FAF7D4
:10AA100039F9838DB34204460ED100F13807002680
:10AA200084F8C4610522394628460AF035F894F8BE
:10AA3000C4010028F4D1F8BD0220F8BD02207047FF
:10AA40006C1C00200F2816D838B5024604460D4667
:10AA50000A484FF4E471FAF715F9838DA34208D13F
:10AA600090F82C3180F82E51013380F82C310020E1
:10AA700038BD022038BD0220704700BF6C1C00208A
:10AA80000F2818D810B5024604464FF4E4710B485D
:10AA9000FAF7F8F8838DA3420BD190F8193190F8AA
:10AAA0001821934205BF013380F818310C20002093
:10AAB00010BD022010BD0220704700BF6C1C00209A
:10AAC0000F2818D810B5024604464FF4E4710B481D
:10AAD000FAF7D8F8838DA3420BD190F8253190F87E
:10AAE0002421934205BF013380F824310C2000203B
:10AAF00010BD022010BD0220704700BF6C1C00205A
:10AB00000F2836D870B504460E4615464FF4E4714A
:10AB100002462048FAF7B6F8838DA3421FD190F879
:10AB20009A311C0721D490F8DC20D10719D490F871
:10AB3000981190F899218A421DD003F00703032B46
:10AB400004D0033303F00703012B10D8B0F8A4316D
:10AB50006BB9A0F8A461A0F8A651184670BD0220F8
:10AB600070BDD0F81C219206E1D41A2070BD0C20D3
:10AB700070BD0220704790F89A31A0F89E610132B2
:10AB80006FF3020380F89821A0F8A25180F89A315F
:10AB9000002070BD6C1C0020034A044B12881B88E7
:10ABA00002800B80704700BF8A4A00208C4A002038
:10ABB000024A034B10801980002070478A4A002007
:10ABC0008C4A002030B41B254FF429640580158081
:10ABD0000C801C8030BC70470F281AD870B5044612
:10ABE0000D4616464FF4E47102460B48FAF74AF850
:10ABF000838DA3420BD190F86430C3F302032B7012
:10AC000090F86530C3F302033370002070BD02205A
:10AC100070BD0220704700BF6C1C0020024A034B2D
:10AC20001070197000207047AA4E0020A94E002015
:10AC30000F284BD82DE9F0410546884616464FF4BB
:10AC4000E471024622481F46FAF71CF8838DAB4296
:10AC500004462DD190F8AB0110F0080033D194F8E0
:10AC6000DC30DB072AD494F8E82094F8E9309A42E3
:10AC700021D194F8A83194F8A9219A421BD108F067
:10AC800007018900B4F8AA5141F4806107F0070375
:10AC900041EA431306F0010643EA462305F47941ED
:10ACA00001320B4384F8A821A4F8AA31BDE8F08151
:10ACB0000220BDE8F0810C20BDE8F081D4F81C3101
:10ACC00013F4106FCFD11A20BDE8F0810220704735
:10ACD0006C1C00200F2812D838B5024604460D46D9
:10ACE00008484FF4E471F9F7CDFF838DA34204D1F6
:10ACF00090F8C1302B70002038BD022038BD0220F2
:10AD0000704700BF6C1C00200F281DD838B50246C4
:10AD100004460D460D484FF4E471F9F7B3FF838DF7
:10AD2000A3420FD1B0F8D210C38D094A03FB01F33F
:10AD3000C3EB431103EB8103A2FB03239B092B808D
:10AD4000002038BD022038BD022070476C1C002056
:10AD5000D34D62100F281ED838B5024605460C4662
:10AD60000E484FF4E471F9F78DFF828DAA42034635
:10AD70000FD1C28D40F2E24101FB02F242F21071AA
:10AD800001FB042101390020B1FBF2F1A3F8D2103C
:10AD900038BD022038BD0220704700BF6C1C002067
:10ADA000FFF772BA2DE9F04385B0DFF8B090274E77
:10ADB000DFF8AC80002503AF0DE00023A367204639
:10ADC000FEF76AFB844240F29461304601D0F8F706
:10ADD0007DFE102D2DD04FF4E471AAB24846F9F74C
:10ADE00051FF0446FEF74CFB844240F28561304639
:10ADF00001D0F8F76BFE6A1D4FF0020C032100979B
:10AE0000D2B243460020CDF80CC0FBF7EFFB394629
:10AE10000135FEF727FB0028CFD104F11C00FEF717
:10AE20006BFB0028C9D040F28E613046F8F74EFE29
:10AE3000C3E707490748084A002343804B80136053
:10AE4000FFF722FA05B0BDE8F08300BF685E01009D
:10AE500074020020B8040020EC3800206C1C002094
:10AE600059940000014B1888704700BF8A4A00209F
:10AE7000014B1888704700BF8C4A0020014B18789E
:10AE8000704700BFAA4E0020014B1878704700BFE2
:10AE9000A94E00208B689B6810B493F82140E40908
:10AEA00001F1080202D010BCF7F77ABB10BCF7F72B
:10AEB000B3BD00BF2DE9F04F0B68DE880F2E85B0C3
:10AEC00000F2A5800C4607463246BB484FF4E471B9
:10AED000F9F7D8FE838DB342054640F0978022688B
:10AEE00090F85211137F03F00303032B164601F071
:10AEF000010040F0928092F81FA0002800F0978097
:10AF000095F93D30002B01F00401C0F221810029A8
:10AF100000F08086BAF1020F00F0BE83BAF10B0F89
:10AF200000F08486BAF1040F00F09885BAF1050F9D
:10AF300000F0B785BAF1060F00F0C580BAF10D0F29
:10AF400000F0C683BAF1110F40F0B380737F032B7A
:10AF500040F0BC8096F82030033B132B00F2E480D5
:10AF6000DFE813F02706E200E200E200E200E20080
:10AF7000E200E200E200E200E200E200F405E200AA
:10AF8000E200E200E200D505E200470695F8AA31AA
:10AF90008A4243F0030385F8AA3112D1B5F8AA31E9
:10AFA00095F8AC118548184001F007039B00C1F3E8
:10AFB000021143EA4113013A034385F8A921A5F898
:10AFC000AA3195F8AA2196F8213096F82010C2F3FC
:10AFD0008200034001EA52119B0043EA411302F050
:10AFE0000302134313F01C0F85F8AA3102D013F0AB
:10AFF000E00F05D195F8AA3103F0030385F8AA31D3
:10B0000095F8AB3143F0010385F8AB312368032297
:10B010001A71002005B0BDE8F08F002B47D1002841
:10B0200040D103231371002005B0BDE8F08F1C321E
:10B03000BAF1190F4AD801A353F82AF0C1B700009A
:10B040009BB8000099B6000059B9000053BA00003F
:10B0500099BA0000D7BA000007B90000B5B70000E0
:10B06000EFB3000053B30000EDBA000057B7000083
:10B07000D1B60000B1B6000067B6000045B50000CB
:10B080004DAF000021B300002FB20000C5B1000099
:10B09000C5B10000BFB2000045B20000C3B400005B
:10B0A00059B400003D2385F82F312268B9E7002804
:10B0B000B9D03D2385F82F312368032200201A716F
:10B0C00005B0BDE8F08F737F012B5ED03C48F9F7E7
:10B0D000A7FD002800F00486022302794371D5F809
:10B0E000B03180F808A042F0030207210271C1715B
:10B0F00003B395F8522191071CD495F8AB21D207E0
:10B1000018D4D5F8BC21934204BF1A68C5F8BC21F5
:10B11000D5F8B4219AB91A68026018600368C5E9C5
:10B120006D00002B00F0728503230020337105B001
:10B13000BDE8F08FD5F8B421002A00F07085D5F86D
:10B14000B8311A6802601860C5F8B8010368E8E70A
:10B15000002900F09982BAF1020F00F09D82BAF145
:10B160000B0F00F0B885BAF1030F00F0FA83BAF1C3
:10B17000060F7FF4E3AE737F012BA7D10021284691
:10B18000FFF7D8F900287FF445AF95F8523123F046
:10B19000030385F8523195F852315E0706D52268CF
:10B1A0006FF382030D2185F8523111710023A5F848
:10B1B000CC3018462EE700BF6C1C002003FBFFFFBD
:10B1C000F8390020737F092B80D1BAF1140F00F0F9
:10B1D0008D8595F8981195F89921B5F85E30019311
:10B1E0008A42B5F85C30B5F86280B5F8609000919D
:10B1F000029301F04A8195F89A21002102F007029A
:10B20000022A00F08B8596F81FA0BAF1150F3FF4C3
:10B210000AAF0846C949F9F71DFD95F89A3103F0C0
:10B220000703042B7FF4FFAE6FF00F00F2E6737F8D
:10B23000012B7FF44BAF00230322A5F8CC30184636
:10B240003271E7E695F93D30002BFFF63FAF737F93
:10B25000032B7FF43BAF95F8A92195F8A8319A42CA
:10B260003FF462AF95F8AA1101F00303022B7FF4BB
:10B270005BAF96F8213096F82020C1F3820003409E
:10B280009B0043F0030302EA511243EA421313F016
:10B290001C0F85F8AA3102D013F0E00F05D195F804
:10B2A000AA3103F0030385F8AA3195F8AB310022E7
:10B2B00043F0010385F8AB31A5F8CC2034E7737F68
:10B2C000032B7FF403AF95F93D30002BC0F2E885E6
:10B2D00095F8A92195F8A8118A4207D095F8AA31C6
:10B2E00003F00303013B022B41F2178095F8E8308D
:10B2F00095F8E9001B1A03F00303022B00F0928774
:10B3000095F8700195F8713198423FF43FAE311DC8
:10B3100028462A23162205B0BDE8F04FFFF7B8B83B
:10B32000747F012C7FF4D2AE8448F9F779FC014692
:10B33000002800F0D5840379447143F003031322FD
:10B3400028460B71CA71FFF757F9032333710020A8
:10B3500060E695F93D30002BBFF6B8AE747F012C46
:10B360007FF4B4AE7548F9F75BFC0346002800F0A3
:10B37000B78495F8522195F87E1022F005026FF3FC
:10B38000C30185F87E1042F00502017985F852214B
:10B390004471D5F8B02141F003010B201971D87127
:10B3A000002A00F08C8495F85211880700F18784F8
:10B3B00095F8AB11C90700F18284D5F8BC118A4217
:10B3C00004BF1168C5F8BC11D5F8B411002901F00B
:10B3D0002C81D5F8B821116819601360C5F8B8310F
:10B3E0001A68002A7FF4A0AEC5F8C0319CE6737FCE
:10B3F000092B7FF46BAE96F8223096F8210096F870
:10B4000020204F491B0443EA00231343D5F81C01B5
:10B4100095F8DC200B430340C3F31003C5F81C313F
:10B4200096F8223096F8214096F820001B0443EA53
:10B43000042303430B43C3F3100395F81811C5F815
:10B44000203142F00102002385F8DC2085F8191133
:10B45000A5F8CC301846DDE595F93D30002BFFF618
:10B4600035AE777F032F7FF431AE95F8641095F8F1
:10B47000653096F820200B4303F0070313423FF496
:10B48000D2AD95F8E83095F8E9209B1A03F0030354
:10B49000022B3FF4C8AD05F1ED0002F013FB95F867
:10B4A000E92095F8EC30023A022185F8E92085F888
:10B4B000EA10226843F0010385F8EC300020177190
:10B4C000A8E595F93D30002BBFF600AE737F052B44
:10B4D0007FF4FCAD96F8201096F8213041EA030085
:10B4E00010F0070040F0A58695F8A81195F8A9314D
:10B4F0008B423FF419AE95F8AA3103F00303022BF7
:10B500007FF412AE95F8642095F8AB3185F8A91157
:10B5100060F30003114662F3061185F8AB3113F0B6
:10B520000403A5F8CC0085F86410C2F3020240F0D1
:10B53000B78722680321184611716BE5F83900209E
:10B54000D030FEFF95F93D30002BFFF6BFAD737F85
:10B55000182B7FF4BBAD95F8702195F871319A42A4
:10B560003FF4E2AD95F8723103F00703042B7FF44A
:10B57000DBAD378C052FBAB240F2C986708CB0F5BE
:10B58000486F83B200F2C3869A4200F2C086B18C43
:10B59000B1F5FA7F1FFA81FC80F0B986F28CA2F136
:10B5A0000A0E1FFA8EFE40F67649CE451FFA82F843
:10B5B00000F2AD860CFB033CBCEB880F80F0A78645
:10B5C00096F828E07345C0F0A2860023A5F87A21FA
:10B5D00085F87CE1A5F87471A5F87601A5F87811D5
:10B5E000A5F8CC3096F82A1096F8293095F87221F3
:10B5F00043EA0123A5F87E3196F82C1096F82B30FB
:10B6000043EA0123A5F8803196F82E1096F82D30E4
:10B6100043EA0123A5F8823196F8301096F82F30CE
:10B6200043EA0123A5F8843196F8321096F83130B8
:10B6300043EA0123A5F8863196F8341096F83330A2
:10B6400043EA0123A5F8883196F8353096F836009C
:10B650002668012143EA002361F30202A5F88A313A
:10B6600085F8722160E5737F182B7FF42FADB94FF9
:10B670003B68002B00F0F5829D4200F0F282311D04
:10B68000284620230F2246E6BAF1070F00F03B813F
:10B69000BAF1020F7FF46BAD737F022B7FF416AD0E
:10B6A00096F8203085F82F31032333710020B1E460
:10B6B00095F93D30002BFFF609AD737F092B7FF420
:10B6C00005AD311D284605B0BDE8F04FFFF71CB8A9
:10B6D000737F022B7FF4FAAC95F8E83095F8E920F7
:10B6E0009A4204D095F8EA20032A00F01B8695F8C8
:10B6F000A80195F8A931834200F0608596F82020D2
:10B7000086F82120232A12D095F8643095F8AB11E1
:10B7100085F8A901C3F3020060F306136FF300017B
:10B72000002085F8643085F8AB11A5F8CC0095F8B9
:10B73000AB3159077FF5F8AC10233277337195F8A8
:10B740006430C3F30203737795F86530C3F30203E3
:10B75000B37700205EE4747F062C7FF4B7AC95F8D5
:10B760002631DF0740F1148413F002037FF4DCACD0
:10B7700095F82421A5F8CC3085F8252196F82030BD
:10B7800085F8273196F8221096F8212095F8263171
:10B7900042EA0122A5F8282196F8232096F82410E1
:10B7A00043F0020342EA0122A5F82A2185F8263156
:10B7B00000202FE495F93D30002BFFF67EAF85E4A5
:10B7C00095F93D30002BBFF681AC737F0C2B7FF4D5
:10B7D0007DACB6F82900EB8EC31A1B0400F1B085CE
:10B7E00095F8E83095F8E9209B1A03F00303022B43
:10B7F00000F0D085574B1A68002A00F0438696F86F
:10B80000203085F81431B6F8211095F8063140F251
:10B81000E24202FB01F2C5F8102196F8241096F8D6
:10B82000232042EA0122A5F8082196F8261096F86E
:10B83000252042EA0122A5F80A2196F8271095F85A
:10B84000052196F82860A5F8EC0023F00703D5F849
:10B85000000143F00403013A41EA062185F805217D
:10B8600085F80631A5F80C11786023681F602368FD
:10B87000C5F800310023236095F8702195F87131E7
:10B8800093423FF493AC95F8723103F00703042B15
:10B890007FF48CAC85F8712188E495F93D30002B5C
:10B8A000BFF614AC737F082B7FF410ACB6F82540BC
:10B8B000EB8EE31A180400F1438595F8E83095F80B
:10B8C000E9209B1A03F00303022B00F06385052295
:10B8D00006F1200105F1ED0009F0DEF895F8EC2005
:10B8E00095F8E930A5F8F24002206FF30002023B20
:10B8F000032185F8EA0085F8EC2085F8E93000207E
:10B900003171FFF787BB737F022B7FF4DFAB95F8B4
:10B91000711195F8703196F82020994202D00F2AC3
:10B9200000F05C8395F8983195F89911994202D00E
:10B93000142A00F0338495F8A81195F8A9318B42A8
:10B9400002D0162A00F00485122A04BF03233371A3
:10B950002CE400BFEC38002095F93D30002BBFF6F9
:10B96000B5AB737F172B7FF4B1ABDF48F9F758F90C
:10B970000746002800F0B48103790D2243F0030349
:10B980004FF0040800F108040371427180F8078049
:10B990000C21204603F03CFB2146082205F1F6006D
:10B9A00009F07AF8424607F1100105F19C0009F010
:10B9B00073F8D5F8B031002B00F0568295F852217B
:10B9C000910700F1518295F8AB21D20700F14C822A
:10B9D000D5F8BC21934204BF1A68C5F8BC21D5F83C
:10B9E000B421002A00F01A86D5F8B8311A683A60F6
:10B9F0001F60C5F8B8713B68002B00F0CF8495F844
:10BA0000EC2095F8E9300221023B61F301020321A9
:10BA100085F8E93085F8EC2085F8EA10082206F16F
:10BA20002A0105F1EE0009F037F8042206F132018F
:10BA300005F1980009F030F895F85231B5F8CA20B0
:10BA4000A5F8CC2043F0010385F852310020FFF720
:10BA5000E1BA95F93D30002BFFF638AB737F0D2B23
:10BA60007FF434AB082206F1200105F1F60009F05D
:10BA700013F806F12801042205F19C0009F00CF8E6
:10BA800095F85231226843F00103032185F85231C1
:10BA900000201171FFF7BEBA95F93D30002BFFF67B
:10BAA00015AB95F8E82095F8E9309A423FF40EABD3
:10BAB00095F8EA30032B7FF409AB727F012A7FF4FB
:10BAC00005AB95F8EC206FF3010285F8EC2000201F
:10BAD0003371FFF79FBA737F012B7FF4F7AA95F9B3
:10BAE0003D30002BFFF64AABFFF74FBB737F012BB6
:10BAF0007FF4ECAA95F93D30002B80F29B8095F8FD
:10BB00007E306FF3041385F87E30FFF70DBB95F898
:10BB1000982195F8993193423FF406AB002309210F
:10BB200085F89921A5F8CC307177B5F85E20B5F885
:10BB30005C70B5F86240B5F8601032841522184682
:10BB4000B7847484F184F277FFF764BA95F87121B1
:10BB500095F870319A423FF4E7AA95F93D1096F8AE
:10BB600021200029C0F251851A2A00F0838595F81A
:10BB7000722102F00701042900F0328513077FF5D6
:10BB8000D3AA96F8213033770C223271EB8DB5F8B9
:10BB9000C620298EF38303FB02F27D2303FB02F30D
:10BBA00031844FF47A720020B3FBF2F37384FFF711
:10BBB00031BA95F8E83095F8E9209A423FF4B4AAF2
:10BBC00095F8EA20032A7FF4AFAA95F8522185F868
:10BBD000E93022F00302002385F85221A5F8CC3089
:10BBE00096F8212086F820200D221846F277FFF7DC
:10BBF00011BA95F8A80195F8A93183423FF494AAA7
:10BC000096F82120232A7FF47FAD90E5C5F8C00186
:10BC1000FFF78ABABAF1020F7FF488A93CE5036006
:10BC2000C5E96C00C5F8B801FFF77BBA537F012B5B
:10BC30007FF44CAA2C48F8F7F3FF034600284FD0B6
:10BC400095F8520195F87E20197940F0010085F8A9
:10BC5000520122F01802012085F87E205871FFF76A
:10BC600098BB95F93DC095F8710195F87021009049
:10BC7000BCF1000FC0F20381824209D095F8722115
:10BC800012F0070200F09482043A012A40F29082F6
:10BC900095F8E82095F8E900121A02F00302022A4A
:10BCA00000F0EA8395F8A80195F8A921904200F0E8
:10BCB0000984311D28462A230F22FFF72CBBD5F813
:10BCC000B41100297FF485AB1A60C5E96C33C5F85F
:10BCD000B831FFF785BB537F012B7FF4F7A90EE73F
:10BCE0006FF03600FFF796B9F8390020DD48F8F715
:10BCF00097FF01460028F3D095F8980195F899210F
:10BD0000B5F85E3001939042B5F85C30B5F86280CA
:10BD1000B5F860900090029340F0E384328C1A2AC8
:10BD200040F27E82B5F8D600824228BF0246B6F8BD
:10BD300024C095F8DC00019BBCF11B0F34BF9E466C
:10BD40004FF01B0EC00740F16782D5F81C010305B8
:10BD500040F19E83B5F8D800B0F5296F28BF4FF4A5
:10BD60002960B0F5A47F38BF4FF4A4704FF4296C5C
:10BD7000B6F822B0F38C0393BBF5A47FC0F00C821D
:10BD800095F864A0834528BF83461AF0040F0AF093
:10BD9000070040F06E8300F1280A4FEACA0A4010FB
:10BDA0002AFA00F0584538BF584680B2039BB3F5D5
:10BDB000A47FC0F0EF81BCF5A47F95F865A038BFE3
:10BDC0004FF4A47C634528BF63461AF0040F9B46DA
:10BDD0000AF0070C40F04A830CF1280A4FEACA0A1D
:10BDE0004FEA6C0C2AFA0CFCDC4538BFDC461FFA23
:10BDF0008CFC019B9E4500F0D582009BA5F89CE140
:10BE0000013B85F89931A5F89E2195F89A31A5F85E
:10BE1000A0C1A5F8A201002900F0ED82052666F375
:10BE2000020385F89A31D5F800317B6023681F60E2
:10BE30002368C5F800310023236000293FF4F3A8EC
:10BE40000B798A8143F0030315220924C881A1F8E4
:10BE500008E02846A1F80AC00B714C71CA71FEF7C0
:10BE6000CBFB0020FFF7D6B8D5F8B421002A7FF429
:10BE7000BBAD3B60C5E96C77C5F8B871BBE500990F
:10BE80008A4200F0F38095F87221900700F0EE806E
:10BE9000754841F2A561F7F719FE0020FFF7BAB81F
:10BEA0007048F8F7BDFE024600283FF419AF95F838
:10BEB000AA1195F8A9E195F8A87195F8AC3102207E
:10BEC00060F30101774585F8AA11C3F3020403F07A
:10BED000070CC3F3021013D1C9B26CF3840195F8B7
:10BEE000ABC1B5F8CA30A5F8CC30013F60F34711BB
:10BEF0006FF3820C85F8A97185F8AA1185F8ABC19A
:10BF000095F8AA1196F8213096F82070C1F3820CAA
:10BF100003EA0C0307EA51179B0001F0030143EA0F
:10BF200047130B43032185F8AA3113795171D5F8D2
:10BF3000B011147243F00303172450721371D471BB
:10BF4000002900F01C8195F852319C0700F11781FF
:10BF500095F8AB31D80700F11281D5F8BC31994280
:10BF600004BF0B68C5F8BC31D5F8B431002B00F024
:10BF7000F883D5F8B831196811601A60C5F8B8218E
:10BF80001368002B7FF4D0A8C5F8C021FFF7CCB808
:10BF90003448F8F745FE014600283FF4A1AE95F875
:10BFA0002621037942F0010285F8262143F003039C
:10BFB0000C22447103710B244FF0FF336FF00E001D
:10BFC000CA7105224872CB720B730C728A722846B2
:10BFD000FEF712FB03233371FFF7D0BB95F87221F4
:10BFE00095F93D1042F01002002985F87221C0F247
:10BFF0000C8295F8043195F80521934206D01A4831
:10C0000041F22971F7F762FD95F8052195F8720163
:10C01000B5F87631A5F80831052363F3020095F8E9
:10C020000611B5F87861531EC0F3C00285F80531DA
:10C030009200012385F814311A4321F007031A43B3
:10C040002168B5F87A4185F8720185F8062100204B
:10C050000322C5F81001A5F80A61A5F80C410A7180
:10C06000FEF7D8BFF8390020685E0100B6F82080DE
:10C07000B8F1050F1FFA88F27BD9B6F822E0BEF5B9
:10C08000486F1FFA8EF174D88A4272D8B6F824C06D
:10C09000BCF5FA7F1FFA8CFA6BD2F08CA0F10A097A
:10C0A0001FFA89F940F6764BD94582B261D80AFB6E
:10C0B0000119B9EB820F5CD296F828B0594558D3D4
:10C0C000A5F878C1A5F87481A5F876E1A5F87A01FC
:10C0D00085F87CB196F82AE096F82900B5F82EC0CC
:10C0E00040EA0E20A5F87E0196F82CE096F82B0089
:10C0F00040EA0E20A5F8800196F82EE096F82D0073
:10C1000040EA0E20A5F8820196F830E096F82F005C
:10C1100040EA0E20A5F8840196F832E096F8310046
:10C1200040EA0E20A5F8860196F8330096F834E030
:10C1300040EA0E20A5F8880196F8350096F836609A
:10C14000614540EA0620A5F88A0100F0F48295F8DE
:10C150007221032161F3020285F87221009A013AEB
:10C1600085F87121002B7EF45EAF3D601846FEF726
:10C1700051BF311D28461E230F22FFF7CCB8D5F83A
:10C18000B431002B7FF4F5AE1160C5E96C22C5F81F
:10C19000B821F5E6C4462CE6484607E695F89A210C
:10C1A00085F8993142F0080385F89A31FEF7FEBF11
:10C1B000311D284623230F22FFF7ADB895F87121D2
:10C1C00095F870319A423FF4A2AC96F8203086F888
:10C1D000213095F93D20002AC0F234821A2B00F05C
:10C1E000498295F8722102F00703042B7FF4C6AC54
:10C1F000B24F3B689D4206D0B14841F2B201F7F719
:10C2000065FC95F8722195F8703185F8713100233D
:10C210003B60A5F8CC30B1E44FF4A4708446A7E5A8
:10C22000029A84E595F8EA30032B7FF470A8FFF7B3
:10C2300067B8708CEA8E821A120400F1818095F83A
:10C24000E82095F8E9C0A2EB0C0202F00302022AF2
:10C2500000F0A08095F8A8C195F8A921624519D0F1
:10C2600095F8AA2102F00302022A13D195F8AB2116
:10C2700095F8EC6085F8A9C16FF30002C2F3800C59
:10C280006CF341064FF0000C85F8AB2185F8EC60AB
:10C29000A5F8CCC095F8EC20A5F8EE009B0003F0C3
:10C2A0001C0343EA411302F002021343D5F80021B4
:10C2B00085F8EC307A6023681F602368C5F8003188
:10C2C00000232360FDF78CF80446002800F0B481B9
:10C2D0002368D5F800215A6095F8E92095F8EC30EC
:10C2E000C5F80041023A062113F01C0F85F8E92039
:10C2F00085F8EA103EF497AE95F86420C3F3820304
:10C3000063F3061285F864200020FEF783BE311D1A
:10C3100028461E231022FEF7FEBF311D2846232388
:10C32000FEF7F8BF95F8522185F8E93022F00302B4
:10C33000002385F85221A5F8CC301846FEF76ABED6
:10C3400003233371282385F82F310020FEF762BEC6
:10C3500095F8AB3195F8642085F8A91123F009030D
:10C36000114643F0080362F306115F0785F8AB310D
:10C3700085F86410C2F3020273D5216800231020EF
:10C3800008717277337795F86530C3F30203B3779A
:10C39000FEF70CBF032333712A23D4E7C5F8C0711D
:10C3A000FFF72DBB009B85F89931029B00279A422D
:10C3B000A5F8CC7000F05381A5F862C0002900F008
:10C3C000498195F89A41009BA5F89CE10327013B20
:10C3D00067F3020485F89931A5F89E21A5F8A0C15C
:10C3E000A5F8A20185F89A41A6F820E0B284A6F843
:10C3F00022C0F08421E5042666F30203A5F85C2040
:10C40000A5F8600085F89A310DE52C4F3A68954201
:10C4100006D02B4841F24171F7F758FB95F870317F
:10C4200095F8722185F8713100233B6012F0080302
:10C4300022683FF47FA80C211A2311713377EB8D0A
:10C44000B5F8C620298EF38303FB02F27D2303FB9C
:10C4500002F331844FF47A72B3FBF2F37384FEF784
:10C46000A5BE236803221A71FEF7A0BE4FF4296C03
:10C47000BAE44FF4296095E495F8EA20032A7FF4A2
:10C4800018AC0FE41D60FFF7BAB90021FEF7BDBE7E
:10C4900010F4807F4FF4A4700ED04FF0A80C67E426
:10C4A0002368102119713077727795F86530C3F3DE
:10C4B0000203B377FEF7AEBD844659E4EC380020A2
:10C4C000685E0100B6F82080B8F1050F1FFA88F009
:10C4D0007FF64FAEB6F822E0BEF5486F1FFA8EF237
:10C4E0003FF647AE90423FF644AEB6F824C01FFA7E
:10C4F0008CF0BCF5FA7FCDE90100BFF43AAEF08CC8
:10C50000ADF80C00A0F10A091FFA89F940F6764A45
:10C51000D1451FFA80FB3FF62CAE019800FB0229A3
:10C52000B9EB8B0FBFF425AE96F828A05245FFF467
:10C5300020AEBDF80C00A5F878C1A5F87481A5F867
:10C5400076E1A5F87A0185F87CA196F82AE096F8BC
:10C550002900B5F82EC040EA0E20A5F87E0196F815
:10C560002CE096F82B0040EA0E20A5F8800196F802
:10C570002EE096F82D0040EA0E20A5F8820196F8EC
:10C5800030E096F82F0040EA0E20A5F8840196F8D6
:10C5900032E096F8310040EA0E20A5F8860196F8C0
:10C5A000330096F834E040EA0E20A5F8880196F8AA
:10C5B000350096F83660624540EA0620A5F88A0103
:10C5C00000F097808E0795F872217FF5C2AD216843
:10C5D000022060F30202032085F872210871BDE594
:10C5E000634F39688D4208D0624841F2B201F7F7D3
:10C5F0006DFA95F8703195F8722185F87131002344
:10C600003B60A5F8CC30FFF7B9BA232A3FF4AFAAB4
:10C61000D5F89421C5F8E420FFF7A9BA1A683A6062
:10C620001F60C5E96D77FFF7E6B9116819601360FF
:10C63000C5E96D33FEF7D4BE4E4841F26A31F7F7D3
:10C6400045FA45E6232B3FF4CCADD5F89431C5F837
:10C65000E430C6E5A5F85C20A5F86000C4E64845CE
:10C660007FF4AAAEC4457FF4A7AE236803241C71EF
:10C67000FFF7E3BB95F8043195F80521934206D006
:10C680003C4841F29701F7F721FA95F8052195F812
:10C690007211B5F87631A5F80831052363F302016C
:10C6A00095F8060185F87211C1F3C0039B0020F0D4
:10C6B000070043F001030343013A012485F80521F3
:10C6C0000020B5F8782185F80631B5F87A3185F87B
:10C6D0001441C5F81001A5F80A21A5F80C31FEF7A0
:10C6E00023BD95F89A2112F0060F3FF417ABFEF721
:10C6F00085BD2A8E029882427FF464AF40F2E24206
:10C7000002FB0CF042F21072B5F8C66002FB0B029D
:10C71000013AB2FBF0F292B296427FF453AFB5F811
:10C72000722102F0F00242F00102A5F872212268A3
:10C730000321117112E5288E50457FF408AD40F2B7
:10C74000E24000FB01F142F2107000FB0212B5F86A
:10C75000C600013AB2FBF1F292B290427FF4F7AC1C
:10C76000DDE70B6813600A60C5E96D2208E400BFCD
:10C77000EC380020685E01002DE9F8433D4F3E4E45
:10C78000FA7804463D1D2EE042464FF4E4713046EF
:10C79000F8F778FA828D9045034632D1D9F8041023
:10C7A0000A79487902F00302022A35D0002834D1F0
:10C7B000D3F8BC2100200860002A45D0D3F8C0215E
:10C7C00002B11160C3F8C011FA78BB7879789A4247
:10C7D00005D00133DBB2994208BF0023BB70013C96
:10C7E00014F0FF0439D0BB783978934235D013FB6D
:10C7F00001F315EB030930D035F80380B8F10F0FC2
:10C80000C2D9D9F804100B796FF301030B714FF6FD
:10C81000FF70FCF7FDFDD7E708B393F9AC010028E2
:10C82000C6DA93F8AC01012A6FF3C71083F8AC01A4
:10C83000BED10A79022060F301020A71D3F8BC214B
:10C8400000200860002AB9D1D3F8B021C3F8BC1188
:10C85000002AB3D1C3F8B011B4E7BDE8F88393F868
:10C86000AC2142F08002404683F8AC21FCF7D0FDB9
:10C87000AAE700BFB80400206C1C0020324B2DE951
:10C88000F0471A68D0F8004180F84C11824204BF8A
:10C8900000221A60828DA0F836210B2382B0064652
:10C8A00000F11C0980F8343144B103252068214689
:10C8B00044680D71FCF766FD002CF7D1D6F8B01175
:10C8C00031B3DFF89080DFF888A006F16C0707E04D
:10C8D000294620463A46F8F707FAD6F8B011B9B11A
:10C8E0003046FDF7FBFB05464046F8F799F904464C
:10C8F0000028EDD14FF4DB615046F7F7E7F8294601
:10C9000020463A46F8F7F0F9D6F8B0110029E7D1F9
:10C9100096F82C200D4BCDF800900532D2B20121B3
:10C920000020F9F763FE30F0020304D0084840F21B
:10C93000C561F7F7CBF84FF6FF73FF20B38502B060
:10C94000BDE8F047FFF718BFEC380020C9A300008E
:10C95000685E0100FC4100202DE9F041C669B28B00
:10C960004FF6FF739A428AB052D090F82730F4689D
:10C97000012B054600F02081022B43D0002B00F054
:10C98000FC8094F82F11002940F0A580B6F824808F
:10C99000AB8C099108F101070891BFB2DBB396F99E
:10C9A0002D30002BC0F2188195F826300022A4F813
:10C9B000C420A3BBB4F8C85025B9B4F8C650A4F835
:10C9C000C8507DB3BD4240F21281ED1BABB2062BC5
:10C9D0004FF00005A4F8C830B58440F2F38096F912
:10C9E0002D30AB421EDAB8F1000F40F0EB80D4F8E6
:10C9F000E0506B0815F0010518BF43F00043C4F880
:10CA0000E0300FE03D2184F82F112046FFF736FF7C
:10CA10000AB0BDE8F08195F82630002B75D00025CE
:10CA2000A4F8C850B4F8CC302BB1BB4240F2E4803B
:10CA3000DB1BA4F8CC30B4F8D4302BB1BB4240F2AD
:10CA40008A80DB1BA4F8D430B4F8D02094F8E83006
:10CA500094F8E91052B1BA4269D8B4F8CC20002059
:10CA6000A4F8D00012B9994200F0D4805B1A03F008
:10CA70000303022B63D094F8042194F805319A4201
:10CA800000F0A2800022B284DDE908430DB94245DE
:10CA90005BD0013291B20BB9002C44D0327F6E4F83
:10CAA000F6680696002005320391CDE90100D2B266
:10CAB0000495009405970121F9F748FD30F0020331
:10CAC000A6D0FCF7F5FC8642A2D0644840F2D241E1
:10CAD000F6F7FCFF9CE796F92D30002B95DB94F8D8
:10CAE000DC3013F0020290D13D298ED0B6F82480BC
:10CAF000A98C099208F101070892BFB200298AD0D7
:10CB000043F0020384F8DC304EE7B4F8C430002B65
:10CB10003FF450AFBB4240F28480DB1BB4F8C850F6
:10CB2000A4F8C4304DE700296BD02346B6E75B1A62
:10CB300003F00303D71B022BA4F8D0709BD194F809
:10CB4000EA30013B012B96D89CE713B9002C3FF447
:10CB50005FAF2946A2E7FCF743FC0146002855D009
:10CB60000023B28BA4F8D4300E23C2800371006876
:10CB7000FCF708FCFCF710FC66E796F86E30190726
:10CB800004D494F85231DA077FF5FBAE338CB4F855
:10CB9000D220991D8A42C4BFD31A063BB4F8CE10E6
:10CBA000CCBF9BB21346994210D0A4F8CE30A4F863
:10CBB000D030A4F8D420E4E60023A4F8D430A4F8BC
:10CBC000D030DEE601252DE7B28C5DE7B4F8D41055
:10CBD00000297FF4D6AEEAE708AA09A92846F5F7A6
:10CBE000D3FED4F8B0310BB30023B384DCE6204687
:10CBF0000821FFF743FE0BE720462221FFF73EFE08
:10CC000006E7002D3FF404AF234647E70123A4F8CD
:10CC1000D43019E78B1E052284F8E93084F8EA2025
:10CC200029E720463E21FFF729FEF1E6FF20FFF726
:10CC3000A3FDD4F8B021002AD6D1D6E91601F8F721
:10CC40005BF80028D0D196F83030DB077FF5ACAE2A
:10CC5000338CB384A8E600BF65A40000685E0100C1
:10CC6000D0F8B031002B00F0DE8001392DE9F0471B
:10CC7000DFF8B481DFF8B4910446CDB24FF0010A79
:10CC800012E04046F7F7CCFF0746002866D0314651
:10CC9000384604F16C02F8F727F8D4F8B031013DBA
:10CCA000EDB2002B00F0818094F8AB21D10703D4C2
:10CCB00094F8522192075ED5D4F8B421934274D1EE
:10CCC000FF2D72D0D4F8B0112046FDF707FA037992
:10CCD00003F00303032B0646D3D1C379033B142B84
:10CCE000CFD801A252F823F045CD000045CD000079
:10CCF00083CC000083CC000083CC000083CC0000F8
:10CD000083CC000045CD00003DCD000083CC000069
:10CD100083CC000083CC000083CC000083CC0000D7
:10CD200083CC000083CC000083CC000083CC0000C7
:10CD300083CC000069CD000069CD000094F93D303E
:10CD4000002B9EDA94F8523143F0020384F85231FA
:10CD50004046F7F765FF0746002898D140F24E514C
:10CD60004846F6F7B3FE92E794F8AB3143F001037F
:10CD700084F8AB3185E71A7902F00302032A9FD1C8
:10CD8000DA79032A01D00A2A9AD194F8E91094F8A2
:10CD9000E8208A420BD094F8EA20032A90D01A683F
:10CDA0001AB1D4F8B4118A422CD0BDE8F08794F8B7
:10CDB000190194F818118842F1D194F8250194F8DA
:10CDC00024118842EBD194F8710194F870118842D3
:10CDD000E5D194F8990194F898118842DFD194F83C
:10CDE000A90194F8A8118842D9D194F8EC30023AFC
:10CDF0006AF3010384F8E920032284F8EC3084F814
:10CE0000EA205DE7D4F8B811D4F8C001C4F8B02125
:10CE10000A681A600B60C4F8BC3100287FF450AF78
:10CE2000C4F8C0314CE77047FC410020685E010047
:10CE30000149F7F70FBF00BFFC410020014BD87834
:10CE4000704700BF74020020F0B40B4B9C78DE7872
:10CE50001F78B4420DD0043314FB07F405461819AB
:10CE600005D02E701C5B43680C8013601868F0BC02
:10CE700070470020FBE700BF7402002030B4094B6C
:10CE80009C781D7884420BD0043314FB05F41819E8
:10CE900004D01C5B43680C801360186830BC70477A
:10CEA0000020FBE77402002010B40A4B9978DA786E
:10CEB00018785C788A420AD04A1CD2B201FB003151
:10CEC000944208BF002248689A7010BC7047002046
:10CED000FBE700BF7402002070B50F4AD678557882
:10CEE0009478731CDBB29D4208BF00239C420AD099
:10CEF000154615F8044B14FB06F42E1903D02853DD
:10CF0000D370716070BD054840F28C51F6F7DEFDBC
:10CF100000231B80FFDE00BF74020020685E01005A
:10CF2000F0B5537983B0144605460F465BB32379B9
:10CF300003F00302032A16D04FF6FF7295420AD17E
:10CF40006FF301032371002621462846FCF760FA9F
:10CF5000304603B0F0BDB8482A464FF4E471F7F705
:10CF600091FE0646F0E74FF6FF739D4211D1002671
:10CF70003868844235D00028E6D0B04840F2AE513F
:10CF8000F6F7A4FDE0E7AD4840F29B51F6F79EFDB1
:10CF9000CDE7A9482A464FF4E471F7F773FEE37929
:10CFA000023B0646162B18D8DFE813F01501F900EE
:10CFB000460017001700170017001700E8005A0076
:10CFC000170050001700170017004D00170017003A
:10CFD000CF00A7001F002600D7003868A042CAD1A2
:10CFE00020469749F7F736FEB2E790F8AA310222B9
:10CFF00062F3010380F8AA3196F93D30002B14DA70
:10D00000904996F8642096F8AA3103C942EA93033E
:10D010000DF1080C0CE9030003F00703634413F857
:10D02000083C63F3061286F8642096F8AB316FF380
:10D03000000386F8AB319BE796F8523143F00203C8
:10D0400086F8523194E7237A032B91D196F8523126
:10D05000002223F0030386F85231A6F8CC2087E79C
:10D0600090F93D30002BE7DB2379032243F00303E3
:10D070001721E27108222371617100F25511A01885
:10D0800007F00AFD96F85331237496F8543163740F
:10D090000C2104F1120001F0BBFFD6F8B031002BD7
:10D0A00000F0A38096F85221910700F19E8096F837
:10D0B000AB21D20700F19980D6F8BC21934204BF7E
:10D0C0001A68C6F8BC21D6F8B421002A00F0AC805A
:10D0D000D6F8B8311A6822601C60C6F8B8412368D7
:10D0E0003A68002B7ED0002A7FF432AF534840F2DA
:10D0F000A751F6F7EBFC002073E790F8981190F831
:10D1000099318B423FF434AF90F89A2102F0070333
:10D11000032B05D0033303F00703012B3FF65DAF6C
:10D12000B6F89E31A6F85C3002F00703B6F8A2010B
:10D13000A6F86000052B71D0B6F8A431002B5FD1A2
:10D1400086F89911A6F8CC3012E790F89A310222AD
:10D1500062F3020380F89A310AE790F8EC3090F815
:10D16000641090F8AB21C3F3820363F306116FF3ED
:10D17000000280F8641080F8AB21F9E690F8523193
:10D18000B0F8CA20A0F8CC2023F0060390F8502174
:10D1900080F8512143F0060380F85231E8E6082276
:10D1A00004F11201EE3007F077FC042204F11A01B9
:10D1B00006F1980007F070FC96F85231B6F8CA10E4
:10D1C00096F85021A6F8CC1043F0020386F85231AD
:10D1D00086F85121CCE6217A132908BF1621FFF7E2
:10D1E0004DFBC5E6C6F8C0417DE7D6F8B421002A5C
:10D1F0007FF46EAF2360C6E96C44C6F8B8416FE7B0
:10D20000002161F30202A6F89E31B6F8A63186F835
:10D210009A21A6F8A411A6F8A231A9E6042363F383
:10D22000020286F89A21A3E61A6822601C6023682D
:10D23000C6E96D4454E700BF6C1C0020685E010025
:10D24000F8390020A85E010090F8E93090F8E82055
:10D25000934203BF013380F8E83000200C20704770
:10D2600090F84810B0F84430C1F30212022A10D0EE
:10D27000042A12D0DB080A3B9BB290F86220B0F877
:10D280004000D20644BF043B9BB2984228BF1846D8
:10D2900070479B080B3B9BB2EFE709074BBFA3F519
:10D2A0001473A3F5D7739B111B11023B9BB2E4E7E8
:10D2B000014B00221A607047EC38002000B970471B
:10D2C00002484FF4F071F6F701BC00BFB45E0100F4
:10D2D0002DE9F04105468846184629461C46174662
:10D2E000F3F792FC50BB237C0133DBB22374FBB118
:10D2F000134E144B3560002204F11C0C1146012022
:10D300009E60C6F804803781C6F80CC0F7F760FD50
:10D3100040B9FF20FFF730FA2046FF21BDE8F04179
:10D32000FFF79EBC08484FF4CE71F6F7CFFBF0E74D
:10D3300005484FF4C871F6F7C9FBD9E7BDE8F0819D
:10D34000504400202C050020B45E0100012800D0CC
:10D35000704710B50C46FCF7ABF8844206D0BDE828
:10D36000104003484FF4EC71F6F7B0BB10BD00BF9E
:10D37000B45E010070B50E461546FDF731FA00287F
:10D3800040D004465EB990F8E82090F8E9309A421F
:10D3900003D090F8EA30032B26D00C2070BD90F813
:10D3A000520110F0040012D194F8E82094F8E9300A
:10D3B0009A42F2D094F8EA30032BEED194F8EC3094
:10D3C00084F8ED6060F3010384F8EC3070BD94F8EC
:10D3D0002C2194F82D319342DFD1013384F82C3184
:10D3E00084F82E61002070BD2946102200F25D10E5
:10D3F00007F052FBB4F8EC3003F0FC033046A4F81D
:10D40000EC3070BD022070BD704700BF00B970479E
:10D41000024840F21731F6F759BB00BFF85E010031
:10D420002DE9F04105468846184629461C46174610
:10D43000F3F7EAFB88BB237C0133DBB2237433B3FD
:10D440000120FFF799F901212046FFF709FC144E4E
:10D45000144B3560002204F11C0C114601209E6023
:10D46000C6F804803781C6F80CC0F7F7B1FC40B9A4
:10D47000FF20FFF781F92046FF21BDE8F041FFF7CB
:10D48000EFBB094840F20331F6F720FBF0E706480E
:10D4900040F2F121F6F71AFBD2E7BDE8F08100BFB8
:10D4A000684400203C050020F85E01002DE9F04FA3
:10D4B00089B080460393BDF8503002930020BDF838
:10D4C00054309DF84CA0BDF8587004938946164618
:10D4D000FCF7D0FD002800F09881D0F824B0054674
:10D4E000BBF1000F2ED0304600F0BAFD95F8333076
:10D4F000FF226FF3000385F8333085F83420AEB196
:10D50000AAF10203012B40F2538195F848306AF3E7
:10D51000420385F8483001F035FF002840F054817F
:10D520002846F3F7ADFA09B0BDE8F08F01F0A8FB8B
:10D530000028E5D003981299324600F05DFF85F887
:10D540003400DDE7FBF706FF0590002800F06A8154
:10D55000FDF72AF90446002800F0668142464B4652
:10D56000594605F11C000096F3F762FA95F832303F
:10D57000039A129962F3451385F83230062205F1B9
:10D580003B0007F089FA2F86C5F828B004F1240083
:10D59000F7F72CFD04F11C08002840F03A81032124
:10D5A00004F1280001F028FD029BA06F049AE38596
:10D5B0004FF6FF732286A385002800F02F8104F127
:10D5C0006C0204F16801F7F781FBB4F864309F49FD
:10D5D00094F87E209E4820660B4043F4887343F005
:10D5E00001034FF0000922F007024FF01B11A4F8CD
:10D5F00064307F2384F87E20E16584F8C130C4F86C
:10D600007890A4F87C90A4F83290C4F8349004F197
:10D61000380000F057FA94F83D3060F3050384F8C1
:10D620003D3001210DF11F0001F0E6FC9DF81FE0E7
:10D63000884B208E94F83DC084F83F90A3FB0E23C6
:10D64000DB0803EB4303AEEB830E029B824AA4F894
:10D65000C89040F2E24101FB03F10EF1050E4B1EB2
:10D6600084F83EE042F2107E0EFB0733DFF8F8E16B
:10D67000B3FBF1F30A448E44B2FBF1F2A4F8C630D6
:10D68000BEFBF1F193B200F1060E0CF03F0CA4F8D2
:10D69000CA1073454FF00601A4F8CC90A4F8D490BA
:10D6A000A4F8D090A4F8D23084F83DC0A4F8C410F7
:10D6B00002DD181A063883B20598A4F8CE3094F823
:10D6C000523194F8DCE094F8261194F87E2094F816
:10D6D00072C1C4F8300194F89A014FF0000923F0A8
:10D6E00007032EF0030E21F0030169F3041C22F05E
:10D6F000180269F3C30084F85231584B84F8DCE017
:10D7000084F8261184F872C184F87E20C4F81C3194
:10D71000A4F8E89084F8EA90C4F80091A4F8049181
:10D72000A4F81891C4F82091A4F8249184F82F91BA
:10D73000A4F85091A4F87091A4F89891A4F8A49139
:10D7400084F89A01FDF78EFBA4F8D600FDF790FB54
:10D75000D4F8A821424BA4F8D8001340C4F8A8314B
:10D76000FDF78CFB94F8AC3160F3020384F8AC3124
:10D77000FDF78AFB94F8AC21C4F8C091030103F0D3
:10D78000700322F07802134384F8AC31C4E96E9937
:10D79000C4E96C99C5F8248094F82030C4F8189036
:10D7A00069F30003C4F81490E46184F820309AE629
:10D7B000002000F0F3FC95F8333043F001030AF049
:10D7C000010A85F83330A0E66C6AE36D23B1254881
:10D7D00040F22131F6F77AF904F1500104F14C00DE
:10D7E000F7F778FA064650B32768E665D7F8304170
:10D7F000FCB12046FBF7B4FD3846FCF7DBFF002305
:10D8000003206B6209B0BDE8F08F0C2009B0BDE8C1
:10D81000F08F14489721F6F759F9C0E604F170002B
:10D82000A067CCE607207EE60598FBF799FD072068
:10D8300079E60C4840F22A31F6F748F9D9E7094869
:10D8400040F22331F6F742F9CEE700BF80F8FFFF40
:10D8500048014801ABAAAAAA7FC3C901FF49010038
:10D860000000FFF6F85E0100FF5962022DE9F04169
:10D87000074682B00020FCF7EFFB20B3466A04465F
:10D880000EB301460020FCF715FB0546B8B9366813
:10D89000D6F8303106F59878D3B11846FBF760FD1D
:10D8A0001C340A214FF6FF720223C6F8384186F86D
:10D8B0003411A6F8362186F84C31C7F80080284686
:10D8C00002B0BDE8F0810C25284602B0BDE8F08129
:10D8D0000348019340F29111F6F7F8F8019BDCE759
:10D8E000F85E01002DE9F041074600F0F7F80F253A
:10D8F0004FF002084FF6FF762846FCF771FF04460A
:10D90000D0B190F93D30002B16DBFFF79DFC0346AC
:10D910000522394604F1ED009BB907F0BDF894F8F3
:10D92000EC2094F8E83084F8EA8042F001020133F8
:10D9300084F8EC2084F8E830013DADB2B542DBD18B
:10D9400000231846BDE8F0812DE9F84388461646C5
:10D9500099460746FCF744FF002863D090F8502111
:10D9600090F851319A4204463DD190F8E82090F861
:10D97000E9309A4203D090F8EA30032B33D0FCF719
:10D9800043FF054678B34946102204F25D1007F0C4
:10D9900083F894F87E3013F0180327D0182B1FD18A
:10D9A0004146082204F2551007F076F8337884F8DF
:10D9B0005331737884F854312B79012143F00303F8
:10D9C0000A222B716971EA7138462946FCF728FF53
:10D9D00030B994F85031013384F85031BDE8F88300
:10D9E0002846FCF717FF0C20BDE8F8832B790322AB
:10D9F00043F00303EA711720082241462B71687136
:10DA0000A81807F049F833782B7473786B740821E1
:10DA100005F1120001F0F0FA042105F11A0001F0FD
:10DA2000EBFAD1E70220BDE8F88300BF0860704739
:10DA3000C3680268996810B40C68488AE16810BC31
:10DA40001033F5F719BB00BF10B50446D0F8F42029
:10DA5000C16800F58873C08DF5F70EFBD4F810315E
:10DA60000549D4F8F020A1FB03139B0AC3F3072157
:10DA70001370517010BD00BF5917B7D100B590F9A0
:10DA80003D30002B85B0BCBFD0F8E430C0F89431F5
:10DA90004FF00002D0F88C31039201934FF0060250
:10DAA0000DF10B038DF80B200093B8BF00F5CA727F
:10DAB000B0F87631A8BF03AA0021F5F7E9F805B060
:10DAC0005DF804FB08B50349052206F0E5FF024BAB
:10DAD000187808BD4C0500201106002010B5064C32
:10DAE00001460522204606F0D7FF20460521F7F71C
:10DAF00065FA024B187010BD4C050020110600207D
:10DB000070B4054600781B4C02FB01110A1884FB17
:10DB100002011144491101EBC10401EB8401511AC6
:10DB2000C8B2C20828709C5C9DF80C5001F0070137
:10DB30000C4114F001041BD1B0FBF5F205FB1202FD
:10DB4000D2B25D1E1E1D04F1080115F8013F2046EA
:10DB5000CCB213F0010F00F101014FEA530302D0E0
:10DB600032B1013AD2B2C8B28442F2D1B542EAD15E
:10DB700070BC7047A7C867DDF0B52F4F2F4E80EA05
:10DB800001050324280AEDB200EB802005EB852572
:10DB900006EA401E07EA400C07EA450006EA45157A
:10DBA0004CEA0E0C284300EB00250CEB0C2E00EB8E
:10DBB00005200CEB0E2C4FEA1C4CC0F3074040EA4A
:10DBC0000C2000EB0010013C084414F0FF0485B267
:10DBD000D8D11B486940A0FB01500D1A00EB55003D
:10DBE000400900EBC00500EB8500081AC0F3C4052E
:10DBF00000F00706555D3541ED07C0B21AD401FBB0
:10DC000003F3561EC3F30743043204F1080516F864
:10DC1000011F2046ECB211F0010F00F101054FEA9F
:10DC2000510102D033B1013BDBB2E8B2A042F2D1E4
:10DC3000B242EAD1F0BD00BF1021020040840800CA
:10DC40004D91CFBA2DE9F843884615460AB1FF2316
:10DC50001370174E00F0010706F10209002404E0DA
:10DC6000BA4214D00134082C0ED016F83430D9073B
:10DC7000C3F34002F4D4002DF4D02B78FF2B08BF5F
:10DC80002C700134082CF0D1FF20BDE8F883062267
:10DC9000414609EBC40006F0EFFE30B1002DE1D0A3
:10DCA00016F83430DB07DDD4E7E7E0B2EDE700BF7C
:10DCB000A84600202DE9F84F214F224DDFF888902B
:10DCC000DFF888A0A7F10208A5F1020B00241BF8D9
:10DCD0003430012613F0010F384606FA04F62946BF
:10DCE00007F106074FF0060222D099F8003063B121
:10DCF00015F8013C072B03EB830C06D81AF83C30CF
:10DD000013F0040F01D0DB0612D51BF8343098F85D
:10DD100001E098F800C0C3F34003A3404EEA0303B8
:10DD20004CEA060688F8013088F8006006F0B4FE78
:10DD30000134082C05F10805C9D1BDE8F88F00BFF2
:10DD4000EA460020AA460020AC4E002030450020C4
:10DD50002DE9F041DFF86080164D08F10107AE1C97
:10DD6000002402E00134082C21D004EB8403D90004
:10DD700018F83330DA07F5D56A7895F800C0C3F3A0
:10DD800080134FF0010E0EFA04FEA34004EB440092
:10DD900013434CEA0E0C394406EB400006220134D2
:10DDA0006B7085F800C006F077FE082CDDD1BDE869
:10DDB000F08100BF704600203045002008B50020EB
:10DDC000FCF764F9B0FA80F0400908BD08207047FC
:10DDD00010B50020FBF772FF00BBFCF76FF910F0E5
:10DDE00001001BD10E4A0F4C02EBC0035B78072BDE
:10DDF00003EB830105D814F831306FF3451304F8B1
:10DE0000313012F830306FF3000302F83030013057
:10DE10000828E9D1044B0020187010BD0C2010BD5B
:10DE2000A846002030450020AD4E002038B50446FD
:10DE30000020FBF743FF78B9FCF740F910F001052B
:10DE40000AD12078FF2809D0611C2A46FFF7FAFE84
:10DE5000072807D9022038BD0C2038BD0D4B1D7096
:10DE6000284638BD0C4A02EBC0035B78072B08D864
:10DE70000A4903EB830311F8334065F3451401F8B5
:10DE8000334012F830306FF3000302F830300020D6
:10DE900038BD00BFAD4E0020A84600203045002010
:10DEA00007282DE9F04104460D46904617D8114E3B
:10DEB00004EB8403A70016F83330DB0714D527449E
:10DEC000282116F83730C3F3801301FB04612B704F
:10DED00040460131BDE8F041062206F0DDBD0648AE
:10DEE000E921F5F7F3FDE2E70348EA21F5F7EEFD56
:10DEF000E5E700BF30450020805F01000820704743
:10DF0000F8B50020FBF7CEFE08B10C20F8BD0446A2
:10DF1000FFF754FF0028F8D01A4B1B4993F8502004
:10DF200093F800C093F8287093F8786093F8A050A5
:10DF300093F8C8000C7064F3000293F8F01083F8B3
:10DF4000502093F8182164F3000064F3000C64F38C
:10DF5000000764F3000664F3000564F3000164F352
:10DF6000000283F8C80083F800C083F8287083F8A3
:10DF7000786083F8A05083F8F01083F818212046C9
:10DF8000F8BD00BF30450020AB4E002038B5054637
:10DF90000020FBF787FE08B10C2038BD0446FFF7D0
:10DFA0000DFF0028F8D03DB1012D01D0122038BD61
:10DFB000034B1D70204638BD014B1D70284638BDEF
:10DFC000AC4E0020034A4FF47A7303FB00F3136056
:10DFD000704700BFA4460020B0B10D4B1A6810B5C1
:10DFE0004FF4004340F2E7300021E3FB02014FF41D
:10DFF0007A720023F2F784F8BDE8104002460B461F
:10E000000448054905F0CABE034807F048BB00BFF5
:10E01000A4460020480A0020180900200D4A08B52F
:10E020000023138070B90C4B0C4A1B780020108021
:10E0300003B908BDFCF72AF80028FAD1BDE808406A
:10E04000FFF786BE1846FCF739F8C307EBD4FFF795
:10E0500031FEE8E7E8460020AC4E00207046002084
:10E060000E4A08B500231380C2070ED40C4B0D4A8C
:10E070001B780020108003B908BDFBF713FE0028B1
:10E08000FAD1BDE80840FFF763BE1846FBF716FE5D
:10E090000028EBD1FFF70EFEE8E700BFE8460020BE
:10E0A000AC4E0020704600202DE9F84390F82A700D
:10E0B000072F06460C4601F1020545D8DFF8D88047
:10E0C00007EB87034FEA870918F83330190729D57A
:10E0D0009A0759D5227809EB070308EBC30342F0EE
:10E0E0004002596A22702846062206F0D5FC2378A1
:10E0F00003F00F03012B25D1B94404F1080018F8EF
:10E1000039305B0733D496F8D6302278C3F3C00396
:10E1100063F3C712227006F1D7010622BDE8F84367
:10E1200006F0BABC90F8D6002378C0F3400060F344
:10E13000861323702946F8F703FB237803F00F03B7
:10E14000012BD9D0BDE8F88390F8D6000B78C0F346
:10E15000400060F3861323702946F8F7F1FA23781C
:10E1600003F00F03012BEDD104F10800CBE7237876
:10E17000282143F0800301FB078123701E31BDE895
:10E18000F843062206F088BC02484FF41371F5F7F5
:10E190009DFC9FE7805F0100304500202DE9F04F96
:10E1A000824687B007F0D4FA4B014201B2EB000877
:10E1B00043EAD06363EB01039B004FEA880243EA22
:10E1C000987312EB000843EB0101C90041EA587152
:10E1D0004FEAC8034FEAD338CE0B48EA41480196CC
:10E1E000BAF1000F17D16E4BD3E900014C1C08BFE8
:10E1F000B0F1FF3F0FD06B4B1A68B8EB000466EB31
:10E2000001050023944275EB0303ACBF4FF00109F5
:10E210004FF0000901E04FF00109634EDFF894B1BF
:10E220003346A6F1240700244E46994604EB8403A6
:10E23000A50017F83330DA0713D50EB9980710D4B4
:10E240002B1917F83330590734D42B1917F83330FA
:10E250001A0717D4254417F8353043F0020307F89E
:10E2600035300134082C09F12809DFD126B14C4B97
:10E27000019AC3F800805A60BAF1000F37D107B095
:10E28000BDE8F08F02A9A9F11D0006F085FC002869
:10E290007BD1464A04EB440302EB430302A9184630
:10E2A0000622C9F80010009306F0F6FB009BC9F89F
:10E2B0000030CFE73E4B19F80D2C03EB02120F3262
:10E2C0000DF107030DF1170012F8011903F8011FF2
:10E2D0008342F9D1A9F1060102A806F05DFC0028ED
:10E2E000B3D040F216215846F5F7F0FBADE7002019
:10E2F000FBF7CAFC04460028C1D090F8D6305B0773
:10E30000BDD590F82A30072BB9D890F82C5090F84A
:10E310002B1005EB8502C5EBC20202F111031C3084
:10E320008D4200EB0306CFB207D084F82C70BFF308
:10E330004F8F94F82B108F4230D00135EDB2022D63
:10E3400029D02721022211FB052204F12B01C35CF5
:10E35000885CC3F34017C3F3030343EA471320F079
:10E360003F0003438F188B5420463946FFF79CFE2D
:10E37000727807F10800063A06F1080106F08CFBF6
:10E3800073787B7084F82C5079E740F2232158464B
:10E39000F5F79CFB7DE702220025D6E70232D4E7A1
:10E3A00010090020A4460020544500207844002095
:10E3B000B0440020805F010010B50120FFF7EEFEA1
:10E3C0000A4B1A6840F2E7304FF400430021E3FBA8
:10E3D00002014FF47A720023F1F792FEBDE810407B
:10E3E00002460B460248034905F0D8BCA44600206B
:10E3F000480A0020180900202DE9F84F8B461646E0
:10E400000AB1FF231370DFF8648000F0010908F1FE
:10E41000010A002404E04A4519D00134082C12D026
:10E4200004EB8405E80018F83530D907C3F38012EF
:10E43000E7B2F0D4002EF0D033780134FF2B08BFC0
:10E440003770082CECD1FF273846BDE8F88F5044D0
:10E450000622594606F010FB0028F5D0002EDCD02D
:10E4600018F83530DB07D8D4E6E700BF3045002088
:10E470002DE9F041054682B00020FBF71FFC002883
:10E4800040D1FBF71BFE10F001043BD12878FF2898
:10E490003CD005F1010841460DF10702FFF7D2FB20
:10E4A00007282BD99DF80760072E36D81E4F2A78EB
:10E4B00017F8363007EBC60062F3410341460622E7
:10E4C000023007F8363006F0E7FA2878224641464F
:10E4D000FFF792FF072822D8144900EB800407EBCE
:10E4E000C60211F83430507043F0200301F8343084
:10E4F00017F8363043F0010307F83630002002B039
:10E50000BDE8F0810C2002B0BDE8F081084B01228B
:10E5100020461A7002B0BDE8F0810720F3E707EB50
:10E52000C603FF225A70E3E7A846002030450020CA
:10E53000AD4E00202DE9F04F064685B000200D4677
:10E540001446FBF7AFFB18B10C2005B0BDE8F08F07
:10E55000FFF734FC0028F7D0B1460DF10F0219F88F
:10E56000010B4946FFF748FF072840F286809DF8D7
:10E570000F80B8F1070F79D808EB8803474FDB000D
:10E58000581C08EB880A062249463844019306F0D5
:10E5900083FA317817F83A204FEACA0B61F38612F2
:10E5A0002846102107F80B20F6F784FB17F80B20FC
:10E5B000102160F38202204607F80B20F6F77AFB61
:10E5C00017F80B20019B00F0010060F3C30212F06A
:10E5D000040F07F80B2007EBCA0A4FEA880B1AD082
:10E5E000DFF8C4E0DFF8C4C09EF800102C4A0CF835
:10E5F00001808AF8171002EB011C01318EF800101F
:10E600000CF1FF3C05F10F02691E12F801590CF8DC
:10E61000015F8A42F9D190BB03F118000622002164
:10E62000384406F064FA0BEB0803DC0017F83330CB
:10E6300023F012033B55494630780022FFF702FBD6
:10E64000072815D83B5D174A43F0200302EBC000B2
:10E650003B5580F80180D844002017F8383043F04B
:10E66000010307F8383005B0BDE8F08F07206CE7EC
:10E670003B5D6FF345133B55EDE7122065E7D81D71
:10E68000214610223844019306F006FA0BEB0802EB
:10E6900007EBC2020021019B5162BDE7304500201B
:10E6A000B0440020A8460020AB4E0020A844002023
:10E6B0002DE9F04F054683B00020FBF7F3FA18B1BF
:10E6C0000C2003B0BDE8F08F0446FFF777FB00286D
:10E6D000F6D02F46224617F8010B3946FFF78CFE7D
:10E6E0000728064603D9022003B0BDE8F08FDFF803
:10E6F000BC8000EB800308EBC30118F833305B07E4
:10E700004FEA80092ED5DFF8A8A09AF80020013A38
:10E7100012F0FF0B23D0CB7D5B4521D02048019325
:10E7200000EB0B11102200EB031006F0B5F9019B72
:10E7300004EB840208EBC20118F8322012F0010F3A
:10E74000E0B204F1010404D0520702D5CA7D5A4553
:10E750001FD0082CECD19AF80020013A00E05A466C
:10E760008AF80020287839460022FFF76BFA07283C
:10E7700004D80C4B03EBC000FF2343704E44002031
:10E7800018F836306FF3000308F8363003B0BDE8F0
:10E79000F08F054C9AF80020E054CB75013ADFE782
:10E7A000B0440020A8460020A844002030450020A6
:10E7B000AB4E002038B51C465B7903F0C003402BFC
:10E7C00000D038BD19B10022FFF716FE0246072A15
:10E7D000F7D8094B02EB820113F83110C907F0D5C5
:10E7E0001821282010FB0210184421460622BDE8FB
:10E7F000384006F051B900BF3045002038B5034617
:10E800000D4613F8010B00221946FFF7F5FD072806
:10E8100001D9022038BD094C2823182213FB0020FF
:10E82000044420460621F6F745FA0028F1D0214697
:10E830002846062206F030F9002038BD3045002079
:10E8400010B503460C4613F8010B00221946FFF7DA
:10E85000D3FD072801D9022010BD064B00EB800034
:10E8600003EBC0030622596A204606F015F9002082
:10E8700010BD00BF3045002070B5054600200E4693
:10E88000FBF710FA08B10C2070BD0446FFF796FAAA
:10E890000028F8D02946224611F8010BFFF7ACFDFD
:10E8A00007281AD876B1012E0AD100EB80030C4953
:10E8B00011F8332042F0100201F83320204670BDD9
:10E8C000122070BD064B00EB800013F8302066F379
:10E8D000041203F83020304670BD022070BD00BF26
:10E8E00030450020314A3249F0B40023314C1370D6
:10E8F00004EBC3025278072A02EB820505D811F80F
:10E9000035206FF3451201F8352014F833206FF3EA
:10E91000000204F833200133082BE9D10F7891F875
:10E92000285091F8504091F8782091F8A060002389
:10E9300063F300070F70204F63F3000563F30004D7
:10E9400063F300023B7081F828501C4F91F8C850C7
:10E9500081F8504081F8782091F8F04091F8182122
:10E960003B7063F3000663F3000563F3000463F395
:10E97000000281F8A060124B124E134F81F8C8506C
:10E9800081F8F0404FF0FF354FF0FF34C3E9004508
:10E9900081F81821376020B1F0BC0C490C4806F012
:10E9A00076BEF0BC0A4806F07ABE00BFAD4E00202D
:10E9B00030450020A8460020AC4E0020AB4E002081
:10E9C00010090020A4460020A0BB0D00B9E3000000
:10E9D00018090020072807D8044B00EB800013F823
:10E9E0003000C0F3C0007047002070473045002061
:10E9F00007280DD800EB8000064911F830301A07BF
:10EA00004FEAC00004D59B0702D50844406A70470E
:10EA10000020704730450020024B1B7803700248ED
:10EA2000704700BFAB4E0020B044002038B50C4604
:10EA300050B107291AD81A4D15F83430DA071FD506
:10EA400005EBC404607838BD072922D8154B04EBC8
:10EA5000840213F83230DB0701D5204638BD124856
:10EA60004FF42F71F5F732F8204638BD0C4D0E48A3
:10EA700040F2B621F5F72AF815F83430DA07DFD47A
:10EA800005EBC404084840F2B721F5F71FF8607899
:10EA9000D9E7054840F2BA21F5F718F8D6E700BFE4
:10EAA000A846002030450020805F010010B5144BBF
:10EAB0001B78834204460CD9124B1C5D072C11D8DD
:10EAC000114B04EB840213F83230DB0710D52046DB
:10EAD00010BD0E4840F2C621F4F7F8FF094B1C5D4B
:10EAE000072CEDD909484FF43271F4F7EFFFE7E74F
:10EAF000064840F2C921F4F7E9FF204610BD00BFE7
:10EB0000AB4E0020A844002030450020805F01006B
:10EB100007281BD870B500EB80030D4E16F8333074
:10EB2000DB0704464FEA800505D52C4416F834006F
:10EB3000C0F3401070BD2C4406484FF43571F4F713
:10EB4000C5FF16F83400C0F3401070BD00207047B8
:10EB500030450020805F0100034A044B00280CBFB1
:10EB600010461846704700BF70460020E846002057
:10EB7000104B1B789BB1072970B50C460DD860B9B6
:10EB80000D4E01EB81038D0016F83330DA070BD5FB
:10EB90002C4416F83400430703D4012070BD012033
:10EBA0007047C0F3001070BD04484FF43F71F4F794
:10EBB0008DFFEDE7AC4E002030450020805F010066
:10EBC0001C4B1B78FBB11378FF2B1CD12DE9F047B0
:10EBD000194D06460023AF1F03EB83045FFA83FE43
:10EBE00017F8344014F001004FEA830C03D0C4F34B
:10EBF0008014B44209D00133082B05F12805EBD16C
:10EC00000120BDE8F08701207047AC1F01F1FF38FB
:10EC100014F801AF18F8019FCA45ECD1AC42F7D106
:10EC2000634482F800E017F833305A07E9D5C3F39C
:10EC30000010E6E7AC4E00203645002030B40E4B05
:10EC40001C7874B1072A0CD80C4C02EB820514F81E
:10EC500035502B0705D520B14B7903F0C003402B6D
:10EC600002D0002030BC7047282000FB0240073053
:10EC700030BC05F07EBF00BFAC4E00203045002008
:10EC8000024B1878003818BF01207047AC4E0020A6
:10EC9000684620F007018D4601B502F011FBF5F73B
:10ECA000F7FBF5F7B9FDBDE801408546704700BFA9
:10ECB00008B5094BD3F840213AB90120F6F7DCF842
:10ECC000BDE808400220F6F7D7B80020C3F840019D
:10ECD000F7F7B2FBF1E700BF00B000400020F6F705
:10ECE000CBB800BF02F030BC012800D87047024802
:10ECF0004FF41B71F4F7EABEC45F0100012800D88D
:10ED00007047024840F27721F4F7E0BEC45F01008B
:10ED100030B500228BB00B68124C13490892CDE934
:10ED20000322CDE90122069207940591D3E900540C
:10ED30009968A5422CBFC1EB0501C1EB0401034654
:10ED4000009110461146F7F7E5FB022801D80BB0F9
:10ED500030BD064840F295210BB0BDE83040F4F7D5
:10ED6000B5BE00BFFDEC00006DEF0000C45F010008
:10ED70002DE9F04385B004464FF0FF0C0DF10F0074
:10ED8000DDF830809DF834908DF80FC00D461646A2
:10ED90001F46FAF777FC18B91EE0FAF773FCD8B1F2
:10EDA00090F820309B070DF10F00F6D1254B9A68A3
:10EDB000AAB9B9F1000F2ED0012201920097334673
:10EDC000294620464246FAF717FCD8B96FF04304AB
:10EDD000204605B0BDE8F0831A4B9A68DAB1CDE958
:10EDE00000793346294620464246FAF705FC48B9E1
:10EDF000B9F1000FEAD1D8F80C10D8F80000FFF7ED
:10EE000087FFE3E7104840F21121F4F75FFEB9F104
:10EE1000000FDBD1EFE7D8F80C201A60C3E90145F9
:10EE20004046B0470022094B009204461146104666
:10EE3000F7F7DCFB0228CBD9034840F24B21F4F76B
:10EE400045FEC5E720470020C45F0100E9EC000053
:10EE5000F0B5444E8BB0FAF707FCB368FF228DF88B
:10EE60000E209BB133688BB10DF10E00FAF70AFC4E
:10EE7000044658B194F8203013F003050DF10E004C
:10EE800006D0FAF7FFFB04460028F3D10BB0F0BD23
:10EE900005ABD6E90027E169E068009304ABB84709
:10EEA0000746002852D0B36831682846984717F1C2
:10EEB0000B0F12D0483709D02B4840F2DF21F4F76E
:10EEC00005FE03E090F820309B0739D00DF10E00CD
:10EED000FAF7D8FB0028F5D1D8E7FF230DF10F0092
:10EEE0008DF80F30FAF7CEFB08BB3268059B009314
:10EEF00009920123002201933260D6E90101049BAB
:10EF000006AAFAF779FB0028E0D0174840F2DD2185
:10EF1000F4F7DCFDDAE743F0020380F82030836980
:10EF200098470DF10F00FAF7ADFB0028DDD090F8FF
:10EF300020309A07F5D4C26831689142F1D1EAE7EE
:10EF4000C1680068FFF7E4FE0BB0F0BD94F8203014
:10EF5000A269E16843F0020384F82030204690471C
:10EF6000B4E700BF20470020C45F0100002208B5BD
:10EF70001146064B0120F5F72BFF00B908BDBDE88F
:10EF80000840034840F2A321F4F7A0BD5405002037
:10EF9000C45F010010B5154804F052F9144B186015
:10EFA00000B3144B00249C6000F0DCF9002818DB4F
:10EFB000224621460120F5F753FA224621460B202E
:10EFC000F5F74EFA224621461820F5F749FA0120B6
:10EFD000F5F714FA0B20F5F711FA1820F5F70EFAE9
:10EFE000204610BD6FF0120010BD00BF0C60010084
:10EFF0001C47002020470020044A10B40346106834
:10F0000084688AB21946236810BC18471C47002040
:10F01000084B1B689A6810B4546834B18AB2A4468D
:10F02000014610BC1846002360476FF0220010BC58
:10F03000704700BF1C470020FFF7EABF0020704761
:10F0400010B582B0049C009400240194FFF790FE58
:10F0500002B010BD10B582B0009090F82040C36996
:10F06000026904F00104D0E905010194FFF780FE74
:10F0700008B1443001D102B010BD0348E42102B010
:10F08000BDE81040F4F722BDC45F010030B504466E
:10F0900083B0002835D0224B1A6882422BD0FF2340
:10F0A0000DF107008DF80730FAF7ECFA034640B986
:10F0B0001FE094420ED00DF10700FAF7E3FA034681
:10F0C000B8B193F820209207F5D4DA6818461146B3
:10F0D000002CEED193F820209D6942F0020283F8C3
:10F0E0002020A8470DF10700FAF7CCFA03460028C4
:10F0F000E7D103B030BD9B686BB121460020984733
:10F10000CDE7074A9368002BC9D011680029C6D003
:10F1100000209847C3E70348EE21F4F7D7FCBEE789
:10F1200020470020C45F01000020704710B504464E
:10F13000FAF79AFA3CB1E0B120681030FAF7D0FA49
:10F1400080B1002010BD114CA368C3B1206800231A
:10F15000A36023600028F1D000681030FAF7C0FAED
:10F160000028EED10A484FF49E71F4F7AFFC00205E
:10F1700010BD074840F21F11F4F7A8FCDCE7044873
:10F180004FF49271F4F7A2FCE0E700BF20470020A3
:10F19000C45F0100024B9868B0FA80F040097047E4
:10F1A000204700206FF04700704700BFD0E90023E0
:10F1B000002A04DB9A4238BF1A461046704780681E
:10F1C000984238BF1846704710B51446F7F7B2FAA0
:10F1D0002146F7F7B1FA0330030204D4092894BF9B
:10F1E0000020012010BD002010BD00BF262810B552
:10F1F00004461CD0272812D0252808D00A281ED95A
:10F20000272821D80330400002F0EAF802E002206B
:10F2100002F0E6F82046BDE8104002F0E7B85020C2
:10F2200002F0DEF82046BDE8104002F0DFB81A20F8
:10F2300002F0D6F82046BDE8104002F0D7B8023000
:10F24000400002F0CDF8E5E702484FF4C371F4F74F
:10F250003DFCDFE7C45F010002F036B902F040B9BF
:10F2600008B502F071F9BDE8084002F03DBA00BFF0
:10F2700008B502F069F902F037FABDE8084002F07B
:10F28000E3B900BF08B502F05FF902F02DFA02F011
:10F2900013FA02F065FCBDE8084002F0D5B900BFE2
:10F2A00008B50146114802F01BF802F06DF950B1A3
:10F2B00002F000FB00F0B2F800280CDBBDE80840CB
:10F2C0000020FFF733BF02F027F902F0F3FA00F055
:10F2D000A5F80028F2DA064840F2E911F4F7F6FB47
:10F2E000BDE808400020FFF721BF00BFE5EC0000AB
:10F2F000C45F010010B50446FFF7C4FF2046BDE817
:10F300001040FFF7CDBF00BF01F1100004F0FCBBBF
:10F3100030B504468BB00D460122002104A806F04A
:10F3200035F900230E4A03932046032369460192D0
:10F33000029305F00FF8002810DB4FF4004340F271
:10F34000E7300021E3FB05014FF47A720023F0F768
:10F35000D7FE02460B4604A804F0FCFB0BB030BD00
:10F3600009F3000010B50120F4F73AFE0449012426
:10F3700000238C60CB60BDE810404B6004F0EABF16
:10F38000384700200C4B1A780AB10020704710B59E
:10F3900001201870F4F724FE4FF4FA710446FFF7C9
:10F3A000B7FF38B9204605F01EF802280CBF002030
:10F3B0006FF0040010BD00BFAE4E002008B50A4B30
:10F3C000BFF35B8F53E8002F511C43E80010002867
:10F3D000F8D1BFF35B8F002A01DD002008BDF4F7F0
:10F3E00007FE002008BD00BF3447002008B50020FC
:10F3F000F4F7F6FDBFF35B8F074B53E8002F0132A4
:10F4000043E800210029F8D1BFF35B8F0221BDE85A
:10F410000840FFF77DBF00BF3447002008B50D4B03
:10F420001A68002A12DDBFF35B8F53E8002F511ECC
:10F4300043E800100028F8D1BFF35B8F012A01DDFB
:10F44000002008BDF4F7EAFD002008BD6FF044007D
:10F4500008BD00BF3447002010B50446FFF712FF77
:10F4600002F020F92046BDE81040FFF719BF00BFA9
:10F4700030B583B00446FFF7F3FE962002F044F95E
:10F4800000231A461946184602F0B4F802F0A0F814
:10F4900002F00EF802F064F8E8B91A48214601F0CB
:10F4A0001FFFFFF7EDFB18BB02F060FA00210446D6
:10F4B000084602F017F800210546084602F00EF84B
:10F4C0002C44C334201A02F009FA02F041FA02F087
:10F4D000ABF803B030BD0C4840F28111F4F7F6FAF6
:10F4E0000848214601F0FCFEFFF7CAFB0028DBD0EC
:10F4F0000DF10700FFF790FA01469DF8070002F0B2
:10F50000F5FAD1E7F5F8000010600100037BC3F3C2
:10F5100002132DE9F041002B044693FAA3F0B0FA50
:10F5200080F008BF4FF0FF30451C53D0227B591E9E
:10F530000B4063F30612227305F12400FFF756FE19
:10F54000E27B217C8A42D3B23ED00133DBB2022B74
:10F5500037D02725022215FB0325E373012704F189
:10F560000F0808EB0506304601F0A8FF18F8053033
:10F5700003F00F03022B3DD0204694F8601010F8E2
:10F580005F2F9142D3B22ED00133DBB2022B3AD09F
:10F590002722022112FB031284F85F30104402304C
:10F5A0000622B11C05F078FA2146184801F098FEB1
:10F5B000962002F0A9F8002002F00EF83046BDE8CF
:10F5C000F0811D460023C8E72725022215FB0325ED
:10F5D0000027C4E70E4840F27A21F4F777FA237B3C
:10F5E000C3F30213A2E7002FDED0272303FB0100A1
:10F5F0000230D4E70748214601F072FE02F006F817
:10F600003046BDE8F0811A460023C5E771F40000DA
:10F6100010600100E9F70000F0B5C5683C4B2C799B
:10F6200083B014F00104019353D1064601F078FE33
:10F63000204601F0C7FE2146204601F097FE2246F3
:10F640002521082001F0FEFE01A801F0E1FE31496C
:10F6500040F25B6001F0A2FF2B7BC3F3420262F336
:10F6600006132B732846FFF751FFFFF709FB18BB62
:10F670006B7B9B0744D12F6834683846FFF796FDB3
:10F680000444726804F10901012002F049F802F013
:10F690005FF92846FAF7EAFA811C2246C9B23846D1
:10F6A000FFF792FDF8B11C48294601F019FE01F060
:10F6B00033FF002003B0F0BD687B10F0030018BFDB
:10F6C0000120FFF749FA4178821C007801F0CEFF53
:10F6D000D1E7FFF7A3FE002814DB0020FFF726FD8B
:10F6E000002003B0F0BD2846FFF71EFD0028E0D043
:10F6F0000A4840F21B11F4F7E9F9002003B0F0BD0D
:10F700000120DEE70548BE21F4F7E0F9E5E700BF98
:10F71000D6BE898E5555550059F400001060010081
:10F72000C36870B51E680446F7F704F8054630460E
:10F73000FFF73CFD00232D1AC4E900532381204626
:10F74000BDE87040FFF768BF824208B511D0127B58
:10F75000D20702D46FF0470008BD104A1A60029A1F
:10F7600000231360FFF72AFE00280FDB6FF00A006A
:10F7700008BDD37B272101FB0322537C03F00F0339
:10F78000012B14BF6FF04700002008BD044840F271
:10F790004511F4F79BF96FF00A0008BD21F700004E
:10F7A0001060010010B598B10C46FFF737FE002835
:10F7B00004DB2046BDE81040FFF7B8BC084840F223
:10F7C0006B11F4F783F92046BDE81040FFF7AEBC9B
:10F7D000044801F085FDBDE8104001F09DBE00BF6A
:10F7E0001060010059F4000010B50446FFF74AFD0F
:10F7F000237B03F07102012A05D1C3F3420262F3B5
:10F8000006132373DBB213F0700F06D101F04AFF29
:10F810002046BDE81040FFF743BD2046FFF776FEC7
:10F8200001F074FEBDE8104002F092B8002070476D
:10F830000020704710B582B00446FFF7BFFD0028D6
:10F8400012DB0C4A0C490D4800940023FFF7F8FB2B
:10F8500008B1443001D102B010BD09486B2102B09B
:10F86000BDE81040F4F732B905486821F4F72EF9E5
:10F87000E7E700BF19F60000A5F7000049F7000010
:10F88000106001002DE9F843457B9DF82080174664
:10F89000EA0789461E460AD5B8F1000F17D099F835
:10F8A0000030B7EBD31F19D00020BDE8F883044621
:10F8B00011F8020B099AC0F38010FFF781F90028B4
:10F8C000EDD1637BDB07EFD5B8F1000FE7D1099BE2
:10F8D0001878FFF71DF90028E1D1E5E709F10801E3
:10F8E0003046062205F0C8F8B0FA80F04009BDE8BD
:10F8F000F88300BF2DE9F04F87B0044601F03AFECF
:10F9000010F0FF0F0AD1FFF7BDFCB448214601F00B
:10F91000E7FC01F001FE07B0BDE8F08F01F04AFE00
:10F92000064601F0D1FE804601F0D8FE02F024F92F
:10F93000074602F00FF9824601F08EFE8146FFF77E
:10F94000A1FC16F0FF0FE0D017F0FF0740F0888011
:10F95000FF208DF8170001F03BFEE57B064600789E
:10F9600011234FF0270A0AFB053500F00F0204EBC4
:10F97000050B032A5FFA88F80BF1020300F085807B
:10F98000052AC2D17278222ABFD1625D02F00F022D
:10F99000012A00F0B580627B910766D5B8F1000FAF
:10F9A00000F0A480625D3078C2F38011B1EBD01F0B
:10F9B000ABD102F00F02012A06F1080500F0CF805A
:10F9C00029461846062205F057F8B0FA80F040099B
:10F9D00000289AD0A368002B97D00420F9F7BEFD29
:10F9E000002892D07E48214601F07AFC01F094FD77
:10F9F00001F0B6FD002873D119F0FF0F6AD1237909
:10FA000043F00102DB0722715ED4F9F7C5FD4FF622
:10FA1000FF7305460A22C3803146027124221C303E
:10FA200005F03AF8AC6001F03FFF286101F098FF63
:10FA300000210446084601F051FD241A6C61002F94
:10FA400040D09DF81730AB76F9F7A6FD2946E8605F
:10FA50002868F9F7B9FDF9F7C7FD07B0BDE8F08FE1
:10FA60005FFA8AF0FFF722F873E7C0F380100DF118
:10FA70001702B11C0393FFF7A3F8039B002891D151
:10FA8000627B92077FF541AF88E772780C2A7FF49A
:10FA90003CAF625D02F00F0101293FF436AF0DF17A
:10FAA00017010191CDF80080C2F380123146204643
:10FAB0000393FFF7E7FE00285CD13078039B00F04A
:10FAC0000F025DE7FF23BEE746484FF44471F3F7AA
:10FAD000FDFF9AE701F0B2FDA36883F8A5008EE769
:10FAE000404840F20231F3F7F1FF85E79DF8170037
:10FAF0000393FFF70DF8039B00287FF453AF04E74F
:10FB000006F10208C0F3801041460DF1170203937D
:10FB1000FFF756F8039B00283FF4F7AE625D30789C
:10FB2000C2F38011B1EBD01F7FF4EFAE02F00F02F1
:10FB3000012A06F1080A47D051461846062204F069
:10FB40009BFF00287FF4E1AE9DF81700FF2829D025
:10FB5000A37BFF2B26D0C51A6842684138E70622EE
:10FB600029461846039304F087FF00283FF432AF7C
:10FB7000039B25E71948214601F0B2FB01F046FD41
:10FB800094F85F000AFB0040613001F097FC01F03F
:10FB9000E7FC00283FF4BFAE124840F2C521F3F75E
:10FBA00095FFB8E63378625DC3F38013B3EBD21FE1
:10FBB0007FF4ABAE41460BF10800062204F05CFF77
:10FBC000B0FA80F0400903E7062251461846039335
:10FBD00004F052FF0028B7D0039BADE7E9F700001F
:10FBE00059F400001060010008B51946034801F0FF
:10FBF00077FBBDE8084001F08FBC00BF2100010089
:10FC0000F0B5C4686E4B25798DB015F001050B93E6
:10FC100040F08880A37D65F30003A375064601F0DC
:10FC20007FFB284601F0CEFB2946284601F09EFBCB
:10FC30002A462521082001F005FC0120F9F78EFC59
:10FC40000546002800F0B28005F11C0001F030FCF0
:10FC50000BA801F0DDFB5B4940F25B6001F09EFC0C
:10FC6000A07DC0F341002530FFF7C0FA2146564879
:10FC700001F036FB962001F047FD00231A46194695
:10FC8000184601F0B7FCFEF7FBFF002834D1A37D36
:10FC900013F0180F79D1276835683846FFF786FAD0
:10FCA0000544726805F10901002001F039FD01F0F9
:10FCB0004FFE01F0B9FC2046FAF7C0F9011DC9B2A8
:10FCC00038462A46FFF780FA0146002834D1A36A55
:10FCD000002B40D1A3683BB13C4B01220221002004
:10FCE0009E60F5F775F880BB2046FFF71DFA0028E7
:10FCF00054D100200DB0F0BDA07DC0F3C000FEF7D0
:10FD00002BFF05460DF12B00FEF786FE69780746AE
:10FD1000AA1C287801F0AAFC9DF82B00394601F0B6
:10FD2000E5FEB8E7FFF77AFB002844DB0020FFF789
:10FD3000FDF900200DB0F0BD2548214601F0D0FAB4
:10FD400001F0EAFB00200DB0F0BD224840F219118D
:10FD5000F3F7BCFEC8E74FF48272009308921E4B83
:10FD60001E4A079305922B46CDE90300CDE9010019
:10FD700006940322F6F7CEFB30F00203AAD0154812
:10FD800040F20511F3F7A2FEA4E70120FEF7E4FE1E
:10FD90004178821C007801F069FC7CE70D484FF443
:10FDA0008F71F3F793FE00200DB0F0BD0948A92133
:10FDB000F3F78CFE48E707488B21F3F787FEB5E79A
:10FDC000D6BE898E5555550041320000640500208D
:10FDD000590001005C60010055FF0000E9FB0000D4
:10FDE00030B583B00546FFF74DFA962001F08CFC44
:10FDF000002318461A46194601F0FCFB0120F9F7CA
:10FE0000ADFB0446C0B104F11C0001F051FBFEF74C
:10FE100037FF38B901F008FC0A48294601F060FABA
:10FE200003B030BD0DF10700FEF7F6FD01469DF869
:10FE3000070001F05BFEEDE7034840F2FB11F3F72A
:10FE400045FEE0E7413200005C60010010B5044669
:10FE5000FFF7C6FFA37D6FF30003A37501F050FB0E
:10FE6000BDE8104001F074BD70B582B00546FFF7E3
:10FE7000F7F9962001F048FC002318461A46194667
:10FE800001F0B8FB0120F9F769FB0446A8B304F1BF
:10FE90001C0001F00DFB01F063FBD8B9FEF7F0FE8A
:10FEA00008BB01F063FD00210446084601F01AFB7F
:10FEB00000210646084601F011FB3444C334201AE1
:10FEC00001F00CFD01F0B0FB0F48294601F008FAE3
:10FED00002B070BD0D4840F2D111F3F7F7FDFEF707
:10FEE000CFFE0028DDD00DF10700FEF795FD01469D
:10FEF0009DF8070001F0FAFDD3E7044840F2CD1168
:10FF0000F3F7E4FDC3E700BF413200005C6001008D
:10FF1000C36870B51E680446F6F70CFC054630460B
:10FF2000FFF744F900232D1AC4E90053238120462A
:10FF3000BDE87040FFF764BE08B5FFF751FFF6F764
:10FF4000F9FBC11C002001F057FCBDE8084001F09E
:10FF5000FFBC00BF00B9704702484FF4BD71F3F712
:10FF6000B5BD00BF5C60010010B598B10C46FFF74D
:10FF700055FA002804DB2046BDE81040FFF7D6B84C
:10FF800008484FF4B571F3F7A1FD2046BDE81040D5
:10FF9000FFF7CCB8044801F0A3F9BDE8104001F028
:10FFA000BBBA00BF5C60010059000100824210B57D
:10FFB0001BD114461748114601F092F901F0ACFA32
:10FFC000A37DC3F34100013000F00300032807D0F4
:10FFD00060F34203A3752530FFF708F9002010BD38
:10FFE0006FF34203A3752520F6E70B4A1A60029AC5
:10FFF00000231360FFF7E2F9002802DB6FF00A002C
:020000021000EC
:1000000010BD06484FF4A071F3F760FD6FF00A00D1
:1000100010BD00BF39FF000011FF00005C6001004F
:1000200038B50446FFF7B6F800B138BD054601F013
:1000300039FBA27DC2F34103013303F00303032B19
:1000400014BF63F3420265F34202A2752046BDE885
:100050003840FFF725B900BF10B582B00446FFF75E
:1000600011F900230093194618460322F6F7BEFA49
:1000700001F052FA204602B0BDE81040FFF7D0BFB1
:10008000F8B5074603200E461546F9F767FAC8B1DA
:100090000446F9F781FA4FF6FF720423E2802371D8
:1000A0005FB97F20207621462068A676E576F9F7AD
:1000B0008BFAF9F799FA0020F8BD01F0BFFA00F0C9
:1000C0007F00EFE76FF03600F8BD00BF00207047FB
:1000D0000020704710B582B00446FFF76FF9002882
:1000E00012DB0C4A0C490D4800940023FEF7A8FFD0
:1000F00008B1443001D102B010BD0948702102B0EE
:10010000BDE81040F3F7E2BC05486D21F3F7DEFCD3
:10011000E7E700BF01FC000069FF0000ADFF000041
:100120005C600100F8B50646FFF7ACF8F9F7C8FACD
:100130000446002833D01D4B1D491E4A1B880D78EC
:100140001178A3800122A571E17122701BB196F98B
:100150002130002B04DB3046BDE8F840FFF7A0B8A3
:1001600096F8493003F00703022B16D0042B14BF76
:1001700028274FF4BC7701F0DFFB054601F0E2FBD6
:10018000726B2D1A0023C4E90327A5603046736300
:10019000F363BDE8F840FFF783B81827EBE706489C
:1001A00040F23321F3F792FCC5E700BF8E4A0020EE
:1001B000B04E0020B14E0020A860010038B590F884
:1001C000623043F0040380F86230054601F0FCF928
:1001D00003780022012161F3010342700446037099
:1001E000D5E91301F4F788FD2378003818BF012002
:1001F00060F304132370204638BD00BF0020704711
:10020000002070470720704714207047014B33F8D7
:1002100010007047F460010005480649064A10B412
:100220000023064C03700B701370238010BC7047C2
:10023000AF4E0020B04E0020B14E00208E4A00206C
:1002400010B590B10C46FFF7E9F8002804DB204612
:10025000BDE81040FEF76ABF07487B21F3F736FC84
:100260002046BDE81040FEF761BF044801F038F8B1
:10027000BDE8104001F050B9A8600100250101005F
:10028000F8B505460120F9F769F9044650B395F829
:100290004960B5F8427006F007063046002101F0CB
:1002A00065F895F8623072001B0704F11C0442F0F7
:1002B00001020ED5391DC9B2082001F0C3F822464B
:1002C000314605F1630001F063FBBDE8F84001F041
:1002D000EFB8F9B2082001F0B5F82046BDE8F840C3
:1002E00001F0E6B8024840F2A911F3F7EFFBCEE7C0
:1002F000A860010038B50446FEF7B2FF962001F071
:1003000003FA94F8482094F84900C2F3C00300F0BF
:10031000070002F00702002101F06CF92046FFF708
:10032000AFFF01F01DF9A0BB01F020FB054694F8DA
:100330004900012100F0070001F0D4F894F8493099
:1003400003F007030544022B05F1A3051FD0042B7E
:1003500014BF28234FF4BC7394F84800C0F3C001C5
:1003600000F007001D4401F0B9F8281A01F0B6FAB0
:100370000B4B1B882BB994F92130002B01DB01F0CA
:1003800053F921460748BDE8384000F0A9BF1823BB
:10039000E2E7054840F27511F3F798FBC4E700BFA8
:1003A0008E4A0020AD040100A8600100F8B50F4698
:1003B00090F84810B0F8406001F007040546C1F31A
:1003C000C001204600F0D2FF95F862306200DB06E3
:1003D00042F00102F1B20DD50431C9B2082001F09A
:1003E00031F8394605F1840001F02AFBBDE8F840F8
:1003F00001F064B8082001F025F83846BDE8F8405F
:1004000001F05CB82DE9F04390F862305B0783B0EF
:1004100088463ED4044601AAD0E91301F4F76CFCE7
:10042000814600283CD0019F94F8616094F86030C8
:100430000437BD1913B96B7884F8603026B1BA5D02
:10044000012161F30102BA559B1B6B70BB5D6FF319
:100450000413BB552046FCF703FF6B78834204D995
:100460006870BB5D43F01003BB55D9F80020236DC5
:100470009A4203D0BB5D43F01003BB552B7800229A
:100480006FF347132B70AA70C8F8005003B0BDE893
:10049000F083FFF793FEC8F8000003B0BDE8F083D7
:1004A0002046FFF78BFE0546E8E700BF2DE9F04F39
:1004B00083B0044601F05EF810F0FF0F0AD1FEF79A
:1004C000D7FEC348214600F00BFF01F025F803B02A
:1004D000BDE8F08F01F06EF8C5B201F0BDF85FFA2B
:1004E00080F8FEF7C5FEBB4A138801200133138054
:1004F000F9F734F80646002800F0D680EDB9B64A80
:100500001778002F6BD094F86230013FFFB201A939
:1005100020461770C3F38009FFF774FF002F40F0E7
:100520001E81AB48214600F0DBFE94F92130002B00
:1005300080F2AD8001F06AF866E094F86230327FB4
:1005400003F00101C2F38000884200F0B58094F905
:10055000212081F0010161F30003002A84F8623058
:1005600005DA94F8243043F0010384F8243094F839
:10057000623013F0040A40F0D080D4E9130101AADC
:10058000F4F7BAFB8346002800F0DE80019F94F860
:100590006190043707EB09035A7852B194F862303E
:1005A000D80606D5D4E92531013341F10001C4E96B
:1005B000253194F860304A44D2B29A42C0F0CB80E0
:1005C00000F0F680002594F92130002BC0F2E38082
:1005D000327FD10640F1E38094F862306FE001236E
:1005E00001A920461370FFF70DFF962001F08CF84B
:1005F00094F8490000F0070000F0EEFF774821462C
:1006000000F06EFE01F0A4F994F862200199C2F3A3
:1006100040030878C2F300029B0043EAC20320F0C3
:100620000C0213430B702046FFF7C0FE00F098FF4A
:10063000002865D101F080F9B0B1DDB1208A4FF614
:10064000FF73984262D02946FCF746FCA7B9F8F739
:10065000CBFFB8F1000F3FF43AAF00F0EFFF84F8A2
:10066000A50003B0BDE8F08F01F05AF901F05EF982
:10067000002DE3D1002FECD0F8F78EFF0223337169
:10068000238A3068F3803146F8F79EFFDFE700F0F9
:1006900043FF00F065FF002875D194F8623069F3DC
:1006A000820384F86230C5E74D48AA21F3F70EFAB9
:1006B000002D3FF424AF40E74FF0000A5546C2F347
:1006C000C002C3F340018A424BD000274249454A49
:1006D00000200870C3F3800901A90123204613708C
:1006E000FFF790FEBAF1000F7FF41BAF337FDB06FC
:1006F0003FF57BAF019B5B78002B3FF412AF74E7B3
:10070000374840F21511F3F7E1F993E734484FF415
:100710009171F3F7DBF9208A95E76FF3820384F890
:10072000623000F051FF94F92130002B0CDB327F56
:1007300012F0100509D190F800A094F862308AF008
:10074000100ACAF3001ABAE7327F94F862304FF009
:10075000000A5546B3E784F86120002533E72F46A9
:1007600043E70320F8F7FAFE90B194F8623083F083
:10077000020384F86230737F53B194F862301A0731
:1007800032D40127A2E71648DB21F3F79FF984E76B
:1007900094F8623099E794F86230327F8FE717F867
:1007A00009A094F862308AF0100ACAF3001A86E7AA
:1007B0000022206DA4F8602004F14C01F4F7A4FAA3
:1007C000019D2B68CBF80030C5F800B0FBE600BFF8
:1007D000250101008E4A0020AF4E0020F5020100E5
:1007E000A8600100B04E002001F054F900283BD071
:1007F00001F072F930BBD4F87320D4F8773013438A
:1008000004D1337F03F00303032B04D0194B0222DE
:100810001A7000270EE700F0DBFE42781B2A014623
:10082000F4D8033206F11C0004F036F9D4F8733022
:10083000D4F8772013F1FF3342F1FF32C4F873305C
:10084000C4F87720D4F87330D4F8772009490133FD
:1008500004F1730042F10002C4F8733001274260D2
:1008600094F862300F7031E7034840F2D121F3F77A
:100870002DF9BDE7B14E0020A8600100704700BF10
:100880002DE9F041C46882B00546FFF7C5FCE18A56
:10089000668B94F82130481E3144002280B2618377
:1008A0005906E282208304F11C0240F18B8030441F
:1008B000618C80B203F03F03FDF75EF90746D4E98F
:1008C0000C61E26AD4E90E0331448A4228BF0A4629
:1008D000034400266263E3632663A66300F020FD01
:1008E000304600F06FFD2046FFF7CAFC04F1080017
:1008F00000F08EFD637BA27B217B1B0243EA024357
:10090000194340F25B6000F049FE3846FEF76EFC8A
:1009100021463D4800F0E4FC962000F0F5FE94F8F6
:10092000482094F84900C2F3C003314602F00702A0
:1009300000F0070000F05EFED4F800802F6840460B
:10094000FEF734FC07446A6807F10901304600F0FD
:10095000E7FE054600F0D0FF304600F0E7FF626B8F
:10096000E36B94F84900303203EB420300F00700D8
:1009700001211D4400F0B4FD94F8492002F0070263
:10098000022A054435D0042A0CBF4FF4BC73282337
:10099000104601211D4400F0A5FD284400F09EFFF3
:1009A00000F042FE217C05313A464046C9B2FEF7CE
:1009B0000BFCA0B92046FEF7B7FBE0B9002002B05F
:1009C000BDE8F08103F03F0694F82210009613462C
:1009D000024604F12300FDF793F807466FE70B4842
:1009E000214600F07DFC00F097FD002002B0BDE83C
:1009F000F0811823CCE70648FE21F3F767F80020C2
:100A000002B0BDE8F08100BFAD040100F5F20000C6
:100A10000461010030B583B0C4680546FEF7CEFC22
:100A2000002821DB2B89A16AD4E90B2001339BB27A
:100A300001FB0301E08A8A4228BF0A46034422637D
:100A4000E3820C4A0C490D4800950023FEF7F8FAA2
:100A500008B1443001D103B030BD09485B2103B077
:100A6000BDE83040F3F732B805484821F3F72EF8D7
:100A7000D8E700BF8108010041020100A5F1000094
:100A800004610100F0B5C46885B00546FFF7C4FBFA
:100A9000E18A668B94F82130481E3144002280B2EE
:100AA00061835906E282208304F11C0261D530443F
:100AB000618C80B203F03F03FDF75EF8064603A9A0
:100AC0002046FFF79FFC94F862200398C2F340038E
:100AD0000178C2F300029B0043EAC20321F00C023A
:100AE0001343037000F01CFC002000F06BFC04F1C9
:100AF000080000F08DFC637BA27B217B1B0243EA94
:100B00000243194340F25B6000F048FD3046FEF7B7
:100B10006DFB03992046FFF749FC2146214800F070
:100B2000DFFB962000F0F0FD94F8490000F007008C
:100B300000F052FD27682E683846FEF737FB064462
:100B40006A6806F10901012000F0EAFD00F000FFEB
:100B5000217C053132463846C9B2FEF735FBA8B1D3
:100B60001148214600F0BCFB00F0D6FC002005B087
:100B7000F0BD03F03F0694F822100096134602469B
:100B800004F12300FCF7BCFF064698E72046FEF779
:100B9000CBFA0028EAD00548D321F2F797FF0020CE
:100BA00005B0F0BDF5020100F5F200005061010052
:100BB00030B583B0C5680446FEF700FC002817DB9B
:100BC0002389E88A0D4A0E4901330344EB820D481C
:100BD00000940023FEF734FA08B1443001D103B089
:100BE00030BD0948522103B0BDE83040F2F76EBF76
:100BF00005484821F2F76AFFE2E700BF850A0100D5
:100C000041020100A5F100005061010070B500F043
:100C10009BFC00F069FD1E4B1E4A19781378CB1A15
:100C2000DB0701D4117070BD00F09AFE054600F09C
:100C300089FE064600F094FE174B184A04461178C8
:100C40001878344400F040FC641B154905F26935FE
:100C5000AD1BA1FB0535241A40F271216D0A01FB81
:100C6000054400F089FE00F08DFE844203D204F2B8
:100C70007124A042FBD800F0C9FC2146012000F0FD
:100C8000F5FD00F039FEBDE8704000F061BE00BF28
:100C9000B64E0020B54E0020B34E0020B44E0020CA
:100CA0005917B7D170B516460C46054600F054F9F1
:100CB000FEF79CFB00F034FB3046002100F010FBF7
:100CC000032C25D80121013C154B164E197001FA51
:100CD00004F4E0B2307000F049FB962000F014FDFF
:100CE00000F076FB6800023000F07AFB0E4800F05E
:100CF0008FFB0E4940F25B6000F050FC32785200EE
:100D000002F0FE02FF21082000F09CFB002070BDD5
:100D1000044E034B0420002130701970DBE700BF44
:100D2000B44E0020B34E0020EC6301005555550031
:100D300010B500F01FFC10F0FF0F05D100F004FC0F
:100D4000BDE8104000F0D0BC00F034FC044600F0D8
:100D5000FBFB00F0C9FC064B187800F03DFC14F0DA
:100D6000FF0F03D0034A13880133138010BD00BF67
:100D7000B34E0020904A0020072A2DE9F04106D802
:100D800014465A1E032A02D82E4F3A781AB101256A
:100D90002846BDE8F0812C4A0E461946FFF782FF2F
:100DA00005460028F4D1294A13780133137000F066
:100DB0000FFC631E80460230062B3ED8DFE803F0AE
:100DC00038332E29241F04003246AA2103F08FFE57
:100DD000404688F8004088F8016000F06FFB00F0A2
:100DE00015FC00F0E3F80022C11C012000F098FC83
:100DF00000F082FD00F0ACFD01233B70C8E73246F5
:100E0000F02103F074FEE3E73246002103F06FFEA9
:100E1000DEE73246FF2103F06AFED9E70C4932468D
:100E200003F03AFED4E73246552103F060FECFE7E7
:100E300032460F2103F05BFECAE70649324603F053
:100E40002BFEC5E7B24E00200D0C0100B64E00206F
:100E5000EC610100EC62010038B54B1E022B02D898
:100E60000F4D2B7813B10124204638BD0D4AFFF7F2
:100E700019FF04460028F7D100F0AAFB00F018FB88
:100E8000094B187800F0A8FB00F090F82246C11C2E
:100E9000204600F045FC01232B70204638BD00BFE2
:100EA000B24E0020310D0100B34E0020F8B51E4DAA
:100EB0002B7823B31D4C1E491E4E22780F783388A1
:100EC000038097424FF00000D3B2308023D02278C5
:100ED0000233DBB293420B7006D020BF40BF20BF6D
:100EE00023780A789A42F8D100F0E4FCFEF796FAEB
:100EF000002806DB00F040F800202870F8BD012033
:100F0000F8BD0D4840F25311F2F7E0FD00F034F85F
:100F100000202870F2E700F0FFFA00F0CBFCFEF7AB
:100F20007DFA0028E6DAECE7B24E0020B54E00204C
:100F3000B64E0020904A0020A0610100054B4FF4FE
:100F400080320021C3F80815C3F84423C3F80423F2
:100F5000704700BF00B00040054B1878421C1A7063
:100F600018B9044B01221A6070470120704700BF76
:100F7000B74E002000B0004010B5094C207848B1B1
:100F80000138C0B2207018B9064B01221A6010BD9A
:100F9000012010BD04482E21F2F798FD2078EFE7DC
:100FA000B74E002004B00040F0630100014BD3F8BD
:100FB0000405704700B00040024B00F5A87043F8EC
:100FC0002010704700B00040F0B4124B124D0126C3
:100FD000344600212C60C3F80405C3F80011C3F89F
:100FE00004111C6005E0D3F8042132B9D3F80425BC
:100FF0001AB1D3F80021002AF5D02E60D3F80421CD
:10100000002AE7D1D3F80475002FE3D0F0BCC3F871
:101010000425704700E0004004E0004070B58CB04B
:101020000E4615460146102268461C46F3F734FE6C
:1010300010220DEB02003146F3F72EFE6846FFF753
:10104000C3FF25B12846102208A9F3F725FE24B1D5
:101050002046102208A903F01FFD0CB070BD00BF90
:101060002DE9F04FDFF84C82DFF83CA298F90070D0
:10107000884B98F80060CAF8603507F10B03DBB2C3
:10108000DB00854CDFF830E24FEAC60903F180430C
:1010900003F5F83309F1804C0CF5F83C04EB860BB2
:1010A00007F1080507F11004CAF864C5CE44C3F877
:1010B00010B5E4B2EDB20FFA86FCE8B1022A4FEAAD
:1010C000860A4DD04AF23C5949F6C470042A18BF2A
:1010D0008146022900F0B180042940F0A4806F48C5
:1010E00009F5EB4909F11409A0FB09094FEA99191F
:1010F0006B48C3F8140540E0E400ED0004F18044BF
:1011000005F1804504F5F83405F5F835654AC3F86E
:1011100014254FF02809C4F81005C4F81405C5F8C3
:1011200010B5C5F814E54FEA8C0C0CF1804C0CF5A9
:10113000104C0136DCF840354B458ABFDCF84035B1
:101140000123A3EB0903CCF84035574B06F0010609
:101150004FF49062C3F8042588F80060BDE8F08F72
:10116000022900F09080042900F08A804FF03109B4
:101170004B48C3F814054B076BD5022A7DD04AF2C1
:10118000B8104AF23073042A14BF02461A460237D6
:10119000FFB2B800DFF824B100F1804006F5A87373
:1011A00000F510405BF82330C0F8403546F2180BCC
:1011B00042F2B843042914BF194659460A44374934
:1011C000D0F84035A1FB0212B3EB921F88BFD0F8D4
:1011D00040354FEA92118CBF5B1A0123E400C0F83E
:1011E0004035ED002C4B31492F4A314804F1804401
:1011F00004F5F83405F1804503EB870705F5F8356C
:10120000274BC4F810755144C4F814354FF48023AB
:10121000C5F81075C5F814E5C2F8A005C2F8A41504
:10122000C2F804357FE71D4809F51A5909F12C0960
:10123000A0FB09094FEA99199AE7184A1849C3F817
:10124000141509F5AB5909F11C09A2FB09394FEA3C
:101250009919E400ED0004F1804405F1804504F59E
:10126000F83405F5F8350023C4F81035C4F8143502
:10127000C5F810B5C5F814E555E749F6346286E7B8
:101280004FF0460934E7064AC3F814254FF02D09FC
:10129000DFE700BF0C11004040910040D34D6210C9
:1012A000001000400410004000F001404090004059
:1012B00050110040B84E002004F001400090004062
:1012C000044BD3F8103123B1034A044B10681B6858
:1012D00018477047001000406C4900206849002002
:1012E00038B5044601200D46F3F798F8084A094836
:1012F000094B0A491560102502220460C1F8045305
:101300000120C3F88021BDE83840F3F777B800BF6B
:101310006C4900206849002000E100E00010004016
:1013200038B50120F3F77AF80B4B0C490C4A0D4CF9
:101330000D480025C3F8FC5F0125C3F8FC5F0B686E
:1013400023F0807323F0010343F080730B60C2F835
:101350000048C2F8040838BD00100040741700406F
:1013600000F001400009010000120200134A0228A7
:1013700013680FD0042812D023F000431360032118
:101380000F4BC3F81015D3F8502642F00102C3F8F2
:101390005026704723F0004313600421F0E743F028
:1013A00000431360136823F0FF0301F0010143F0D1
:1013B0005C03C1F106011360E2E700BF3C17004087
:1013C00000100040014BC3F80C05704700100040AE
:1013D000024B0822C3F80C25704700BF00100040E4
:1013E000014BC3F80805704700100040074BC3F8D5
:1013F0005405D3F8182522F00072C3F81825D3F845
:10140000182542F00072C3F81825704700100040FC
:101410000B4A0021012310B4C2F82C15C2F8303554
:10142000C378C2F824354378847801781B0443EAF2
:10143000046343EA012310BCC2F81C35704700BFA7
:1014400000100040C2F34203022B10B402F001026C
:1014500024D0042B14BF00244FF0C7440AB144F435
:101460008014C0F108031B0400F00F00204303F4B4
:1014700070230D4A10BC034343F48073C2F8143543
:10148000D2F8183509481840C2F81805D2F81835AE
:10149000194341F44031C2F8181570474FF0807479
:1014A000002ADED0DBE700BF001000400000F8FE9D
:1014B000014BC3F80405704700100040014BC3F80E
:1014C0000405704700100040022804D0042814BF0F
:1014D00029202A2070472820704700BF012070472C
:1014E00029207047022809D0042805D111F0010FE6
:1014F00014BF1E20192070470A207047052070472E
:10150000014B01221A60704704100040014B012278
:101510001A6070470010004030B4084A0848094972
:1015200001234FF490650024C2F808555360D3603E
:10153000C0F8004230BC0B60704700BF00F00140B3
:101540000010004010100040044B0022C3F800219E
:10155000C3F80C21C3F81021704700BF00100040F1
:10156000034BD3F80001003818BF0120704700BFBB
:1015700000100040034BD3F80C01003818BF0120C5
:10158000704700BF00100040034BD3F85005B0FA7D
:1015900080F04009704700BF00100040044B40F24B
:1015A0000312C3F83425C3F83805C3F83C15704757
:1015B00000100040034BD3F80004003818BF01208E
:1015C000704700BF0010004000487047604800208E
:1015D0000048704764480020054B10B400210324E4
:1015E0000246C3F80042084610BCFFF739BD00BFF1
:1015F00000100040044B10B403240146C3F800421D
:10160000012010BCFFF72CBD001000400449054B21
:1016100003204FF49062C1F80002C3F80825704718
:101620000010004000F00140034AD2F8003243F4B9
:101630008873C2F80032704700100040014BD3F8A5
:101640004805704700100040024B0022C3F81C21DF
:10165000704700BF00100040034BD3F81C01003856
:1016600018BF0120704700BF0010004030B40024B4
:10167000A30003F1804303F580531568C3F80056B7
:1016800001349588C3F82056082C02F10602EFD1E8
:10169000034B40EA012030BCC3F84006704700BF4E
:1016A00000100040034AD2F8403623F0FF03C2F88E
:1016B0004036704700100040024B0022C3F814214E
:1016C000704700BF00100040034BD3F814010038EE
:1016D00018BF0120704700BF00100040014BD3F835
:1016E00010047047001000400449054B054A4FF4B0
:1016F0008020C1F84803C3F80825704700B00040B7
:1017000000F001406020740E034B044A1B7803F57F
:10171000A87342F823007047B84E002000900040A4
:10172000F0B4A2F574232A4DA3F51073AB4204461E
:1017300006D902F1E87202F5D43202F5A572013938
:10174000244D254B254801262E600026C3F804654C
:10175000234DA0FB02020426C3F81065900C02265C
:10176000C3F808651F4AC3F84005C5F848154FF48B
:101770008021C5F844131C49C2F838152021C2F84D
:101780003C35C2F80415E4B14FF40013C2F8083533
:101790004FF48014134A154B1549C2F8044500252F
:1017A0000124144E0C600427C3F80455C3F81075C7
:1017B000C3F808551C60C2F84865F0BCC2F84C1567
:1017C00070474FF48013C2F808354FF40014E1E776
:1017D000BFBDF07F0C8000400080004083DE1B43D3
:1017E00000B0004000F0014048B1004000900040CF
:1017F0000C9000400C110040F0B4164C164F174EE0
:10180000174D184B01223A603260C4F840254FF45E
:101810008022C5F84815C5F844231349C3F8381584
:101820002022C3F83C45C3F8042558B14FF40012F8
:10183000C3F808254FF480130A4A0120F0BCC2F80F
:10184000043570474FF48012C3F808254FF4001395
:10185000F2E700BF00800040048000400C800040A0
:1018600000B0004000F0014048B100400C4BC3F80C
:10187000401550B10B4B4FF40012C3F80825094A2C
:101880004FF48013C2F804357047064B4FF48012B2
:10189000C3F80825034A4FF40013C2F80435704713
:1018A0000080004000F00140014BD3F8480570472C
:1018B00000B0004010B40548054C0649064A012313
:1018C0002360036010BC0B60136070471080004001
:1018D0000480004004900040109000400449054BF3
:1018E000C1F844054FF08862C3F80425704700BF73
:1018F0000080004000F00140054B06480649074AB9
:10190000C3F84005C3F84415C3F80425704700BF69
:1019100000F0014000110040408000404000000401
:10192000014BD3F84405704700800040014B18601C
:10193000704700BF70490020014B1868704700BF16
:1019400070490020014BD3F84005704700800040EB
:10195000024B4FF00062C3F80425704700F00140CD
:10196000014BD3F84805704700800040014BD3F885
:101970004805704700800040014B01221A60704703
:101980004C800040014BD3F84C057047008000406C
:10199000F0B4214B02240025A142C3F800550646AD
:1019A000C3F8004535D0042931D11C491C4C1D48D1
:1019B0000325C3F81C55C1F878454FF400531A4C61
:1019C000C1F87C05C1F804351849134BD1F8181536
:1019D0001748124D174FC9B2C3F81815C3F804457C
:1019E0000021C3F808654FF00074C3F80C05C3F874
:1019F00010250122C3F81475C3F80012C3F80411AE
:101A0000C3F80811C5F80445F0BC1A6070470A4CC9
:101A1000DAE70A4CD8E700BF00F0004000F00140D0
:101A2000501100400CF00040010002010010004085
:101A3000644800205447002001000001010001011A
:101A400070B4104B104D114E044600220220C3F812
:101A50000025C3F80005C3F80465C3F808450C4E1B
:101A6000C3F80C150124C3F810552846C3F81465B3
:101A7000C3F80042C3F80421C3F808211C6070BCFD
:101A8000704700BF00F000406448002000000101E2
:101A9000544700200E4A0223C2F80433D2F804311E
:101AA00033B920BF40BF20BFD2F80431002BF8D09B
:101AB000074B084A02204FF40041C3F80803C2F85C
:101AC0008011D3F80801B0FA80F04009704700BFD8
:101AD00000F0004000E100E0034BD3F800040038C0
:101AE00018BF0120704700BF00F00040154B164A98
:101AF00030B40324C3F80045C3F80405C3F808153F
:101B0000D2F80405114D124C0138C3F8100500211C
:101B10004020C3F81455C3F80011C3F80411C3F8EA
:101B20000811C2F86005D2F800324FF4000043F00B
:101B30004003C2F80032C2F82811C4F8040530BCD2
:101B4000704700BF00F000400010004050470020E8
:101B500000F00140014BD3F80004704700F0004052
:101B60000349044A0023C1F82831C2F80035704700
:101B70000010004000F00040084BD3F8280160B18D
:101B800003F56043D3F8000138B1D3F8040120B164
:101B9000D3F80801B0FA80F0400970470010004007
:101BA000022910B5144603D006481F21F1F78EFF15
:101BB0000B201CB1BDE81040F2F720BCBDE810407E
:101BC000F2F72CBC3C64010029B10139012905D888
:101BD0000B20F2F737BC1820F2F734BC08B50348E5
:101BE0003721F1F773FF002008BD00BF3C640100FE
:101BF000884213D028B9481E01288CBF002001203C
:101C00007047012806D159B1A1F10200B0FA80F065
