:10100000404E0020E9710000F192010019720000C9
:10101000197200001972000019720000000000002F
:10102000000000000000000000000000B16F0000A0
:1010300019720000000000005D6F0000D9920100ED
:10104000A9710000D5230100A9710000A971000059
:10105000A9710000A9710000A9710000A971000028
:10106000A9710000A9710000A9710000A971000018
:10107000A9710000A9710000A9710000A971000008
:10108000A9710000A9710000A9710000A9710000F8
:10109000A9710000A9710000A9710000A9710000E8
:1010A000A9710000A9710000A9710000A9710000D8
:1010B000A9710000A9710000A9710000A9710000C8
:1010C000A9710000A9710000A9710000A9710000B8
:1010D000A9710000A9710000A9710000A9710000A8
:1010E000A9710000A9710000A9710000A971000098
:1010F000A9710000A9710000A9710000A971000088
:1011000053B94AB9002908BF00281CBF4FF0FF316E
:101110004FF0FF3000F06EB9ADF1080C6DE904CE70
:1011200000F006F8DDF804E0DDE9022304B07047C2
:101130002DE9F047089D0E4604468C46002B40F0F2
:1011400081808A42174645D9B2FA82F24AB1C2F189
:10115000200106FA02F320FA01F1974041EA030C5C
:1011600094404FEA174E230CBCFBFEF6B9B20EFBBF
:1011700016CC43EA0C4306FB01F0984209D9FB1850
:1011800006F1FF3C80F01581984240F21281023E48
:101190003B441B1AA4B2B3FBFEF00EFB103344EA2F
:1011A000034400FB01F1A14209D93C1900F1FF33CE
:1011B00080F00181A14240F2FE8002383C44641A72
:1011C00040EA064000211DB1D4400023C5E9004398
:1011D000BDE8F08702B9FFDEB2FA82F2002A4FD1F1
:1011E000CB1B4FEA174E1FFA87F80121B3FBFEFC19
:1011F000260C0EFB1C3346EA034608FB0CF3B342F5
:1012000007D9BE190CF1FF3002D2B34200F2EB80D5
:101210008446F61AA3B2B6FBFEF00EFB106643EA54
:10122000064408FB00F8A04507D93C1900F1FF333C
:1012300002D2A04500F2D2801846A4EB080440EA8E
:101240000C40C0E78B4208D9002D00F0AF80002190
:10125000C5E900060846BDE8F087B3FA83F1002926
:1012600049D1B34202D3824200F2BB80841A66EBBA
:10127000030301209C46002DAAD0C5E9004CA7E736
:10128000C2F120039740D8409140DE404FEA174E0C
:1012900008434FEA104CB6FBFEF11FFA87F80EFB2D
:1012A00011664CEA064601FB08F3B34204FA02F465
:1012B00009D9BE1901F1FF3C80F08E80B34240F2A3
:1012C0008B8002393E44F31A86B2B3FBFEF00EFB6C
:1012D000103346EA034600FB08F3B34207D9BE19B0
:1012E00000F1FF3C74D2B34272D902383E44F31A83
:1012F00040EA01417AE7C1F1200703FA01F422FA3A
:1013000007F31C4320FA07F906FA01F34FEA144CDD
:10131000FE4049EA03094FEA1943B6FBFCFE1FFAF7
:1013200084F80CFB1E6643EA06460EFB08FAB2453B
:1013300002FA01F200FA01F308D9A6190EF1FF3002
:1013400048D2B24546D9AEF1020E2644A6EB0A06B3
:101350001FFA89F9B6FBFCF00CFB106649EA064659
:1013600000FB08F8B04507D9A61900F1FF3C2DD2C3
:10137000B0452BD90238264440EA0E40A6EB0806B9
:10138000A0FB02894E45C446CE4618D315D075B38E
:10139000B3EB0C0266EB0E0606FA07F722FA01F32E
:1013A000CE401F43C5E90076002111E729462846B3
:1013B0000EE76646EDE6184601E74345E7D2B8EB8F
:1013C000020C69EB04040138A646E0E76046D3E767
:1013D00060468CE78646B9E7614674E702383C44CC
:1013E0002BE7084647E7ACF1020C3E4411E72946DB
:1013F000EEE600BF704700BF2DE9F04FB34C94F804
:10140000D6608FB006F00106002800F0CA81CEBB7E
:1014100094F87C7094F8290094F82C204FF0270958
:101420002D2309FB074700F0030019FB0239FF23B6
:1014300084F82A3010F012F994F8D600410707F129
:101440007D0704EB090800F12A8114F809003146F0
:10145000C0F3801008F01EF806220146054608F188
:10146000020017F06FFF29460622B81C17F06AFF2A
:1014700014F809305A060AD413F00E0F40F0E78032
:10148000636A93B10C2630460FB0BDE8F08F062199
:1014900008F1020006F0A6FA002800F03C8214F8D9
:1014A000093013F00E0FEBD0D1E00AF0CFFF8246E7
:1014B000002800F057820AF0D5FF8346002800F08C
:1014C0006A820CF05FFB0546002800F061824FF64F
:1014D000FF73806FAB8505F11C030B93002800F0B0
:1014E0003D8205F16C0205F1680106F087FAB5F856
:1014F0006420774995F840C095F83DE095F8DC0008
:10150000744B2B660A4042F4887242F0010295F84F
:101510002611A5F86420002262F3000C20F00300DD
:1015200021F0030185F840C00EF03F0E4FF01B1C68
:101530006EF07F0E85F8DC0085F826117F20664965
:10154000C5F85CC04FF0060CC5E9132285F83F20B2
:101550006A866A636A65A5F8C820A5F8CC20A5F854
:10156000E82085F8EA20C5F80021A5F80421A5F8AF
:101570001821C5F82021A5F8242185F82F2185F808
:101580003DE085F8C100A5F8C4C0C5F81C11C5F838
:1015900030A1AA6795F872E195F89AC195F87E0096
:1015A00095F85211A5F87C2062F3C30C62F3041E77
:1015B00021F0070120F01F00A5F85021A5F87021A7
:1015C000A5F89821A5F8A42185F89AC185F872E1BB
:1015D00085F8521185F87E000CF022FEA5F8D600A1
:1015E0000CF024FED5F8A8313C49A5F8D8001940E4
:1015F000C5F8A8110CF020FE95F8AC1160F30201BB
:1016000085F8AC110CF01EFEC4E933AB0B9B636292
:1016100095F8AC1195F820C0ED610301002203F0AC
:10162000700321F078010B4362F3000CC5E96E22D0
:10163000C5E96C22C5E90522C5F8C02185F8AC31A1
:1016400085F820C011F0EEFA002840F0708194F87F
:1016500028300121C3F342030DA88DF8343006F081
:1016600045FB002800F0968014F8093003F00F03C2
:10167000022B00F1FF3233D0012B00F05C8178782F
:101680001030C100002B00F04881062B00F088814B
:101690004FF4DA704FF41B7100FB02102BE0C0F323
:1016A000C000324604F1D70110F0E6F9FF2884F8B3
:1016B0002A0002D0304610F09DF84146034810F051
:1016C00013F80248394610F00FF8D1E6B42D002087
:1016D00080F8FFFF48014801FF4901000000FFF6C4
:1016E00098F801301033DB0000FB03F000F5AA701E
:1016F000642303FB020094F82070B54AE4610025DE
:10170000312365F30007A0FB0201236084F82070F9
:10171000ADA3D3E90023C4E90555C4E90155FFF79A
:10172000EFFCB4F8D480E06007F0AEFE0746B8F1F5
:10173000000F08D114F8095005F00F05A5F10105B7
:10174000B5FA85F56D0994F82820E36865F3000281
:1017500012F0010584F8282000F08780DFF88492D9
:101760009C490493002002250DF130080193059156
:10177000CDE907980321CDE9020006942A4600909E
:101780003B460C9507F070FD41460AF0F3FE002839
:1017900000F0AE80636A002B3FF474AE0BF0FCF9EE
:1017A00070E6002E3FF46EAE20460AF0F1FE844251
:1017B0000CD0894A89498A484FF4E56317F063F8E9
:1017C000404080F311884FF0030002DF94F8283086
:1017D000D8070DAD0ED502220D920321814B009545
:1017E0000122002007F0ACFD29460AF0C3FE0028C4
:1017F00040F0E080022203217A4B009500200D92F8
:1018000007F09EFD29460AF0B5FE002840F0AC80A6
:1018100075480AF0F9FE002840F0928073480AF0FB
:10182000C3FE84420CD06C4A6C496D4840F24A7346
:1018300017F029F8404080F311884FF0030002DFD1
:10184000636A0BB10BF0A8F994F8D63000206FF35F
:10185000000384F8D6300BF071FD0646002844D012
:10186000002630460FB0BDE8F08F6148614ADFF8CE
:1018700074E1DFF860C10694A8FB00014FF0910904
:1018800009FB081103F24718C2F800804FF0020963
:10189000049309920DF130084BA3D3E900234FF6CE
:1018A000FF7ACDE907E80295CDF83090CDF814C065
:1018B000CDF80CA0FFF724FC4A46CDE900503B468A
:1018C0002846032107F07AFC41460AF053FE00281F
:1018D0007FF460AF94F8D63043F0010384F8D6303B
:1018E0000BF02CFD0028BBD101200FF095FECAE5BE
:1018F000414905914AF2D8320092CDE90798CDE9E5
:101900000300CDE9010006943B46012203210C951A
:1019100007F0AAFCD8E71226B5E598F801001030C8
:10192000C00000F54D73194400F59A70B4E60BF051
:1019300033F90326A7E54FF4F2704FF47F71ABE65D
:10194000254A2E49264840F2477316F09CFF404036
:1019500080F311884FF0030002DF5FE705F17000AC
:10196000A867BEE507268EE520480AF01DFE8442E2
:101970003FF488AD40F24173174A1849184816F0F1
:1019800082FF404080F311884FF0030002DF79E5C9
:1019900058460AF06DFD50460AF05EFD072672E5D6
:1019A00098F801301033DB0003F54D70014403F566
:1019B0009A7071E60D480AF0F7FD84423FF462AD7B
:1019C00040F23373D8E700BF8D49FD1A07000000CD
:1019D00000CA9A3B0DC90000F0AA0100E0AB01006B
:1019E0008CA7010069C50000D02D0020B42D002077
:1019F000002AE784942E002015CB000000AA0100E5
:101A0000F8B5194E9DF8184096F8485015F00107A2
:101A100021D196F832C0DFF854E0A6F84210E40075
:101A200004F018040CF0670C44EAC01463F3420598
:101A3000A2FB0E0144EA0C04912303FB021186F879
:101A4000485007A3D3E9002386F83240FFF758FB3C
:101A500070643846F8BD0C273846F8BDAFF30080F7
:101A60008D49FD1A07000000B82E0020002AE784E7
:101A7000F8B59DF81840104E0546E400807DEA84D4
:101A800004F01804A3FB066700F06700912244EA03
:101A9000C111014302FB0377A97505A3D3E9002314
:101AA00030463946FFF72CFBA862F8BDAFF3008043
:101AB0008D49FD1A07000000002AE784000000009D
:101AC0002DE9F04F90F83230044600F1350190F8DE
:101AD000480003F0F903C0F3400060F386138DB0B3
:101AE00084F8323007F0D6FCB4F8426094F8203025
:101AF0004F48E4610025A6FB000165F30003912235
:101B000002FB0611C4E9055584F8203046A3D3E949
:101B10000023FFF7F5FA636C656006460933A6F10A
:101B2000310293424FF03101A56028BF6564216006
:101B300034BFE360E26007F0A7FC656A80460DF100
:101B40002C09002D4ED03B4DCDF82090B4F842A08A
:101B500039493748E268DFF8ECC00492651BAD08EC
:101B6000A1FB0535AAFB0001912303FB0A11334BAE
:101B700005934FF0000A2CA3D3E900230227CDF8E8
:101B80001CC006940B97CDF80CA0FFF7B9FA1046CD
:101B900019464FF47A720023FFF7B2FA6D08043544
:101BA000EDB22A46029043460321CDF800A05046EC
:101BB000019607F059FB49460AF0DCFC054668B976
:101BC00094F8483043F0010384F848300BF092F960
:101BD0000446F8B128460DB0BDE8F08F0C200DB0DA
:101BE000BDE8F08FE1680A954B460AAA03200B95E1
:101BF00002F0A2FA0B990029A5D011480AA3D3E953
:101C00000023A1FB0001FFF77BFA0A9B20F07F482D
:101C1000984498E738460FF0FFFC20460DB0BDE829
:101C2000F08F00BFAFF300808D49FD1A0700000060
:101C3000002AE784B82E0020BD86F21ABDD000002D
:101C400000CA9A3B69C500002DE9F04F0446808D1B
:101C50004FF6FF7398428DB00D46164600F089800E
:101C600094F8E93094F8E80083420ED0C01A00F0EE
:101C7000030002281BD094F82D2194F82C319A42AD
:101C800030D100200DB0BDE8F08F94F8527117F0FC
:101C90000108F0D194F8051194F804218A4200F06B
:101CA0008B83981E012284F8E90084F8EA2094F8D6
:101CB000983194F899219A4206D094F89A2102F02A
:101CC0000601042900F0BD8394F8EA707B1E052B01
:101CD00000F26483DFE813F07000FB02A2026203EB
:101CE0002503C701304805F033FE58B394F82C3172
:101CF00084F82D310379022243F00303427103710A
:101D0000C271D4F8B03194F82E2102722BB394F83A
:101D10005221910721D494F8AB21D2071DD4D4F8D5
:101D2000BC21934204BF1A68C4F8BC21D4F8B42182
:101D3000B2B91A68026018600368C4E96D000BB993
:101D4000C4F8C001B4F8CC0000289AD1B4F8C63069
:101D5000012B1CD9A4F8CC3093E7D4F8B421E2B11C
:101D6000D4F8B8311A6802601860C4F8B801036882
:101D7000E5E70E4A0E490F4840F2F32316F083FDC3
:101D8000404080F311884FF0030002DF68E7013321
:101D9000A4F8CC300DB0BDE8F08F0360C4E96C004E
:101DA000C4F8B801CBE700BFEC3100203CAC010027
:101DB000A4AD01008CA70100DFF85C84D8F80030E6
:101DC000002B00F0CC84E78E628E94F80631174425
:101DD000374413F00303BFB240F08E83B4F8EC90A5
:101DE000A7EB09021FFA82FA12043FF544AF94F8F8
:101DF000701194F8712194F8040184F805018A4265
:101E000094F8E80084F8E90009D094F8722102F00F
:101E10000702052A04BF84F87111A4F8CC30D8F861
:101E200000309C4204BF0023C8F80030D4F8008181
:101E3000B8F1000F00F0C185D8F80000002800F0CC
:101E4000BC85B4F80831E28D4168C4F800119342B2
:101E5000B4F80A11B4F80CC100F0D286A28DA8F82B
:101E600006204FF00C0E0022A8F81E30A8F8201013
:101E7000A8F822C088F804E088F81C2041460AF03F
:101E8000FDFA0AF005FB2368002B09DAD4E90112F8
:101E900023F000438A422CBFAD186D182360ED1A61
:101EA000E38DB4F8088113FB0AF39BB2B3FBF8F19E
:101EB00018FB01F292B293421FFA81FB80F06B850E
:101EC000D31AC94840F2E24202FB03F3A3FB00012C
:101ED000C3A3D3E90023FFF713F920F07F400544A3
:101EE000638EA9EB07071E4494F93D305F443744E5
:101EF00040F2E249002B678609FB08F6C0F2B4867F
:101F0000D4F81001B849B6A3D3E90023A0FB01011E
:101F1000FFF7F6F820F07F4909F101093746B4F8D8
:101F20000C21B4F80A11B14BA4F82E8042F21070C3
:101F300000FB0262AE48218633443044B3FBF6F323
:101F4000013AB2FBF6F2B0FBF6F6A4F8C62098B25E
:101F50008A1D9042A4F8D200A4F8CA6002DD401A9B
:101F6000063880B294F80631A4F8CE005E0744BF6C
:101F70000023A4F8C8300221012013F05BFA0022EC
:101F800002218246012005F087FD9A494FF4E47250
:101F9000204605F013FD00F105085FFA88F8964B1E
:101FA000009442460121002007F0CAF930F00203F4
:101FB0000CD0924A9249934840F6581316F063FCAD
:101FC000404080F311884FF0030002DF864EA7FBEC
:101FD000066783A3D3E9002330463946FFF790F81C
:101FE000894A20F07F4BABFB02230721B01A01FB8B
:101FF0000B3367EB03014FF47A720023FFF780F88D
:10200000824A8349E668834F034694F93D00029370
:1020100011EA200138BF11460020CDE904612B46AA
:10202000CDF804B008940694CDF800904246079786
:102030000390012107F018F930F002030CD06F4A29
:102040006F49704840F6721316F01DFC404080F353
:1020500011884FF0030002DFBAF1000F40F0EA856B
:102060006FF047000EE6E38E628E94F8EC50134456
:102070001E44EF07B6B2AB4600F1E482B4F8EE209E
:10208000B61A37043FF5F7AD94F8DC2094F8648075
:1020900094F865A094F8E810B4F8627084F8E91038
:1020A000D60708F007080AF0070A40F1CC85D4F8F3
:1020B0001C21100540F1C785B4F8D890B9F5296FF7
:1020C00028BF4FF42969B9F5A47F4FF4296338BFBD
:1020D0004FF4A4790B9315F01C0F40F0BF86B4F8B1
:1020E000606015F0E00F0CD094F8652094F85E0065
:1020F000690961F3020284F865200B9A0BF0A2F9DA
:10210000074694F8AC2194F86410D4F80051C2F357
:10211000C00262F3C30184F86410002D00F0A287AE
:102120002868002800F09E8794F8641094F86520D1
:102130004368C4F800311BF0020FC1F3020EC2F372
:10214000020C01F0070102F0070202D1884501F0FC
:102150004080A38DEB801022002385F81DE085F8D8
:102160001EC02A712B7729460AF088F9D4F800514D
:10217000002D00F094872868002800F09087B4F8BC
:1021800060304268C4F80021B34209D34B4507D8F8
:10219000B4F86230BB4203D30B9A934241F22D80D4
:1021A000A4F86060A4F862702B7FA28DEA8043F0EF
:1021B00003030221092229712B776A77B4F85E3074
:1021C000B4F85C202B841523AA84EB7729466F840E
:1021D000EE840AF053F90AF05BF94CE5AFF30080A6
:1021E0008D49FD1A0700000000CA9A3B7FC3C90150
:1021F000FF596202182F0020C1D700003CAC01003B
:102200001CAD01008CA701008D49FD1AB509010024
:102210004108010069D70000E030002094F8EC305C
:1022200013F003057FF427ADAF4805F091FB064698
:1022300000283FF420AD94F93D30002B80F26885F2
:1022400094F8ED50002D00F05183037994F8DC20D0
:1022500043F00303D207037140F1FE86D4F81C312A
:102260005B0740F1F986112203234572C2710372A4
:102270007771D4F8B031002284F8ED20002B00F003
:102280007F8394F85221950700F17A8394F8AB216B
:10229000D00700F17583D4F8BC21934204BF1A68BB
:1022A000C4F8BC21D4F8B421002A01F08F80D4F8FE
:1022B000B8311A6832601E60C4F8B8613368002B08
:1022C00000F0C68694F8E83084F8E930D3E4E38E71
:1022D000618E94F8EC200B441E44D007B6B200F196
:1022E0000C82B4F8F230F61A31043FF5C4AC94F81D
:1022F000E83084F8E93004F13805052204F1ED01F5
:10230000284617F01FF82846052105F0EFFC94F841
:102310003D30012260F3050384F83D3084F8C42188
:10232000A9E4714805F014FB00283FF4A4AC94F82C
:10233000E83084F8E930012302794371D4F8B031F0
:1023400042F0030212210271C171002B00F0C3821E
:1023500094F85221910700F1BE8294F8AB21D20784
:1023600000F1B982D4F8BC21934204BF1A68C4F8C2
:10237000BC21D4F8B421002A01F01680D4F8B83179
:102380001A6802601860C4F8B8010368002B00F0F6
:102390006185B4F8CA30A4F8CC306CE4534A54498F
:1023A000544840F2793316F06EFA404080F31188B9
:1023B0004FF0030002DF5EE494F8192194F818C18D
:1023C000624555D194F8252194F824C1624500F066
:1023D0000583A2EB0C02D1077FF54DAC94F82631B2
:1023E000DA0740F147879A0740F12E870AF074F820
:1023F0000146002871D094F8243184F82531037FF8
:10240000A28DC28043F003030B77022006220C2327
:1024100008714A77CB7794F82701B4F82A31B4F8D9
:102420002821A1F8212081F82000A1F82330086894
:102430000AF024F80AF02CF894F8E80094F8E9304F
:1024400014E402F00701062901F2448101A050F8CA
:1024500021F000BF05280000C91C0000C91C0000B5
:10246000C91C00006727000067270000C91C000086
:10247000A2EB0C02D3077FF5FEAB94F8DC1011F051
:10248000010700F08C840AF027F8074628B394F877
:10249000183184F81931037FA28DC28043F0030301
:1024A0000922022041463B7738717A77FA7707F1A3
:1024B0002000082216F071FFD4F8203187F8203070
:1024C000C3F307221B0C87F8212087F822303946F6
:1024D000086809F0D3FF09F0DBFF94F8E80094F8EE
:1024E000E930FFF7C3BB00BFEC3100203CAC01007A
:1024F0000CA801008CA70100012009F0CFFF804645
:1025000000283FF4B8ABB94805F022FA0646002887
:102510003FF4B1AB09F0E0FFD8F80030D4F8002167
:102520005A6094F80631C4F8008103F00303012BCC
:1025300000F0ED85022B00F0C285AD4AAD49AE48F2
:1025400040F6830316F09FF9404080F311884FF066
:10255000030002DF0021238E94F806C132793B4448
:10256000063398B26FF3010C0C23A4F8EC0084F846
:1025700006C142F003027371D4F810319F4F3271DB
:102580000022F271A7FB032394F8147122683772BA
:10259000B4F80871A6F80B70B4F80A71A6F80D70BB
:1025A000C3F38F23B4F80C71A6F80F70002AA6F8B5
:1025B0001100A6F80930C4F8F4500ADAD4E901038E
:1025C00022F0004283422CBFEB182B189A1AC4F851
:1025D000F4208B4B06F109000122C4F8F000D96009
:1025E000104602219C6005F08BFA002840F092858D
:1025F000D4F8B031002B00F02C8394F852219007CE
:1026000000F1278394F8AB21D10700F12283D4F89D
:10261000BC21934204BF1A68C4F8BC21D4F8B42189
:10262000002A00F0E386D4F8B8311A6832601E60E0
:10263000C4F8B8613368002B7FF41DABC4F8C061E7
:10264000FFF719BB022009F029FF074600283FF4D5
:1026500012AB664805F07CF9054600283FF40BAB49
:1026600094F8EC306FF30003C3F38200C3F342121B
:1026700050EA020884F8EC30DBB240F0C78594F8E9
:10268000E820A4F8EE80980784F8E92000F140865D
:102690004346414605226A7185F808802A796B72A3
:1026A000D4F8B031698142F0030218212A71E9712E
:1026B000002B4AD094F85221910746D494F8AB21CC
:1026C000D20742D4D4F8BC21934204BF1A68C4F89C
:1026D000BC21D4F8B421002A00F08086D4F8B831A7
:1026E0001A682A601D60C4F8B8512B68002B7FF46B
:1026F000C2AAC4F8C051FFF7BEBA3C4805F028F999
:10270000054600283FF4B7AA238E027994F8EC100E
:102710001E44B31DA4F8F2306FF30001012342F010
:102720000302082084F8EC102A716871EB7105220D
:1027300004F1ED01281816F005FED4F8B031B4F814
:10274000F220A5F80D20002BB4D1D4F8B421002A32
:10275000C4D12B60C4E96C55C4F8B851C6E7C8F8B9
:102760000040FFF730BB02F00702B4F89CC1B4F898
:10277000A011B4F89E91B4F8A281A4F85EC0042A16
:10278000A4F8621000F01A8594F89A31062262F3D8
:10279000020384F89A31D4F80071002F00F0A3846A
:1027A0003868002800F09F843B7F4268B4F82CE032
:1027B000C4F8002143F0030302223B774FF0090ADB
:1027C0001523A7F806E0A7F820C079843A71FB77B3
:1027D0003946A7F82490A7F8268087F81DA009F0AD
:1027E0004DFE09F055FEFFF76FBA00BFEC31002037
:1027F0003CAC01000CA801008CA701005917B7D10F
:1028000068030020C04805F0A3F800283FF45CAA44
:1028100094F89A21B4F89E11B4F8A231A4F8D61015
:102820000127A4F8D83067F3020284F89A21092717
:102830000279477194F8DC70D4F81CE1818142F090
:10284000030202711B224FF0140C00210272FA07DE
:1028500080F807C0417240F135841EF4006F00F02B
:102860003184B3F5296F28BF4FF42963B3F5A47FF2
:1028700038BF4FF4A4734FF42961D4F8B0214181DB
:10288000C381002A00F0008494F852319B0700F1C4
:10289000FB8394F8AB31DF0700F1F683D4F8BC3149
:1028A0009A4204BF1368C4F8BC31D4F8B431002B89
:1028B00000F0AF85D4F8B8311A6802601860C4F827
:1028C000B8010268002A00F01F85B4F8CA30A4F8E5
:1028D000CC30FFF7F9B9D4F8B421002A7FF44EAD1B
:1028E0000360C4E96C00C4F8B8014FE504F17F0748
:1028F0003B462A4604F1EE0104F25D1011F0EAFFB6
:102900003946102204F1A00016F01CFD082204F143
:10291000980104F1B90016F015FD94F8972094F889
:10292000B81094F87E3084F88F5042F0010265F3BD
:10293000000143F00803012084F8972084F8B810C0
:1029400084F87E3084F8905084F8915084F8925046
:1029500084F8935084F8945084F8955084F89650F5
:10296000C4F8B050C4F8B45032797071D4F8B031B2
:1029700042F0030205213271F171002B7FF481AC2A
:10298000D4F8B421002A7FF492AC3360C4E96C66B9
:10299000C4F8B86193E408FB113340F2E2425B48AB
:1029A0009BB202FB03F3A3FB000155A3D3E9002371
:1029B000FEF7A6FB2D1AFFF793BA554A554956481C
:1029C00040F6B40315F05FFF404080F311884FF0EC
:1029D000030002DFD8F80000FFF733BA94F871C1A2
:1029E00094F87021944500F06182DFF83081D8F8C6
:1029F0000020002A00F0AD8494427FF43CA994F8B2
:102A0000722102F00702052A00F24E860FF2040C32
:102A10005CF822F0212B00007D2A00002D2A000006
:102A20006D1C00006D1C00006D1C0000BB073FF515
:102A300022A909F051FD014600283FF44EAD037F65
:102A400094F87221032060F30202034384F8722198
:102A5000A08D0B77022718230F714B77B4F87421E0
:102A6000B4F87631C880B4F878010A84B4F87A21D1
:102A70004B840F238884CA84CB7729E594F873713B
:102A8000002F40F0F58494F93D30002BC0F21585FD
:102A900094F8723194F87C01C4F81071052262F345
:102AA0000203012284F8723184F81421002800F016
:102AB000C485B4F87431B3FBF0F3134413FB00F393
:102AC0009BB294F8722194F80601A4F80831C2F37D
:102AD000C0039B0020F0070243F002031343B4F845
:102AE0007801B4F87A2184F80631013984F80511A7
:102AF000A4F80A01A4F80C21FFF7BDB8AFF30080D9
:102B00008D49FD1A07000000EC31002000CA9A3BF5
:102B10003CAC0100C0AD01008CA70100E0300020FA
:102B2000D948B4F83690B4F832A004F011FF074643
:102B300000283FF4D2AC027994F87211042060F3BB
:102B4000020142F00302182084F8721109EB0A0313
:102B50003A717871B4F87401B4F87611B4F8782148
:102B600038813344B4F87A017981BA810F21002287
:102B7000A7F811304FF0FF33F881F9713A74FA7405
:102B80003A757B75BB75FB753B767B76BB76FB76C2
:102B90003B777B77BB77394620460AF0A5FC226855
:102BA000B4F8CA30C8F80040002AC4F89051A4F81C
:102BB000CC300ADAD4E9011322F000428B422CBF58
:102BC000EB186B189B1AC4F89031B04B13370122E5
:102BD000C4F88C71104602219C6004F091FF00281B
:102BE0003FF47BACAA4AAB4940F66B33AA4815F0D8
:102BF0004AFE404080F311884FF0030002DF6CE48E
:102C0000228E8A427FF42AA940F2E24202FB03FBB1
:102C100042F21072B4F8C6E002FB0CB2013AB2FB09
:102C2000FBF292B296457FF419A9032388F8043089
:102C3000FFF724B901221046022104F02DFF6FF0A6
:102C40004700FFF71FB84FF4A479CDF82C90FFF799
:102C500042BAD4F8B421002A7FF4E5AC3360C4E969
:102C60006C66C4F8B861E6E4E26C636C8B4F03FBFE
:102C70001A23E36411F016F8804694F8DC00C0F3E0
:102C8000820011F011F808EB000306FB03F38448FF
:102C9000E26C94F8141103F5742303F23F23A0FBB4
:102CA00003034FEA934808FB0BF073080244963B7A
:102CB0009A4209FB01FC28BF1A464FF0000EC4E9F6
:102CC0001232C4F844806EA3D3E90023A0FB0701AD
:102CD000C4F854C0C4F8E4E0FEF712FAD4F8103196
:102CE00084467048A0FB0330800A09FB00F0A0FB7B
:102CF000070163A3D3E90023A5EB0C05FEF700FA57
:102D0000A6EB080720F07F49B4F80881FFF707B960
:102D100004F17F073B462A4604F1EE0104F25D1000
:102D200011F0D8FD3946102204F1A00016F00AFB7C
:102D3000082204F1980104F1B90016F003FB94F89D
:102D4000971094F8B82094F87E3084F88F5043F0B0
:102D5000080365F3000142F0010284F8971084F83B
:102D60007E3084F8905084F8915084F8925084F822
:102D7000935084F8945084F8955084F89650C4F891
:102D8000B050C4F8B45084F8B820311D20460AF081
:102D9000B5FDD4F8B031002B7FF473AAF0E53A48C2
:102DA00004F0D6FD804600283FF497AB94F8193123
:102DB0003D4AC4F81C21013B092284F819314271B3
:102DC00094F93D200379002AACBF08220E2243F07B
:102DD0000303C271082203713946104416F0DDFA6C
:102DE000D4F81C3188F80830C3F307221B0C88F88C
:102DF000092088F80A30D4F8B031002B00F0678140
:102E000094F85221970700F1628194F8AB21D00722
:102E100000F15D81D4F8BC21934204BF1A68C4F864
:102E2000BC21D4F8B421002A00F01883D4F8B831BA
:102E30001A68C8F80020C3F80080C4F8B881D8F830
:102E40000030002B00F09C82B4F8CA30A4F8CC30DB
:102E5000FFF743BBC4F8C001FFF79BBA94F86420A6
:102E600094F85C00C5F3820161F3020284F86420E7
:102E70004A460AF0E7FA0646FFF733B9AFF3008097
:102E80008D49FD1A07000000EC3100207803002076
:102E90003CAC010028AA01008CA7010000CA9A3BA3
:102EA00083DE1B435917B7D1FF49010094F898718D
:102EB00094F89921BA4200F03C8194F89A1101F0FB
:102EC0000702062A00F203840FF2040C5CF822F0D9
:102ED000792F00006D1C00006D1C00006D1C0000AF
:102EE000ED2E0000ED2E00006D1C0000B4F89C31AA
:102EF000A4F85E3001F00703B4F8A021B4F89E9165
:102F0000B4F8A281A4F86220042B00F09D820B4645
:102F1000062262F3020384F89A31D4F80071002F7C
:102F200000F07F823868002800F07B823B7F426897
:102F3000B4F82CC0C4F8002143F003033B7702220D
:102F400009237B773A71B4F85E10B4F862207A8472
:102F50001523FB77A7F806C03984A7F824903946D3
:102F6000A7F8268009F08AFA09F092FA94F8E800A6
:102F700094F8E930FEF77ABEB64804F0E9FC014661
:102F800000283FF4AAAA94F89A21B4F89E01B4F854
:102F9000A231A4F8D6000127A4F8D83067F30202C2
:102FA000092784F89A210A794F7194F8DC70888196
:102FB00042F0030214204FF0000C0A71FF07D4F80E
:102FC0001C21C8714FF01B0081F809C0087240F144
:102FD0003782100540F1BB82B3F5296F28BF4FF44B
:102FE0002963B3F5A47F38BF4FF4A4734FF429626B
:102FF000D4F8B001CB81B2F5A47F38BF4FF4A472EE
:103000004A81002800F0FA8194F852319B0700F1C0
:10301000F58194F8AB31DF0700F1F081D4F8BC31D1
:10302000984204BF0368C4F8BC31D4F8B431002B13
:1030300000F02D83D4F8B8311A680A601960C4F81A
:10304000B8110B68002B7FF4FFAEC4F8C011FBE68B
:10305000C4F8C061FFF736B90D233572F37102274A
:10306000FFF706B97C4A7D497D4840F62D6315F08F
:103070000AFC404080F311884FF0030002DF28680B
:1030800094F8ECB0FFF750B8D4F8B431002B7FF4CB
:1030900011AC0260C4E96C00C4F8B80112E46E4AD5
:1030A0006E496F4840F6596315F0EDFB404080F3E0
:1030B00011884FF0030002DF2868FFF760B8694904
:1030C000FFF749BA4FF4A4731946FFF7D6BBD4F8FB
:1030D000B421002A7FF4AAAEC8F80030C4E96C8895
:1030E000C4F8B881ADE65C4A5C495D4840F6FD43F2
:1030F00015F0C9FB404080F311884FF0030002DF58
:103100003868B4F85EC0B4F86210FFF74DBB56499A
:10311000FFF721BA504A5549514840F63E0315F091
:10312000B2FB404080F311884FF0030002DFFFF74D
:103130005FBA94F8A82194F8A91191423EF49BAD8E
:1031400094F8AA1101F00300032800F01D82002862
:103150007EF491AD3F4804F0FBFB014600283FF4AC
:10316000BCA994F8AA3194F8AC2194F8AB71012071
:1031700060F30103C3F3820060F30202C3F3421061
:1031800060F30612C7F34007087984F8AA3167F3A1
:10319000C30284F8AC21C3F3820C40F00300C3F3F4
:1031A0004213032716220871CA7181F808C04B72B6
:1031B0004F71002220460AF097F945E6B4F8A421A1
:1031C000002A40F0E08084F89931A4F8CC20FFF781
:1031D000E2BA92457EF4BDAF03232B71294609F074
:1031E0004DF9D4F80051002D00F0B781286800286F
:1031F00000F0B3814368C4F8003103232B712946E2
:1032000009F03CF909F044F9FEF735BD238E1E4460
:10321000B31DA4F8EE3009F05FF93B68D4F8002143
:103220005A60C4F8007109F057F90368D4F8002116
:103230005A6094F8EC30B4F8EE10C4F80001C3F30F
:1032400082085B09FFF726BA40F61C33024A084998
:10325000CCE400BFEC3100203CAC0100C0AD01006B
:103260008CA70100094300005D10010028AA01009D
:103270000CA80100C04804F06BFB00283FF42DA906
:1032800094F8252194F82631013A84F82521027911
:1032900043F00103062184F8263142F00302417114
:1032A000D4F8B03102710B216FF00E020C270172BD
:1032B000427205214FF0FF32C7718172C2720273F0
:1032C000002B79D094F85221970775D494F8AB214C
:1032D000D10771D4D4F8BC21934204BF1A68C4F852
:1032E000BC21D4F8B421002A00F0A181D4F8B8316F
:1032F0001A6802601860C4F8B8010368002B7FF4F4
:10330000A3ADC4F8C0019FE5C4F8C001FFF7DDBA62
:1033100009F0E2F81023A28D87F81C803B7194F825
:1033200064303868FA80C3F302037B7794F8653021
:10333000C3F30203BB77394609F0A0F809F0A8F8F7
:1033400094F8EC30B4F8EE10C3F382085B09FFF791
:10335000A1B994F8723103F00703052B00F2A481A0
:1033600001A252F823F000BF212B00007D2A0000AB
:103370002D2A0000771C0000771C0000771C00003D
:10338000C4F8C08160E594F89A01B4F8A671A4F875
:103390009E21002363F3020084F89A01A4F8A4316B
:1033A000A4F8A271FFF7F7B91A6802601860036801
:1033B000C4E96D00FEF7EABFD4F8B421002A95D124
:1033C0000360C4E96C00C4F8B80196E71A6832607B
:1033D0001E603368C4E96D66FEF771BF1A682A6023
:1033E0001D602B68C4E96D55FFF780B91A6832601B
:1033F0001E603368C4E96D66FFF71DB9D4F8B431B7
:10340000002B7FF417AE0860C4E96C11C4F8B81142
:1034100017E61368036010600268C4E96D00FFF7E7
:1034200051BA564A5649574840F6FD4315F02BFA13
:10343000404080F311884FF0030002DF386875E5E3
:103440004FF4A4731A46D3E5B4F8A421002A40F03F
:10345000DD8084F89971A4F8CC205EE51A68C8F87C
:103460000020C3F80080D8F80030C4E96D88E8E493
:10347000414804F06DFA014600283FF42EA8037974
:1034800043F003030B71112003220F23C8714A710B
:103490000B7294F873314B72204600220AF024F824
:1034A00094F8703184F871310023C8F8003094F832
:1034B000E80094F8E930FEF7D9BB2F4804F048FA49
:1034C000014600283FF409A80379182243F00303BA
:1034D00003714271B4F87421B4F87631B4F878010C
:1034E0000A81B4F87A214B8110238881CA81CB717B
:1034F00094F87C310B74B4F87E31B4F88001B4F8E0
:103500008221A1F81130B4F88431A1F81300B4F885
:103510008601A1F81520B4F88821A1F81730B4F875
:103520008A31A1F81D30A1F81900A1F81B2020460E
:103530003A4609F0D9FF94F8703184F8713194F863
:10354000E80094F8E930C8F80070FEF78FBBD205A8
:103550004FF4A47369D5A8224AE5084A08490948E6
:1035600040F63C6315F08FF9404080F311884FF02E
:10357000030002DF28683DE6EC3100203CAC01008E
:10358000C0AD01008CA70100080784F8A921C1F390
:1035900082025ED594F8AA21022161F3840284F8A4
:1035A000AA2194F8AA2157064FEA521149D50221BF
:1035B00061F3471284F8AA2194F8AA1194F864C020
:1035C00094F8650094F8AB21C1F382070CF0070C66
:1035D00000F00700C2F38002BC4508BF002752007C
:1035E000B0EB511F42F001024FEA511108BF002118
:1035F00042EA4112023B42EA8702062184F8E9309E
:1036000084F8EC2084F8EA10FEF75EBB00200B463D
:1036100060F30203A4F89E21B4F8A62184F89A313D
:10362000A4F8A401A4F8A22177E41A46E0E41A68F9
:1036300002601860C4E96D005FE6B4F87631FFF708
:1036400040BAC8070FD5012161F3471284F8AA21B7
:10365000B2E7D10710D594F8AA21012161F38402C1
:1036600084F8AA219DE711F0040118BF042161F339
:10367000471284F8AA219FE712F004020DD094F8B3
:10368000AA21042161F3840284F8AA2189E703684E
:103690000B600160C4E96D11D3E494F8AA1162F3E0
:1036A000840184F8AA117CE7124A1349134840F6B2
:1036B000294315F0E8F8404080F311884FF00300EB
:1036C00002DF94F8E80094F8E930FEF7CFBA40F64C
:1036D0002553BBE5074A0849084840F6255315F02D
:1036E000D2F8404080F311884FF0030002DFFEF76C
:1036F000EBBA00BF3CAC01000CA801008CA7010094
:103700002DE9F04F9C4695B05CF80C6B1D46136894
:1037100086460C4660462E31174605F1080A0322FC
:10372000D3F80090CDF828E005F11C0815F00AFE4A
:1037300004F12A010422504615F004FE04F13A0176
:103740000522404615F0FEFD4046052104F0CEFA64
:1037500095F8213000F03F0060F30503012885F85B
:1037600021300AD994F83F3003F01F02053AC3F321
:1037700004010B2A85F8221002D915B0BDE8F08F9C
:103780003A6896F8DC1000209060B4F83480A5F810
:10379000128094F8362094F837005B0942EA002240
:1037A00063F38401AA82638E86F8DC10ADF83030B2
:1037B00010F078FA034696F8DC000B93C0F3820011
:1037C00010F072FA0B9BDFF828C394F83110AA8A24
:1037D00040F2E24B0BFB08F8184408FB00F000F540
:1037E000742000F23F20ACFB00C04FEA580C800C64
:1037F0000BFB01F1ACF1960CA862C5F82CC0E96393
:10380000218FB14BADF8361042F2107C0CFB0181D8
:10381000AE48434402F1060C0139B3FBF8F3B1FBA7
:10382000F8F1A6F8C61099B261454044A6F8D21046
:10383000B0FBF8F0A6F8CA0002DD891A063989B291
:10384000A6F8CE100422514606F1E00015F07AFDEC
:10385000237F04F11E0A5146C3F38013062212A8E7
:103860008DF8403015F06EFD237F4FF48072A283F7
:1038700099F82A0097F812B0C3F340128DF83C2053
:103880000B920EF0E7FB0146062204F12B00002903
:1038900040F0ED8015F081FD04F12503BBF1FF0F31
:1038A0000E9304F11F0300F0EB801A465146584670
:1038B0000DF000FEA27F0E980232A27712A9062216
:1038C00015F040FD96F8DC30698AAA8AA286C3F317
:1038D000820384F83830BDF83630E386618630469E
:1038E0000AF05CF921462882E0807C680A9808F09A
:1038F000C5FD2B8AE3800F2323710B9B2068002BCF
:1039000000F0BA8095F809E02B7A95F80BC0A97AF7
:1039100095F8212041EA0C2143EA0E234B4042F066
:10392000400201216B8485F821202177214608F08F
:10393000A5FD08F0ADFD95F84900012100F0070054
:103940000FF0D0F8624A4FF0000A8346312300F2AC
:103950005240A0FB02013360C6E901AA58A3D3E993
:103960000023FDF7CDFBFC68BDF83020AD6A20F0E8
:103970007F4040F2E24303FB023302215246F060F3
:10398000A4F5AE7401201C4404F086F8484609F002
:1039900097FA821C4F4BCDF80090D2B250460121CD
:1039A00005F0CEFC0128A8EB0508A4EB0B047FD0A2
:1039B00099F82830DB0773D430460AF0EFF8DFF8C7
:1039C00010B1A8FB0B893EA3D3E900230546494665
:1039D0004046FDF795FB404A069620F07F4AAAFB39
:1039E0000223072101FB0A3340F23D11BF68089111
:1039F0003A4907913A490591B8EB020069EB030196
:103A0000F368049300264FF47A7200230396FDF7BF
:103A100077FB2BA3D3E900238446A4FB0B01CDE95C
:103A200001ACFDF76DFB053520F07F40EDB2313F75
:103A30003B4600902A463046012105F015FC30F047
:103A400002030CD0274A284928484FF49F7314F0EA
:103A50001AFF404080F311884FF0030002DF01227B
:103A60001046022104F018F815B0BDE8F08F04F1FB
:103A7000240115F067FC0FE79DF83C30237755E7EC
:103A80000E9811930622002115F087FC9DF8403016
:103A9000A377119B12A91846062215F053FC11E7D3
:103AA0000023012200931846114605F049FC83E7E4
:103AB00008F086FD81453FF47BAF0CF09DFE77E773
:103AC0008D49FD1A070000007FC3C901FF5962023A
:103AD00000CA9A3B250801008D49FD1AC90701005B
:103AE0004108010060AE01001CAD01008CA701007F
:103AF00083DE1B43000000002DE9F041D0E90BC735
:103B0000D0F828800CEB07043034A0450E4615464B
:103B100018D81B4F18A3D3E90023ACFB0701FDF70E
:103B2000EFFAA4EB080420F07F40306012A3D3E941
:103B30000023A4FB0701FDF7E3FA20F07F40286093
:103B4000BDE8F0810E4C0CA3D3E90023A8FB0401CF
:103B5000FDF7D6FA20F07F4307F130003360A0FB79
:103B6000040105A3D3E90023FDF7CAFA20F07F4042
:103B70002860BDE8F08100BF8D49FD1A07000000F4
:103B800000CA9A3B000000002DE9F04F0E7F174657
:103B9000126891B00C464FF0000A1D46C2F808A00A
:103BA000C6F3C013D2F800908DF8343024310622C9
:103BB00080460EA82E6815F0C5FB237FA4F81CA034
:103BC000797C97F812A0C3F3401211F001018DF82F
:103BD00030200B9204F12B004FF0060200F0EF8032
:103BE00004F11E0115F0AEFBBAF1FF0F04F125033D
:103BF00004F11F0B00F0ED805A46504604F11E01FF
:103C00000D930DF057FCA27F0D9B0232A2770EA9F7
:103C10001846062215F096FB6B8AAA8A6386B9F8C5
:103C20003030E386A28610F03BF884F83800304646
:103C300009F0B4FF034628822146E38040467C68B1
:103C400008F01CFC2B8AE3800F2323710B9B206858
:103C5000002B00F0B08095F809E02B7A95F80BC0A6
:103C6000A97A95F8212041EA0C2143EA0E234B4022
:103C700042F0400201216B8485F821202177214602
:103C800008F0FCFB08F004FC95F84800DFF880A180
:103C9000C0F3C00100F007000EF022FF00248346AD
:103CA000312300F252403360C6E9014450A3D3E906
:103CB0000023A0FB0A01FDF723FAB5F812C0FB6848
:103CC00020F07F40F06022460221012040F2E248CD
:103CD00008FB0CF8A3F5877503F0DEFE484609F0F3
:103CE00011FB021DD2B2444B00920121204605F087
:103CF00027FB2346032201210094204605F020FBE8
:103D0000304609F04BFF069640F2C923BF683B4A94
:103D100008933B4B07920593F368049388FB0A8949
:103D200000F1050C32A3D3E90023404649465FFA6F
:103D30008CF60394FDF7E4F9104619464FF47A72B5
:103D40000023FDF7DDF92AA3D3E900238446494681
:103D50004046CDF808C0FDF7D3F9A5EB0B05844626
:103D600023A3D3E90023A5FB0A01CDF804C0FDF786
:103D7000C7F9313F20F07F403B4600903246204655
:103D8000012105F071FA30F002030CD01D4A1E49E2
:103D90001E4840F2CA2314F076FD404080F311889B
:103DA0004FF0030002DF01221046022103F074FEEF
:103DB00011B0BDE8F08F9DF8303023775FE715F044
:103DC000ECFABAF1FF0F04F1250304F11F0B7FF4A5
:103DD00013AF18460622002115F0DFFA9DF83430A3
:103DE000A3770EA95846062215F0ACFA14E700BFD7
:103DF0008D49FD1A070000008109010085090100B5
:103E0000B5090100D4AE01001CAD01008CA7010072
:103E100000CA9A3B000000002DE9F04F93B0044621
:103E2000099090F93D00E4680D940028B8BF14345F
:103E3000CDE90B1207934FF0FF024FF00003B8BF1C
:103E40000D94CDE90F331C9EDFF8E4928DF83B20F2
:103E500092461F4606921C469B4605931D4603E06C
:103E6000069333789C4258D211AB0293AA4B01932C
:103E70000FAB022100930DF13B0210AB002011911A
:103E800005F0A4FA022800F0B880119B002B4FD156
:103E90009DF83B30FF2B5CD0BAF1FF0F11D0109A88
:103EA0005A450ED09D499E484FF4BB734A4614F0C4
:103EB000EAFC404080F311884FF0030002DF9DF8D8
:103EC0003B309A1E032A31D8052BC9D1069BFF2B04
:103ED00028D1002009F06AFE099B834226D00B9965
:103EE00090F93D203378002940F09380002AB9DB17
:103EF000C268DDF83C80DDF82CA028320A920C9ACA
:103F000012684245C0F094800A9ADDF840B09DF8EE
:103F10003BA005929C424546A6D39DF83B30FF2B23
:103F200000F0ED80347013B0BDE8F08F337899E77E
:103F30007C497B4840F26D134A4614F0A4FC404093
:103F400080F311884FF0030002DF9DF83B30FF2B18
:103F5000A2D10C9B1A683378954238BF1546A3420C
:103F600045D9059BDFF8C481EB18A3FB080107279F
:103F700007FB031166A3D3E90023FDF7C1F86A4BE1
:103F8000A3FB0020079AC0F38F218A424FEA9020BA
:103F900040F2A3801C960FF2781BDBE900AB1D9E5C
:103FA00099460BE0FDF7ACF8A9FB0030079BC0F386
:103FB0008F218B424FEA902040F28E8006EB440C1A
:103FC000090A06F814008CF801101C9991F800C039
:103FD00005990134283501EB050EE4B2AEFB08016A
:103FE000A44552465B4607FB0E11DBD81C9E0C9B7A
:103FF0001D60347013B0BDE8F08F119B022B7FF46D
:1040000044AF0221002005F027FA119B022BF8D0C3
:104010003BE7002AC168DDF83C8052DA01F13C023E
:104020000A920C9A126842454FF0140ABFF46CAF22
:10403000954238BF15469C423CD2059B0D9A1C9672
:1040400013449A44CDF820A0DDF874A01BE0FDF7DE
:1040500057F8354B079EA3FB0030C0F38F27B742BC
:104060000AEB440204F101034FEA17214FEA9020C2
:1040700005F1280535D20AF8140051701C9A1278FF
:10408000DCB2A24223D92946404605F0FFF9059B40
:10409000264A089E2B448446B445A3FB02014FF0F8
:1040A000070202FB03114FF0000B19A3D3E9002311
:1040B000CDD21C9E0C9B1D60079BBB4216D933784A
:1040C00022E701F128020A924FF0000A17E70C9B41
:1040D0001C9E1D60337817E71C9E0C9B00251D60FD
:1040E00087E70C9B1C9EC3F800B05D469DF83B30F3
:1040F000FF2B3FF42EAF347013B0BDE8F08F0C9B54
:104100001B689D4238BF1D4671E700BFAFF30080BA
:1041100000CA9A3B00000000411001000CA80100F9
:104120008CA701005CAF01005917B7D18D49FD1A6A
:1041300018AF0100000000002DE9F04F8FB01C46C1
:10414000FF26099304310023DFF81081DFF810B156
:10415000DFF810A1DFF8109123608DF82F6004962E
:1041600005930446089115460C9306930DAF0CAECB
:104170004FF0020CCDE9018700962B460DF12F027E
:1041800021460020CDF834C005F020F902282FD0B8
:104190000D9B002B32D19DF82F30FF2B3ED0052BED
:1041A000E6D1002009F002FD0028E1D090F93D3071
:1041B000002BDDDB0499C3680C9AFF2903F104038B
:1041C0000CD0069907931046049205F05FF9059B01
:1041D000089A99188842049A079B22D8CDE905329B
:1041E0009DF82F300493C3E72146002005F034F9F1
:1041F0000D9B022BF8D00D9B002BCCD052235A469E
:104200005146484614F03FFB404080F311884FF080
:10421000030002DF9DF82F30FF2BC0D1049BFF2B42
:1042200010D0DDE905320C481344A3FB000107223E
:1042300002FB031106A3D3E90023FCF761FF099BEE
:10424000803018600FB0BDE8F08F00BFAFF3008082
:1042500000CA9A3B000000008D49FD1A4110010080
:1042600018AF01005CAF01008CA701000000000046
:1042700070B51C4682B01546064601AA022001957B
:10428000FFF75AFF23680BB30198431B1B021FD48F
:10429000294605F0FBF81A4B0246A0FB0301072351
:1042A00003FB021114A3D3E90023FCF729FF2268C2
:1042B00002442260002A09DB40F2E24101FB06F0E1
:1042C000904203D2121A9042FCD3226002B070BD19
:1042D0000146284605F0DAF8094B0246A0FB030127
:1042E000072303FB021104A3D3E90023FCF708FF13
:1042F0002268121A2260DDE700CA9A3B0000000023
:104300008D49FD1A000000002DE9F041B0F8802130
:1043100088B0054640F2E243454805AE03FB02F390
:10432000002783FB000106243FA3D3E90023776025
:104330000597B7608DF80F40FCF7E2FE0DF10F0214
:104340000196B5F87631009204460121284604AA68
:104350000494FFF761FD9DF80FC00CF1FF34E4B247
:104360000DF11603394603EB44042F4605F10C0EFC
:104370004FF6FF7097F8813197F8802142EA0322C7
:104380000FFA82F8BCF1000F09D03346824203D005
:104390001988914217D0012102339C42F6D102378D
:1043A000BE45E7D1F1B9BDF81430D5F8F01040F2B0
:1043B000E24202FB03F2180AC5F810210B704870A4
:1043C00008B0BDE8F081D5F8F01040F2E24303FBFD
:1043D00002F3120AC5F8103181F800804A7008B063
:1043E000BDE8F08195F8E82095F8703185F8E9206E
:1043F00085F871310CF0E2F9D5F8F03013F8052C9E
:1044000003252A4311240F20202103F8052C03F84B
:10441000045C03F8024C03F8010C197008B0BDE805
:10442000F08100BFAFF300808D49FD1A0700000046
:1044300000CA9A3B000000002DE9F04F83B004460B
:1044400010F0ECFC10F0FF0F0AD10EF05FFBA0485B
:10445000214610F0A1FB03B0BDE8F04F10F0B0BC56
:1044600010F0FCFC5FFA80F810F082FDC6B210F08C
:1044700089FD074610F0AAFFC5B210F095FF8246ED
:1044800010F03EFD81460EF041FB002E40F0AB8067
:10449000002D40F0BA80FF27B8F1000FD7D0A37DE0
:1044A000190700F1A880002E40F0E781012008F0F4
:1044B000E9F88046002800F0F781A3685FFA89F6E2
:1044C000002B00F0D680A37D1A0740F1E28198F816
:1044D0001C0010F00F0340F09E8098F81D30252B33
:1044E00000F2A481042008F0CDF80028AFD010F02D
:1044F0006DFEA36A814643B9E28C40F2712303FB4F
:1045000002F3B0FBF3F203FB120923687148DB6886
:104510000722A3FB000102FB03116BA3D3E90023D5
:10452000FCF7EEFDA0F242334B4590D310F0C2FCF5
:10453000D4F808B010F0A0FC98F81C300278C3F34F
:104540008013DB0102F0500243F0250313432222C3
:1045500003704270824638460DF08AFDE37D00907C
:10456000DA0701460AF1020040F1B581002900F0A6
:10457000B2819AF8003043F040038AF800300622F6
:1045800014F0E0FE062208F11E010AF1080014F002
:10459000D9FE04220BF108010AF10E0014F0D2FE3C
:1045A00003220BF10C010AF1120014F0CBFE0123DF
:1045B0008AF81530BBF81230019310F007FED4F8DA
:1045C000109000F5DB63B9F1000F00F0AA810199AA
:1045D00040F2E24202FB01F2B9F1000F01DB4B4570
:1045E0007AD99144F8E7A07DF9B2C0F3C0000DF08C
:1045F0005DFD074650E7002E7FF458AF38460DF0BA
:1046000011FE00287FF452AF21E75FFA8AF00DF027
:10461000B7FD074640E7012B40F0E08098F81D30D9
:104620000C2B7FF414AF08F12409C00949463A461F
:104630000DF0A6FE00287FF455AFE37DDB0700F107
:10464000F781A37D98F81C00C3F38012B2EBD01F52
:1046500000F02882C3F3C10398070AD598F91C30EB
:10466000002B06DA98F8293003F0C003402B3FF402
:1046700039AF98F81C0010F00F0340F0AF8098F8A5
:104680001D30252B3FF6E3AE94F91620002A03DAFD
:10469000A268002A00F06C81252B98BF4FF000091A
:1046A00000F2C480002B3FF4D2AEA368002B7FF44D
:1046B000CEAE002D14BF3946FF214A4630460FF0DA
:1046C0000DFAC4E6AFF3008000CA9A3B0000000078
:1046D000313801008D49FD1ACD499AF81520A9EB12
:1046E0000303A1FB0313C3F38F230132AAF816308F
:1046F0008AF81520BBF81210BBF81420A38AAAF878
:104700001C30AAF81810AAF81A200BF11C01052277
:104710000AF11E0014F016FE9BF822209AF82330AE
:1047200062F304038AF823300FF0BAFA9AF82330C0
:1047300060F347138AF82330504610F013FB10F053
:1047400063FB002840F0F380B248214610F024FAC1
:10475000002E40F00881237943F00102DB0722712B
:1047600000F1F38007F0ACFF0A23064603714FF611
:10477000FF73242298F81C80C38051461C3014F02B
:10478000E1FD337FB460C8F3401868F34513337715
:1047900010F0C0FC00213061084610F0F3FA002D43
:1047A00008BFFF27B776E27DA9EB000012F00102F7
:1047B000706103D0009B1A1E18BF0122737E62F342
:1047C0000003737607F07CFF3146F060306807F035
:1047D0008FFF03B0BDE8F04F07F09ABF062B71D0F2
:1047E000022B75D0012B21D198F81D300C2B7FF4B2
:1047F0002EAE08F1240AC00951463A460DF0C0FD1C
:104800008146A8BBA37D98F81C00C3F38012B2EBCD
:10481000D01F00F01481C3F3C103980704D598F9A1
:104820001C30002BC0F2158198F81C0000F00F001E
:1048300004287FF40CAE98F81D30252B3FF607AE08
:10484000A37DDA077FF503AE10F016FB98F81C3055
:104850000278C3F38013B3EBD21F7FF4F8AD0830B6
:10486000062208F11E0114F05DFD00287FF4EFAD73
:1048700098F81D304FF0000914E7394628460DF02E
:104880000DFD00287FF412AEA37D1B077FF5DFAD81
:104890000CE6FF2F2ED0237EDB1BB3FA83F35B09DC
:1048A000002B7FF414AEE4E65B4A5C495C4840F2BE
:1048B000972313F0E8FF404080F311884FF0030086
:1048C00002DFFAE598F81D30252B7FF6DDAEADE767
:1048D00098F81D30E0E6A37D9AF80020C3F380131A
:1048E00063F386128AF8002004F11901062214F0FD
:1048F00029FD47E698F81C00C3F34013C0F380126B
:1049000093427FF4B8AE062208F11E0104F11F00A5
:1049100014F008FDB0FA80F35B09002B7FF4D7ADEB
:10492000A7E68AF816908AF817909946E2E63A4A7E
:104930003C493B484FF4447313F0A5FF404080F3DB
:1049400011884FF0030002DFFEE6334A364934484F
:1049500040F2363313F097FF404080F311884FF058
:10496000030002DFFEE610F0BDFA8BF8A500F2E6C8
:10497000962010F01DFB002010F082FA002D14BFCD
:104980003946FF21304600220FF0A8F800287FF4B6
:104990005EAD10F071FA98F81C300278C3F3801302
:1049A000DB01054602F0700243F0030313430C22BF
:1049B0002B7038466A700DF05BFBE37DDE07014625
:1049C00053D5002851D02B78284643F0400300F8F7
:1049D000023B062214F0B6FC08F11E01062205F186
:1049E000080014F0AFFC284610F0BCF910F00CFAE7
:1049F000002849D110F0E2FBA37D0C4843F00103ED
:104A00002146A37503B0BDE8F04F10F0C5B800BF54
:104A10005917B7D17D3A0100E4B2010030B301006B
:104A20008CA70100B4B2010000AA01004D380100BA
:104A300038460DF01DFB00287FF41BAE01E6514601
:104A4000062204F1190014F06DFC002835D0A37D76
:104A5000E1E698F8293003F0C003402B7FF4E4AE80
:104A600098F81D304FF001091CE6A37D2A78C3F3A6
:104A70008013284663F3861200F8022B04F1190113
:104A8000062214F05FFCA7E70D4A0E490E4840F2DB
:104A9000913313F0F8FE404080F311884FF003008B
:104AA00002DFA7E74946062204F1190014F03AFC98
:104AB00000283FF417ADA37DCCE598F81D30F1E553
:104AC000E4B20100B4B201008CA7010008B50020D7
:104AD00000F0BAFD20B10348BDE8084013F0D3BE92
:104AE0000148F9E7D0B60100E5B601002DE9F04F25
:104AF00087B00F461946109B9DF844B09DF848A01A
:104B00001F4C06461425104698464FEAE37950EAB2
:104B1000010319D1142D139C14BF013530232C44EB
:104B200008BF8DF81430152C1BD0153C002C1ADC56
:104B30001DF8050039460135B047152DF8D1002C78
:104B400019DC07B0BDE8F08F42464B46FCF7D8FAB7
:104B5000A25C0DF8052084460B4660461946013DCF
:104B6000D5E70024E4E7BBF1000FE1D03946504619
:104B7000B047013CDAE739465046B047013CDEE732
:104B800000B701000B6801330B60014B1B6818472D
:104B9000100000202DE9F04F002687B005468B4617
:104BA0001C4602F1FF3A4FF0FF3837464FF000093C
:104BB00007E0B9F1000F0BD1252800F00A81594612
:104BC000A8471AF8010F0028F3D107B0BDE8F08F0D
:104BD0007A280AD8622810D8302851D044D82528FD
:104BE00000F0F5802D2800F0FB8059462520A847CD
:104BF0009AF800005946A847D8E7A0F16303172B9D
:104C0000F3D801A252F823F0C74D0000C94C0000B0
:104C1000EB4B0000EB4B0000EB4B0000AB4C0000FB
:104C2000C94C0000EB4B0000EB4B0000AB4C00000C
:104C3000EB4B0000EB4B0000EB4B0000434D000042
:104C4000EB4B0000EB4B00008F4D0000EB4B0000E6
:104C5000C94C0000EB4B0000EB4B0000714C000016
:104C6000EB4B0000AB4C0000392815D95828BCD1BB
:104C70009AF80030702B6ED154F8042B002375E0A5
:104C8000B8F1000F0BDA002F00F0AC80A0F1300873
:104C9000002F08BF022794E7B8F1000FF6DB0A23C4
:104CA00003FB0808A8F13008F2E7682803D1682E52
:104CB00006D1482685E76C2802D16C2E00F094803E
:104CC000002E92D106467CE77A2E06D1A14659F8ED
:104CD000042BD317752823D10FE06C2EF6D04C2E61
:104CE00005D1073424F00709F9E80223F2E7752813
:104CF000226804F1040912D10023F81E18BF012014
:104D0000012F0CBF3024202401900A20CDE9024855
:104D1000009059462846FFF7E9FE4C4646E7D31770
:104D2000002A73F10001E8DA59462D20CDE9042369
:104D3000A847DDE90423524263EB430308F1FF383F
:104D4000DBE759463020A84759467820A8474FF05E
:104D5000080801278CE76C2E8ED04C2E8CD1E31DD9
:104D600023F007031C465B6854F8082BF81E18BF95
:104D70000120012F0CBF30212021CDE90218102184
:104D80000190009128465946FFF7B0FE0EE754F80F
:104D9000043B99464A4619F8010B78B9032F25D1EF
:104DA000A2EB0309A8EB0909B9F1000F7FF7FEAEEA
:104DB00059462020A84709F1FF39F5E759460493E1
:104DC000A847049BE6E754F8040B594613E75946F5
:104DD00011E74E464F464FF0FF384FF00109F0E61D
:104DE0000327EEE60127ECE64C26EAE68146E8E6F4
:104DF00007B50B46002102460191034801A9FFF7C0
:104E0000C9FE03B05DF804FB854B00002DE9F84FA7
:104E1000B0F8189019F00808044693460DD00129FF
:104E20000CBF49F0100949F02009A0F818908BF345
:104E30001188BFF36F8FBDE8F88F09F007090229C9
:104E400007D1204613F02CFD0028F0D00128238B39
:104E500050D16769218B002F15DA256821F00701F1
:104E6000C4E9008841F0010121830026218B01F073
:104E7000070ACA4502D0A368002B5CD10DB9002EE9
:104E800074D0002358E001F007035A1F012A20D8EC
:104E900021F00701062B256889B2C4E900880CD1EE
:104EA000002D2B4638BF00232BB1628B1B680132CB
:104EB0006283002BF8D141F002012183204613F0D8
:104EC000EFFC06460028D1D0238B43F02003238338
:104ED000CBE7042B0CD121F0070189B221832046B6
:104EE00013F0DEFC05460028BFD041F020012183ED
:104EF0000025BAE7032809D1226923F007031668C1
:104F000043F00603238300252F46AFE7042806D18C
:104F1000226923F00703566843F00403F2E70528EB
:104F200006D1226923F00703966843F00503E9E7F9
:104F300000252E46E8E7012341F0080121838BF389
:104F40001188BFF36F8F03BB002D33D116B12149F8
:104F50002046B0474FF02003EFF3118B83F3118805
:104F6000BFF36F8F238B23F008032383238BDA0691
:104F700028D523F0100323830121B4F8189009F0F9
:104F8000070900297FF45BAF51E7A1680029DBD056
:104F90000B68D1F804B0002B38BF00239946524665
:104FA0003B462046D847B9F1000FCDD0D9F80030A4
:104FB0004946EEE729463B46524620462D6813F007
:104FC0008BFCC1E713F020011EBF23F020032383D5
:104FD0000221D2E705890100F0B5104B104C114DAC
:104FE000E41AA4106C43104DD5F824C00025A54246
:104FF00002D16FF02200F0BD5F6867450AD31E69D9
:1050000046B197F802E00779BE4503D13346BDE8C3
:10501000F040184701352433E9E700BF7806002047
:105020009C060020398EE338180B00202DE9F04152
:10503000124B134C134DE41AA4106C43124DD5F8C7
:1050400024C00025A54203D16FF02200BDE8F08105
:105050005E6866450ED39F6967B196F8028090F846
:1050600004E0F04503D13B46BDE8F04118477679AE
:10507000012EF8D001352433E4E700BF7806002084
:105080009C060020398EE338180B00202DE9F843E8
:105090000F4C104B17461B1B0F4A9B1005460E4624
:1050A00002FB03F94FF00008C14502D16FF0220066
:1050B0000BE063691BB908F101082434F4E73A46B0
:1050C0003146284698470028F5D1BDE8F88300BF4F
:1050D000780600209C060020398EE33807B58378D7
:1050E0008DF800300379427943EA0223ADF80230AB
:1050F000C378684603F003038DF8043001F060FCC8
:1051000010F1450F04D018B1002003B05DF804FB86
:105110009DF8000001F0D4FC10F1450F01D00028EB
:10512000F2D1024B012083F8B900EEE7180B002002
:105130002DE9F14F254B264C264F1B1B9B105F433F
:10514000031F012B05460E4625D8234B93F8B920A3
:10515000984602B300F002FD042D1CD14FF0000967
:105160004F4515D0D4F820B04FF0000A227F5FFAE7
:105170008AF39A4203D809F101092434F0E70BEBD2
:10518000C3030AF1010A187901F0BEFC0028EDDA28
:10519000002388F8B9300E4C4FF00008B84508D10C
:1051A0000D4B1B6A7BB13146284601B0BDE8F04F7C
:1051B0001847E3681BB1324629462046984708F154
:1051C00001082434EAE701B0BDE8F08F9C06002016
:1051D00078060020398EE338180B00202DE9F04FB7
:1051E000B04DAB6985B006460C46904663B933783E
:1051F00003F01F03012B00F08880022B00F0D18008
:1052000043B16FF0150002E098470028EFD105B0D8
:10521000BDE8F08F72787088D8F80030092AF0D88D
:1052200001A151F822F000BF5152000003520000CA
:105230000352000003520000035200005D520000C0
:105240006752000003520000955200009F52000078
:105250000020012258701A7002236FE0C0B201F0E2
:105260009FFB0020D3E7020A131F012BC9D9072A8D
:10527000C7D86B6A0021C0B21D78002DC1D05E78FE
:10528000964203D1884200F0F58001312B44F3E7C8
:105290001B78F5E095F8BA201A700123F0E0C7B248
:1052A0008DF80F7077B14FF0FF086C6A0026C14689
:1052B000237853B9EB691BB10DF10F010320984717
:1052C000002E9ED085F8BA70CBE76378042B0DD002
:1052D000052B0ED0022B06D194F805809DF80F30D7
:1052E000434508BF012623781C44E1E794F8039066
:1052F000F9E79DF80F304345F5D1B9F1000FF2D130
:105300002046FFF7EBFE0646EDE795F8BA30002B96
:105310003FF477AF6F6A96F804903B4619780029FE
:105320003FF46FAF5A78022A03D11879484500F24A
:10533000A9800B44F2E7002018700123236066E780
:1053400096F802B0FF26B2464FF000083B783BB912
:10535000EB6913B14146072098470020206056E7CB
:105360007B78042B04D0052B0BD03B781F44EDE752
:10537000BE7897F803A0B145F7D1D34508BFB8462A
:10538000F3E7B145F1D1D34507D0B878019000F0EB
:10539000BDFB019801F0B8FBE7E73846FFF79EFE3A
:1053A000E3E73079D8F800808DF80F0030F0800CFA
:1053B0001CD03D4B3D4A3E49D21A92104A434FF011
:1053C000000E72457FF61DAF196A93F81C900027F6
:1053D00004395FFA87FACA4503D30EF1010E24336C
:1053E000EFE7013711F837A08245F2D17378012B2E
:1053F00013D0032B28D0002B7FF403AFBCF1000F98
:1054000004D095F8BA30002B3FF4FBAE414601F0D2
:105410003DFB002088F801001EE77388002B7FF415
:10542000F0AEBCF1000F04D095F8BA30002B3FF479
:10543000E8AE01F00DFBEB69002B3FF412AF0DF16C
:105440000F01092098470CE77388002B7FF4D9AE31
:10545000BCF1000F04D095F8BA30002B3FF4D1AE68
:1054600001F0D0FAEB69002B3FF4FBAE0DF10F0118
:105470000820E7E7022AC8F800307FF409AF5B880C
:105480002360EEE67078D8F800300A283FF453AF76
:105490000B283FF455AF00287FF4B3AE1870587056
:1054A0002260B4E6180B0020780600209C0600203D
:1054B000398EE33808B509480378C3F341130A333A
:1054C00050F823303BB100F1080200F11001984779
:1054D000C043C00F08BD1846FCE700BF180B0020F2
:1054E00013B50D4C237D7BB9E268A168019201AB35
:1054F000802013F032FD0199A268E3680A445B1A28
:10550000A260E36002B010BD00231A461946802055
:10551000237501F017FBF5E7180B002030B585B0B7
:105520000B46002102460191002856D1002B33D1B1
:1055300008220DEB020113F089FE002804DA802016
:1055400001F060FA05B030BD294CBDF80E3002996B
:105550002160802B03999DF80820616006D9D1094C
:1055600004D1802001F04EFA0020E9E721492361AF
:10557000C4E90213002121750BB1D309E2D0FFF772
:1055800099FF0028DBD0E28823699A42D4BFE26009
:10559000E360FFF7A5FFD5E7154CD4E90215002D10
:1055A00001AB04DC13F052FE0028CBDAC7E72A4631
:1055B00013F04CFE0028D4DB0199A268E3680A448A
:1055C0005B1AA260E360002BBCD104F13803A36036
:1055D000FFF770FF0028DCD1B1E78028B2D1044B7F
:1055E000DA68002AD5D11B7D002BD2D1AAE700BFF3
:1055F000180B0020500B0020054B064A9A62064A01
:10560000DA62064A1A63064A58629A6100207047B5
:10561000180B0020DD510000D94F00008D50000014
:105620002D500000074B10B593F8B84024B900F096
:10563000AFF918B1FFF7E0FF002010BD4FF0FF30C9
:10564000FBE700BF180B00202DE9F7430446374D58
:1056500037484FF0FF324FF0FF3312F013F995F84F
:10566000B860002E42D133482C62E86101F074FB2F
:1056700001F046F9041E3ADB00F0B4FA041E36DBF2
:1056800040236846ADF802308DF804608DF8006064
:1056900001F096F9041E2ADB802768468DF8007019
:1056A00001F08EF9041E22DB2349304601F042FB53
:1056B000041E1CDB2049384601F03CFB041E16DBAF
:1056C0001E4C1F4B1F4A1B1B9B1002FB03F9B145CD
:1056D00014D1002001F0F4F9041E08DB802001F051
:1056E000EFF9041E03DB012385F8B83000241048CD
:1056F00012F040F9204603B0BDE8F083D4F82080D2
:105700000027237FFAB2934202D801362434DEE721
:1057100008EBC20358F83210187901F00BFB01377F
:105720000028EED04FF0FF34E1E700BF180B002057
:10573000F4040020315100001D55000078060020BF
:105740009C060020398EE33830B51C4B89B003AA83
:1057500003F1100518685968144603C40833AB42B6
:105760002246F7D11B7823700822002101A813F0EC
:1057700014FE12220021124813F00FFE082101A886
:1057800013F073FD002816DD0D4901AA002012F860
:10579000013B08AC04EB131403F00F0314F8144C92
:1057A0000C7008AC2344013013F8143C4B700828EB
:1057B00001F10201EBD1024809B030BD11B701007F
:1057C000683B00202DE9F04F6C4A6D4B6D499B1AE8
:1057D00087B09B1000264B43044601934FF0011AFB
:1057E000B0463746B146934623783BB9664AA01C7B
:1057F000904200F0C080FFF7E5FF17E06378052BCB
:1058000005D8DFE803F07F04037F072BA146237848
:105810001C44E9E7E378002BF9D1A3789BB9574AF8
:105820001F46019BBB4204D14FF0FF3007B0BDE8DB
:10583000F08F53689C4202F1240209D1242303FB18
:1058400007B7BB6833B908F101085FFA88F8DEE7EB
:105850000137E6E7414620469847F4E7002FE3D0BA
:10586000002301213A7F9342DEDA3A6AA57802EBFF
:10587000C3021079854201D00133F3E7012594F882
:1058800003C094F805E00CF0030C8DF814C094F8F4
:1058900004C04CEA0E2CADF812C094F902C0BCF161
:1058A000000FE8B225DA05F1100C01FA0CFC1CEA35
:1058B0000A0F23D160F07F008DF8100004A8CDE915
:1058C000023213F0ABFCDDE902320121B0B99DF8E0
:1058D0001030A37013F0800F137118BF10350B46F2
:1058E00015BFAB4003FA05F54AEA030A4AEA050A7E
:1058F0008DE701FA05FC1CEA0A0FDDD00135102DF9
:10590000BDD1B9E7032E1ED1FFF71EFF054668B1D2
:1059100013F0F5FC029048B11C4813F0F0FC029A19
:10592000824203D12946A01C13F00CFD23786FF0AE
:105930000201E218091B04EB53030020D14213D5E6
:105940000136F6B263E7002EF0D1B9F1000F3FF453
:105950006BAFA4EB090389F80230C3F3072389F87E
:10596000033089F80480EBE702F8010C13F80159C1
:1059700002F8025DE2E7184658E700BF780600200B
:105980009C060020398EE3387706002011B701000D
:1059900008B50448FFF716FF0028024818BF00208A
:1059A00008BD00BFF8050020014600F10803BFF361
:1059B0005B8F53E8002F42F0010043E8000CBCF17C
:1059C000000FF6D1BFF35B8FD30702D4014814F068
:1059D0000FBA7047780A002073B5184C06460D467A
:1059E0000023442202FB03F0015DB14212D10444C2
:1059F0006B1E012B0CD894B9012D09D101AB0122EA
:105A00000DF10301304601F00DF9019B002BF5D19A
:105A100002B070BD0133042BE4D10024E8E714F098
:105A200018FB034604F134000BB1012D02D113F031
:105A3000B1FAEDE7FFF7B8FFEAE700BFD40B0020AB
:105A40002DE9F74F0546904699464FF02003EFF3B6
:105A5000118B83F31188BFF36F8FDFF8ACA00024A4
:105A60004427019107FB04F600220023504612F060
:105A700083FB019958B9234FBC19636813F1100FC8
:105A800014D10193504612F051FB019B06E0013402
:105A9000042C0AF1440AE4D16FF00B038BF3118854
:105AA000BFF36F8F184603B0BDE8F08F0C9B6361A6
:105AB0000D9BA3616FF00F032061C4E90218BD556F
:105AC000C4F840906360284601F04CF958B128466C
:105AD00001F048F9B8FBF0F202FB108018B1236C1A
:105AE00043F00403236419F0020F06D006F13400DA
:105AF0003844FFF759FF0023D0E7284601F0D8F8D3
:105B00000346CBE7D40B0020F00B002070B54FF01C
:105B10002003EFF3118483F31188BFF36F8F0E49D5
:105B20000022442505FB02F35E5C86420BD1CA18B5
:105B3000506810300AD16FF0470034335060C818F5
:105B4000FFF732FF02E00132042AEBD184F311881F
:105B5000BFF36F8F70BD00BFD40B0020F8B50F4CA2
:105B600000256FF047074FF02003EFF3118683F312
:105B70001188BFF36F8F6368103304D104F13400D0
:105B80006760FFF711FF86F31188BFF36F8F013550
:105B9000042D04F14404E6D1F8BD00BFD40B00206D
:105BA000F0B504468BB00D4616461F460122002173
:105BB00004A814F03EFA03AB0193094B009332465C
:105BC0003B4629462046FFF73BFF38B94FF0FF32EE
:105BD0004FF0FF3304A812F0CFFA03980BB0F0BDDA
:105BE0008B8F0100F8B50025094C0A4F2E46C4E9F9
:105BF0000D67E663012204F11C001146013514F023
:105C000018FA042D04F14404F1D10020F8BD00BFBE
:105C1000D40B0020958F0100014B9970704700BF95
:105C20001306002007B50B68019313680093002248
:105C30000023002001F07EFD014630B1044813F03E
:105C400081FC002003B05DF804FB6FF00B00F9E766
:105C50003805002013B50C1E13DD01F02DFE0F4B8F
:105C60000093012801944FF0FF324FF0FF330CBF37
:105C70000620022001F05EFD014668B1084813F0DD
:105C800061FC002301930748074B00930349007B05
:105C900001232022FFF7D4FE02B010BD7A3B002082
:105CA0003805002014000020555C000070B5124E2D
:105CB000124D4FF0FF324FF0FF33304613F024FC0B
:105CC000044601F0F9FD012806D103232375A289BA
:105CD000A168287D02230CE0237D012B05D0032B36
:105CE000F5D020460FF020FEE3E7A289A1682879CD
:105CF0000623FFF755FFF4E75005002014000020AD
:105D000038B5084D4FF0FF324FF0FF33284613F0FF
:105D1000FBFB044601F06AFD0028F3D020460FF09B
:105D200003FEEFE73805002038B504214FF6104098
:105D300013F0C0FB00F1080504460221284613F0C9
:105D40000EFC0223002143700170284613F016FC5C
:105D50000121284613F012FC0248214613F0F2FB01
:105D6000FF2038BD50050020032910B502D00429BA
:105D700008D010BD094B0022BDE81040187B114629
:105D8000FFF768BF054C2079FFF7C0FE207DFFF7C5
:105D9000BDFE207BBDE81040FFF7B8BE1400002018
:105DA000F0B51A4889B001F097FD044658BB184871
:105DB000022101F087FD002600276FF00705CDE9DD
:105DC0000667CDE90245CDE90044124B124904941F
:105DD0004FF48062114812F043FA11490F4814F051
:105DE00040F9104B10490094CDE90667CDE9035402
:105DF000CDE901444FF400720C4812F031FA0C491D
:105E00000A4814F02EF9204609B0F0BD50050020D4
:105E10002C000020015D0000E03B0020A0060020D7
:105E200022B70100AD5C00000040002020070020E8
:105E30002CB701000E4A70B5841AA3100D4C5C43B8
:105E40000546E4B20C2000FB04200E464021084425
:105E500013F03CF9011E05DB074B03EBC404636838
:105E60009847002128463346BDE87040184700BFD8
:105E7000F40C0020B76DDBB6DCA601002DE9F04183
:105E8000104E841BA310104C5C43E4B20C256543F8
:105E9000804605F140000F463044402113F02FF9B1
:105EA000011E09DB094A7319C3E90E27084B53F891
:105EB0003430BDE8F041184740463B46BDE8F0416C
:105EC000184700BFF40C0020B76DDBB661910100EC
:105ED000DCA60100002270B501210446104601F045
:105EE000A9F8002001F074F80F4810F083FA0F4B66
:105EF000984215D110F08EFAE6680D49304612F03E
:105F00001EFD00280BDB01253564E468084904F117
:105F10001C0012F014FD002801DBE564002070BDB8
:105F20006FF00400FBE700BF695F00000000AD0BED
:105F3000ECA6010001460C2309484B4370B5C41878
:105F4000D4E90E5600224033A263184413F0F5F84A
:105F50002DB132462B460348BDE87040184770BD4E
:105F6000F40C00206804002010B1012804D0704710
:105F7000034B1B6C5B0701D1FFF7DCBF704700BF11
:105F8000F40C002008B54FF02003EFF3118183F3E8
:105F90001188BFF36F8F124A136843F0020013F0A9
:105FA000010310600CD04FF08042D2F80C34D2F8CC
:105FB0000C2413F0010303D00A4813F0BEF80123A8
:105FC00081F31188BFF36F8F23B1BDE80840002033
:105FD000FFF7B0BFBDE80840012010F029BA00BFAC
:105FE000440D0020340D0020094BBFF35B8F53E8B4
:105FF000002F22F0020143E800100028F7D1BFF380
:106000005B8FD30702D4012010F044BA704700BF61
:10601000440D002010B58AB000230122CDE90632DC
:10602000019308AA0A4BCDE9082204AC01AACDE9E4
:106030000444CDE9023413F0B9F8002805DB4FF42D
:1060400080420023204612F097F80AB010BD00BF2E
:1060500073910100024AC3B21C2003FB0020704769
:10606000F40C0020094BBFF35B8F53E8002F42F084
:10607000010143E800100028F7D1BFF35B8F9307BD
:1060800002D4012010F0D4B9704700BF440D0020A5
:10609000094BBFF35B8F53E8002F22F0010143E867
:1060A00000100028F7D1BFF35B8F930702D40120C3
:1060B00010F0F0B9704700BF440D00202DE9F843FF
:1060C0003A49BFF35B8F0646012251E8003F41E8A1
:1060D00000200028F9D1BFF35B8F33B9344935482C
:1060E0004B60CB608A6012F03DFC731E012B32D8EE
:1060F000012E07D14FF08043D3F81C3403F0030383
:10610000012B28D013F0A5FF044618B92A4B1B78A1
:10611000002B44D14FF02003EFF3118583F3118856
:10612000BFF36F8F0124254FDFF89480DFF8949040
:106130004FF08042D2F81834D2F81824D2030CD58C
:1061400003F00303012B01D0012E06D10CB385F31C
:106150001188BFF36F8FBDE8F883ACB1284600F01B
:10616000F3FF4FF08042D2F81835002BE0D13968A8
:106170000029DDD03B603B680123C2F81835C8F820
:106180008031C9F80030D3E70021212011F0A8FFA9
:10619000E7E74FF080430222C3F80423DBE74FF028
:1061A00080430222C3F808230546BCE7480D0020BF
:1061B000E40C0020100D0020CE3B00200401004024
:1061C00000E100E00800004000F07F03082B42B22D
:1061D00004D010F0780F01D000207047002A00F0A2
:1061E0000F0300F0080006DA68B90948242202FB10
:1061F00003004030704740B903F10900044B2422EA
:1062000002FB0030F5E7034870470348704700BFC2
:10621000441F0020A4200020E8210020014601485E
:1062200013F0E6BD6805002008B5044810F0ACF98D
:10623000034810F0EDF9002008BD00BF3FB7010092
:10624000F8A6010010B51149BFF35B8F01F11803E7
:10625000002253E8000F012803D143E80024002C5A
:10626000F7D1BFF35B8F0CBF012010460CD14C69F6
:106270000431204612F0E4FB10F1450F04D1204612
:10628000BDE8104012F0B7BB10BD00BF441F002096
:106290000949BFF35B8F51E8003F43F0010241E839
:1062A00000200028F7D1BFF35B8FDB0703D403483E
:1062B000083913F09DBD70476C1F0020A007002017
:1062C00010B5064C00220023204611F099FB18B1AE
:1062D000043014F0CAF8F5E710BD00BF68050020CF
:1062E000DFB50026002702ACCDE90067144818226C
:1062F000214613F0E1FC00281BDAFFF7E1FFCDE9AE
:1063000000670F481822214613F0D6FC00280CDB4A
:10631000029B94E803001A1D82E8030004221A7508
:106320001846FFF77BFFFFF7B3FF0023184604B0C2
:10633000D0BD94E80300029B1A1D82E80300F5E734
:1063400048000020817870B506460846FFF73CFFFC
:106350000B06F578044613D5002D45D1FFF7C0FF95
:106360000346002840D0012284F8225002750322FF
:106370000274DC60FFF752FFBDE87040FFF788BF92
:1063800055B1012D30D1FFF7ABFF034660B384F860
:10639000215005750574ECE7FFF7A2FF20B3B37831
:1063A000124A13F0800F03F0080111D041B1D2F866
:1063B000A836E3600123037502230374C460D9E7A0
:1063C00003F00F03142101FB0323D3F80836F0E791
:1063D00011B1D2F8A837ECE703F00F03142101FB49
:1063E0000323D3F80837E4E770BD00BF0070024014
:1063F000F0B5064689B01822002102A812F0CDFFA0
:106400003378013B052B21D8DFE803F0780314141F
:10641000681603238DF814300024FFF761FF03464C
:10642000A0B1047500F10C02DDE9050182E803006A
:1064300018461EE00423EDE7B1780846FFF7C4FED6
:10644000837A044623B1013B022B43D909B0F0BD46
:106450000B06F57812D5002DF8D1FFF741FF034662
:106460000028F3D0012284F822500275032202741E
:10647000DC60FFF7D3FEFFF70BFFE7E75DB1012D0F
:10648000E4D1FFF72DFF03460028DFD084F8215028
:1064900005750574ECE7FFF723FF07460028D5D004
:1064A0000123037502230374C46004F10C01B07866
:1064B00013F043FB124AE168B2F8C8328B4206D9A6
:1064C0005B1AA2F8C83210F00DFE3846D1E7A2F8E8
:1064D000C852FAE73046FFF735FFB7E7684610F0D5
:1064E000DBFD9DF80130052B04D19DF8003013F041
:1064F000600FABD0034B059301248EE702248CE799
:10650000441F0020C8200020022810B510D8094BD5
:106510001C5CFFF7E5FE58B1002202750473FFF71B
:106520007DFE054B1B7F1BB1BDE81040FFF7B0BEE1
:1065300010BD00BF3CB70100441F00202DE9F3410E
:10654000DFF8CC8000250026002765F07F00C0B270
:10655000FFF73AFE0369044673B900F11001CDE973
:1065600000674022404613F0A7FB002804DA6FF0D2
:106570000B0002B0BDE8F0812046013512F036FE76
:10658000082DE2D1DFF88880002500260027E8B238
:10659000FFF71AFE036904464BB900F11001CDE97B
:1065A00000674022404613F087FB0028DFDB2046CF
:1065B000013512F01BFE082DE9D11449D1F87031D4
:1065C0000C4663B900220023CDE9002310484FF4A4
:1065D000806201F5B87113F06FFB0028C7DB0D482E
:1065E00012F004FED4F8B4325BB900220023CDE9E6
:1065F0000023094906484FF4806213F05DFB002830
:10660000B5DB064812F0F2FD0020B2E7441F00207F
:1066100044000020A4200020F8210020E8210020D0
:106620002DE9F043DFF8D482AE4C85B00746002256
:106630000023404611F0E4F910B905B0BDE8F0833D
:10664000637F027D00F1040933B9002A00F08580E0
:10665000484613F00AFFEAE7042AF9D8DFE812F007
:106660007D000500010117013201037CC568032B81
:10667000EED8DFE803F00238595EAE690822002147
:10668000304612F08AFE984BD3F880243270D3F84B
:1066900084247270D3F88824D3F88C1442EA01223F
:1066A0007280D3F89024D3F8941442EA0122B28085
:1066B000D3F89824D3F89C3442EA0323F3800823C8
:1066C000EB60687A2B68002198473378DB0906D1A4
:1066D000F38823B1A4F8C83210F004FDB8E7002312
:1066E000A4F8C832B4E795F82130002BB0D095F863
:1066F0002030002BACD0002685F821604FF0FF320F
:1067000085F820604FF0FF33784812F085FDAB69C3
:1067100001936B68CDE9023601A9687A10F0DEFAC0
:10672000724812F061FD93E72B680121687A98475F
:106730008EE7AB7A73B995F823305BB94FF0FF322F
:106740004FF0FF33694812F067FD10F0F7FC67481F
:1067500012F04AFD2B680221E8E7027B042A3FF68B
:1067600077AFDFE802F05A032567730010F06AFA8A
:10677000054600287FF46CAF10F0AEF9BFF35B8FD5
:106780005B49012351E8002F002A03D141E8003082
:106790000028F7D1BFF35B8F7FF45AAF41F8105C4C
:1067A00041F8085C6069E360143912F0DBF84FE7E8
:1067B000002565F07F00C0B2FFF706FD037A13B134
:1067C000407A10F0ADFE0135082DF2D194F8683111
:1067D0001BB194F8690110F0A3FE0025E8B2FFF7A1
:1067E000F3FC037A13B1407A10F09AFE0135082DBC
:1067F000F4D194F8AC321BB194F8AD0210F090FED5
:10680000012010F001FA012363772368002B3FF485
:106810001FAF0021022098471AE70025657710F086
:106820000BFEFFF70FFD2368002B3FF411AF294645
:106830000420F0E7002B3FF40BAF10F015FE2368A7
:10684000002B3FF405AF00210520E4E72268002A71
:106850003FF4FEAE002B3FF4FBAE00210620904734
:10686000F6E607F10C054FF0FF334FF0FF322846F4
:1068700012F0D2FCFFF762FE284612F0B5FC57F882
:10688000203C002B3FF4E4AE00210120C3E794F844
:10689000AC327BB1012584F8C55284F8C452FFF7AD
:1068A0001FFD38B1134A05750574C260FFF7B6FCC9
:1068B000FFF7EEFC57F8203C002B3FF4C9AE002157
:1068C0000A20A8E713F0AFF810F0B6FD10F0FAF8C0
:1068D000FFF7F6FCFFF732FE13F09EF8064810F0C3
:1068E000BBF9B5E6441F002000700240701F002075
:1068F0005C1F0020E8210020F163000068050020F3
:1069000038B5204C257F002D36D11F491F484FF048
:10691000FF334FF4806211F02DFD1D4B2562C4E959
:10692000093504F12C0013F0E4F92846FFF792FB37
:106930002A4660610121272000F07CFB154810F0F9
:106940008BF9154B984219D113F066F8FFF7F6FD55
:10695000054608B901232377104B1B680BB1FFF7DD
:1069600097FC4FF08043D3F83834DB0702D5002082
:10697000FFF7CAFD284638BD0025FBE76FF0040588
:10698000F8E700BF441F002020420020A00700209D
:1069900021660000F16300000000AD0B68050020D7
:1069A000064B1A7F32B15B7F002B0CBF6FF01200D9
:1069B000002070476FF01200704700BF441F002096
:1069C0000F4B1B7F10B50146B3B104782046FFF78B
:1069D000FBFB10B96FF0150010BD44720B79837288
:1069E00049884160230702D44B1E0B42F2D1204656
:1069F00013F09EF80020EFE76FF01200ECE700BF05
:106A0000441F0020114B1A7F10B50146C2B15B7FB5
:106A1000B3B1FFF7D9FB0446A8B1837A012B12D09A
:106A200007D9023B012B07D9A369E3610020E0608D
:106A300010BD10F08BFBF7E7084610F0FFFAF3E704
:106A40006FF01200F4E76FF01500F1E7441F00202B
:106A500038B50D4B1A7F05467AB15B7F6BB1FFF7F6
:106A6000B3FB68B115F008040AD1284610F008FB02
:106A7000284610F0A7FD204638BD6FF01200FBE756
:106A80006FF01500F8E700BF441F002038B50B4B2E
:106A90001A7F05460C465AB15B7F4BB1FFF794FB5A
:106AA00048B141B1284610F0D1FA2070002038BD1D
:106AB0006FF01200FBE76FF01500F8E7441F0020AD
:106AC000F8B5104E327F04469AB1FFF77DFB0546BC
:106AD00090B1230702D4204610F0D2FA2F7A77B96A
:106AE000707F01232B7218B1204610F019FD384633
:106AF000F8BD6FF01200FBE76FF01500F8E76FF0DC
:106B00004400F5E7441F00200D4B1A7F10B50146E5
:106B10006AB15B7F5BB1FFF757FB044650B1037A64
:106B20005BB1084610F0D0FC0020207210BD6FF061
:106B30001200FBE76FF01500F8E76FF04400F5E78F
:106B4000441F00202DE9FF47DFF8D4801F4698F846
:106B50001C30064689461446002B56D098F81D3046
:106B6000002B52D0030653D5FFF72EFB0546002815
:106B70004ED090F808A0BAF1000F49D04FF0FF3284
:106B80004FF0FF3308F12C0012F046FB95F822205D
:106B900002F0FF034AB108F12C0012F025FB6FF060
:106BA0000A04204604B0BDE8F0876A68A8699442E8
:106BB00084BF1446534685F823302246494612F0D6
:106BC000C1FBEC6007B13C60AC7A4CB910F0C6FA7E
:106BD000864205D010F0B2FA0F4812F005FBE0E74C
:106BE000012385F82230AB6901930024EB680293FE
:106BF00001A93046039410F071F8084B98421CBF6D
:106C000085F822406FF00404E6E76FF01204C8E74D
:106C10006FF01504C5E700BF701F00200000AD0B2A
:106C2000441F00202DE9F0411D461F4B17461A7FD7
:106C30000E46002A32D05B7F83B3030631D401B9FC
:106C40007FBBFFF7C1FA044658B3037A4BB34FF04A
:106C5000FF3316484FF0FF3212F0DEFAE368BB4212
:106C6000984628BFB84646B93FB905B12B600F48D2
:106C700012F0BAFA0020BDE8F081E16942463046E0
:106C800012F060FBE3694344E361E368A3EB0803AC
:106C9000E360002DEBD0C5F80080E8E76FF012004C
:106CA000E9E76FF01500E6E7441F0020701F0020A1
:106CB00070B51E4D2A7F03468AB36A7F7AB31B06DE
:106CC00030D4FFF781FA044660B3037A53B34FF030
:106CD000FF334FF0FF3205F12C0012F09DFAE3680C
:106CE000C3B90126A36984F82060E36194F82130D8
:106CF00083B1FFF7F5FA30B905F12C0012F074FA00
:106D00006FF00B0070BD0675C4600674FFF786FA5D
:106D1000FFF7BEFA064812F067FA0020F2E76FF0BC
:106D20001200EFE76FF01500ECE700BF441F0020F2
:106D3000701F002008B5074B1B7F2BB1FFF744FAEB
:106D400028B10160002008BD6FF01200FBE76FF072
:106D50001500F8E7441F0020014B1860704700BF82
:106D6000441F002008B5074B1B7F23B1FFF72CFA07
:106D700020B1406808BD6FF01200FBE76FF015000E
:106D8000F8E700BF441F0020821C084B22F07F421E
:106D9000C3F84025D3F80425904200D17047D3F8BA
:106DA0000405821C22F07F42F2E700BF0010014080
:106DB000074B00221A601B68064A074BD3F84005B0
:106DC0001368C01A20F07F400344136011F00CBC1C
:106DD00040110140102200200010014038B5104D34
:106DE000104B0024C5F808451C601B680E4B4FF47F
:106DF0000032C3F880214FF48033C5F804332246B3
:106E00000121112000F016F9112000F0E1F8074AE5
:106E10000123136002202B60FFF750F9204638BD94
:106E2000001001404011014000E100E00810014065
:106E3000F8B52B4B2B4C1968D4F804252A4D521A5F
:106E4000B0F1FF3F08BF284622F07F43120236D43C
:106E5000013820EAE070A842A8BF28460133184450
:106E6000A84294BF0D184D194FF48031C4F808138F
:106E7000D4F80425D4F840351C4E00279B1A3760FF
:106E800023F07F433068012B22F07F40C4F8400597
:106E9000C4F8441304D10F2013F0E1F837603368CD
:106EA000134B4FF40032C3F88021D4F804052B1A99
:106EB00023F07F43012B04D1FFF766FF0BE0002096
:106EC000CCE725F07F43C4F84035D4F804052D1AEB
:106ED000023D2B02F0D44FF48033C4F80433F8BDE4
:106EE0001022002000100140FFFF7F0040110140F0
:106EF00000E100E04FF02002EFF3118382F31188EC
:106F0000BFF36F8F064AD2F80405064A1268801A4A
:106F100020F07F4083F31188BFF36F8F704700BF6D
:106F20000010014010220020094A0A4993680968AC
:106F3000D967094998674B6843F080534B60002339
:106F400083F31188BFF36F8F9368D86F704700BFCA
:106F5000203B0020A8B6010000ED00E012498A683D
:106F60004FF038001044EFF3098C80E8F01F202028
:106F700080F31188BFF36F8F0C4F4FF000664A6AA1
:106F80008A603E60906F0023936780F3118804B598
:106F9000104600F08DFABDE8044002F1380090E898
:106FA000F01F8CF309887047203B002004ED00E0BF
:106FB0001EF0040F0CBFEFF30880EFF30980816926
:106FC00011F8021C0229FFD001B512F08DF901BDA4
:106FD00043B2002B08DB012200F01F0002FA00F090
:106FE0005B09024A42F82300704700BF00E100E05D
:106FF00043B2002B0DDB01225B0900F01F0002FAF7
:1070000000F02033034A42F82300BFF34F8FBFF351
:107010006F8F704700E100E0054B420900F01F0050
:1070200053F82220012303FA00F01040704700BFFC
:1070300000E100E043B2002BA8BF03F1604301F17F
:107040000101B8BF064B4FEA4111ACBF03F56143E4
:1070500000F00F00C9B2B4BF195483F80013704791
:1070600014ED00E008B572B6044B186A18B100229E
:107070001A6212F0B7FD62B608BD00BF203B0020C7
:1070800042F8203C009B42F81C3C0A49019B42F814
:10709000183C029B42F8143C21F001014FF0807330
:1070A00042F8043C42F8081C0023203A82658367BA
:1070B000704700BFA18A01000B4A0346906890B157
:1070C00013F1160F806E05D0A0F120029A4206D867
:1070D000834204D281422CBF0021012100E0002123
:1070E000002908BF00207047203B002008B5044657
:1070F0000E46154600F0C0F9084B20469C6000F093
:10710000D7F9284686F30988002163B681F31188F0
:10711000BFF36F8F0022002311F0C2FC203B002040
:10712000014910220A60704710ED00E072B640403D
:1071300080F31188BFF36F8FBFF34F8F30BF62B6FC
:10714000BFF36F8F704700BF72B6494081F311885B
:1071500020BF80F3118862B6704700BF30BFFFF7D1
:10716000FDBF00BF0E4A08B50E4B22F07F029A60A9
:10717000BFF34F8FBFF36F8FD3F8882022F47002D4
:10718000C3F88820EFF3148323F0040383F31488F7
:1071900010F0A8FA10F0B0FA00F036F910F0DEFAAC
:1071A0000010000000ED00E001B572B60B4A106A55
:1071B00000281EBF0021116212F014FD62B6EFF329
:1071C0000580A0F110004FEAC0000549014409C93B
:1071D0009847BDE80140034908470000203B0020D4
:1071E0002CA50100ED73000012F0FAF8202080F3C6
:1071F000118808484FF40261401880F30988EFF3C2
:1072000014800221084380F31488BFF36F8FFFF7C7
:10721000A9FF0000C04F0020EFF30880EFF30981C1
:1072200001B5724600F064F801BD00BF38B5174BD8
:1072300014469A6A9A6A9A6A0546900716D5586B58
:107240009A6A120604D519B19A6A22F080029A62EB
:107250009A6A9A6A9A6AD2060BD400200B4A936AF9
:1072600043F0FF0393620023237038BD6FF01500D5
:10727000EEE75B681B05F0D52946FFF71DFF0028E8
:10728000EBD080F309880220E8E700BF00ED00E0C2
:107290000D4B9A6A9A6A9A6A920508D59A6B9A6A0D
:1072A000120404D518B19A6A22F400429A62064B7D
:1072B0009A6A9A6AD20558BF9A6A9A6A002042F47A
:1072C0007F429A620870704700ED00E0074B9A6AAF
:1072D0009A6A9A6A9A6A9A6A9A6A9A6A6FEA0242F9
:1072E0006FEA12429A620020704700BF00ED00E092
:1072F00070B5374B5B688AB00E46C3F308030025B0
:1073000085F31188BFF36F8F02F07F41B1F17F4F9A
:1073100011D102F00C0108290DD0110701D4064645
:1073200001250022033B8DF80720032B48D8DFE816
:1073300003F0043F433C2E46F3E7254BDA6A9207FD
:107340003ED4DC6A14F0804409D028331B78F3B1B2
:107350000DF1070201213046FFF768FF04469DF852
:10736000073093B92022314602A811F0EBFF099BA8
:1073700045B3C3F3080222B96FEA53236FEA4323EC
:10738000099302A9204611F0ADFF0AB070BD114B60
:107390001B782BB10DF107010120FFF779FFDDE725
:1073A0000D4B188884B2002CD9D0FFF78FFFD5E79A
:1073B0000DF107020021CEE70DF107010020ECE7F7
:1073C0000024CCE723F4FF7323F00103D8E700BFC8
:1073D00000ED00E029ED00E02AED00E0024A5369EB
:1073E00043F010035361704700ED00E0044B9968CF
:1073F000586A884203D003494FF080520A607047B0
:10740000203B002004ED00E0044800232021C218A6
:107410000133302B82F80013F9D1704700E100E00E
:1074200010B5044610F0E0FC114B9B68A34207D155
:10743000EFF3058383B10F4A536843F080535360E1
:107440004FF02003EFF3118083F31188BFF36F8FA8
:10745000BDE8104012F01BBD4FF02003EFF3118088
:1074600083F31188BFF36F8FFFF75EFDE8E700BF7E
:10747000203B002000ED00E01FB5084B0193084BB6
:107480000293084B039301AB0093074A074B01217A
:10749000684600F0A7F805B05DF804FB0000002086
:1074A0000000000000000B06000000200000042087
:1074B0001FB5836E203B0193064B2022CDE90223AA
:1074C000012101AB6846009300F096F805B05DF825
:1074D00004FB00BF00000B15DFF884C0F0B50646C2
:1074E000002710468F4200DBF0BD56F827E0DEF89B
:1074F000044094B343B1651E2C4219D11F2C17D9F7
:10750000DEF80020154213D1202CC2B2DEF8005064
:10751000DEF808000FD9B4F1004F0ED8013CB4FAE0
:1075200084F4C4F11F046400072A44EA000406D965
:107530006FF01500D8E70824F6E73E24F4E725F0BD
:107540001F05154345F0100544F00104CCF8082050
:10755000501CCCF80C50CCF810400137C2E700BFEB
:1075600090ED00E0034B05225A60BFF34F8FBFF34D
:107570006F8F704790ED00E0BFF35F8F014B0022EB
:107580005A60704790ED00E013490868082810B56C
:107590001ED8FFF7F1FF114C49680022904201F11B
:1075A0000C0105D10E4B1870FFF7DCFF002010BD59
:1075B000A26051F80C3C23F01F03134343F0100367
:1075C000E36051F8043C43F0010323610132E5E735
:1075D0004FF0FF30EBE700BFFCA6010090ED00E0AC
:1075E0009A3B002010B5034C01232278FFF774FF6B
:1075F000207010BD9A3B002008B5084A002312787D
:10760000FFF76AFF10F1160F03D0054B0022072881
:1076100000DD08BD98601A610130F8E79A3B002050
:1076200090ED00E04FF02003EFF3118283F3118817
:10763000BFF36F8F06490123C1F840354FF08041F9
:10764000C1F8783582F31188BFF36F8F002070473F
:1076500000E0014020B1034B800143F001031847D3
:10766000704700BFC0A601004FF08043D3F84036FA
:10767000DB072ED54FF01023D3F8043303F00703B4
:10768000072B26D1144B0122C3F80425D3F800247C
:10769000002AFBD04FF01021D1F8042322F007027A
:1076A00042F00402C1F804230022C3F804250A4A68
:1076B000D2F80034002BFBD0BFF34F8F0749084BA3
:1076C000CA6802F4E0621343CB60BFF34F8F00BF80
:1076D000FDE70020704700BF00E0014000ED00E042
:1076E0000400FA05074A0346106828B9D96831B181
:1076F000196921B1136070476FF0440070476FF053
:10770000150070471422002070B500F0FD06012E10
:1077100005460BD1064811F0F2FE044620B1314671
:10772000083011F00BFF2575204670BD0024FBE7E3
:10773000D00500202DE9F0410228DDE90667044666
:1077400029D0062802D040B300251EE0144909784C
:107750000129F9D13478012C1AD0022CF4D1114826
:107760000136013F11F0CBFE05460028ECD000F1B8
:1077700008080121404611F0E1FE2C752EB127B119
:107780003A463146404611F0F0FE2846BDE8F08109
:1077900005480024E4E70348E4E70348E2E700BFC4
:1077A0009B3B002080050020A805002010B50D4B54
:1077B0001B78012B04460CD1037D012B04D0032B35
:1077C0000ED06FF0150010BD042104F1080011F077
:1077D000DDFE054B2146186811F0B4FE0020F2E7EB
:1077E0000221F2E79B3B0020202200202DE9F047F8
:1077F000057D04468DBBDFF8A890D9F8003063B34F
:1078000000F10808404611F0D2FEA789022F064673
:1078100040D90321404611F0C2FEA18983788B42F2
:1078200038D81D4BB0F80080D9F80020D3F800C03C
:107830002B4663450CD0104632F80C5B454513D1FE
:107840004368994224D3836820469847054668B91F
:107850002069A78110FA86F6A660104B1B682046A7
:107860001B69BDE8F04718470133E2E7FF280CD059
:107870000121404611F01EFE01210446083011F09E
:107880006EFE05702046FFF791FF2846BDE8F087A1
:107890001225EDE71225F8E71C2200201422002013
:1078A0001822002001289DBF024B187000206FF0A5
:1078B000150070479B3B0020014B1878704700BFB4
:1078C0009B3B0020024B1860024B1960704700BFC1
:1078D000182200201C220020044B054A1B6810605F
:1078E0000BB1DB6818476FF01200704714220020BC
:1078F000202200202DE9F0411446C21D22F003028F
:10790000671EBFB2186082B005460E4601FB070035
:1079100014800021042211F040FDB7B1023CA4B252
:1079200004FB066304FB06F71D44FF1A4FF6FF78BD
:107930000422013CE8190DEB0201A4B2019511F0FB
:1079400001FD4445A5EB0605F2D102B0BDE8F0818A
:1079500070B5056882B095B1EB1D23F003030422D6
:10796000044629460DEB02001E8811F0EBFC019B3A
:1079700023B1DA1D22F00302013E1680236028465F
:1079800002B070BD0B6870B50C46054683B1073375
:1079900023F003031E880136B6B20422214628468E
:1079A00011F0D0FCEB1D23F003031E80256070BD99
:1079B0000126F2E702FB0100704700BF401A80B2C7
:1079C000B0FBF2F0704700BF531E11449BB242B1AE
:1079D000DB43CA18013811F8013D00F8013F91421C
:1079E000F9D17047014402E010F8013B1BB988420D
:1079F000FAD1002070470120704700BF1060086076
:107A0000704700BF0A6803460068904205BF002225
:107A10000A6000201A60704710B41468206014686F
:107A2000616010BC10607047884203D01AB143688F
:107A300013607047002070470B68834209D02AB159
:107A4000586810601A680A6018467047002BF9D110
:107A5000FAE70023F8E700BF2DE9F041DFF83480B2
:107A60000B4E0C2706F130044546221D21462846C0
:107A70000C3CFFF7C3FFB442A5F10805F5D1043F64
:107A80003B1DA8F12008A4F13006EBD1BDE8F08140
:107A90002C2300209C22002030B403460C469AB1CF
:107AA00001EB41010801144D03EB430100EB81019F
:107AB0002944487A0D7AA84204BF01300872214651
:107AC000184630BC0DF096BC01EB41020A4D120184
:107AD00000EB400302EB83032B449D7ADA7AAA423F
:107AE00001D030BC7047054D01329A7201236B54AE
:107AF00030BC0DF0DDBC00BFA8220020A422002075
:107B000070B51C4606460D4622B363782278D21A19
:107B100012F0030205D0012A40D00133DBB22370FA
:107B20000FE03022042112FB05110C2212FB061279
:107B300001331B496068DBB20A4423702146FFF71A
:107B40006BFF184B3046012229465A550DF0B0FC08
:107B5000002070BD0DF08EFC0028D6D0294630469E
:107B60000DF068FC0028D0D005EB450211010C484F
:107B7000637806EB460201EB82020244917AD27AE4
:107B80009142C3D12278D21A920702D00233DBB2DB
:107B90002370D4E902039847002070BD104670BDE1
:107BA000A8220020A42200204E490B5C002B00F0EC
:107BB00098802DE9F04F4C4B4FF03C0B87B00022E2
:107BC0000BFB003B0A5400EB40070BF1040103924E
:107BD00003EB071701924FF0030988460290002338
:107BE000D7E9090105AA0593FFF71EFF07F124064F
:107BF0008346002834D0059C25786378ED1A05F07B
:107C00000305012D06D1013B6370D4E902039847B7
:107C1000059C637894F800C0B86AACEB030303F0EA
:107C20000303012B4FF0000231465FFA8CFA0DD0AE
:107C3000FFF702FF62782378C4F804B09B1A03F0C0
:107C40000303012B84F801A044D0B86A014605AAB9
:107C5000786AFFF7E9FE012D834629D00028CAD1B2
:107C600097F82E3097F82F209A4203D087F82F30BC
:107C70000123019397F82C3097F82D209A4203D0D6
:107C800087F82D300123039309F1FF395FFA89F951
:107C9000B9F1FF0FA7F10C07A1D1DDE9013AB3B1AA
:107CA000039BA3B91A46514650460DF0A3FB0EE0C4
:107CB000B9F1000F01D10028D2D0DDF808A0094A9F
:107CC00001235146504602F80A300DF0F1FB07B08F
:107CD000BDE8F08F6270214658464246FFF79CFE91
:107CE000B3E77047A4220020A8220020A1B14B1EB8
:107CF000DBB210B4411EC418002011F8013F3BB1A3
:107D00005BB25A1E1340013013F0FF03C0B2F7D12B
:107D1000A142F2D110BC7047084670472DE9F04FE0
:107D2000AD4D83B0044603270126042120460AF006
:107D300063FD6378E27894F802C020784CEA022C64
:107D400040EA03204FF0000840EA0C40C3464FEAE7
:107D5000DC3CC1461E234FF0010A1AE008F1010184
:107D60000E2BC9B25FFA83FC40F28A80CAB39446F4
:107D7000CE461C2B40F21D811B2B40F2F0801929AE
:107D800039D088469246BEF10C0FF14633D0013B04
:107D900039D320FA03F202F001026245DED10AF182
:107DA0000102072BD2B240F2C480062A77D906FA24
:107DB00003F2BCF1000F51D020EA0200CE464FF092
:107DC000000C08F101010E2BC9B288BF0122D6D8E0
:107DD000F14500F0A18019290DD088464FF0010A25
:107DE000D5E7CE460122052B75D9062A54D119298B
:107DF0004FF0000CC5D1013306FA03F3BCF1000FBC
:107E000053D05B42184080EA050301930DF1040C46
:107E10000DF1080E00221CF8013B3BB15BB2591E6C
:107E20000B40013213F0FF03D2B2F7D1F445F2D187
:107E3000012A09D983B2B3EB104F4FEA104237D170
:107E4000C3B2B3EB106F33D1013F17F0FF077FF4DC
:107E50006CAF6FF00D0003B0BDE8F08F10434146EA
:107E6000CE464FF0010C8845ABD00E2B8BD8CE45BB
:107E70008DD141460EF1010E5FFA8EFE52467EE72D
:107E800009F1010EBCF1070F5FFA8EFE40F29480FB
:107E9000002A40F09A8001224FF0000C69E7BCF103
:107EA000000F10D14146CE469FE7013B1843AAE799
:107EB000C0F30721130A207000206170A270E370E4
:107EC00003B0BDE8F08F062A02D14146CE4658E7FE
:107ED0004146CE464DE7BBF1000F0CD0BCF1040F7C
:107EE00083D8BBF1010F06D9BCF1030F3FF67DAF7C
:107EF000BBF1020F09D806FA03F210430BF1010B94
:107F00005FFA8BFB4FF0010CADE7062A3FF46FAF31
:107F100029B14FF0000C2FE74FF0010AAAE706FA4B
:107F200003F2072B40EA020088BF4FF0010C9AD8F9
:107F3000E4E7BCF1000F2AD00BF1010B062A5FFA2F
:107F40008BFB1DD906FA03F220EA02004146CE4619
:107F50000BF1FF3B5FFA8BFB4FF0000C83E701292D
:107F60003FF60DAF06FA03F2BCF1000FD9D0072B94
:107F700020EA020088BF4FF0000C3FF674AFE7E73D
:107F8000A3D0B8F1000F0AD04146CE46F4E6062A47
:107F90000AD906FA03F210434146CE46AEE706FA86
:107FA00003F24146CE46E2E74146CE465FFA83FC05
:107FB00019E70029D6D0DFE6002A3FF413AF0BF112
:107FC000010B5FFA8BFB9446D6E6012901D094465B
:107FD000D5E601FA03F2CAE7D6BE898E2DE9F04F45
:107FE000827F8DB001230492C377002A5BD1437F47
:107FF000FF2B814656D00CF035FCD9F8142099F8A7
:108000001C3099F81D60801AFF2B20F07F4B00F088
:108010003A81D9F818305B4594BF002301230193BE
:10802000FF2ED9F800704FF0000866D0CDF8089008
:1080300006EB460607EB06143601A2685A455AD8E5
:1080400094F802A06378BE5DA3EB0A03DBB2012BB8
:10805000ABEB020B90444CD1A06968B3019B002BA1
:1080600000F08D80E38B0393A36A3BB11A681AB1C9
:108070001A7A002A00F0F48000221A72039A94F807
:108080002C10013292B2E283002932D0A18B9142AE
:108090002FD2002B00F0FA801A7A012A29D04FF053
:1080A000010C0EE0C2770DB0BDE8F08FDDE909B834
:1080B000DDF820A00B9E4C46A36A002B40D04FF069
:1080C000000C00221A72E5685A600AF1FF33A370AF
:1080D0007DB1029B62695869616A2369A8EB02025B
:1080E000104420F07F40BCF1000F39D04FF6FF72F2
:1080F000A847FF2E9CD1DDF8089099F80B3099F82D
:108100000A209A420AD10132D2B2022A1CBF134677
:108110000493049A89F80B2008BF002309EB83031A
:10812000D9F82440C3F80C80002289F81F204B4660
:10813000012204210320A4460DB0BDE8F04F6047A2
:10814000E5680AF1FF33A370002DD2D0029B62696B
:108150005869616A2369A8EB0202104420F07F404D
:10816000E28BA847A26900239A42019AE38318BFD1
:108170000122FF2E0192E3707FF45AAFBBE794F91E
:108180002D300593803397D0FF2E95D0E38BA28BB3
:108190000393934228BF9B1A05996268CDF820A0EB
:1081A000591A03FB02230693CDE909B80791334618
:1081B0000025A1460B9600922CE0009CAAEB080833
:1081C000002C48D0069C0AFB0C8844458CBF4FF01D
:1081D00001084FF0000834BF4FF0010A4FF0000AC9
:1081E000B14292F803B099F803200FD3934543D8D6
:1081F0001EF1800F40D0079AACEB0E0C944502DDC7
:10820000B8F1000F38D0059A724532D0FB5CFF2BD5
:108210003FF44CAF1BB203EB430307EB03121B010C
:10822000D2F808804544A842FFF440AF9169002984
:10823000ECD0D18B968BD2F804A092F92DE0B1420C
:108240008C4628BFA1EB060CBAF1000FB5D1009CFB
:10825000D046002CB6D1DDF800A04FF00108BFE7F2
:10826000A28B03998A423FF607AF4FF001021A72C0
:1082700004E7BAF1000FC9D0DDE909B8DDF820A0A4
:108280000B9E4C46F0E6049B0193C9E6E5680AF1B3
:10829000FF33A370002D3FF42CAF029B60695A6935
:1082A000616A2369A8EB0000104420F07F401DE7BD
:1082B000C27F002A40F02F862DE9F04F837AC17AE1
:1082C0008FB083464069059099424FF001008BF8CA
:1082D0001E0000F096800344DBB2022B08BF134659
:1082E0000BEB83028BF80A30D368059A0293D318FC
:1082F00023F07F43CBF8143001230D939BF8093012
:108300009BF81D200692DBF80020DBF80410079391
:1083100004921A46013B0C91DBB2002A00F0218343
:1083200001EBC30600230893FF2301933746D94688
:108330007B68079397F803C0BB78BA4607999846BD
:1083400003EB430203EB8202581C634501EB8205F9
:10835000C3B200F082819AF80000984208BF00235F
:108360008AF8023011F82220042A40F27481072A88
:1083700000F286806978049C01EB410004EB001454
:108380000001A7780A906078C01B10F0FF0077D03A
:10839000052A65D0012837D199F81DC0D9F80060A9
:1083A000BCF1FF0F17D00CEB4C00614506EB001041
:1083B00000F09080002301E0614570D0E64690F81F
:1083C00000C0D0F80880BCF1FF0F0CEB4C00434418
:1083D00006EB0010F0D10026052AA66000F02681E9
:1083E000677099F81C308B4222D0EB6A002028700D
:1083F000A8620BB1296B98479AF803C09AF802302B
:108400009CE70D92029279E704214B460122D9F8AC
:1084100024400846A0470C9A8AF802805746012358
:10842000BA420893A7F1080300F01E811F467FE7B8
:10843000FF23072A89F81C3040F0DD816868D9F8ED
:108440001430C21A140200F1CD8122F07F43029A47
:108450001344D9F818209A4288BFC9F81830C4E7E5
:108460006E68002E96D1AE68002E93D1EE68002E75
:1084700090D12E69002E8DD16E6936F07F4689D15C
:10848000EA6A002101202970A862002A3FF456AF51
:10849000296B90479AF803C09AF802304EE70EEB2A
:1084A0004E07714506EB071716D00178D0F808C0C3
:1084B0003970FF2906D001EB410106EB01118868F4
:1084C000604488600CEB0306052AA66009D0A778F3
:1084D000697885E707460023027889F81D202A7805
:1084E000E3E7D9F8147003970CF0BCF9029BA0EBFA
:1084F000070C2CF07F473B449E42804640F2A2800E
:108500006269F31A6668002E53D0A88A002850D0FA
:10851000013880B29E42E18BA88225D206F1010B80
:108520000B9211E000F1E87000F5D43000F5A57071
:10853000DE46099A0139A3EB0E0389B2801A9E42E6
:10854000E18360620ED2A88A884280F0B281D4E9C9
:108550000820DFF8D0E20992B14A86449645E1D876
:10856000B646E6E70B9AA88A884221D9206A099084
:1085700006F1010E0B9207E06062B346A88A013152
:1085800089B281425B4411D2099A606ADFF894B2E1
:108590001044A34A83449345EED8A0F1E870A0F5B7
:1085A000D430A0F5A5706062F346E7E70B9AE1834B
:1085B000A083D5E9010EA66A03447244A3606261F8
:1085C00036B1316821B1A0EB0E007060A36862691A
:1085D0001CF4000F21D13B4493421BD99B1A00226B
:1085E000A3606261E968A3692A690B44934288BF6A
:1085F0009B1AAA7D98BF0023A36102B1E270049B7D
:108600000A9A1946019B8B5463786A780192013368
:108610006370EAE6D21A0023E2E70399A1EB0807A8
:1086200027F07F479F4213D2DB1BD5E7D9F81470A0
:1086300003970CF017F9029BA0EB070C2CF07F4777
:1086400080463B4461690B449A1B6261002359E7F1
:108650003A44D21ADFE7984672E60C9A5746BA4275
:10866000A7F108037FF4E2AE99F81D70069BDB1BAF
:1086700018BF012307930D9BCB46002B40F0798157
:1086800099F80920D9F80030D9F804100493531E42
:108690000991DBB2002A00F0108101EBC3080D9BA9
:1086A0000393D8F8043098F801600593019BFF2BE1
:1086B0005ED0DDF804A0049B0FFA8AF404EB4404B6
:1086C0004FEA041C03EB041413F80C30019300254B
:1086D000FF222270DBF800709BF81D3007EB0C00C6
:1086E0009342816818BF029211D193E0B1EB0C0163
:1086F00006D1BEF81EE0B0F81E90F14500F2D6801B
:1087000017F802C00293BCF1FF0F77D0634603EB6A
:10871000430C07EB0C1E4FEA0C12DEF808C08C4528
:10872000E4D9029A8160FF2A03706CD18BF81DA0F6
:10873000FF2B06D003EB430307EB0317BB68591A63
:10874000B960A37801336370002DAFD0EB6A039A50
:108750002A70AA6213B1296B002098476368002B26
:10876000A4D1D5E90B23C4E90823019BFF2BA0D199
:1087700098F80230B3422ED0059F98F8000006EB1F
:10878000460206EB8202013617F82210F6B2B0421A
:1087900008BF0026042907EB82051AD195F801A02D
:1087A000049B0AEB4A0C03EB0C144FEA0C1C617897
:1087B000A378C91A11F0FF0136D0039B07F82230C5
:1087C000EB6A0122AA6210460BB1296B984798F810
:1087D0000230B342D1D1099A4245A8F108036AD0C8
:1087E00098465EE7029A1B1A23F07F439A428CBF99
:1087F000D31A00232DE60CF035F820E61A468160E6
:1088000080F800C0634612B202EB4202120107F880
:1088100002A08DE707F80C308BF81DA091E700BF90
:10882000592B177F5A2B17FFAF8ADBF814E0686AC1
:108830004FF6FF794F45D5E903232ED084F82C104D
:10884000A06262602362D5E906236868A2612A6A91
:10885000A783A0EB0E07C4E903323A02AB680CD43D
:1088600027F07F473B448BB1A360039B6362E383A4
:108870004FF001036161E3702AE7AEEB000222F0E2
:108880007F42934205D99B1A002BEDD11946002354
:10889000EAE7D31A19460023E6E74FF0010784F808
:1088A0002C70A062626023620F46CCE7029A614698
:1088B00038E70B9A58E69BF81D70069BBB4200F008
:1088C0003483089B002B00F0568300239BF81D7017
:1088D0008BF81E30FF2F00F0DC83069BFF2B00F08F
:1088E000F683DBF80030DFF80093DFF80083BD4E3D
:1088F00007EB470703EB07130A259F680BF0B2FF4E
:10890000DBF81430DBF82820C41A24F07F44033449
:10891000BC422CBF1B19DB1923F07F448246204642
:1089200090470BF09FFFA0EB0A00A4EB0A0420F095
:108930007F4024F07F440330A04205F1FF3540F230
:10894000FF82002DDAD140F69A034A46414630466E
:108950000FF099FF404080F311884FF0030002DFD1
:10896000CCE70D9B002B00F0F982079B0893FF23B7
:1089700001930BF077FFDBF800309BF81D50039359
:10898000059BFF2DA0EB030020F07F4854D0DDF8BD
:1089900008A04FF000094B46D146C2469846039BBB
:1089A00005EB450403EB0414A3684B4500F2DC829D
:1089B00094F82C10A9EB03099844AAEB030A0029A8
:1089C00000F03881E68B003E18BF0126DBF8182046
:1089D000934225BF4FF0FF338BF81C30D31A00238E
:1089E000A769CBF81830A26A606894F800C047B154
:1089F000637894F802E0A3EB0E03DBB2022B00F0E5
:108A000047810023A3608BF81DC0002840F0D6806A
:108A10001AB1137A012B00F01581A2786078801AC0
:108A2000C0B2012800F0C28062709BF81D50FF2D7B
:108A3000B5D1DBF800300393DDE906409BF809204F
:108A4000DBF804100991531EAC4218BF01200790B7
:108A5000DBB2002A00F08A8101EBC308D8F80430A9
:108A600098F801600593019BFF2B62D0DDF804A00C
:108A7000039B0FFA8AF404EB44044FEA041C03EB53
:108A8000041413F80C3001930025FF222270DBF848
:108A900000709BF81D3007EB0C009342816818BFF3
:108AA000049212D15AE1B1EB0C0106D1BEF81EE0DE
:108AB000B0F81E90F14500F20C8117F802C0049343
:108AC000BCF1FF0F00F0F980634603EB430C07EBAA
:108AD0000C1E4FEA0C12DEF808C08C45E3D9049A4C
:108AE0008160FF2A037040F0ED808BF81DA0FF2B02
:108AF00006D003EB430307EB0317BB68591AB960B1
:108B0000A37801336370002DADD04FF00002EB6A03
:108B10002A700022AA6213B1296B10469847636835
:108B2000002BA0D1D5E90B23C4E90823019BFF2B1F
:108B30009CD198F80230B34230D0059F98F80000DD
:108B400006EB460206EB8202013617F82210F6B257
:108B5000B04208BF0026042907EB82051CD195F816
:108B600001A0039B0AEB4A0C03EB0C144FEA0C1C0C
:108B70006178A378C91A11F0FF0100F0AD804FF0C1
:108B8000000307F82230EB6A0122AA6210460BB1FB
:108B9000296B984798F80230B342CFD1099A4245E1
:108BA000A8F1080300F0DF80984657E7236A002BFE
:108BB0003FF43AAF616A9847A27835E712B1137A69
:108BC000012B3FD0E38B0A93002B70D1A38B6678E7
:108BD00004939E46471C0997D4E908C200230B91D1
:108BE00077460AE08CA701004CA70100B4A701005A
:108BF000013F8646791C734412D0DFF8D8E2B449AD
:108C0000624496448E45F3D8DDF824E0A2F1E87280
:108C1000013FA2F5D432791CA2F5A5727344ECD1C0
:108C20000B996262002900F04B810A9A04990A4468
:108C3000E28309E00E46C9E6A6608BF81DC0002855
:108C40003FF4E7AEA6784B460598DBF8142061693F
:108C500000EB0807B81A10F4000F0ED120F07F4087
:108C60000344994211D25B1A0021019A2270013605
:108C70006670A36061610195D7E6D21B22F07F4246
:108C80009A4211D29B1A9942EDD3C91A0023ECE7FC
:108C9000002E7FF4B6AE12B1137A012BCCD08BF834
:108CA0001C50CBF81870ACE61144C91AEEE74FF02F
:108CB000000EA678CDF810E08CE71A46816080F8A7
:108CC00000C0634612B202EB4202120107F802A092
:108CD0000DE7049A614603E7AF8ADBF814E0686A9F
:108CE0004FF6FF794F45D5E903232ED084F82C1099
:108CF000A06262602362D5E906236868A2612A6ADD
:108D0000A783A0EB0E07C4E903323A02AB680CD488
:108D100027F07F473B448BB1A36000236362E3836A
:108D20004FF001036161E370AFE6AEEB000222F0A9
:108D30007F42934205D99B1A002BEDD1194600239F
:108D4000EAE7D31A19460023E6E74FF0010784F853
:108D50002C70A062626023620F46CCE707F80C30EB
:108D60008BF81DA0CCE6DBF8003003939BF81D7058
:108D7000039E0023BA46BAF1FF0F10D0D1460FFA76
:108D800089F202EB420206EB0212976A17B1397AB6
:108D9000012914D092F80090B9F1FF0FEFD1574696
:108DA000002B3FF48AAD069ABA427FF48AAD089A46
:108DB000002A00F07C8100238BF81E308AE59BF8A6
:108DC0001C30FF2B71D0DBF81800029B83426CD261
:108DD000C01AD7E90043A34292F800C06DD2BCF19B
:108DE000FF0FA4EB030468D09569AC424FF0000379
:108DF00033D39E460195614603921DE0D1F8088069
:108E0000A8F10403B8F1040F734409D9A342019AED
:108E100028BF2346934203D95B1B01D083421BD258
:108E200088690978C6444044631B0EEB0502FF299C
:108E3000019211D094420FD301EB410106EB0111D5
:108E4000D1F82880B8F1000FD8D098F80880B8F190
:108E5000010FD3D10978E8E7039A936064464FF095
:108E6000FF0E00E0044621B201EB410006EB0018C2
:108E70000001D8F808509D424ED25B1B9360305CD5
:108E8000FF28A646EED101EB410109018BF81DC078
:108E9000735C137006F80190E246D38B013BD383D9
:108EA0004FF0020201233A7265E7D7E90043A3427B
:108EB00092F800C04FF0000091D300239360ECE7DC
:108EC0009A457FF6B2AE00F1010E09940AE000BFA8
:108ED000592B177F5A2B17FF07463B4401319A4500
:108EE00089B211D9814F824C6244D719A742F3D875
:108EF0007746A2F1E8723B44A2F5D43201319A459B
:108F0000A2F5A57289B2EDD80498099C084481B2F3
:108F10000491626289E67047EB1ABEF1FF0FC8F850
:108F20000830BAD00FFA8EF1ADE7089B002B00F0A5
:108F3000A68000238BF81E30079B002B40F0C480D6
:108F40009BF81F206AB1DBF824405B460122032115
:108F50000420A4460FB0BDE8F04F60470D9B8BF88E
:108F60001E300FB0BDE8F08FA3EB0903A360DBF860
:108F70000030039360E59BF80930DBF804605C1E69
:108F8000E4B2002B3FF4A1AC0123079306EBC40429
:108F90004FF000096378E178656899420CD160E090
:108FA000012B5AD0637822780133DBB29A4208BF92
:108FB00000239942637054D01BB203EB430203EBCE
:108FC000820305EB830215F82330022B1BD0032B01
:108FD000E6D153789BF80810994211D9DBF80010BC
:108FE000107903EB430301EB031383F82D00C2F860
:108FF0002890D36A13B1116B906A9847E178D1E752
:1090000001239362F5E7D2E9017097F800E0D2F806
:109010000CC0DBF80010DBF81480BEF1FF0F02D0AB
:109020000368434524D09BF81D30C0F800804FF002
:10903000000E0DE003EB430001EB00180001D8F82F
:1090400008A0D8F81880D644B8F1000F02D10B5C04
:10905000FF2BEFD13B70CCF800E0D36AC2F8289028
:10906000C8E7A642A4F108033FF463AF1C4691E7AA
:109070000EEB4E031B01DCF800E0CB5CE8E79BF84D
:109080000930DBF804605C1EE4B2002B7FF47EAF95
:109090004FE70BF0C1FB00287FF452AFCBF818006C
:1090A0000BF0E0FB9BF81F20CBF814004AE79BF87D
:1090B0000920DBF80460541EE4B2002A7FF465AF97
:1090C000089B8BF81E3005E49BF81D7002E40BF042
:1090D000C9FB04460BF090FB9BF81D7000287FF441
:1090E00000ACCBF81440FFF7FCBB00BF5A2B17FFB6
:1090F000592B177FF0B4049F9DF81440069E00285A
:109100003ED1DFF884C04D1E8CF80810CCF800204A
:10911000EDB249B105EB450502EB0511914281F82D
:109120002D00A1F13001F9D15A1E8CF80930CCF88C
:109130000470D2B27BB107EBC2025660114612F83E
:10914000083903EB4300E41A8F4203EB8003E4B2D7
:1091500006EB8306F1D19CB9079ACCF82020089A37
:10916000CCF824204FF6FF73099AACF80A40204649
:10917000CCE90544F0BCCCF82820ACF81C30704792
:109180000120F0BC704700BF682300200A4B2C224E
:1091900002FB003210B4546A5CB100EB800200EBB9
:1091A000420003EB8003A446012210BC03210220ED
:1091B000604710BC704700BF682300202DE9F843CA
:1091C000DFF8A080BDF82CE02C2707FB00870446C1
:1091D0007D6805EBC10C15F831909CF8036004EB39
:1091E000840504EB4504751C0846EDB29CF801109B
:1091F000A94598BF0025A94208EB84082FD0DCF8C8
:10920000041006EB460406EB840601EB86044FF0DF
:10921000040901F826906360089BA360099BE36042
:109220000A9B23610C9BA361119B63620D9BE3610D
:109230000E9B23620F9BE3620221109B6270A4F8D5
:1092400014E02363A1628CF80350D7E908359847EE
:10925000434649460022A847A06ABDE8F88301209A
:10926000BDE8F8836823002030B58BB0DDE90E54EB
:109270000095109D01940295BDF84440129D039401
:109280000495139C149D05940695159C169D0794B2
:109290000024CDE90854FFF791FF0BB030BD00BFAB
:1092A000DFF898C02DE9F0472C2707FB00C70446DC
:1092B0007D68BDF82C809DF830E0084605EBC101C3
:1092C00015F830A0CE7891F8019004EB840504EBFA
:1092D0004504751CEDB2AA4598BF0025A9450CEBC5
:1092E000840A28D0D1F804C006EB460406EB8406B5
:1092F0000CEB86044FF005090CF826906360089B80
:10930000A360099BE3600A9B23610D9BE362022635
:109310000E9B627084F816E02363A4F81480A662A2
:10932000CD70D7E908359847534600220421A84755
:10933000A06ABDE8F0870120BDE8F087682300201F
:10934000DFF884C02DE9F0412C2707FB00C7044655
:109350007D68084605EBC10115F83080CE7891F89C
:1093600001E004EB840504EB4504751CEDB2A8454F
:1093700098BF0025AE450CEB840421D0D1F804C081
:1093800006EB460E06EB8E060CEB86084FF0060E3B
:109390000CF826E0C8F82C300226069B88F801203D
:1093A000C8F83030C8F82860CD70D7E9083598473C
:1093B000234600220421A847D8F82800BDE8F08100
:1093C0000120BDE8F08100BF682300202DE9F041B5
:1093D000204F4FF02C0C0CFB007C0446DCF80450B2
:1093E000084605EBC10115F83080CE7891F801E010
:1093F00004EB840504EB4504751CEDB2A84598BF49
:109400000025AE4507EB840420D0D1F804E006EB3C
:10941000460706EB87060EEB86074FF602782EF816
:109420002680C7E90123069BFB60079BFB6202269F
:10943000089B3B63BE62CD70DCE908359847234644
:1094400000220421A847B86ABDE8F0810120BDE8E8
:10945000F08100BF6823002070B50A4D2C2202FB6A
:109460000052D2E9083604460846984704EB8403C4
:1094700004EB430305EB8303B4460022BDE87040D0
:1094800004216047682300200BF0ECB9401A20F05B
:109490007F407047012813D808B548B931B1084654
:1094A000062209490FF04EFF074808BD064808BDCF
:1094B00041B10846062205490FF044FF034808BDA4
:1094C00000207047014808BD942300209C23002001
:1094D00070B5044600200D4603F01AFD88B903F06C
:1094E00047FF10F006060CD12946062224B1064893
:1094F0000FF028FF304670BD04480FF023FF2046D0
:1095000070BD0C2070BD00BF9C2300209423002060
:10951000022801D00120704738B5044608461D4690
:1095200004F04CFB10B10020287038BD204638BD37
:10953000002303700B70704708B50248FEF7D2F89D
:10954000002008BD1CA8010030B5838983B023B179
:10955000037D0446C3B1022B04D06FF015052846E5
:1095600003B030BD01A901F03DF9019B054613B1DF
:1095700018460FF081FF002DF1D120460CF0D4F9F0
:109580000025284603B030BD01A9019300F02EFC50
:109590000028F2D00FF070FF019D002DEDD028467D
:1095A00001F044FE68710199014810F021FCE4E7E4
:1095B000200500202DE9F041DFF8B4802B4F82B068
:1095C0000CE00FF056FF2246BDF80210044601F0F1
:1095D00015FE20460FF050FF0EF034FD0DF1020194
:1095E00001A802F0FBFB04464FF0FF324FF0FF33BF
:1095F00000211320002CE4D1019B93B102F0C8FCA0
:10960000019E304601F012FE019D70716B79032BB3
:1096100002D12B790B2B0CD02946384610F0E8FBF1
:10962000DCE74FF0FF324FF0FF3340460EF0A4FD71
:10963000D4E721464FF0FF334FF0FF320520EE888C
:109640000FF017FF0446224605F11C00314601F0D9
:109650002FF9304601F03CF9204624B10FF00CFF01
:1096600020460CF061F9019DD6E700BF20050020DF
:1096700008050020D0B51B4888B002F09DF80446CC
:1096800000282CD1184801F0E7FD002600276FF0D4
:1096900009030393CDE90667CDE90144134B14494F
:1096A000049400944FF4E07212480EF0D9FD124970
:1096B000104810F0D6FC6FF007030393CDE906675E
:1096C000CDE901440D4B0E49049400944FF400720F
:1096D0000C480EF0C5FD0C490A4810F0C2FC2046AB
:1096E00008B0D0BD0805002074000020B59500002A
:1096F0004046002038080020ACA701000D9700006C
:1097000020480020B8080020B8A701002DE9F04F3C
:10971000B24DDFF8EC92DFF8ECB2DFF8ECA283B0E8
:10972000AE484FF0FF324FF0FF3302210EF0E2FF60
:10973000002840F0AD80EB6803F4F833B3F5805FA8
:1097400000F0A2802B6A03F4F833B3F5804F00F0E9
:1097500006810024EA682B6AA1496FF31032D1F820
:109760000080EA606FF310339E4A2B62BFF35B8F79
:1097700052E8003F23F0010142E800100028F7D131
:10978000BFF35B8FDB0744BF0023C9E90033B8F1A7
:10979000000F40F3EB80DBF80030DAF80020D9F856
:1097A0000060A8EB030313448F4A1360002E00F0FF
:1097B00009817779002C7CD1042F4AD8022F00F23E
:1097C000BC808A4A8A498B4840F23D130FF05BF80F
:1097D000404080F311884FF0030002DF042F019610
:1097E00040F29580052F41D0804A81498148CF239E
:1097F0000FF049F8404080F311884FF0030002DF7A
:1098000001980023036001A802F08CFCDBF8003013
:10981000DAF80010D9F80020A8EB03030B447249D2
:109820000B602AB15279D11E01290DD9052A09D020
:109830002CB1A3892046002B38D0FDF7B7FF0EF0DE
:1098400001FC6DE7002BF3D000216B480EF0B2FF56
:10985000EEE7052FB5D1002BF1D0D9F804203368FD
:10986000C9F80030964200F0E78001964FF0FF32D1
:109870004FF0FF330320FDF747FF014604460198F0
:1098800001F052F80198BCE72B6900249C6061E765
:10989000564A5A49574840F275130EF0F4FF4040BB
:1098A00080F311884FF0030002DF44E70CF03CF82E
:1098B000C5E7FA1E012A74D9052F00F0878001330D
:1098C00062795BD0D9F80060042A71D8022A00F2CC
:1098D000C480531E012B00F2B2800194022A00F0D2
:1098E000D0804FF0FF324FF0FF330120FDF70CFF27
:1098F00004460198002C00F0BF80214601F08AF850
:10990000019A0023136001A802F00CFC90E7002FDD
:109910003FF46AAF022F1AD04FF0FF324FF0FF33FF
:109920000120FDF7F1FE04460198002C3FF469AFD9
:10993000214601F06FF8019863E7D9F804203368F5
:10994000C9F80030964245D0022F0196E4D100229A
:109950000023012100200FF08CFD0446E4E7686A33
:10996000002200230EF04CF80446F3E61E4A4FF0A6
:10997000FF331360002C3FF462AF62790194042A34
:1099800044D9052A45D14FF0FF324FF0FF33032071
:10999000FDF7BAFE01460446019800F0C5FF019AA2
:1099A000AFE7154800210EF005FF0F4B1B6886E757
:1099B000052A44D1002E56D10B4B1B68002B52D0E8
:1099C0000194E0E7002C7FF47AAF38E7002BE8D170
:1099D000627979E7C9F80430B6E700BF4C0000208F
:1099E0004C24002050240020A4230020C0A7010004
:1099F0000CA801008CA701007400002000A8010041
:109A0000A82300204824002040240020002A7FF4BE
:109A100065AF214A21492248CF230EF034FF404050
:109A200080F311884FF0030002DF019B00221A60CF
:109A300001A802F077FB02E7C9F8043015E7164ADF
:109A400016491748F4230EF01EFF404080F311889A
:109A50004FF0030002DF0194DBE7124A0123136099
:109A60000EB901943DE7D9F804300022226083B199
:109A70001C60C9F80440E2E6046001A802F052FB51
:109A8000DDE600220023012100200FF0F2FC044655
:109A90002FE7C9E90044D2E6C0A701000CA80100E5
:109AA0008CA70100A423002038B5074B05460121EF
:109AB00018880FF0FFFC0121044608300FF04FFD1D
:109AC000034620461D7038BD603B002070B500F194
:109AD00008040E462046022115460FF040FD6B1C7F
:109AE0003E2202704370012120460FF038FD0670BF
:109AF00029462046BDE870400FF031BD70B502F137
:109B0000080504460E46284602210FF028FD0346AC
:109B1000082204211A70597028460FF020FDB4FA6B
:109B200084F35B090470C370A0F8016070BD00BFCE
:109B3000F8B5274E274D284A284B4FF0FF3737609E
:109B40004FF0FF3641F6FF77C5E900670026002792
:109B5000C2E900671F260027C3E9006740B30C462F
:109B600001F09CFF0020FFF79FFF1D4A20601D4B66
:109B70001D4E1E4D1E4800241460214602221C600A
:109B800034602C600FF009FCBFF35B8F194B53E876
:109B9000002F42F0010243E800210029F7D1BFF372
:109BA0005B8F154B18682146BDE8F8400EF002BEE9
:109BB0000B4D0D4A0D4C0B4B014629601160216085
:109BC00019600B48BDE8F84002220FF0E6BB00BF69
:109BD000B4230020000000203809002008000020E5
:109BE000B0230020402400204C24002048240020E2
:109BF00044240020502400203C2400202DE9F84378
:109C0000174C66684FF000094C4606F000551746A1
:109C100054EA050209D0134A12680646884602F043
:109C20000800494650EA010201D1BDE8F883184610
:109C30000B220421FFF74AFF0670A0F801703EB91D
:109C400008F104010330BDE8F84308220FF07ABBA5
:109C500049460330BDE8F84308220FF09EBB00BF21
:109C6000000000200800002070B502F1080405463D
:109C70000E46204602210FF072FC03460522042105
:109C80001A70597020460FF06AFC0023A0F801609A
:109C900003702B78C37070BD38B5064B0546188825
:109CA0000C460FF007FC21462860BDE8384008301C
:109CB0000FF055BC603B002070B5431E86B00846CF
:109CC0001446102B0AD8DFE803F0132A450909537C
:109CD000095E72810909090909100D006FF015006C
:109CE00006B070BD2146FFF723FF002006B070BD0F
:109CF00020460D21FFF7D0FF034602220020042159
:109D0000D9711870987018715871187258729872C9
:109D1000D87218735A70DA709A7106B070BD204606
:109D20004121FFF7B9FF00240546214600F8014B09
:109D300040220FF032FB6978AA78EB7861F0580185
:109D400062F07C0243F0010320466970AA70EB7058
:109D500006B070BD20460921FFF79EFF002400F8E1
:109D6000014B214608220FF018FB204606B070BDBB
:109D700089680020FFF7ACFB0020FFF795FE20600C
:109D8000002006B070BD184E0FCE01AD0FC5336870
:109D90002B7020461221FFF77FFF002400F8014BB3
:109DA000112201A90FF0CEFA204606B070BD204660
:109DB0001821FFF771FF00240546012100F8024B2E
:109DC0000BF044FC6870204606B070BD204621218F
:109DD000FFF762FF0146002401F8114B01300BF040
:109DE000A7FC204606B070BD30A80100F0B58389FD
:109DF0008FB00022022B099240F2918004460E4659
:109E0000083003210FF0CBFBA28983789A42C0F07F
:109E100086800588A44FB5F5105FA8B23D80C5F3D4
:109E200009034FEA95226BD2002A73D0013A072A20
:109E300070D8DFE802F0906F9E57776F6F04013B98
:109E40004D2B67D8DFE813F05802980286026600AF
:109E50007F0262025D0455044D044604E202BE0224
:109E6000A50201033A0435042F0429041D03170336
:109E700007039A0386037A036C0366035E034A03AF
:109E80006600660066003B03660441022B02220264
:109E900066006600190213020E021D040C04FB0387
:109EA000F403EC03CB03A303F002E00166006600B9
:109EB0006600660066006600660066006600660072
:109EC0006600660066006600660066006600660062
:109ED0006600660066006600660066002F03660086
:109EE00066005102013B082B14D8DFE813F0E100B3
:109EF0008300040113001300130013001300F80083
:109F00003F2A07D12146184609AAFFF7D5FE163089
:109F10001FD1388801210FF0DFFA0FB0F0BD00200B
:109F20000FB0F0BD052BF5D1A368042109A81D8849
:109F3000FFF7B2FE0446E11CA8B204F0A5F8A4F8AD
:109F400001502070002840F0F183E3785B425BB25F
:109F5000E3700998E1E7062B00F0EE831D2BD9D1C1
:109F6000A368188803F096FF014638880FF0B4FA0A
:109F7000D3E7352B24D82C2B0AD8012B00F0D9831A
:109F8000032BC7D1204609A9FFF7D2FD0998C4E7E2
:109F90002D3B082BBED801A252F823F0E3A100000C
:109FA000159F0000159F0000159F000095A100005F
:109FB000159F00006FA10000159F000015A1000073
:109FC0007B2B00F0CC837C2B0FD1A3681D88598894
:109FD000284604F093F80321044609A8FFF75CFE25
:109FE0000470A0F80150099897E7632B92D1A268FA
:109FF0002E4B83E1412109A8FFF74EFE00210446C4
:10A00000402200F8011B0FF0C8F9E2786378E57B85
:10A01000207CE17D94F806C0E77A94F8216062F034
:10A020007F0243F02003E2706370A27E637F45F0FD
:10A03000280540F0220041F0040162F0080243F0DC
:10A040000F03E57394F822502074E17594F823000F
:10A0500094F82410A276637794F8282094F8273097
:10A0600065F00F0560F0060084F822506CF03F0C9C
:10A07000FF2567F01B0746F0300641F07F0142F0F4
:10A08000040263F07F0384F806C0E77284F821605D
:10A0900084F8230084F8241084F8282084F82730DA
:10A0A000E5762577099838E7603B002038090020DD
:10A0B000092109A8FFF7F0FD034600220B204FF00D
:10A0C000FF316FF00E0505241A70587018715D711C
:10A0D00009989C719A70DA70D97119721DE707217D
:10A0E00009A8FFF7D9FD0146002001F8010BFFF791
:10A0F000D1F9099811E7092109A8FFF7CDFD002141
:10A100000446082200F8011B0FF047F96023099864
:10A11000637102E7B54B1B68002B40F31883B44B07
:10A120001B68E3B1A66837783C46002F00F02C830B
:10A130000024B048224608E001888B42A1EB0305C9
:10A140000DD8BA42058000F01F8306EB820301326E
:10A15000B3F80110B3F803301C440029ECD00121FE
:10A1600009A8FFF799FD122303700998D5E6A368A3
:10A17000012109A8B3F803401D88FFF78DFD9B4B13
:10A180001A68002A40F0E7821A2DECD96442099837
:10A190001C60C2E6A368954C1D78012109A8FFF751
:10A1A0007BFD2368002B00F0D682914A1268002ABA
:10A1B00040F0D1820270002D00F0F782012DD2D143
:10A1C000002B3FF7C6AE8C4A8C4B8A4800211160A9
:10A1D000022219600FF0E1F8236809985B422360BE
:10A1E0009BE6A368042109A81D889E78FFF754FD0B
:10A1F000A9B20446C31C32460220FFF789F9207039
:10A200000998A4F8015088E6A36899781D88B3F8E6
:10A210000540CE0703D5DA7842F00702DA708A07E4
:10A2200003D51A7942F007021A71D9781B7941EAED
:10A23000030212F0F80F40F0C7824E0700F0BF8211
:10A240005A0700F0BC8214F003021CBF04F1FF3473
:10A2500004F00102284603F0CBFE014638880FF0D7
:10A260003BF95AE607F06CF9FFF71EFC55E6A068CB
:10A2700007F05EFDFFF718FC4FE6A06800F117023B
:10A28000C11D07F097FCFFF70FFC46E6A36859884D
:10A29000188803F071FEC0B2FFF706FC3DE6052109
:10A2A00009A8FFF7F9FC0AA904460DF1220003F002
:10A2B00057FEBDF82230A4F801300022BDF8283046
:10A2C00022700998A4F8033027E6A3681D889A88AD
:10A2D0005988284603F0FAFD0446032109A8FFF730
:10A2E000DBFC0470A0F8015033E6A068C17907F0E8
:10A2F00003FEFFF7D9FB10E6A268414B11685268D4
:10A300005A6019600020FFF7CFFB06E6A4682179A8
:10A31000208801290AD06388984200F24B821F28C6
:10A3200040F24882B3F5804F00F24482A57BA379C6
:10A3300062790295657B01950734009402F072FC06
:10A34000FFF7B2FBE9E5A1680120FFF7C1F8FFF7CD
:10A35000ABFBE2E5092109A8FFF79EFC00210446BA
:10A36000082200F8011B0FF018F8FF2149220123F1
:10A370006170A270E370ECE5042109A8FFF78CFC82
:10A3800007210022C17002701B2141708270099860
:10A39000C3E5A468B4F813506188637922792088F2
:10A3A0000495B4F811500395B4F80F500295257B2D
:10A3B00001950634009406F059FB014638880FF0E9
:10A3C0008BF8AAE5A3681878002800F0E9815B788B
:10A3D000002B00F0E5810B490B4A00230B60136052
:10A3E00002F046FFFFF760FB97E500BF4C2400201A
:10A3F000B0230020442400204824002040240020D2
:10A4000008000020B4230020B8230020A46863794A
:10A41000B4F80320B4F801102078A4790094F7F779
:10A42000EFFAFFF741FB78E5A3681A78D10744BF3C
:10A4300007215970970744BF07229A709978587876
:10A4400003F0CCFDFFF730FB67E5304606F016FD64
:10A45000FFF72AFB61E5A368082109A81D88FFF71B
:10A460001BFC0446E11CA8B203F0BEFC2070099856
:10A47000A4F8015051E5A06806F046FDFFF714FB73
:10A480004BE5A2681189538810880291D188019107
:10A49000928800920022114603F01CFC0146388885
:10A4A0000FF01AF839E5032109A8FFF7F5FB01467B
:10A4B000002301F8023B0130FFF73AF849E5A268B2
:10A4C0001189158853880291D18801919288009250
:10A4D00028460022022103F0FDFBFDE6092109A820
:10A4E000FFF7DAFB0346FF2200213F20D8701970E6
:10A4F00003205A709A709871D971099819721A715B
:10A500005A710AE5A3681D8800222846062106F034
:10A51000EDF9E1E6A26832F8025B00212846F6E791
:10A52000A268114602F10C0331F8020B0A3206F060
:10A5300015FD014638880EF0CFFFEEE4092109A889
:10A54000FFF7AAFB002300F8013B082108F054F9AB
:10A550000998E2E4A0680AAA00F1100100230AF0B9
:10A56000B9F9112109A8FFF797FB002300F8013B77
:10A570000AA910220EF0E6FE0998CEE4A368188816
:10A5800003F06CFC014638880EF0A6FFC5E4A36812
:10A59000052109A81D88FFF77FFB0446221DA8B2EC
:10A5A000E11C03F0FDFCE27823792070002A92FA86
:10A5B000A2F2B2FA82F208BF4FF0FF32002B93FAF8
:10A5C000A3F3B3FA83F302F1010208BF4FF0FF33A4
:10A5D000E27001330998A4F8015023719DE4092128
:10A5E00009A8FFF759FB0AAB04460DF122020DF151
:10A5F0001E0008A903F0CAFCBDF82030BDF81E20DB
:10A60000A4F80120A4F80330BDF82230A4F80530E6
:10A610000022BDF8283022700998A4F807307CE4A5
:10A62000A368188806F0EEFF0020FFF73DFA74E4F7
:10A63000A368187806F0CAFFFFF736FA6DE4A16840
:10A6400007220AA80EF07EFE072109A8FFF724FBC7
:10A650000446611C0AA807F033FC207009985CE4EA
:10A66000A16807220AA80EF06DFE072109A8FFF7CE
:10A6700013FB0446611C0AA807F000FC207009982F
:10A680004BE4022109A8FFF707FB044606F056FF3A
:10A6900000236070237009983FE4A06806F0D0FEA4
:10A6A000FFF702FA39E4A06807F022FAFFF7FCF995
:10A6B00033E406F097FEFFF7F7F92EE4022109A82C
:10A6C000FFF7EAFA00230370044606F089FE607083
:10A6D000099822E4A3681878F6F78EFEFFF7E4F9EC
:10A6E0001BE4A16811F8010B02F0E0FCFFF7DCF9B4
:10A6F00013E4A16811F8010B02F084FCFFF7D4F910
:10A700000BE4022109A8FFF7C7FA00220270427089
:10A71000099802E4A3681D889A780023CDE90133E3
:10A7200028460093022103F0D5FAD5E57F23E37094
:10A730000FE4A268274BE1E5A3689978188803F035
:10A7400073FB014638880EF0C7FEFFF7E6BB012118
:10A7500009A8FFF7A1FA0C230370FFF7FABBA3685F
:10A760001D880AA9284603F0A5FC0521044609A86E
:10A77000FFF792FA0470A0F80150BDF82830A0F855
:10A7800003300998FFF7C9BB134A144913680868D6
:10A790002344136000210EF00DF80998FFF7BDBBAC
:10A7A0000F4B4FF0FF321A601AE6002BBFF60BADCD
:10A7B000FFF7CFBB1220FFF777F9FFF7AEBB1221EF
:10A7C0000EF08AFEFFF7A9BB11210EF085FEFFF700
:10A7D000A4BB00BF00000020402400203C24002037
:10A7E000B423002083890022032B0A6041D92DE97C
:10A7F000F04105460E46083004210EF0D0FEAB892C
:10A800004788B0F80080BB420AD303F0E9F94FEA69
:10A810001833044618B39A0802D1D3B1012B03D0E0
:10A820006FF01500BDE8F081027963F30102027157
:10A830006771A9683A46E01D0EF084FD2146C8F311
:10A840000B0003F0D9F90028ECD0204603F0CEF934
:10A85000E6E70379022262F301030371E8E7134B91
:10A860001968034601F00072134305D16FF03600FA
:10A87000D8E76FF0150070474FF0FF334FF0FF320D
:10A880000120FCF741FF0221306008300EF067FE26
:10A8900001241A22027044703068214608300EF0FC
:10A8A0005EFE03466FF036001C70BBE70000002020
:10A8B000064B1B6830B403F01004002554EA05036E
:10A8C00001D130BC704730BCFFF7CEB9000000208A
:10A8D00070B5044670B90E4D0E480F492E6830F819
:10A8E00014200B683244013B2A60002220F8142017
:10A8F0000B6070BD094A0A490A4840F64C730DF0D6
:10A90000C2FF404080F311884FF0030002DFE2E70E
:10A910004024002044240020B023002044A801004B
:10A9200080A801008CA70100037F03F00303013B13
:10A93000012B70B50DD92E4A2E492F4841F24713ED
:10A940000DF0A1FF404080F311884FF0030002DFBB
:10A9500070BD044601F1080528460421E6880EF082
:10A96000FEFD237F03F00303022B0CBF46F40053CC
:10A9700046F480530380617F418028460EF0EFFD4E
:10A98000627F04F11F010EF0DDFC1C4B1A68002AE7
:10A99000DEDD1B4C1B4923680968591A914217D206
:10A9A0000133236036B9184A32F81630013322F8E1
:10A9B000163070BD0E4A15490F484FF48A530DF0FA
:10A9C00062FF404080F311884FF0030002DFEAE7A6
:10A9D000074A0F49084841F23A130DF054FF40402E
:10A9E00080F311884FF0030002DF2368D8E700BF2F
:10A9F00044A801000CA801008CA701004C240020F1
:10AA000048240020402400204424002080A8010085
:10AA10004CA901002DE9F04F0579C788022D0446A5
:10AA200089B00E4600F11C0011D0043D0C2D57D802
:10AA3000DFE815F026015600560056005600560075
:10AA4000CF00CD0166008800A100B7002700E37F9A
:10AA5000033B122B00F2CA81DFE813F05C02C8014D
:10AA6000C80146025202C8011F02C801C801EB0119
:10AA70000E02C8012802C801C801C801C801CB01E3
:10AA8000CB01784B586800210A4600F0005313436D
:10AA900033D0754B18680B4600F4006213432CD07A
:10AAA000052230460C21FFF711F8237F0370A0F830
:10AAB0000170627F002A92FAA2F3B3FA83F308BF0F
:10AAC0004FF0FF330133C370A27F92FAA2F3002A42
:10AAD000B3FA83F308BF4FF0FF33013303710CE087
:10AAE00041F25203614A624962480DF0CCFE404097
:10AAF00080F311884FF0030002DF09B0BDE8F08F4A
:10AB0000584B586800210A4600F000531343F4D014
:10AB1000554B18680B4600F004021343EDD0092290
:10AB200003213046FEF7D2FF237F0370E18B228C96
:10AB3000638CA0F80730A0F80170A0F80310A0F80B
:10AB40000520DAE7474B59680024224601F4004308
:10AB50001343D2D00836022130460EF000FD0346E2
:10AB60003022032130461A7059700EF0F8FC047040
:10AB7000A0F80170C1E7404B1968002301F40002FE
:10AB80001343BAD00836022130460EF0E8FC0346E3
:10AB90005722022130461A7059700EF0E0FC0780EF
:10ABA000ABE7304B586800210A4600F000531343CE
:10ABB000A3D02D4B18680B4600F4002213439CD001
:10ABC000304603221421FEF781FF0780237F837024
:10ABD00093E7257F002D00F0CD81224B59684FF07F
:10ABE0000008424601F00053134386D01E4BD3F8B1
:10ABF00000C040F201210CEA0102434613430CF469
:10AC0000007041463FF479AF002D40F0C6811B4AE9
:10AC100013680133136050EA010304F11F08304642
:10AC200040F0638212220121FEF750FF0570A0F868
:10AC30000170637FC370A37F03F0010306460371B5
:10AC40004146062205300EF07DFBE38E618EA28E1A
:10AC5000A6F80D20A6F80B10A6F80F3094F838309F
:10AC600073744AE7000000200800002044A8010097
:10AC70000CA801008CA7010038090020B023002097
:10AC8000CE4A237E257F94F81A9094F81BA092E870
:10AC900003005B420A0C5BB26F060690ADF81C1015
:10ACA0008DF81E20059300F15D81C54B5868002189
:10ACB0000A4600F00053BAF1000F40F08D811343B3
:10ACC0003FF41BAFBF4B1968534601F00202134318
:10ACD0003FF413AFDFF8FC82D8F80020002A3FDBF6
:10ACE00004F11E0B16D0B84D574606222946584689
:10ACF0000EF018FB38B9227F15F8011CC2F3801042
:10AD0000884200F03B82D8F800200137974205F1D5
:10AD10000805EADBAD4DAE4F2A6807EBC202594683
:10AD2000901C06220EF00EFB2A68217FD8F8003016
:10AD300007EBC200C1F380114170207F012100F0B8
:10AD40000F0081400F2B07F8321000F31482591CBA
:10AD50000A46C8F800102960102A04BF00232B609F
:10AD6000237F03F00F03012B00F00282637FA3F126
:10AD7000060A5FFA8AFA0533DAB2574602213046EC
:10AD8000FEF7A4FE01230370237F08AA03F00F033C
:10AD90001344054613F8083C437006F0CFFB814589
:10ADA00080F0DB814846EA1CA91C06F083FBAB78E7
:10ADB0000233AB7005F10A0685F809A004F12401FD
:10ADC00030463A460EF0BEFA059BF35595E67C4BAD
:10ADD0001968002301F0100213433FF48EAE32468F
:10ADE000394609B0BDE8F04FFEF73EBF41F21B13F4
:10ADF00078E6734B586800210A4600F0005313436D
:10AE00003FF47BAE6F4B18680B4600F040021343D3
:10AE10003FF473AE30460A220721FEF757FE078043
:10AE2000A38C4380E38C8380238CC380638C038159
:10AE300063E6634B1968002501F400622B46134357
:10AE40003FF45BAE0836022130460EF088FB034625
:10AE50000C2208211A70597030460EF080FB0570E4
:10AE6000A0F8017094F82030C370B4F821308380CA
:10AE7000B4F82330C38040E6514B1968002301F039
:10AE8000800213433FF439AE94F82000324639462D
:10AE900009B0BDE8F04FFEF731BE0B463A46014619
:10AEA000002009B0BDE8F04FFEF7A8BE444B58683B
:10AEB00000210A4600F00053134364D0414B186848
:10AEC0000B4600F0200213435DD030460A220621D3
:10AED000FEF7FCFD0780238C4380638C8380A38C6A
:10AEE000C380E38C038108E6354B1968002001F02C
:10AEF0008002034613433FF400AE32463946C7E7AB
:10AF000094F820300E2B7FF4F8AD0B463A46002122
:10AF10001A20C6E72A4B586800210A4600F0005361
:10AF200013433FF4EAAD274B18680B4600F01002BC
:10AF300013433FF4E2AD30460C220521FEF7C6FD77
:10AF400004F120010546082220F8027B0EF0FAF9F0
:10AF500005F10A0004F12801022209B0BDE8F04F12
:10AF60000EF0F0B90021084604F11E034A4606F02F
:10AF700061FF9AE6A07F04F12503FF2204F11F017F
:10AF800006F058FF29E60023CDE901333846009347
:10AF90001A22022102F09EFEAFE550EA010340F0C2
:10AFA000D080122201213046FEF790FD0446414632
:10AFB00012220EF0F2F925709FE500BFB0A6010045
:10AFC0000000002008000020BE230020B82300203D
:10AFD000BC230020B423002013433FF48EAD7F4BED
:10AFE00018680B4600F4806213433FF486AD237F5C
:10AFF00003F00F03012B0CD0794A7A497A4840F6C6
:10B00000DD330DF040FC404080F311884FF0030029
:10B0100002DFDFF8E481D8F80020002A42DB04F1E7
:10B020001E0A16D0714D00270622294650460EF002
:10B0300079F938B9227F15F8011CC2F380108842D3
:10B0400000F0BB80D8F800200137974205F10805D1
:10B05000EADB674D674F2A6807EBC2025146901C36
:10B0600006220EF06FF92A68207FD8F8001007EB4F
:10B07000C20CC0F380108CF8010094F81CC00120B1
:10B080000CF00F0C00FA0CF00F2907F8320000F357
:10B09000918001310A46C8F800102960102A04BFC7
:10B0A00000232B6011220B213046FEF70FFD0123F8
:10B0B00003704370054606F041FA81456FD2484659
:10B0C000EA1CA91C06F0F6F9AB780233AB70237FBB
:10B0D000C3F3C0136B7204F12401062205F10A00C8
:10B0E0000EF030F9059B2B7407E51E220A21FEF7AE
:10B0F000EDFC0570A0F80170637FC370A37F03713E
:10B1000006464146062205300EF01CF9062204F1DF
:10B110002B0106F10B000EF015F9062204F12501B2
:10B1200006F111000EF00EF9E38E618EA28EA6F8E4
:10B130001920A6F81710A6F81B3094F8383073774A
:10B14000DBE41E220A213046FEF7C0FC04464146DD
:10B150001E220EF022F92570CFE4237FC3F3801363
:10B16000AB70062204F11E01E81C0EF0EBF821E69C
:10B1700000270B2202E601322A60EDE51D4911F895
:10B18000373002F00F0223FA02F0C0073FF5B5ACEA
:10B19000012000FA02F2134301F83730E0E5237F83
:10B1A000C3F38013AB70062204F11E01E81C0EF0FD
:10B1B000C9F88CE701322A6070E70E4810F8373082
:10B1C00002F00F0223FA02F1CD073FF596AC012100
:10B1D00001FA02F2134300F8373063E70800002059
:10B1E00044A8010080A901008CA70100BE23002013
:10B1F000B8230020BC230020B423002070B500F148
:10B2000008040E462046022115460EF0A8F9034612
:10B21000132205211A70597020460EF0A0F901235F
:10B220000370A0F80160A0F8035070BD0379022BF1
:10B2300008D0043BDBB20C2B01D900207047054A33
:10B24000D05C7047037F03F00303032B0CBF042083
:10B2500005207047A8A90100034B002102460846BB
:10B260001A60FEF765BC00BF3C24002007F0C4BA9A
:10B2700008B5002309F02EFB002008BD10B50446D8
:10B2800007F0DCFA70B907F051FFE0B908F04EFCA6
:10B2900050BB08F003FD002837D12046BDE8104020
:10B2A0000CF044BF224A2349234840F22D530DF0AD
:10B2B000EAFA404080F311884FF0030002DF07F004
:10B2C00035FF0028E2D01A4A1A491B4840F232538F
:10B2D0000DF0D9FA404080F311884FF0030002DFEF
:10B2E00008F024FC0028D4D0114A124912484FF427
:10B2F000A7630DF0C8FA404080F311884FF00300B7
:10B3000002DF08F0CBFC0028C7D0094A09490A48E7
:10B3100040F23E530DF0B7FA404080F311884FF0F1
:10B32000030002DF2046BDE810400CF0FFBE00BF66
:10B33000B8A90100F4A901008CA701000CF0F6BE29
:10B340002DE9F84F2F4F0B783C780D4679789942CC
:10B350009CBFBB782B709A428346924645D05A1CBC
:10B36000294ED2B213FB04F3914208BF0022F11818
:10B370002A703AD0F35A03804FF000084FF00109C9
:10B3800022E07BB3037903F00303013B012B31D9A6
:10B3900002234B6002F02AFC2B78797838789942A6
:10B3A0009CBFBB782B709A4521D05C1CE4B213FB88
:10B3B00000F3A14208BF0024F1182C7017D0F05AF6
:10B3C000BBF80030984212D14868012820F00303EE
:10B3D000D7D808F101085FFA88F8C1F80490002B6B
:10B3E000DAD0D7E702234B60D6E74FF0000840469B
:10B3F000BDE8F88F08F101085FFA88F8C1F80490F9
:10B40000C8E700BFFC010020000200202DE9F04F3A
:10B41000A74CA84EDFF8C0B287B0D4E9000103AA58
:10B42000FCF702FB0746002840D0039B002B00F0EE
:10B430003081187804AA02A904F078FF0546002894
:10B440006AD0DDE90312BDF8083091F8009005924A
:10B45000ADF80A300DF114080DF10A0704F07CFF75
:10B460002946059ABDF80A0004F0BEFF03462846A7
:10B470001D4604F035FF012004F0A8FB01212846F9
:10B480000DB104F037FE42463946484604F04EFFFF
:10B4900005460028E2D130680CF048FED4E90001EE
:10B4A00003AAFCF7C1FA07460028BED104AA02A9E4
:10B4B0000DF1070004F020FF054600286AD0049A29
:10B4C000BDF808309DF807900592ADF80A300DF1EF
:10B4D00014080DF10A0704F03FFF2946059ABDF84C
:10B4E0000A0004F081FF034628461D4604F0F8FEDA
:10B4F000012004F06BFB012128460DB104F0FAFD98
:10B5000042463946484604F011FF05460028E2D17C
:10B5100030680CF00BFEC1E7039B05931B79013BE0
:10B520000A2B07D8DFE803F0392F061406060606B3
:10B5300006251400604A6149614840F2E3630DF05A
:10B54000A2F9404080F311884FF0030002DF64E766
:10B55000574960680022FCF76FFA5A4B0599DB786F
:10B56000594A0B703846FCF757FA30680CF0DEFD8C
:10B5700094E74F4960680022FCF75EFA0599384667
:10B5800002F066FE49E705A9384602F071FE002880
:10B5900000F0C78007B0BDE8F08F45496068002221
:10B5A000FCF74AFA059D95F82030D5F81CA07BB130
:10B5B000012B00F0B280404A4049414840F21A73E2
:10B5C0000DF061F9404080F311884FF0030002DF75
:10B5D0003E4AD17892F801C090784B1CDBB29C4572
:10B5E00008BF002398424FF0000C85F820C000F0FF
:10B5F000AC802F60107800FB01214D60D370344D7A
:10B60000AB78EA7895F800C09A422AD005F104098F
:10B6100003FB0C9CBCF1000F23D09CF820309A0750
:10B62000C3F3400703F0010858D5EA78AB7895F8E2
:10B6300000C069789A4214D00133DBB2994265D0D8
:10B640009A42AB700DD003FB0C9CBCF1000F08D0EC
:10B65000002FE2D1B8F1000F03D09CF82030DB07B7
:10B66000DBD5BAF1000F3FF4D8AE9AF80030002BCA
:10B6700079D0013BDBB28AF80030002B7FF4CDAEED
:10B68000DAF80430002B3FF4C8AEDAF80800984727
:10B69000C3E6094A0F490A4840F22F630DF0F3F858
:10B6A000404080F311884FF0030002DF039BC0E6A7
:10B6B000042A00200C2A0020B8A901000CA80100CF
:10B6C0008CA70100FC010020002A0020840000203B
:10B6D000D8000020FCA90100700200205B463A4619
:10B6E00039460120CBF808C0FCF70AFA00289CD0A4
:10B6F000284A2949294840F232730DF0C4F84040E5
:10B7000080F311884FF0030002DF8EE70023AB7057
:10B71000002AA6D0DFF89CC09AE7284604F05AFB1E
:10B7200056E71F4902466068FCF786F9059900292B
:10B730003FF473AE1B4B1C4ADB780B703846FCF7AA
:10B740006BF930680CF0F2FC67E6124A17491348AF
:10B7500040F221730DF097F8404080F311884FF0CC
:10B76000030002DF4BE70B4A11490C4840F24473D7
:10B770000DF089F8404080F311884FF0030002DF9C
:10B780009AF80030013BDBB28AF80030002B7FF4DE
:10B7900044AE75E7B8A9010000AA01008CA701001A
:10B7A000042A0020FC010020002A002018AA010021
:10B7B00008AA0100DC0000202DE9F047A14BA24DB2
:10B7C000186086B009F00AF8FCF746F99F48059022
:10B7D0009F48A04CA04A0492CDE9020503210B2208
:10B7E00002250423019200949C4A217023720621B1
:10B7F000002025742576FDF77DFC002840F0F280BE
:10B800000122002196480EF014FC06F0C3FF044606
:10B8100018B1204606B0BDE8F087924BDFF84C82A5
:10B82000914D904F181D03223421FCF763F84346D5
:10B830000322181D0821FCF75DF8EC786A78AB78D4
:10B840000134E4B2A24208BF00249C42404613D017
:10B85000FCF77EF80646384676B1FCF779F838B141
:10B860000660EA782B7802FB03535860EC70E5E73A
:10B870007E493046FCF786F87D4B0F22181D482183
:10B88000FCF738F87B4B1022181D0821FCF732F822
:10B890007848FCF75DF80446002800F0BF80764A3F
:10B8A0002046111FFCF7AAF87248FCF751F804462D
:10B8B000002800F0A580714A714DDFF8DC91DFF8B7
:10B8C000B0812046111F2E46FCF798F80C2306F88D
:10B8D000043B99F80340002799F8012099F80230B9
:10B8E0000134E4B2A24208BF00249C42304649D051
:10B8F000FCF72EF882464046BAF1000F42D0FCF722
:10B9000027F800283AD0CAF80470C0F800A099F8C7
:10B91000031099F800202B7801FB0292013BDBB267
:10B9200050602B7089F80340002BD5D107F0FCFB49
:10B93000044600287FF46DAF01F01AFA044600288F
:10B940007FF467AF08F0F0F8044600287FF461AF99
:10B9500001F0FAFB044600287FF45BAF08F09CF985
:10B96000044600287FF455AF02F0EAFB04460028A5
:10B970007FF44FAF012006F0F5FA4AE73D49504603
:10B98000FCF700F82B785F1EFFB2002BCED03D4EA7
:10B99000DFF8E090F478DFF8D8807278B37801347B
:10B9A000E4B2A24208BF00249C424846BED0FBF746
:10B9B000CFFF82464046BAF1000FB7D0FBF7C8FF71
:10B9C000013FFFB2002837D0C0F800A0F1783278EC
:10B9D0002B7801FB0262013BFF2F50602B70F4704B
:10B9E000DBD1A3E7284A294929484FF498730CF082
:10B9F0004AFF404080F311884FF0030002DFFFE66A
:10BA0000214A2449224840F21B530CF03CFF40409D
:10BA100080F311884FF0030002DF4CE71A4A1D49FA
:10BA20001B4840F214530CF02EFF404080F3118865
:10BA30004FF0030002DF32E70E495046FBF7A2FF4A
:10BA400074E700BF0C2A0020015501004556010093
:10BA5000482B0020842D002065550100282A002055
:10BA6000102A00207C240020840000201C250020B7
:10BA7000C02500203C250020082A0020002A0020A4
:10BA800038250020AC000020B8A90100F4A901006D
:10BA90008CA70100A8AC0100980000202DE9F04F10
:10BAA00087B001F067F9002840F0EF8001F024FC36
:10BAB000002840F0FC80684605F0E0F9002800F01E
:10BAC000098102F03FFB002840F01681B04BB14ED7
:10BAD000B14FB24D00245C80204606F043FAB04BD3
:10BAE00074805C807C806C800122214668460EF068
:10BAF000A0FAAC4B224621460320C3F808D0FBF73E
:10BB0000FFFF002840F006814FF0FF324FF0FF3377
:10BB100068460CF031FBA44BDFF89092DFF8888286
:10BB2000181D03223421FBF7E5FE4B460322181DA6
:10BB30000821FBF7DFFEF4787278B3780134E4B2C1
:10BB4000A24208BF00249C42484616D0FBF700FFE3
:10BB500082464046BAF1000F0FD0FBF7F9FE40B124
:10BB6000C0F800A0F278337802FB03635860F470E9
:10BB7000E2E78E495046FBF705FF8D4B0F22181D5B
:10BB80004821FBF7B7FE8B4B1022181D0821FBF74D
:10BB9000B1FE8848FBF7DCFE0446002800F0D680A2
:10BBA000854A2046111FFBF729FF8248FBF7D0FE8C
:10BBB0000446002800F0BC80804A814EDFF8F0A1E6
:10BBC0002046111FB046FBF719FF0C2308F8043B71
:10BBD000EC784FF000096A78AB780134E4B2A24205
:10BBE00008BF00249C42404620D0FBF7B1FE8346AC
:10BBF0005046BBF1000F19D0FBF7AAFE90B1CBF86D
:10BC00000490C0F800B0E9782A78337801FB02523A
:10BC1000013BDBB250603370EC70002BDBD107B01E
:10BC2000BDE8F08F63495846FBF7ACFE33785D1EE4
:10BC3000EDB2002BF3D0FC78DFF87891DFF870815B
:10BC40007A78BB780134E4B2A24208BF00249C4257
:10BC50004846E4D0FBF77CFE82464046BAF1000F2E
:10BC6000DDD0FBF775FE013DEDB200287CD0C0F8B9
:10BC700000A0F9783A78337801FB0272013BFF2D7E
:10BC800050603370FC70DBD1C9E74E4A4E494F48D3
:10BC90004FF4BF730CF0F7FD404080F311884FF074
:10BCA000030002DF01F028FB00283FF404AF454AFF
:10BCB000454946484FF4C2730CF0E5FD404080F31F
:10BCC00011884FF0030002DF684605F0D7F800281E
:10BCD0007FF4F7AE01F032FB0446002849D094F817
:10BCE000483000226FF3000384F84830626202F0AB
:10BCF00029FA00283FF4EAAE324A334933484FF478
:10BD0000CF730CF0C0FD404080F311884FF003006A
:10BD100002DFDBE62B4A2E492C484FF4E8730CF087
:10BD2000B2FD404080F311884FF0030002DFEBE6E4
:10BD3000244A2849254840F21B530CF0A4FD4040FA
:10BD400080F311884FF0030002DF35E71D4A2149D7
:10BD50001E4840F214530CF096FD404080F31188C9
:10BD60004FF0030002DF1BE712495046FBF70AFEC3
:10BD700055E7144A184915484FF4C9730CF083FD70
:10BD8000404080F311884FF0030002DFA7E700BFB7
:10BD9000FC01002084000020AC000020980000205E
:10BDA000D8000020400200207C2400201C25002018
:10BDB000C02500203C250020082A0020002A002061
:10BDC00038250020B8A90100F4A901008CA70100C2
:10BDD00028AA0100A8AC010034AC01002DE9F04F05
:10BDE00085B0CDE900015F4C5F4DDFF88491009A8A
:10BDF00000231360D9E9000103AAFBF715FE0746EB
:10BE0000002800F0A480039B58491A780198FFF796
:10BE100097FA0346002840F09180A2788DF8092017
:10BE2000E2780DF109010DF10A001E46FFF788FACC
:10BE300046EA000212F0FF020346F1D1039B197992
:10BE4000032978D14A49D9F80400FBF7F5FD49499F
:10BE50003846FBF797FD2B780B2B5DD8013346490D
:10BE600003982B70FBF78EFD2B78002BBFD0434F30
:10BE7000DFF80081FE78DFF800A17A78BB78013620
:10BE8000F6B2B24208BF00269E4240461FD0FBF7E2
:10BE90005FFD83465046BBF1000F18D0FBF758FDFD
:10BEA00088B10023CBF80430C0F800B0F9783A78B4
:10BEB0002B7801FB0272013BDBB250602B70FE70ED
:10BEC000002BDAD193E72B495846FBF75BFD2B7823
:10BED000002B8CD02A4FFE787A78BB780136F6B2E8
:10BEE000B24208BF00269E4281D02248FBF730FDB7
:10BEF000804600283FF47BAF1F48FBF729FD08B3BD
:10BF0000C0F80080F9783A782B7801FB0272013B87
:10BF100050602B70FE706AE71A4A1B491B4840F2BA
:10BF2000C2330CF0B0FC404080F311884FF00300A6
:10BF300002DF2B7892E700990B601346184605B094
:10BF4000BDE8F08F0B494046FBF71CFD4FE7E27858
:10BF500006490198FFF7F4F90346184605B0BDE815
:10BF6000F08F00BFFC01002038250020FE010020DA
:10BF7000FC2900203C250020C0250020980000203E
:10BF8000AC000020B8A9010030AA01008CA7010074
:10BF900070B55A4982B000234868019301AAFBF7A3
:10BFA0004BFD0446002850D055492046FBF7EAFCDB
:10BFB000019A1379102B0ED8DFE803F0090D090D53
:10BFC000090D0D0D0D0D1C09090909090900002BAA
:10BFD00049D002B070BD4B4A4B494C484FF44073B6
:10BFE0000CF051FC404080F311884FF0030002DF59
:10BFF00002B070BD137F95683C2B2C6842D0537FF4
:10C00000E3B1D4F8D00028B100234149C4F8D030BE
:10C01000FBF7B8FC94F8D6306FF3000384F8D63001
:10C02000002001F0A5F90446002000F071FF50EA5D
:10C030004400CED105F0F0FA02B070BD94F848206B
:10C0400063F3000284F84820EAE72E4A31492F487A
:10C0500040F22E230CF017FC404080F311884FF083
:10C06000030002DFA0E7274A2B4928484FF43F731B
:10C070000CF009FC404080F311884FF0030002DF10
:10C0800002B070BDAE68EEB1F36D0022AA6063B17C
:10C090001C4A22491D4840F28F230CF0F4FB40401B
:10C0A00080F311884FF0030002DF06F1500106F122
:10C0B0004C00FBF7A7FC054690B13068F56501F030
:10C0C00067FDA7E70F4A164910484FF423730CF099
:10C0D000DAFB404080F311884FF0030002DFD3E722
:10C0E000084A0C49094840F292230CF0CCFB40402E
:10C0F00080F311884FF0030002DFDEE7FC29002007
:10C100003C250020B8A901000CA801008CA7010063
:10C11000C0250020A8AC010088AA010070AA010077
:10C1200064AA01002DE9F04F0468AD4D83B0834649
:10C13000002C45D0AB4FDFF8DC92AB4EA046246814
:10C1400098F80430102B6ED8DFE803F0216D216DD4
:10C15000216D6D6D6D6D097E21212121210098F8E1
:10C160001C303C2B00F01881022B00F0D880E3B18A
:10C170009E494FF456733A4630460CF084FB4040DB
:10C1800080F311884FF0030002DF98F8043063B9A0
:10C1900097494FF467733A4630460CF074FB4040C1
:10C1A00080F311884FF0030002DF2B780B2B72D83D
:10C1B000013390492B704046FBF7E4FB002CBDD1C6
:10C1C0000027CBF800702B7853B38B4EDFF8348206
:10C1D000F478DFF820927278B3780134E4B2A242A6
:10C1E00008BF00249C42404668D0FBF7B1FB824662
:10C1F0004846BAF1000F61D0FBF7AAFB002859D0DE
:10C20000CAF80470C0F800A0F17832782B7801FBEE
:10C210000262013BDBB250602B70F470002BDAD16C
:10C2200003B0BDE8F08F40F2B6333A464946304697
:10C230000CF029FB404080F311884FF0030002DF2F
:10C24000002C7FF47BAFBBE7B8F8060001F0AEFC32
:10C25000836F804663B1694940F2A9333A4630465C
:10C260000CF011FB404080F311884FF0030002DF17
:10C2700008F16C0108F16800FBF7C4FB8246002856
:10C2800000F09280C8F878A0404601F081FC002CB4
:10C290007FF454AF94E75A4940F2C2333A463046ED
:10C2A0000CF0F1FA404080F311884FF0030002DFF8
:10C2B0002B787DE753495046FBF764FB2B785F1ED4
:10C2C000FFB2002BACD0504EDFF83881F478DFF8A5
:10C2D00024917278B3780134E4B2A24208BF0024FA
:10C2E0009C4240469CD0FBF733FB82464846BAF15D
:10C2F000000F95D0FBF72CFB013FFFB2002800F0A8
:10C300009980C0F800A0F17832782B7801FB0262A6
:10C31000013BFF2F50602B70F470DAD180E7D8F822
:10C320000830D3F800A0DAF82480B8F1000F73D0F9
:10C33000D8F85C300022CAF8242063B1334940F2B7
:10C3400041333A4630460CF09EFA404080F3118863
:10C350004FF0030002DF08F1500108F14C00FBF739
:10C3600051FB019070B3019BD8F80000C8F85C3015
:10C3700001F00EFC9AF848306FF300038AF8483059
:10C38000002000F0B7FD00287FF418AF05F044F955
:10C39000002C7FF4D3AE13E716494046FBF7F2FAC0
:10C3A000002C7FF4CBAE0BE719494FF46B733A4680
:10C3B00030460CF068FA404080F311884FF00300DB
:10C3C00002DF5FE712494FF451733A4630460CF0F2
:10C3D0005AFA404080F311884FF0030002DFC2E7B1
:10C3E00038250020B8A901008CA70100A8AA0100E7
:10C3F000B4AA0100C025002098000020D8AA01009E
:10C4000030AA01003C250020AC00002070AA0100E9
:10C41000A8AC01000CA801000A4940F23E333A469C
:10C4200030460CF030FA404080F311884FF00300A2
:10C4300002DF7DE70449504603B0BDE8F04FFBF74B
:10C44000A1BA00BF64AA01003C2500200148FBF707
:10C450007FBA00BF3C2500200149FBF793BA00BF1B
:10C460003C2500200148FBF773BA00BFC02500201F
:10C470000149FBF787BA00BFC0250020024B034AE1
:10C48000DB780B70FBF7C8BAFC010020002A002003
:10C49000014B18680BF04ABE0C2A002010B40D4B5B
:10C4A0009A78DC78A24209D8A11AC9B2884202D887
:10C4B000A242197809D1002010BC70475978891A16
:10C4C0002144C9B28842F6D8197810BC02FB013366
:10C4D000586870479800002010B40A4B9978DA78B1
:10C4E00018785C788A420AD04A1CD2B201FB00312B
:10C4F000944208BF002248689A7010BC7047002020
:10C50000FBE700BF9800002070B5134AD678557835
:10C510009478731CDBB29D4208BF00239C420AD072
:10C52000154615F8044B14FB06F42E1903D02853B6
:10C53000D370716070BD094A09490A4840F20C4342
:10C540000CF0A1F9404080F311884FF0030002DFA6
:10C5500000231B80FFDE00BFFC010020B8A9010002
:10C560009CAC01008CA70100086001480BF0DEBD07
:10C57000102A002010B54FF0FF320C464FF0FF3369
:10C5800002480BF0F9FD206810BD00BF102A002002
:10C59000044A13680BB118467047034610601846EA
:10C5A000704700BF74240020044A136823B19842E6
:10C5B00006BF002111600023184670477424002034
:10C5C000014B1868704700BF74240020044A1368A8
:10C5D0000BB118467047034610601846704700BFFD
:10C5E00078240020044A136823B1984206BF002132
:10C5F000116000231846704778240020014B18680A
:10C60000704700BF7824002030B5056815F1100F81
:10C6100087B00BD004460122684600210DF009FDC9
:10C620002B7C134AC5F818D06A6113B9002007B0F3
:10C6300030BD104B0022114603209C60FBF760FACE
:10C6400040B94FF0FF324FF0FF3368460BF094FDD6
:10C6500007B030BD084A0949094840F277430CF059
:10C6600012F9404080F311884FF0030002DFE8E741
:10C670003DB3000050020020B8A9010000AA01004B
:10C680008CA7010010B40D4B9A78DC78A24209D82F
:10C69000A11AC9B2884202D8A242197809D1002051
:10C6A00010BC70475978891A2144C9B28842F6D81B
:10C6B000197810BC02FB013358687047AC000020A9
:10C6C00010B40A4B9978DA7818785C788A420AD0E4
:10C6D0004A1CD2B201FB0031944208BF00224868D4
:10C6E0009A7010BC70470020FBE700BFAC00002030
:10C6F00038B50C46054603F0F9FD21462070034A83
:10C700002846BDE83840FBF787B900BF082A00205B
:10C710000122024B11460020FBF7F2B96002002013
:10C720002DE9F047194E9DF824A0F478777896F813
:10C7300002C0651CEDB2AF4208BF0025AC4521D058
:10C74000994633460F46114613F8042B02FB043476
:10C75000C4B18046102220460CF0F4FD94F820204D
:10C76000C4F810900AF0010A22F0030343EA0A0316
:10C77000089AE261C4E90587F57084F8203000204A
:10C78000BDE8F0876FF03600BDE8F087D8000020E4
:10C79000054B9A78D978187891421ABF043302FB76
:10C7A00000300020704700BFD800002030B40C4B90
:10C7B00002785C78DD78197894429CBF9A78027090
:10C7C00095420AD0531C074DDBB29C4208BF0023A0
:10C7D000037002FB015030BC70470020FBE700BF34
:10C7E000D8000020DC000020064B9978D8781A7811
:10C7F000884205D001FB0233586810B120307047E1
:10C800000020704784000020F8B5144A9378D4784B
:10C81000117855789C421FD003FB012101334C68ED
:10C82000DBB29D4208BF002393709CB10125002616
:10C830002768E0612571266003F058FD084A2070E2
:10C8400021463846FBF7E8F8064B30462A4629468B
:10C85000FBF756F92046F8BD0024FBE784000020D2
:10C86000082A002060020020F8B50568D5F8CC70D1
:10C870000646EFB1D5F8D0400023C5F8CC306CB3F4
:10C8800000214FF6FF730A22C5F8D01004F11C00F6
:10C890002271E3801E220CF080FD3C23A660384606
:10C8A00023772146FFF7EAFDBDE8F840FFF7F0BD2A
:10C8B000124A134913484FF4D7630BF0E4FF40408A
:10C8C00080F311884FF0030002DFD5F8D040D5F88F
:10C8D000CC700023C5F8CC30002CD1D1074A0A49CE
:10C8E000084840F2BC630BF0CEFF404080F3118853
:10C8F0004FF0030002DFD5F8D040C1E7F0AA0100F5
:10C9000030AB01008CA7010044AB01002DE9F041E0
:10C9100015464FF6FF7295428AB01C4618D01B7C14
:10C920000133DBB280460F462374002B61D0384EB2
:10C93000384BC6F80080002204F11C0C114601207F
:10C940009E6077603581C6F80CC0FBF7D9F838B91E
:10C9500094F8285015F0010514D00AB0BDE8F08114
:10C960002D4A2E492E484FF4C5630BF08CFF4040F2
:10C9700080F311884FF0030002DF94F8285015F07F
:10C980000105EAD1042109A805F056FF09982549B7
:10C99000254A0694A1FB0031431A01EB5303A21A66
:10C9A000224C049540F247111B0A520901FB130364
:10C9B000A4FB021202321E4905910133CDE9025552
:10C9C000CDE900552846D2B201210993FCF768FC55
:10C9D00030F00203C1D0104A1649114840F23E63BC
:10C9E0000BF051FF404080F311884FF0030002DF4D
:10C9F000B3E7094A10490A4840F21C630BF043FFB1
:10CA0000404080F311884FF0030002DF8FE700BF42
:10CA1000A02E002080020020F0AA010000AA010040
:10CA20008CA7010021F1D490B42D00202949922433
:10CA3000DDCA000060AB01005CAB0100002830D112
:10CA400038B51F4D0A7C01F11C030C46AB60E2B106
:10CA50004A696AB11B4A1C491C4840F29E630BF0AC
:10CA600012FF404080F311884FF0030002DFAB68F3
:10CA700017491848A36100226161E860104B114614
:10CA80000220FBF73DF868B938BD114BEB6001217E
:10CA90002B460220FBF734F80028F5D040F2AA63B9
:10CAA00002E0704740F2A563064A0B4907480BF0C5
:10CAB000EAFE404080F311884FF0030002DF38BDEA
:10CAC00090020020F0AA01007CAB01008CA70100BD
:10CAD00069C80000A528010000AA010000B970473C
:10CAE00010B50C46FFF76CFD84420CD0064A07498E
:10CAF000074840F25F630BF0C6FE404080F31188A8
:10CB00004FF0030002DF10BDF0AA010090AB01005E
:10CB10008CA7010030B5194C194A1C1B64091D462D
:10CB2000A2FB043414F0FF0F83B019D1A21C154BE3
:10CB30000095D2B201210020FCF702FC30F0020384
:10CB40000CD0114A114912484FF4D0630BF09BFEF0
:10CB5000404080F311884FF0030002DF03B030BD86
:10CB6000094A0C490A4840F27B630BF08CFE4040B6
:10CB700080F311884FF0030002DFD7E7B42D0020C7
:10CB8000294992243DCA0000F0AA010060AB0100CF
:10CB90008CA70100C0AB010070B51D4C656AEB6D40
:10CBA00063B11C4A1C491D4840F2D3630BF06BFE75
:10CBB000404080F311884FF0030002DF05F150017F
:10CBC00005F14C00FAF71EFF064690B12868EE65A5
:10CBD00000F0DEFF0025D4F8D0006562FFF748FCC6
:10CBE000D4F8CC00C4F8D050FFF736FCC4F8CC50D1
:10CBF00070BD084A0A49094840F2D5630BF043FE6C
:10CC0000404080F311884FF0030002DFDEE700BFF1
:10CC1000B42D0020F0AA0100CCAB01008CA70100CC
:10CC2000A8AC01002DE9F0474E4D4F4C844694F8D6
:10CC3000D6608A4695E8030082B016F00106994650
:10CC40009DF82C809DF8303000908DF8041072D142
:10CC500094F82C10208DDFF814E1154627272D229B
:10CC600017FB012702AA5244BAF1010F08F007018D
:10CC700012F808ACE25D4FEA410103F0030308BF7C
:10CC80004FF0000C0AF00F081AF00E0F41EA0323D0
:10CC900022F01F0294F8D610A4F8D4C048EA020289
:10CCA0000CBF4FF0010C4FF0000C00EA0E0065F3D2
:10CCB00042016CF3451203432385E2554A0704EB16
:10CCC0000708CBB284F8D61009D569F3C3030A99D3
:10CCD00084F8D630062204F1D7000CF033FBE25D75
:10CCE00002F00F03012B05F0010129D098F8013063
:10CCF00061F38612C3B16FF3C712E25594F87C104A
:10CD0000AD0127237D2213FB012305F0400545F0EB
:10CD10000405E5541C44637813B906221E4662706C
:10CD2000304602B0BDE8F08763F3C7120623E25530
:10CD300088F80130E2E70C26304602B0BDE8F08703
:10CD400061F38612944669F3C71C0A9904F807C078
:10CD5000062208F108000CF0F5FA0C2388F80130DF
:10CD6000CCE700BFB8A60100B42D0020F1FCFFFF06
:10CD70000020704730B54B4C94F8D630DA0785B0B8
:10CD800049D52046FFF704FC84420CD0464A474967
:10CD900047484FF4E5630BF076FD404080F311887F
:10CDA0004FF0030002DF94F82830DB0703AD35D4E1
:10CDB000022203213F4B009500200392FCF7C0FAAA
:10CDC0002946FFF7D7FB002851D13B48FFF71CFC51
:10CDD000002839D13348FFF7E7FB84420CD0324AB0
:10CDE0003249334840F24A730BF04DFD404080F326
:10CDF00011884FF0030002DF636A0BB1FFF7CCFE2E
:10CE000094F8D63000206FF3000384F8D63000F099
:10CE100095FA002840D0002005B030BD02220392D0
:10CE20000321244B009501220020FCF789FA2946B2
:10CE3000FFF7A0FB0028BBD01A48FFF7B5FB8442E0
:10CE4000E9D040F2337319E0174A1C49184840F200
:10CE500047730BF018FD404080F311884FF003003A
:10CE600002DF1048FFF7A0FB8442B8D1C4E70D48A9
:10CE7000FFF79AFB8442CED040F241730A4A0B4935
:10CE80000B480BF000FD404080F311884FF0030089
:10CE900002DF002005B030BD04F0BEFB002005B06D
:10CEA00030BD00BFB42D0020F0AA0100E0AB0100AE
:10CEB0008CA7010069C50000D02D002000AA010048
:10CEC000034A044B801A4009A3FB003080B270472C
:10CED000B42D002029499224044A0068044B801A8A
:10CEE0004009A3FB003080B2704700BFB42D002082
:10CEF0002949922438B9054890F8D63013F0010F2B
:10CF000008BF002070470020704700BFB42D0020EC
:10CF100028B9044B93F8D60000F0010070470020B8
:10CF2000704700BFB42D002050B9064B93F8D600CF
:10CF300010F0010005D093F8290000F003007047BD
:10CF400000207047B42D00202DE9F04190F82C40CE
:10CF500004EB8403C4EBC30300F11C0C03F11106C2
:10CF600005461CF8060000F00F0EBEF1010F0F463B
:10CF70000CEB060138D0904695F82B2094425FFACE
:10CF800082FE34D085F82CE0BFF34F8F95F82B202C
:10CF9000964533D00134E4B2022C1CF806002AD0A6
:10CFA0002722022312FB0433C0F34012C0F303060E
:10CFB00046EA4216C0F3801246EA821600F080006C
:10CFC00005F12B023043D618D05402310622B01C92
:10CFD0000CF0B8F93A46414606F1080006370CF065
:10CFE000B1F9777085F82C400020BDE8F08101345C
:10CFF000E4B2022CD4D102230024D5E71CF80600A9
:10D000000233D1E70A4601460148FFF79DBF00BF42
:10D01000B42D00202DE9F04190F87C4090F87BE0A1
:10D0200004EB84030546C4EBC30303F1610005F17F
:10D030001C0CA6450E4617460CEB000109D05FFA02
:10D040008EF285F87C20BFF34F8F95F87BE0724518
:10D0500027D00134E4B2022C25D02722022312FB70
:10D0600004331CF80000C0F3801005F17B0280013E
:10D0700002EB030840F00400D054B31D88F80130DF
:10D08000023108F1020006220CF05CF93246394602
:10D0900008F108000CF056F985F87C400020BDE846
:10D0A000F0810233DDE702230024DAE70A46014675
:10D0B0000148FFF7AFBF00BFB42D00202DE9F041BC
:10D0C0001C461B7C0133DBB280460F461646237498
:10D0D00083B1174D174BC5F8008000221C34114650
:10D0E00001209D60EC606F602E81FAF709FD78B930
:10D0F000BDE8F081104A114911484FF4F8730BF064
:10D10000C2FB404080F311884FF0030002DFE0E7EC
:10D11000094A0C490A484FF4FE730BF0B4FB404037
:10D1200080F311884FF0030002DFBDE8F08100BFFB
:10D13000042F0020A0020020ECAB01005CAB01003A
:10D140008CA7010000AA01000020704730B50546F9
:10D1500085B008460C46FFF71BFA84420CD02F4AD4
:10D160002F4930484FF4BB730BF08DFB404080F3E8
:10D1700011884FF0030002DF2A1D022103AD039145
:10D18000294B00950321D2B20020FCF7D9F829469B
:10D19000FFF7F0F950BB04F11C00FFF735FAB8B9FE
:10D1A0002046FFF701FA84420FD01C4A1C491D4853
:10D1B0004FF4C4730BF067FB404080F311884FF0CD
:10D1C000030002DF002005B030BD002005B030BDF7
:10D1D000124A1649134840F285130BF054FB4040A5
:10D1E00080F311884FF0030002DFD9E72046FFF7F4
:10D1F000DBF984420FD0094A09490A4840F27F13FB
:10D200000BF041FB404080F311884FF0030002DF38
:10D210000C2005B030BD0C2005B030BDECAB0100DA
:10D220002CAC01008CA7010069C5000000AA010018
:10D2300038B50E4C94F84830DB0701D5606A10B160
:10D240000C25284638BD2146FFF780FF05460028FB
:10D25000F7D194F8483060F3000384F84830FFF7C2
:10D2600049FE0028EDD104F0D7F9EAE7B82E0020F6
:10D2700080B338B51F4C94F8483013F0010135D114
:10D28000C3F341059B070AD50120FCF703F90621EA
:10D29000FAF7A8FB60B394F84850C5F3410594F839
:10D2A0003200C0F3C10004F0FBF994F8333094F875
:10D2B00032206FF30003FF2184F83330D30984F860
:10D2C000341002D0023D012D06D9BDE8384009488E
:10D2D000F4F7F6BBFFF7ACBF002004F08BFA94F82C
:10D2E000333043F0010384F83330EEE70C2038BDCF
:10D2F000122038BDB82E002008B5FFF799FF002096
:10D3000008BD00BF044A054B801A8008A3FB00300B
:10D31000C0F34700704700BFB82E0020BD86F21A48
:10D32000044A0068044B801A8008A3FB0030C0F355
:10D3300047007047B82E0020BD86F21A38B905485C
:10D3400090F8483013F0010F08BF0020704700200C
:10D35000704700BFB82E0020044A92F8483003F00E
:10D36000010303430CBF104600207047B82E002075
:10D3700088B90A4A92F8483013F001000CD092F8AC
:10D380003200526A03F00103C00903FA00F01AB137
:10D3900040F0040070470020704700BFB82E002006
:10D3A00050B9064B93F8480010F0010005D093F8EF
:10D3B0003200C0F3C100704700207047B82E002033
:10D3C00010B4D0E96C240346084664B1944227D0D7
:10D3D000D3F8BC11914218D01268C3F8B0210023D1
:10D3E00010BC03607047D3F8BC11914223D011796F
:10D3F00001F0030103290DD01268C3F8B021002207
:10D40000C3E96D2210BC0060704711460968C3F87B
:10D41000BC11E1E7D1790329DED00A29ECD1DBE7A1
:10D42000D3F8B8111268C3F8B021A14218BFC3F8ED
:10D43000B421E7D1E3E7002AE8D1D3F8B8111446C4
:10D44000F0E700BF4B070CD5810101F574709042E5
:10D4500028BF10464FF42961884238BF084680B281
:10D46000704710B400F10D0401F003000444C1F34F
:10D470004001E400CC40A3B2B3F5A47F00F1280042
:10D4800038BF4FF4A473C4009A4224FA01F128BFB4
:10D490001A468A42104638BF084680B210BC704710
:10D4A00010B50C4630B994F8DC306FF3410384F8C2
:10D4B000DC3010BD094A0A490A484FF4C9630BF031
:10D4C000E2F9404080F311884FF0030002DF94F846
:10D4D000DC306FF3410384F8DC3010BD3CAC01005C
:10D4E0007CAC01008CA7010038B5D0F8B0310446FF
:10D4F0000D461BB190F8521188070DD5D4F8B41120
:10D5000001B34ABBD4F8B8311A682A601D60C4F868
:10D51000B8512B689BB138BD94F8AB11C907EDD455
:10D52000D4F8BC118B4204BF1968C4F8BC11D4F8FC
:10D53000B411F9B1002AE5D040F25F730EE0C4F8EF
:10D54000C05138BD2B60C4F8B051002AE2D1C4E903
:10D550006D55002BDFD1F2E740F271730B4A0C4995
:10D560000C480BF090F9404080F311884FF0030015
:10D5700002DFC7E7196829601D60002AC9D1C4E924
:10D580006D552B68002BC6D1D9E700BF3CAC01001C
:10D5900090AC01008CA7010038B51348134B012251
:10D5A0004FF4E471FAF7A6F9114B0722181D242154
:10D5B000FAF7A0F90F4B042298182021FAF79AF9EC
:10D5C0000D4B0B22181D0821FAF794F90B4B0C494F
:10D5D0000C4A0D481B251D8007234FF4A4740B70C3
:10D5E00013700480002038BD182F0020142F002055
:10D5F000EC300020EC31002070320020623B002033
:10D600009D3B00209C3B0020643B00202DE9F04323
:10D61000D0F80080354983B005464FF4E4724046A7
:10D62000FAF7CCF905F14C06294606F0CFFE286D35
:10D63000314601AAFAF700FA40B32D4C4FF6FF77B6
:10D6400004F10409E17894F801C0A2784B1CDBB224
:10D650009C4508BF00239A4238D0227812FB01F281
:10D6600019EB020E32D0DDF804C029F80270DCF8A4
:10D670000010CEF804C001AA0160CCF800003146C9
:10D68000286DE370FAF7D8F90028DBD1D8F830011B
:10D6900008F5987450B100232146C8F83031FFF7DF
:10D6A00027F8FFF735F803B0BDE8F083114A1249B7
:10D6B000124840F204730BF0E6F8404080F3118802
:10D6C0004FF0030002DFD8F83001E4E7094A0C49C3
:10D6D0000A484FF4DE630BF0D6F8404080F311881F
:10D6E0004FF0030002DF00231B80FFDE182F002015
:10D6F000B00200203CAC0100A0AC01008CA70100EE
:10D7000098AC010010B50C46B0B9124B002211467E
:10D7100002209C60FAF7F4F900B910BD0E4A0F49D7
:10D720000F484FF4CF630BF0AEF8404080F3118800
:10D730004FF0030002DF10BD074A0A49084840F2D3
:10D7400071630BF0A0F8404080F311884FF00300A4
:10D7500002DFDAE7580300203CAC010028AA0100F0
:10D760008CA70100B0AC010010B50C4690B9204662
:10D77000FEF738FF84420CD00D4A0E490E484FF494
:10D78000CD630BF080F8404080F311884FF0030028
:10D7900002DF10BD064A0949074840F264630BF0F6
:10D7A00072F8404080F311884FF0030002DFDEE79B
:10D7B0003CAC0100BCAC01008CA70100B0AC010086
:10D7C00010B50C4690B92046FEF700FF84420CD0FD
:10D7D0000D4A0E490E4840F25F630BF054F840408A
:10D7E00080F311884FF0030002DF10BD064A09499B
:10D7F000074840F25B630BF046F8404080F3118825
:10D800004FF0030002DFDEE73CAC0100BCAC0100DE
:10D810008CA70100B0AC010000B9704710B50C46F0
:10D82000FEF7ECFE844210D0FEF7CAFE84420CD014
:10D83000064A0749074840F254630BF024F8404079
:10D8400080F311884FF0030002DF10BD3CAC0100F3
:10D85000C8AC01008CA701002DE9F041054626481F
:10D860000E4690461F46FAF773F8002841D003236E
:10D8700004794371D5F8B02180F808802343112141
:10D8800047720371C1711AB195F85231990710D5D9
:10D89000D5F8B4313BB3D5F8B8311A6802601860D6
:10D8A000C5F8B8010268DAB1032333700020BDE87F
:10D8B000F08195F8AB31DB07EAD4D5F8BC319A4258
:10D8C00004BF1368C5F8BC31D5F8B431002BE2D1E0
:10D8D0001368036010600268C5E96D00002AE3D197
:10D8E000C5F8C001E0E70260C5E96C00C5F8B80101
:10D8F000D9E76FF03600DAE7EC31002070B5044666
:10D9000079B190F87E200B7842F01002012680F861
:10D910007E2043F0030306254E7000200B70CD706F
:10D9200070BD2648FAF714F8002843D094F87E30EA
:10D93000027943F01003012184F87E304171D4F85C
:10D94000B03142F0030206210271C171E3B194F8D3
:10D950005221910718D494F8AB21D20714D4D4F8EB
:10D96000BC21934204BF1A68C4F8BC21D4F8B42186
:10D97000CAB1D4F8B8311A6802601860C4F8B801A6
:10D98000036863B1002070BDD4F8B421002AF0D13F
:10D990000360C4E96C00C4F8B801002BF2D1C4F8EC
:10D9A000C001184670BD1A68026018600368C4E9B7
:10D9B0006D00E6E76FF0360070BD00BFEC3100206F
:10D9C00090F85231D0F8B4219B0770B504460D464B
:10D9D00009D5002A3DD0D0F8B8311A680A6019601C
:10D9E0002B6833B370BDD0F8B011E1B190F8AB3112
:10D9F00090F8E86090F8E900864203F0010303D054
:10DA000094F8EA0003282CD0B3B9D4F8BC31994279
:10DA100045D09AB90B682B600D60C4E96D552B6831
:10DA2000002BDFD105E04AB92A60C0E96C55C0F887
:10DA3000B851C4F8C05170BD002A36D0D4F8B831FE
:10DA40001A682A601D60C4F8B8512B68002BC9D130
:10DA5000EFE7D0F8B0310B60C4F8B011002BC1D1A2
:10DA6000E7E7087900F003000328CDD1C87903283F
:10DA700001D00A28C8D1F3B9D4F8BC318B4222D0E6
:10DA800032B340F25F73144A144915480AF0FBFEA2
:10DA9000404080F311884FF0030002DFCEE70B68AF
:10DAA000C4F8BC31002AC9D1B4E72960C4E96C5577
:10DAB000C4F8B85170BD12B140F27173E3E7296048
:10DAC000C4F8B05170BD0B68C4F8BC31002AD8D17D
:10DAD0000B682B600D6083E73CAC010090AC01004B
:10DAE0008CA70100F8B5064624480D461746F9F7FD
:10DAF0002FFF00283ED0BB793979214A0446787936
:10DB00001B0443EA00230B43D6F81C1196F8DC00F3
:10DB100013430B40C3F31003C6F81C31BB7997F8CD
:10DB200005C039791B0443EA0C230B4321791343C5
:10DB3000C3F310030927082240F0010041F003015C
:10DB4000C6F8203186F8DC002171A0186771E771F2
:10DB500000210BF022FC96F81C312372492201238C
:10DB60003046A37262722146FFF72AFF03232B700F
:10DB70000020F8BD6FF03600F8BD00BFEC3100208A
:10DB8000D030FEFF0148F9F7E3BE00BF142F00209C
:10DB90000149F9F7F7BE00BF142F002002494FF4E6
:10DBA000E472F9F70BBF00BF182F002002464FF4B4
:10DBB000E4710148F9F7FEBE182F002058B908B5E6
:10DBC00002464FF4E4710548F9F7F4FE838D03B97A
:10DBD00008BD002008BD0020704700BF182F00209E
:10DBE0000148F9F7B5BE00BFEC3000200149F9F754
:10DBF000C9BE00BFEC30002000285BD1F0B5024662
:10DC000089B02E480C464FF4E471F9F7D3FE868DA7
:10DC1000E6B92B4AD778557891787B1CDBB29D42C8
:10DC200008BF0023994215D0154615F8041B11FBB7
:10DC300007F16F180ED090F93DC06E52BCF1000F85
:10DC40007C60D3700ADB002009B0F0BD6FF01500D6
:10DC500009B0F0BD6FF0360009B0F0BD838E002B27
:10DC6000F1D090F8DC3013F00204ECD143F0020361
:10DC700080F8DC30134A0690012305920393CDE926
:10DC80000144234604940094052203212046FBF717
:10DC900007FB30F00203D6D00B4A0C490C48FD2399
:10DCA0000AF0F1FD404080F311884FF0030002DFDD
:10DCB0002046C9E76FF01500704700BF182F0020FD
:10DCC00014030020A1D400003CAC01001CAD0100F5
:10DCD0008CA701002DE9F843BDF82090BDF8248001
:10DCE000BDF82870002854D10C4616464FF4E47154
:10DCF00002463C481D46F9F75DFE838D002B48D156
:10DD0000E4B1013C14F0FF0490F8702190F8711117
:10DD10004ED08A423AD090F8722102F007010329CE
:10DD200034D104F0070444F0080422F00F02144335
:10DD300080F8724180F87361184628E090F87231DB
:10DD4000D90629D590F93D30002B48DB90F8042105
:10DD500090F80531934219D190F80621A0F8089166
:10DD60000133012122F0070280F8043142F005025C
:10DD7000002380F81411A0F80A81A0F80C7180F833
:10DD80000621C0F810311846BDE8F8830C20BDE824
:10DD9000F8830220BDE8F88390F8DC30DA0703D579
:10DDA000D0F81C319B07CDD590F8702190F87111F7
:10DDB0008A42EBD1B0F87231A0F8745103F0F0034D
:10DDC000013243F0080380F87021A0F87691A0F8A2
:10DDD0007881A0F87A71A0F872310020D7E71A2074
:10DDE000D5E700BF182F0020D0B9F8B502460D4680
:10DDF0000C484FF4E471F9F7DDFD868D04466EB9E9
:10DE000000F1380784F8C4610522394628460BF032
:10DE100099FA94F8C4010028F4D1F8BD0220F8BDA5
:10DE200002207047182F0020A0B910B502460C46FA
:10DE300009484FF4E471F9F7BDFD0346808D38B908
:10DE400093F82C2183F82E41013283F82C2110BD48
:10DE5000022010BD02207047182F0020B0B908B56D
:10DE600002464FF4E4710A48F9F7A4FD838D5BB9CB
:10DE700090F8192190F818118A4205BF013280F8F4
:10DE800018210C20184608BD022008BD022070474A
:10DE9000182F0020B0B908B502464FF4E4710A48C3
:10DEA000F9F788FD838D5BB990F8252190F824114E
:10DEB0008A4205BF013280F824210C20184608BD93
:10DEC000022008BD02207047182F0020002843D1EF
:10DED00038B50D4614464FF4E47102461F48F9F771
:10DEE00069FD838D1BBB90F89A311A0721D490F8F5
:10DEF000DC20D10703D5D0F81C21920619D590F863
:10DF0000981190F899218A4217D003F00703032B48
:10DF100004D0033303F00703012B0CD8B0F8A4316D
:10DF20004BB9A0F8A451A0F8A641184638BD02206C
:10DF300038BD1A2038BD0C2038BD90F89A31A0F8B1
:10DF40009E5101326FF3020380F89821A0F8A2419C
:10DF500080F89A31002038BD02207047182F002029
:10DF6000034A044B12881B8802800B80704700BF55
:10DF7000623B0020643B0020024A034B1080198062
:10DF800000207047623B0020643B002030B41B251A
:10DF90004FF42964058015800C801C8030BC7047CC
:10DFA000C0B938B50D4614464FF4E47102460A482C
:10DFB000F9F700FD0346808D50B993F86420C2F351
:10DFC00002022A7093F86530C3F30203237038BD50
:10DFD000022038BD02207047182F0020024A034B50
:10DFE00010701970002070479D3B00209C3B002062
:10DFF000002844D1F8B50D4616464FF4E4710246A8
:10E0000020481F46F9F7D6FC838D04469BBB90F849
:10E01000AB0110F0080030D194F8DC30DB0704D5F8
:10E02000D4F81C3113F4106F27D094F8E82094F83A
:10E03000E9309A421DD194F8A83194F8A9219A4266
:10E0400017D105F00705AB00B4F8AA1143F48065B9
:10E0500007F0070345EA431306F0010643EA4623A7
:10E0600001F4794101320B4384F8A821A4F8AA31C4
:10E07000F8BD0C20F8BD0220F8BD1A20F8BD022022
:10E08000704700BF182F002080B910B502460C461B
:10E0900007484FF4E471F9F78DFC0346808D18B9F9
:10E0A00093F8C130237010BD022010BD02207047CC
:10E0B000182F0020D8B9024610B50E480C464FF470
:10E0C000E471F9F777FC0246808D70B9B2F8D2108E
:10E0D000D38D094A03FB01F3C3EB431103EB810327
:10E0E000A2FB03239B09238010BD022010BD022048
:10E0F000704700BF182F0020D34D6210D8B90246D8
:10E1000038B50E480D464FF4E471F9F753FC02465A
:10E11000808D70B9D38D40F2E24404FB03F442F2E7
:10E12000107303FB0543013BB3FBF4F3A2F8D230B9
:10E1300038BD022038BD0220704700BF182F0020D4
:10E14000FFF72ABA30B5002285B04FF4E4712B48AE
:10E15000F9F730FC0446FEF71BFA84420CD0284A3B
:10E160002849294840F285630AF08DFB404080F33E
:10E1700011884FF0030002DF03AD02220392032156
:10E18000224B009505220020FBF7DAF82946FEF71E
:10E19000F1F9F0B10023A3672046FEF705FA8442A7
:10E1A0000CD0174A1749184840F294630AF06BFBE9
:10E1B000404080F311884FF0030002DF14491548F6
:10E1C000154A002343804B801360FFF7E5F905B043
:10E1D00030BD04F11C00FEF717FA0028DAD0084A17
:10E1E0000E49094840F28E630AF04DFB404080F32F
:10E1F00011884FF0030002DFCCE700BF182F00208A
:10E200003CAC01004CAD01008CA7010069C50000C9
:10E21000B002002014030020E030002000AA01001A
:10E22000014B1888704700BF623B0020014B1888E3
:10E23000704700BF643B0020014B1878704700BF57
:10E240009D3B0020014B1878704700BF9C3B00208D
:10E250008B689B6810B493F82140E40901F108022F
:10E2600002D010BCF5F74CBA10BCF5F78DBC00BF5E
:10E270000B68DA88002A5ED12DE9F04F0D4685B093
:10E2800007464FF4E471B348F9F794FB838D0446D5
:10E29000002B40F09480286894F85211027F02F01D
:10E2A0000302032A064601F0010C2BD190F81FA0AF
:10E2B000BCF1000F00F08A8094F93D30002B01F092
:10E2C0000401C0F27B86002940F0E780BAF1020F1A
:10E2D00000F03183BAF1050F00F0A385BAF1060F03
:10E2E00000F09580BAF10D0F00F0C984BAF1110F5A
:10E2F00000F07B833D2384F82F312B6803221A71B1
:10E3000000200AE062B9BCF1000F03D03D2384F87D
:10E310002F31286803230371002005B0BDE8F08F7A
:10E32000BCF1000FF8D03D2284F82F212A68032188
:10E3300018461171F1E703221A710020704794F812
:10E34000AA318A4243F0030384F8AA3112D1B4F807
:10E35000AA3194F8AC118048184001F007039B00E3
:10E36000C1F3021143EA4113013A034384F8A9219E
:10E37000A4F8AA3194F8AA2196F8213096F8201032
:10E38000C2F38200034001EA52119B0043EA4113A9
:10E3900002F00302134313F01C0F84F8AA3102D0D9
:10E3A00013F0E00F05D194F8AA3103F0030384F8C9
:10E3B000AA3194F8AB3143F0010384F8AB312B68F8
:10E3C000032200201A7105B0BDE8F08F00F11C0295
:10E3D000BAF1190F1FD8DFE81AF0C300BA02AE0273
:10E3E0009B0418051F053E057A026A023502E70103
:10E3F000610522045204E303CE033D030803EF0248
:10E40000E90388008800F503AA0167013201737FE0
:10E41000012B00F02F855148F9F79AFA002800F0F7
:10E420004986022302794371D4F8B03180F808A0FC
:10E4300042F0030207210271C17103B394F8522123
:10E4400091071CD494F8AB21D20718D4D4F8BC217E
:10E45000934204BF1A68C4F8BC21D4F8B4219AB915
:10E460001A68026018600368C4E96D00002B00F0B0
:10E47000BD8503230020337105B0BDE8F08FD4F8CB
:10E48000B421002A00F0B685D4F8B8311A680260C9
:10E490001860C4F8B8010368E8E7BAF1020F00F0A9
:10E4A0004A82BAF10B0F00F0AC85BAF1040F7FF489
:10E4B00011AF737F0D2BAED1082206F1200104F1BC
:10E4C000F6000AF03FFF06F12801042204F19C0047
:10E4D0000AF038FF94F852312A6843F0010303210F
:10E4E00084F852310020117117E7437F092B92D134
:10E4F000BAF1140F00F0E48594F8981194F899217A
:10E50000B4F85E3001938A42B4F85C30B4F86280AB
:10E51000B4F860900091029301F0578294F89A2128
:10E52000002102F00702022A00F0E28596F81FA0FF
:10E53000BAF1150F3FF4F0AE08460849F9F722FA90
:10E5400094F89A3103F00703042B7FF4E5AE6FF0E3
:10E550000F00E2E6182F002003FBFFFFEC31002044
:10E5600094F93D30002BBFF656AF437F0C2B7FF460
:10E5700052AFB0F82900E38EC31A1B0401F1D0801A
:10E5800094F8E83094F8E9209B1A03F00303022B77
:10E5900001F00F81E14B1A68002A01F0718196F8B1
:10E5A000203084F81431B6F8211094F8063140F286
:10E5B000E24202FB01F2C4F8102196F8241096F80A
:10E5C000232042EA0122A4F8082196F8261096F8A2
:10E5D000252042EA0122A4F80A2196F8271094F88F
:10E5E000052196F82860A4F8EC0023F00703D4F87E
:10E5F000000143F00403013A41EA062184F80521B1
:10E6000084F80631A4F80C1178602B681F602B6821
:10E61000C4F8003100232B6094F8702194F8713114
:10E62000934207D094F8723103F00703042B01D111
:10E6300084F871210023A4F8CC3018466DE694F9D3
:10E640003D30002BFFF6E7AE477F032F7FF4E3AEAC
:10E6500094F8641094F8653090F820200B4303F090
:10E66000070313423FF458AE94F8E83094F8E920D9
:10E670009B1A03F00303022B3FF44EAE04F1ED00AE
:10E6800002F02AFD94F8E92094F8EC30023A0221D5
:10E6900084F8E92084F8EA102A6843F0010384F83A
:10E6A000EC300020177138E694F93D30002BBFF6AE
:10E6B000B2AE437F052B7FF4AEAE90F8201090F8F9
:10E6C000213041EA030010F0070040F0548794F82D
:10E6D000A81194F8A9318B423FF4CBAE94F8AA313B
:10E6E00003F00303022B7FF4C4AE94F8642094F883
:10E6F000AB3184F8A91160F30003114662F30611EF
:10E7000084F8AB3113F00403A4F8CC0084F864104F
:10E71000C2F302023FF40AAE2B6810211971307760
:10E72000727794F86530C3F30203B377F5E594F993
:10E730003D30002BFFF66FAE437F032B7FF46BAEB3
:10E7400094F8A92194F8A8319A423FF492AE94F833
:10E75000AA1101F00303022B7FF48BAE90F8213055
:10E7600090F82020C1F3820003409B0043F0030394
:10E7700002EA511243EA421313F01C0F84F8AA3143
:10E7800002D013F0E00F05D194F8AA3103F003038F
:10E7900084F8AA3194F8AB31002243F0010384F8E5
:10E7A000AB31A4F8CC2064E694F93D30002BBFF6E1
:10E7B00032AE457F012D7FF42EAE5948F9F7C8F8E7
:10E7C0000346002800F0768494F8522194F87E10D5
:10E7D00022F005026FF3C30184F87E1042F00502B7
:10E7E000017984F852214571D4F8B02141F0030138
:10E7F0000B201971D871002A00F01E8494F8521170
:10E80000880700F1198494F8AB11C90700F114844A
:10E81000D4F8BC118A4204BF1168C4F8BC11D4F802
:10E82000B411002901F0E380D4F8B821116819600F
:10E830001360C4F8B8311A68002A7FF41AAEC4F81D
:10E84000C03116E6437F092B7FF4E5AD90F8223006
:10E8500090F8210096F8202032491B0443EA002357
:10E860001343D4F81C0194F8DC200B430340C3F39A
:10E870001003C4F81C3196F8223096F8215096F80F
:10E8800020001B0443EA052303430B43C3F3100397
:10E8900094F81811C4F8203142F00102002384F8E2
:10E8A000DC2084F81911A4F8CC30184635E594F929
:10E8B0003D30002BBFF6AFAD737F092B7FF4ABADBE
:10E8C000311D204605B0BDE8F04FFFF70BB9737F4F
:10E8D000022B7FF4A0AD94F8711194F8703196F882
:10E8E0002020994202D00F2A00F0708594F89831C8
:10E8F00094F89911994202D0142A00F0028794F8F2
:10E90000A81194F8A9318B4202D0162A00F02E8764
:10E91000122A04BF032333718CE600BFE0300020CD
:10E92000EC310020D030FEFFBAF1070FCFD0BAF1A2
:10E93000020F40F05183737F022B7FF46CAD96F889
:10E94000203084F82F31032333710020E5E494F95B
:10E950003D30002BBFF65FAD437F082B7FF45BADEE
:10E96000B0F82550E38EEB1A180400F1D98694F81C
:10E97000E83094F8E9209B1A03F00303022B00F01F
:10E980001887052206F1200104F1ED000AF0DAFCF7
:10E9900094F8EC2094F8E930A4F8F25002206FF3D8
:10E9A0000002023B032184F8EA0084F8EC2084F89A
:10E9B000E93000203171B0E4457F012D7FF42BADAB
:10E9C000D148F8F7C5FF0146002800F073830379AA
:10E9D000457143F00303132220460B71CA71FEF701
:10E9E000EFFF03233371002097E4737F032B7FF441
:10E9F00012AD96F82030033B132B3FF63AAD01A23F
:10EA000052F823F063EF000073E4000073E40000A9
:10EA100073E4000073E4000073E4000073E400009A
:10EA200073E4000073E4000073E4000073E400008A
:10EA300073E40000FDEE000073E4000073E40000E6
:10EA400073E4000073E40000BFEE000073E4000014
:10EA5000A3EF000094F93D30002BFFF6DCAC437FC0
:10EA6000182B7FF4D8AC94F8702194F871319A4245
:10EA70003FF4FFAC94F8723103F00703042B7FF4EA
:10EA8000F8AC078C052FBAB240F26086408CB0F526
:10EA9000486F83B200F25A869A4200F25786B18CD0
:10EAA000B1F5FA7F1FFA81FC80F05086F28CA2F15A
:10EAB0000A0E1FFA8EFE40F67649CE451FFA82F8FE
:10EAC00000F244860CFB033CBCEB880F80F03E86D2
:10EAD00096F828E07345C0F039860023A4F87A211F
:10EAE00084F87CE1A4F87471A4F87601A4F8781194
:10EAF000A4F8CC3096F82A1096F8293094F87221B0
:10EB000043EA0123A4F87E3196F82C1096F82B30B6
:10EB100043EA0123A4F8803196F82E1096F82D30A0
:10EB200043EA0123A4F8823196F8301096F82F308A
:10EB300043EA0123A4F8843196F8321096F8313074
:10EB400043EA0123A4F8863196F8341096F833305E
:10EB500043EA0123A4F8883196F8353096F8360058
:10EB60002E68012143EA002361F30202A4F88A31EE
:10EB700084F872217DE4437F182B7FF44CAC634F03
:10EB80003B68002B00F069829C4200F06682011D08
:10EB9000202320460F2205B0BDE8F04FFEF75CBEF3
:10EBA00094F93D30002BBFF687AE34E4437F012B50
:10EBB0007FF431AC00230322A4F8CC301846327124
:10EBC000FFF7ABBB437F032B7FF425AC94F93D30BB
:10EBD000002BC0F2578394F8A92194F8A8118A4217
:10EBE00007D094F8AA3103F00303013B022B40F253
:10EBF000928594F8E83094F8E9001B1A03F00303B7
:10EC0000022B00F0268594F8700194F87131984237
:10EC10003FF495AB311D20462A231622BBE7457FE2
:10EC2000062D7FF4F8AB94F82631DF0740F1A1837D
:10EC300013F002037FF41DAC94F82421A4F8CC3027
:10EC400084F8252196F8203084F8273196F8221090
:10EC500096F8212094F8263142EA0122A4F82821CE
:10EC600096F8232096F8241043F0020342EA01228A
:10EC7000A4F82A2184F826310020FFF74EBB737FC9
:10EC8000022B7FF4C8AB94F8E83094F8E9209A425C
:10EC900004D094F8EA20032A00F04A8594F8A801E9
:10ECA00094F8A931834200F0F68496F8202086F883
:10ECB0002120232A12D094F8643094F8AB1184F800
:10ECC000A901C3F3020060F306136FF300010020F3
:10ECD00084F8643084F8AB11A4F8CC0094F8AB311C
:10ECE00059077FF5C6AB10233277337194F864303F
:10ECF000C3F30203737794F86530C3F30203B37769
:10ED00000020FFF70ABB00BFEC310020E0300020FC
:10ED100094F93D30002BBFF67EAB737F172B7FF449
:10ED20007AABE648F8F714FE0746002800F0C281E7
:10ED300003790D2243F003034FF0040800F10805A6
:10ED40000371427180F807800C21284603F060FDB2
:10ED50002946082204F1F6000AF0F4FA424607F1C7
:10ED6000100104F19C000AF0EDFAD4F8B031002B48
:10ED700000F0648294F85221910700F15F8294F8C8
:10ED8000AB21D20700F15A82D4F8BC21934204BFD0
:10ED90001A68C4F8BC21D4F8B421002A00F02E86E9
:10EDA000D4F8B8311A683A601F60C4F8B8713B688B
:10EDB000002B00F0718594F8EC2094F8E9300221E2
:10EDC000023B61F30102032184F8E93084F8EC206E
:10EDD00084F8EA10082206F12A0104F1EE000AF094
:10EDE000B1FA042206F1320104F198000AF0AAFAFD
:10EDF00094F85231B4F8CA20A4F8CC2043F00103AF
:10EE000084F852310020FFF788BA94F93D30002B86
:10EE1000BFF64FABFFF7FFBA94F93D30002BFFF67A
:10EE2000FAAA94F8E82094F8E9309A423FF4F3AA59
:10EE300094F8EA30032B7FF4EEAA727F012A7FF464
:10EE4000EAAA94F8EC206FF3010284F8EC20002089
:10EE50003371FFF762BA437F012B7FF4DCAA94F988
:10EE60003D30002B06DA00212046FEF747FD002842
:10EE70007FF453AA94F8523123F0030384F85231FB
:10EE800094F852315E077FF5D5AB2A686FF38203A1
:10EE90000D2184F852311171FFF7CCBB437F012B58
:10EEA0007FF4B9AA94F93D30002B80F2AE8094F83B
:10EEB0007E306FF3041384F87E30FFF7DABA94F8EB
:10EEC000982194F8993193423FF4D3AA0023092161
:10EED00084F89921A4F8CC307177B4F85E20B4F8A6
:10EEE0005C70B4F86250B4F8601032841522184691
:10EEF000B7847584F184F277FFF70FBA94F8712123
:10EF000094F870319A423FF4B4AA94F93D1096F8FF
:10EF100021200029C0F28C851A2A00F0D38594F8AC
:10EF2000722102F00701042900F0938513077FF591
:10EF3000A0AA96F8213033770C223271E38DB4F811
:10EF4000C620218EF38303FB02F27D2303FB02F331
:10EF500031844FF47A720020B3FBF2F37384FFF72D
:10EF6000DCB994F8E83094F8E9209A423FF481AA99
:10EF700094F8EA20032A7FF47CAA94F8522184F8BA
:10EF8000E93022F00302002384F85221A4F8CC30A7
:10EF900096F8212086F820200D221846F277FFF7F8
:10EFA000BCB994F8A80194F8A93183423FF461AA4E
:10EFB00096F82120232A7FF47EAE8FE600293FF4C5
:10EFC000B3ACBAF1020F3FF4B6ACBAF10B0F3FD0BD
:10EFD000BAF1030F3FF4A1AEBAF1060F7FF482A994
:10EFE000737F012B3FF43FAFFFF715BAC4F8C001A0
:10EFF000FFF73FBA0360C4E96C00C4F8B801FFF73B
:10F0000035BA437F012B7FF406AA2C48F8F7A0FC01
:10F01000034600284ED094F8520194F87E201979C6
:10F0200040F0010084F8520122F01802012084F817
:10F030007E205871FFF7D8BBD4F8B41100297FF4B3
:10F04000F3AB1A60C4E96C33C4F8B831FFF7F3BB13
:10F05000437F012B7FF4DFA929E794F93DC094F8A1
:10F06000710194F870210090BCF1000FC0F2F180A2
:10F07000824209D094F8722112F0070200F0FB825C
:10F08000043A012A40F2F78294F8E82094F8E90063
:10F09000121A02F00302022A00F0908494F8A801E8
:10F0A00094F8A921904200F0FB83311D20462A23C9
:10F0B0000F2270E56FF03600FFF72FB9EC3100201A
:10F0C000BE48F8F745FC01460028F3D094F89801B3
:10F0D00094F89921B4F85E3001939042B4F85C3012
:10F0E000B4F86280B4F860900090029340F0E2843B
:10F0F000328C1A2A40F2CD82B4F8D600824228BF60
:10F100000246B6F824C094F8DC00019BBCF11B0F4A
:10F1100034BF9E464FF01B0EC00740F1B682D4F8B4
:10F120001C01030540F1AF83B4F8D800B0F5296F96
:10F1300028BF4FF42960B0F5A47F38BF4FF4A47006
:10F140004FF4296CB6F822B0F38C0393BBF5A47F7F
:10F15000C0F0998294F864A0834528BF83461AF0D2
:10F16000040F0AF0070040F0888300F1280A4FEAF4
:10F17000CA0A40102AFA00F0584538BF584680B2F3
:10F18000039BB3F5A47FC0F07C82BCF5A47F94F808
:10F1900065A038BF4FF4A47C634528BF63461AF0CE
:10F1A000040F9B460AF0070C40F030830CF1280A4C
:10F1B0004FEACA0A4FEA6C0C2AFA0CFCDC4538BF4D
:10F1C000DC461FFA8CFC019B9E4500F0F682009BFA
:10F1D000A4F89CE1013B84F89931A4F89E2194F8AD
:10F1E0009A31A4F8A0C1A4F8A201002900F0F58387
:10F1F000052666F3020384F89A31D4F800317B6067
:10F200002B681F602B68C4F8003100232B60002995
:10F210003FF482A80B798A8143F003031522092564
:10F22000C881A1F808E02046A1F80AC00B714D7111
:10F23000CA71FEF7C5FB0020FFF76FB8D4F8B42100
:10F24000002A7FF4ADAD3B60C4E96C77C4F8B871B7
:10F25000ADE500998A4200F0058194F8722190078B
:10F2600000F00081564A5749574841F2A56309F01A
:10F270000AFB404080F311884FF0030002DF0020BA
:10F28000FFF74BB84D48F8F763FB024600283FF400
:10F2900011AF94F8AA1194F8A9E194F8A87194F820
:10F2A000AC31022060F30101774584F8AA11C3F361
:10F2B000020503F0070CC3F3021013D1C9B26CF3BB
:10F2C000840194F8ABC1B4F8CA30A4F8CC30013F43
:10F2D00060F347116FF3820C84F8A97184F8AA11C6
:10F2E00084F8ABC194F8AA1196F8213096F82070F2
:10F2F000C1F3820C03EA0C0307EA51179B0043EAAF
:10F30000471301F003010B43032784F8AA31117955
:10F310005771D4F8B03115723943172550721171F5
:10F32000D571002B00F09C8194F85211880700F1F0
:10F33000978194F8AB11C90700F19281D4F8BC1100
:10F340008B4204BF1968C4F8BC11D4F8B411002969
:10F3500000F0AA83D4F8B831196811601A60C4F8B3
:10F36000B8211368002B7FF484A8C4F8C021FFF7EC
:10F3700080B81248F8F7ECFA014600283FF49AAE3C
:10F3800094F82621037942F0010284F8262143F003
:10F3900003030C22457103710B254FF0FF336FF00F
:10F3A0000E00CA7105224872CB720B730D728A72FD
:10F3B0002046FEF705FB0323337143E4EC310020C4
:10F3C0003CAC01000CA801008CA7010094F872214C
:10F3D00094F93D1042F01002002984F87221C0F225
:10F3E000188294F8043194F8052193420ED0DA4A39
:10F3F000DA49DB4841F2297309F045FA404080F3CD
:10F4000011884FF0030002DF94F8052194F872018F
:10F41000B4F87631A4F80831052363F3020094F8B8
:10F420000611B4F87861531EC0F3C00284F80531A8
:10F430009200012384F814311A4321F007031A4380
:10F440002968B4F87A5184F8720184F80621002002
:10F450000322C4F81001A4F80A61A4F80C510A713F
:10F46000FEF75BBFB6F82080B8F1050F1FFA88F2EF
:10F470007BD9B6F822E0BEF5486F1FFA8EF174D83A
:10F480008A4272D8B6F824C0BCF5FA7F1FFA8CFA0B
:10F490006BD2F08CA0F10A091FFA89F940F6764B7D
:10F4A000D94582B261D80AFB0119B9EB820F5CD24F
:10F4B00096F828B0594558D3A4F878C1A4F87481B7
:10F4C000A4F876E1A4F87A0184F87CB196F82AE0F1
:10F4D00096F82900B4F82EC040EA0E20A4F87E0168
:10F4E00096F82CE096F82B0040EA0E20A4F8800154
:10F4F00096F82EE096F82D0040EA0E20A4F882013E
:10F5000096F830E096F82F0040EA0E20A4F8840127
:10F5100096F832E096F8310040EA0E20A4F8860111
:10F5200096F8330096F834E040EA0E20A4F88801FB
:10F5300096F8350096F83660614540EA0620A4F852
:10F540008A0100F00B8394F87221032161F3020217
:10F5500084F87221009A013A84F87121002B7EF41C
:10F56000DBAE3C601846FEF7D8BE311D20461E2398
:10F570000F22FFF710BB708CE28E821A120400F18A
:10F58000CF8094F8E82094F8E9C0A2EB0C0202F0D6
:10F590000302022A00F00D8194F8A8C194F8A92171
:10F5A000624519D094F8AA2102F00302022A13D16D
:10F5B00094F8AB2194F8EC6084F8A9C16FF30002D1
:10F5C000C2F3800C6CF341064FF0000C84F8AB21C1
:10F5D00084F8EC60A4F8CCC094F8EC20A4F8EE0019
:10F5E0009B0003F01C0343EA411302F002021343A1
:10F5F000D4F8002184F8EC307A602B681F602B6807
:10F60000C4F8003100232B60FCF766FF0546002894
:10F6100000F03C822B68D4F800215A6094F8E9206D
:10F6200094F8EC30C4F80051023A062113F01C0F94
:10F6300084F8E92084F8EA103EF46EAE94F8642071
:10F64000C3F3820363F3061284F864200020FEF7FC
:10F6500064BE94F8EA30032B7FF4DCAAFFF7D3BA38
:10F66000D4F8B41100297FF475AE1360C4E96C229C
:10F67000C4F8B82175E6311D204623230F22FFF779
:10F680008ABAC4469FE548467AE54FF4A47084469A
:10F6900058E5029A35E594F8712194F870319A4250
:10F6A0003FF40DAC96F8203086F8213094F93D20D7
:10F6B000002AC0F2C6811A2B00F0048294F872214D
:10F6C00002F00703042B7FF431AC264F3B689C42C9
:10F6D0000ED0214A2449224841F2B20309F0D3F85E
:10F6E000404080F311884FF0030002DF94F872214C
:10F6F00094F8703184F8713100233B60A4F8CC3069
:10F7000014E494F89A2184F8993142F0080384F8BB
:10F710009A31FEF78FBF011D23232046FFF77DBAE4
:10F7200003233371282384F82F310020FEF7F5BD21
:10F7300094F8522184F8E93022F00302002384F87F
:10F740005221A4F8CC301846FEF7E7BD311D204603
:10F750001E231022FFF71FBA3CAC01005CAD010074
:10F760008CA70100E030002084AD010094F8AB319B
:10F7700094F8642084F8A91123F00903114643F09A
:10F78000080362F306115F0784F8AB3184F8641054
:10F79000C2F3020240F11C81296800231020087185
:10F7A0007277337794F86530C3F30203B377FEF7CB
:10F7B00041BF032333712A23B5E7009B84F89931B5
:10F7C000029B00279A42A4F8CC7000F02681A4F88E
:10F7D00062C0002900F01C8194F89A51009BA4F8A3
:10F7E0009CE10327013B67F3020584F89931A4F8F3
:10F7F0009E21A4F8A0C1A4F8A20184F89A51A6F809
:10F8000020E0B284A6F822C0F08400E54FF4296C11
:10F81000D4E4CC4F3A6894420ED0CB4ACB49CC4882
:10F8200041F2417309F02FF8404080F311884FF006
:10F83000030002DF94F8703194F8722184F871317A
:10F8400000233B6012F008032A683EF470AD0C21DF
:10F850001A2311713377E38DB4F8C620218EF38318
:10F8600003FB02F27D2303FB02F331844FF47A722F
:10F87000B3FBF2F37384FEF7DDBE4FF429607BE443
:10F880001C60FEF78CBE10F4807F4FF4A47000F073
:10F89000BC804FF0A80C55E4C4F8C071FFF78BBAD8
:10F8A000B6F82080B8F1050F1FFA88F07FF65DAE3C
:10F8B000B6F822E0BEF5486F1FFA8EF23FF655AE5D
:10F8C00090423FF652AEB6F824C01FFA8CF0BCF559
:10F8D000FA7FCDE90100BFF448AEF08CADF80C0022
:10F8E000A0F10A091FFA89F940F6764AD1451FFAB4
:10F8F00080FB3FF63AAE019800FB0229B9EB8B0F73
:10F90000BFF433AE96F828A05245FFF42EAEBDF8F2
:10F910000C00A4F878C1A4F87481A4F876E1A4F8E6
:10F920007A0184F87CA196F82AE096F82900B4F8C8
:10F930002EC040EA0E20A4F87E0196F82CE096F83E
:10F940002B0040EA0E20A4F8800196F82EE096F8ED
:10F950002D0040EA0E20A4F8820196F830E096F8D7
:10F960002F0040EA0E20A4F8840196F832E096F8C1
:10F97000310040EA0E20A4F8860196F8330096F88C
:10F9800034E040EA0E20A4F8880196F8350096F895
:10F990003660624540EA0620A4F88A0100F0FF8044
:10F9A0008E0794F872217FF5D0AD2968022060F3AC
:10F9B0000202032084F872210871CBE594F8EA2052
:10F9C000032A7FF472ABFFF769BB0021FEF7B0BDDD
:10F9D0002B6803221A71FEF72DBE042666F302037C
:10F9E000A4F85C20A4F8600084F89A3105E411685A
:10F9F00019601360C4E96D33FEF71DBF1A683A60E1
:10FA00001F60C4E96D77FFF7D2B98446FFF79ABB50
:10FA1000A4F85C20A4F86000F1E648457FF4D7AE76
:10FA2000C4457FF4D4AE2B6803251D71FFF7EFBBEF
:10FA3000232A3FF474AAD4F89421C4F8E420FFF7F1
:10FA40006EBA232B3FF43AAED4F89431C4F8E430C4
:10FA500034E63C4F39688C4210D03B4A3B493C4825
:10FA600041F2B20308F00FFF404080F311884FF0DD
:10FA7000030002DF94F8703194F8722184F8713138
:10FA800000233B60A4F8CC30FFF750BA2E4A31492E
:10FA90002F4841F26A3308F0F6FE404080F31188A7
:10FAA0004FF0030002DFB5E5196811601A60C4E980
:10FAB0006D2256E494F89A2112F0060F3FF418AB29
:10FAC000FEF72FBD94F8043194F8052193420ED02F
:10FAD0001D4A21491E4841F2970308F0D4FE4040D8
:10FAE00080F311884FF0030002DF94F8052194F8A9
:10FAF0007211B4F87631A4F80831052363F30201DA
:10FB000094F8060184F87211C1F3C0039B0020F041
:10FB1000070043F001030343013A012584F805215E
:10FB20000020B4F8782184F80631B4F87A3184F8EA
:10FB30001451C4F81001A4F80A21A4F80C31FEF7FE
:10FB400098BC00BFE03000203CAC010084AD010057
:10FB50008CA701009CAD01005CAD0100208E5045DA
:10FB60007FF4F1AC40F2E24000FB01F142F2107090
:10FB700000FB0212B4F8C600013AB2FBF1F292B2F5
:10FB800090427FF4E0ACB4F8722102F0F00242F04F
:10FB90000102A4F872212A6803211171DAE4228E8D
:10FBA000029882427FF4FCAE40F2E24202FB0CF08B
:10FBB00042F21072B4F8C66002FB0B02013AB2FBCB
:10FBC000F0F292B296427FF4EBAEDCE72DE9F04121
:10FBD0003B4F3C4EFA7804463D1D2DE04FF4E47156
:10FBE0003046F7F7E7FE828D0346002A30D1D8F879
:10FBF00004100A79487902F00302022A33D000285F
:10FC000032D1D3F8BC2100200860002A43D0D3F8B9
:10FC1000C02102B11160C3F8C011FA78BB787978BD
:10FC20009A4205D00133DBB2994208BF0023BB7072
:10FC3000013C14F0FF0437D0BB783978934233D0BD
:10FC400013FB01F315EB03082ED0EA5A002AC5D0A6
:10FC5000D8F804100B796FF301030B714FF6FF70A6
:10FC6000FCF752FCD9E708B393F9AC010028C8DAD5
:10FC700093F8AC01012A6FF3C71083F8AC01C0D12F
:10FC80000A79022060F301020A71D3F8BC21002036
:10FC90000860002ABBD1D3F8B021C3F8BC11002AF8
:10FCA000B5D1C3F8B011B6E7BDE8F08193F8AC2147
:10FCB00042F0800283F8AC21FCF726FCADE700BFE0
:10FCC00014030020182F00203B4B2DE9F04F1A6839
:10FCD000D0F8004180F84C11824204BF00221A6023
:10FCE000828DA0F836210B2383B0064600F11C0B51
:10FCF00080F8343144B103252068214644680D71F1
:10FD0000FCF7BCFB002CF7D1D6F8B01181B3DFF8BB
:10FD1000BC80DFF8B0A0DFF8B89006F16C0707E010
:10FD2000294620463A46F7F777FED6F8B011F9B1E2
:10FD30003046FDF745FB05464046F7F709FE044609
:10FD40000028EDD11D484FF4DB635246494608F0C8
:10FD50009AFD404080F311884FF0030002DF2946EE
:10FD600020463A46F7F758FED6F8B0110029DFD101
:10FD700096F82C20124BCDF800B00532D2B20121FA
:10FD80000020F9F7DDFA30F002030CD00D4A0E49DD
:10FD90000A4840F2C56308F076FD404080F31188C0
:10FDA0004FF0030002DF4FF6FF73FF20B38503B06F
:10FDB000BDE8F04FFFF70ABFE03000208CA701003C
:10FDC00005D700003CAC01001CAD010070320020E2
:10FDD000A8AC01002DE9F041C669B28B4FF6FF7364
:10FDE0009A428AB052D090F82730F468012B054629
:10FDF00000F02881022B43D0002B00F0048194F8FE
:10FE00002F11002940F0AD80B6F82480AB8C099109
:10FE100008F101070891BFB2DBB396F92D30002B32
:10FE2000C0F2208195F826300022A4F8C420A3BB9C
:10FE3000B4F8C85025B9B4F8C650A4F8C8507DB37A
:10FE4000BD4240F21A81ED1BABB2062B4FF000050C
:10FE5000A4F8C830B58440F2FB8096F92D30AB424F
:10FE60001EDAB8F1000F40F0F380D4F8E0506B08D0
:10FE700015F0010518BF43F00043C4F8E0300FE06F
:10FE80003D2184F82F112046FFF71EFF0AB0BDE880
:10FE9000F08195F82630002B7DD00025A4F8C850BD
:10FEA000B4F8CC302BB1BB4240F2EC80DB1BA4F8A1
:10FEB000CC30B4F8D4302BB1BB4240F29280DB1B83
:10FEC000A4F8D430B4F8D02094F8E83094F8E910CD
:10FED00052B1BA4271D8B4F8CC200020A4F8D000B6
:10FEE00012B9994200F0DC805B1A03F00303022B85
:10FEF0006BD094F8042194F805319A4200F0AA805E
:10FF00000022B284DDE908430DB9424563D00132D5
:10FF100091B20BB9002C4CD0327F724FF668069626
:10FF2000002005320391CDE90100D2B2049500947E
:10FF300005970121F9F7B4F930F00203A6D0FCF7D8
:10FF40003FFB8642A2D0684A6849694840F2D243E2
:10FF500008F099FC404080F311884FF0030002DF65
:10FF600094E796F92D30002B8DDB94F8DC3013F0FC
:10FF7000020288D13D2986D0B6F82480A98C099246
:10FF800008F101070892BFB2002982D043F00203B2
:10FF900084F8DC3046E7B4F8C430002B3FF448AFB7
:10FFA000BB4240F28480DB1BB4F8C850A4F8C430D4
:10FFB00045E700296BD02346AEE75B1A03F0030345
:10FFC000D71B022BA4F8D07093D194F8EA30013BF0
:10FFD000012B8ED894E713B9002C3FF457AF294674
:10FFE0009AE7FCF779FA0146002855D00023B28B36
:10FFF000A4F8D4300E23C28003710068FCF73EFAE7
:020000021000EC
:10000000FCF746FA5EE796F86E30190704D494F8C8
:100010005231DA077FF5F3AE338CB4F8D220991D54
:100020008A42C4BFD31A063BB4F8CE10CCBF9BB2F1
:100030001346994210D0A4F8CE30A4F8D030A4F8DA
:10004000D420DCE60023A4F8D430A4F8D030D6E6DF
:10005000012525E7B28C55E7B4F8D41000297FF4C8
:10006000CEAEEAE708AA09A92846F3F745FDD4F879
:10007000B0310BB30023B384D4E620460821FFF748
:1000800023FE03E720462221FFF71EFEFEE6002D99
:100090003FF4FCAE23463FE70123A4F8D43011E738
:1000A0008B1E052284F8E93084F8EA2021E72046F7
:1000B0003E21FFF709FEE9E6FF20FFF787FDD4F8B0
:1000C000B021002AD6D1D6E91601F7F7ADFC0028F9
:1000D000D0D196F83030DB077FF5A4AE338CB384F3
:1000E000A0E600BF19D800003CAC0100D4AD01006F
:1000F0008CA70100D0F8B031002B00F0E780013967
:100100002DE9F047DFF8CC81DFF8CCA1DFF8CC9106
:100110000446CDB212E04046F7F71AFC0746002825
:1001200066D03146384604F16C02F7F775FCD4F816
:10013000B031013DEDB2002B00F0898094F8AB2185
:10014000D10703D494F85221920766D5D4F8B4218C
:1001500093427CD1FF2D7AD0D4F8B0112046FDF720
:100160002FF9037903F00303032B0646D3D1C37998
:10017000033B142BCFD801A252F823F0D901010080
:10018000D901010017010100170101001701010049
:100190001701010017010100D9010100D10101007F
:1001A00017010100170101001701010017010100EB
:1001B00017010100170101001701010017010100DB
:1001C00017010100170101000D0201000D020100DD
:1001D00094F93D30002B9EDA94F8523143F002033B
:1001E00084F852314046F7F7B3FB0746002898D110
:1001F000374840F24E535246494608F044FB4040CF
:1002000080F311884FF0030002DF8AE794F8AB31E6
:1002100043F0010384F8AB317DE71A7902F0030261
:10022000032A97D1DA79032A01D00A2A92D194F8C5
:10023000E91094F8E8208A420BD094F8EA20032AC7
:1002400088D01A681AB1D4F8B4118A422DD0BDE80A
:10025000F08794F8190194F818118842F1D194F8B4
:10026000250194F824118842EBD194F8710194F897
:1002700070118842E5D194F8990194F89811884258
:10028000DFD194F8A90194F8A8118842D9D194F843
:10029000EC30012161F30103023A032184F8E920E3
:1002A00084F8EC3084F8EA1054E7D4F8B811D4F8A4
:1002B000C001C4F8B0210A681A600B60C4F8BC31F0
:1002C00000287FF447AFC4F8C03143E7704700BF50
:1002D0008CA70100703200203CAC0100A8AC0100EA
:1002E0000149F7F74FBB00BF70320020014BD878AF
:1002F000704700BFB0020020F0B40B4B9C78DE7852
:100300001F78B4420DD0043314FB07F405461819C6
:1003100005D02E701C5B43680C8013601868F0BC1D
:1003200070470020FBE700BFB002002030B4094B4B
:100330009C781D7884420BD0043314FB05F4181903
:1003400004D01C5B43680C801360186830BC704795
:100350000020FBE7B002002010B40A4B9978DA784D
:1003600018785C788A420AD04A1CD2B201FB00316C
:10037000944208BF002248689A7010BC7047002061
:10038000FBE700BFB002002070B5134AD67855785D
:100390009478731CDBB29D4208BF00239C420AD0B4
:1003A000154615F8044B14FB06F42E1903D02853F8
:1003B000D370716070BD094A09490A4840F28C53F4
:1003C00008F061FA404080F311884FF0030002DF2B
:1003D00000231B80FFDE00BFB00200203CAC010008
:1003E00098AC01008CA70100F0B5537983B0144696
:1003F00005460F46002B33D0237903F00302032A6E
:1004000016D04FF6FF7295420AD16FF301032371A4
:10041000002621462846FCF777F8304603B0F0BDA9
:10042000C4482A464FF4E471F7F7C4FA0646F0E7E9
:100430004FF6FF739D4221D100263868844245D093
:100440000028E6D0BC4ABD49BD4840F2AE5308F092
:100450001AFA404080F311884FF0030002DFD8E71A
:10046000B54AB849B64840F29B5308F00CFA4040F0
:1004700080F311884FF0030002DFBDE7AD482A4644
:100480004FF4E471F7F796FAE379023B0646162B30
:1004900018D8DFE813F01E0102014600170017000C
:1004A000170017001700F1005A001700500017003E
:1004B000170017004D0017001700D800B0001F00EC
:1004C0002600E0003868A042BAD120469E49F7F7DE
:1004D00059FAA2E790F8AA31022262F3010380F8E8
:1004E000AA3196F93D30002B14DA984996F8642029
:1004F00096F8AA3103C942EA93030DF1080C0CE9FE
:10050000030003F00703634413F8083C63F3061287
:1005100086F8642096F8AB316FF3000386F8AB31B0
:100520008BE796F8523143F0020386F8523184E7A4
:10053000237A032B81D196F85231002223F0030352
:1005400086F85231A6F8CC2077E790F93D30002BA1
:10055000E7DB2379032243F003031721E27108222A
:100560002371617100F25511A01808F0EBFE96F8A6
:100570005331237496F8543163740C2104F1120042
:1005800002F046F9D6F8B031002B00F0AC8096F8B6
:100590005221910700F1A78096F8AB21D20700F114
:1005A000A280D6F8BC21934204BF1A68C6F8BC21C9
:1005B000D6F8B421002A00F0B580D6F8B8311A6810
:1005C00022601C60C6F8B84123683A68002B00F02E
:1005D0008780002A7FF421AF574A5D49584840F28E
:1005E000A75308F050F9404080F311884FF0030002
:1005F00002DF00206AE790F8981190F899318B4259
:100600003FF41BAF90F89A2102F00703032B05D0AB
:10061000033303F00703012B3FF654AFB6F89E31C6
:10062000A6F85C3002F00703B6F8A201A6F8600055
:10063000052B71D0B6F8A431002B5FD186F8991143
:10064000A6F8CC30F9E690F89A31022262F3020360
:1006500080F89A31F1E690F8EC3090F8641090F858
:10066000AB21C3F3820363F306116FF3000280F83A
:10067000641080F8AB21E0E690F85231B0F8CA205F
:10068000A0F8CC2023F0060390F8502180F85121E7
:1006900043F0060380F85231CFE6082204F112013C
:1006A000EE3008F04FFE042204F11A0106F1980022
:1006B00008F048FE96F85231B6F8CA1096F8502164
:1006C000A6F8CC1043F0020386F8523186F8512187
:1006D000B3E6217A132908BF1621FFF7F5FAACE635
:1006E000C6F8C04175E7D6F8B421002A7FF465AF9B
:1006F0002360C6E96C44C6F8B84166E7002161F39F
:100700000202A6F89E31B6F8A63186F89A21A6F81C
:10071000A411A6F8A23190E6042363F3020286F83E
:100720009A218AE61A6822601C602368C6E96D4433
:100730004BE700BF182F00203CAC01003CAE01008D
:100740008CA7010030AE0100EC31002054AE010056
:1007500048AE010090F8E93090F8E820934203BFDA
:10076000013380F8E83000200C20704790F84810E2
:10077000B0F84430C1F30212022A10D0042A12D079
:10078000DB080A3B9BB290F86220B0F84000D2062A
:1007900044BF043B9BB2984228BF184670479B0851
:1007A0000B3B9BB2EFE709074BBFA3F51473A3F50F
:1007B000D7739B111B11023B9BB2E4E7014B002254
:1007C0001A607047E030002000B9704708B5074A4A
:1007D000074908484FF4F07308F055F8404080F39B
:1007E00011884FF0030002DF08BD00BF60AE0100BA
:1007F000B0AC01008CA7010008B5074A07490848BA
:100800004FF4EC7308F03FF8404080F311884FF04C
:10081000030002DF08BD00BF60AE0100A4AE01000E
:100820008CA70100012800D0704710B50C46FBF7DB
:10083000C7FE844203D0BDE81040FFF7DDBF10BD06
:100840002DE9F04105468846184629461C461746BC
:10085000F1F7FAF900283AD1237C0133DBB2237493
:100860003BB31C4E1C4B3560002204F11C0C11469E
:1008700001209E60C6F804803781C6F80CC0F7F7E7
:100880003FF940B9FF20FFF7A1F92046FF21BDE85D
:10089000F041FFF72FBC114A114912484FF4CE73B3
:1008A00007F0F1FF404080F311884FF0030002DFB2
:1008B000E8E70A4A0C490B484FF4C87307F0E3FF16
:1008C000404080F311884FF0030002DFC9E7BDE824
:1008D000F08100BFE43200208803002060AE0100F8
:1008E000F4A901008CA701005CAB010070B50E46B5
:1008F0001546FDF763F9002840D004465EB990F82C
:10090000E82090F8E9309A4203D090F8EA30032BBF
:1009100026D00C2070BD90F8520110F0040012D1C6
:1009200094F8E82094F8E9309A42F2D094F8EA304A
:10093000032BEED194F8EC3084F8ED6060F3010302
:1009400084F8EC3070BD94F82C2194F82D3193424A
:10095000DFD1013384F82C3184F82E61002070BD82
:100960002946102200F25D1008F0ECFCB4F8EC30DF
:1009700003F0FC033046A4F8EC3070BD022070BDDB
:10098000704700BF00B9704708B5074A07490848D3
:1009900040F2173307F077FF404080F311884FF0A3
:1009A000030002DF08BD00BFD4AE0100B0AC0100FF
:1009B0008CA701002DE9F0410546884618462946D6
:1009C0001C461746F1F740F9002841D1237C01333A
:1009D000DBB2237473B30120FFF7F8F8012120463E
:1009E000FFF788FB1B4E1C4B3560002204F11C0CEA
:1009F000114601209E60C6F804803781C6F80CC0FD
:100A0000F7F77EF840B9FF20FFF7E0F82046FF2116
:100A1000BDE8F041FFF76EBB104A1149114840F2A2
:100A2000033307F030FF404080F311884FF003009C
:100A300002DFE8E7094A0C490A4840F2F12307F0CF
:100A400022FF404080F311884FF0030002DFC2E72D
:100A5000BDE8F081FC32002098030020D4AE0100F4
:100A6000F4A901008CA701005CAB01002DE9F04F57
:100A700089B080460393BDF8503002930020BDF842
:100A800054309DF84CA0BDF8587004938946164622
:100A9000FCF762FC002800F0A181D0F824B00546E4
:100AA000BBF1000F2ED0304600F0FAFD95F8333040
:100AB000FF226FF3000385F8333085F83420AEB1A0
:100AC000AAF10203012B40F2538195F848306AF3F2
:100AD000420385F8483002F0A5F8002840F0548120
:100AE0002846F0F7EDFF09B0BDE8F08F01F06AFC91
:100AF0000028E5D003981299324600F0BDFF85F832
:100B00003400DDE7FBF7A2FC0590002800F07B81B4
:100B1000FDF738F80446002800F0778142464B463E
:100B2000594605F11C000096F0F7A2FF95F8323007
:100B3000039A129962F3451385F83230062205F1C3
:100B40003B0008F0FFFB2F86C5F828B004F1240015
:100B5000F7F7E4F804F11C08002840F04381032172
:100B600004F1280001F048FE029BA06F049AE3857F
:100B70004FF6FF732286A385002800F0408104F120
:100B80006C0204F16801F6F739FFB4F86430AF493C
:100B900094F87E20AE4820660B4043F4887343F0FF
:100BA00001034FF0000922F007024FF01B11A4F8D7
:100BB00064307F2384F87E20E16584F8C130C4F876
:100BC0007890A4F87C90A4F83290C4F8349004F1A2
:100BD000380000F081FA94F83D3060F3050384F8A2
:100BE0003D3001210DF11F0001F006FE9DF81FE0D0
:100BF000984B208E94F83DC084F83F90A3FB0E23C1
:100C0000DB0803EB4303AEEB830E029B924AA4F88E
:100C1000C89040F2E24101FB03F10EF1050E4B1EBC
:100C200084F83EE042F2107E0EFB0733DFF848E224
:100C3000B3FBF1F30A448E44B2FBF1F2A4F8C630E0
:100C4000BEFBF1F193B200F1060E0CF03F0CA4F8DC
:100C5000CA1073454FF00601A4F8CC90A4F8D490C4
:100C6000A4F8D090A4F8D23084F83DC0A4F8C41001
:100C700002DD181A063883B20598A4F8CE3094F82D
:100C8000523194F8DCE094F8261194F87E2094F820
:100C900072C1C4F8300194F89A014FF0000923F0B2
:100CA00007032EF0030E21F0030169F3041C22F068
:100CB000180269F3C30084F85231684B84F8DCE011
:100CC00084F8261184F872C184F87E20C4F81C319F
:100CD000A4F8E89084F8EA90C4F80091A4F804918C
:100CE000A4F81891C4F82091A4F8249184F82F91C5
:100CF000A4F85091A4F87091A4F89891A4F8A49144
:100D000084F89A01FDF78CFAA4F8D600FDF78EFA64
:100D1000D4F8A821524BA4F8D8001340C4F8A83145
:100D2000FDF78AFA94F8AC3160F3020384F8AC3131
:100D3000FDF788FA94F8AC21C4F8C091030103F0E0
:100D4000700322F07802134384F8AC31C4E96E9941
:100D5000C4E96C99C5F8248094F82030C4F8189040
:100D600069F30003C4F81490E46184F820309AE633
:100D7000002000F03FFD95F8333043F001030AF006
:100D8000010A85F83330A0E66C6AE36D63B1354A39
:100D90003549364840F2213307F075FD404080F375
:100DA00011884FF0030002DF04F1500104F14C0000
:100DB000F6F728FE064600283AD02768E665D7F8F9
:100DC00030413CB32046FBF747FB3846FCF7E0FEDA
:100DD000002303206B6209B0BDE8F08F0C2009B03E
:100DE000BDE8F08F1F4A22492048972307F04BFDAA
:100DF000404080F311884FF0030002DFAFE604F1BA
:100E00007000A067BBE607206DE60598FBF724FBA2
:100E1000072068E6134A1749144840F22A3307F0BE
:100E200032FD404080F311884FF0030002DFC9E734
:100E30000C4A10490D4840F2233307F024FD40408E
:100E400080F311884FF0030002DFB6E780F8FFFF60
:100E500048014801ABAAAAAA7FC3C901FF49010002
:100E60000000FFF6D4AE0100CCAB01008CA701005E
:100E7000F4A90100A8AC0100FF5962022DE9F84372
:100E800007460020FCF75AFA28B3466A044616B310
:100E900001460020FCF75AF90546C8B93668D6F86D
:100EA000308106F59879B8F1000F18D04046FBF76D
:100EB000D3FA1C340A214FF6FF720223C6F83841D8
:100EC00086F83411A6F8362186F84C31C7F8009020
:100ED0002846BDE8F8830C252846BDE8F883074A74
:100EE0000749084840F2911307F0CDFC404080F3D9
:100EF00011884FF0030002DFD8E700BFD4AE010035
:100F0000A8AC01008CA7010070B5064600F0F0F80F
:100F10000020FCF753FE0446E8B190F93D30002B69
:100F200019DBFFF717FC054698B93146052204F195
:100F3000ED0008F007FA94F8EC2094F8E83042F05D
:100F400001020133022184F8EC2084F8E83084F8AF
:100F5000EA10284670BD0025284670BD2DE9F843EB
:100F60008846164699460746FCF728FE002863D0B7
:100F700090F8502190F851319A4204463DD190F8B2
:100F8000E82090F8E9309A4203D090F8EA30032B39
:100F900033D0FCF725FE054678B34946102204F20B
:100FA0005D1008F0CFF994F87E3013F0180327D0C5
:100FB000182B1FD14146082204F2551008F0C2F93F
:100FC000337884F85331737884F854312B790121C4
:100FD00043F003030A222B716971EA7138462946EE
:100FE000FCF70AFE30B994F85031013384F85031DF
:100FF000BDE8F8832846FCF7F9FD0C20BDE8F8832E
:101000002B79032243F00303EA711720082241469B
:101010002B716871A81808F095F933782B747378E0
:101020006B74082105F1120001F0E6FB042105F1C3
:101030001A0001F0E1FBD1E70220BDE8F88300BF10
:1010400008607047C3680268996810B40C68488AE1
:10105000E16810BC1033F3F70BB900BF10B50446BC
:10106000D0F8F420C16800F58873C08DF3F700F95B
:10107000D4F810310549D4F8F020A1FB03139B0AE2
:10108000C3F307211370517010BD00BF5917B7D1BA
:1010900000B590F93D30002B85B0BCBFD0F8E430EE
:1010A000C0F894314FF00002D0F88C3103920193D4
:1010B0004FF006020DF10B038DF80B200093B8BF23
:1010C00000F5CA72B0F87631A8BF03AA0021F2F782
:1010D000A3FE05B05DF804FB08B50349052208F03E
:1010E00031F9024B187808BDA803002064040020E1
:1010F00010B5064C01460522204608F023F920468B
:101100000521F6F7F3FD024B187010BDA80300206F
:101110006404002070B4054600781B4C02FB0111EA
:101120000A1884FB02011144491101EBC10401EBCF
:101130008401511AC8B2C20828709C5C9DF80C50FA
:1011400001F007010C4114F001041BD1B0FBF5F2D2
:1011500005FB1202D2B25D1E1E1D04F1080115F836
:10116000013F2046CCB213F0010F00F101014FEA1C
:10117000530302D032B1013AD2B2C8B28442F2D1A2
:10118000B542EAD170BC7047A7C867DDF0B52F4FF4
:101190002F4E80EA01050324280AEDB200EB8020DF
:1011A00005EB852506EA401E07EA400C07EA4500E4
:1011B00006EA45154CEA0E0C284300EB00250CEB23
:1011C0000C2E00EB05200CEB0E2C4FEA1C4CC0F350
:1011D000074040EA0C2000EB0010013C084414F0EA
:1011E000FF0485B2D8D11B486940A0FB01500D1AFD
:1011F00000EB5500400900EBC00500EB8500081A24
:10120000C0F3C40500F00706555D3541ED07C0B2D7
:101210001AD401FB03F3561EC3F30743043204F14F
:10122000080516F8011F2046ECB211F0010F00F17D
:1012300001054FEA510102D033B1013BDBB2E8B204
:10124000A042F2D1B242EAD1F0BD00BF10210200AB
:10125000408408004D91CFBA2DE9F84388461546E1
:101260000AB1FF231370174E00F0010706F10209BF
:10127000002404E0BA4214D00134082C0ED016F831
:101280003430D907C3F34002F4D4002DF4D02B78C6
:10129000FF2B08BF2C700134082CF0D1FF20BDE8D3
:1012A000F8830622414609EBC40008F03BF830B150
:1012B000002DE1D016F83430DB07DDD4E7E7E0B2EB
:1012C000EDE700BF3C3500202DE9F84F214F224DBE
:1012D000DFF88890DFF888A0A7F10208A5F1020BDB
:1012E00000241BF83430012613F0010F384606FAAB
:1012F00004F6294607F106074FF0060222D099F8B6
:10130000003063B115F8013C072B03EB830C06D8C2
:101310001AF83C3013F0040F01D0DB0612D51BF88D
:10132000343098F801E098F800C0C3F34003A340BC
:101330004EEA03034CEA060688F8013088F800609C
:1013400008F000F80134082C05F10805C9D1BDE802
:10135000F88F00BF7E3500203E3500209F3B0020E7
:10136000C43300202DE9F041DFF86080164D08F10C
:101370000107AE1C002402E00134082C21D004EB4C
:101380008403D90018F83330DA07F5D56A7895F870
:1013900000C0C3F380134FF0010E0EFA04FEA34009
:1013A00004EB440013434CEA0E0C394406EB4000B6
:1013B000062201346B7085F800C007F0C3FF082CCB
:1013C000DDD1BDE8F08100BF04350020C43300202A
:1013D00008B50020FBF7CCFFB0FA80F0400908BD4B
:1013E0000820704710B50020FBF79EFD00BBFBF7FF
:1013F000D7FF10F001001BD10E4A0F4C02EBC003C7
:101400005B78072B03EB830105D814F831306FF3B9
:10141000451304F8313012F830306FF3000302F84E
:10142000303001300828E9D1044B0020187010BD7D
:101430000C2010BD3C350020C4330020A03B002010
:1014400038B504460020FBF76FFD78B9FBF7A8FF1D
:1014500010F001050AD12078FF2809D0611C2A4626
:10146000FFF7FAFE072807D9022038BD0C2038BD47
:101470000D4B1D70284638BD0C4A02EBC0035B784B
:10148000072B08D80A4903EB830311F8334065F3AF
:10149000451401F8334012F830306FF3000302F8BE
:1014A0003030002038BD00BFA03B00203C3500207C
:1014B000C433002007282DE9F04104460D4690462C
:1014C00017D8194E04EB8403A70016F83330DB0756
:1014D0001CD52744282116F83730C3F3801301FBAD
:1014E00004612B7040460131BDE8F041062207F04F
:1014F00029BF0E4A0E490F48E92307F0C4F94040BE
:1015000080F311884FF0030002DFDAE7074A0A4947
:101510000848EA2307F0B7F9404080F311884FF0FC
:10152000030002DFD5E700BFC433002068AF01002D
:10153000ACAF01008CA70100B8AF010008207047D4
:10154000F8B50020FBF7E4FC08B10C20F8BD044618
:10155000FFF73EFF0028F8D01A4B1B4993F85020A4
:1015600093F800C093F8287093F8786093F8A0502F
:1015700093F8C8000C7064F3000293F8F01083F83D
:10158000502093F8182164F3000064F3000C64F316
:10159000000764F3000664F3000564F3000164F3DC
:1015A000000283F8C80083F800C083F8287083F82D
:1015B000786083F8A05083F8F01083F81821204653
:1015C000F8BD00BFC43300209E3B002038B505465F
:1015D0000020FBF79DFC08B10C2038BD0446FFF746
:1015E000F7FE0028F8D03DB1012D01D0122038BD02
:1015F000034B1D70204638BD014B1D70284638BD79
:101600009F3B0020034A4FF47A7303FB00F31360FF
:10161000704700BF38350020B0B10D4B1A6810B5C7
:101620004FF4004340F2E7300021E3FB02014FF4A6
:101630007A720023EFF764FDBDE8104002460B46C6
:101640000448054906F0BCBE034808F07BBD00BF56
:1016500038350020780A0020480900200D4A08B5D6
:101660000023138070B90C4B0C4A1B7800201080AB
:1016700003B908BDFBF77CFE0028FAD1BDE808409D
:10168000FFF770BE1846FBF78BFEC307EBD4FFF7DE
:101690001BFEE8E77C3500209F3B0020043500203E
:1016A0000E4A08B500231380C2070ED40C4B0D4A16
:1016B0001B780020108003B908BDFBF729FC002827
:1016C000FAD1BDE80840FFF74DBE1846FBF72CFCE9
:1016D0000028EBD1FFF7F8FDE8E700BF7C350020DC
:1016E0009F3B0020043500202DE9F84390F82A7034
:1016F000072F05460C4601F1020645D8DFF8F080B9
:1017000007EB87034FEA870918F83330190729D503
:101710009A0759D5227809EB070308EBC30342F077
:101720004002596A22703046062207F00BFE2378E9
:1017300003F00F03012B25D1B94404F1080018F878
:1017400039305B0733D495F8D6302278C3F3C00321
:1017500063F3C712227005F1D7010622BDE8F843F2
:1017600007F0F0BD90F8D6002378C0F3400060F396
:10177000861323703146F7F78DFE237803F00F03AD
:10178000012BD9D0BDE8F88390F8D6000B78C0F3D0
:10179000400060F3861323703146F7F77BFE237811
:1017A00003F00F03012BEDD104F10800CBE7237800
:1017B000282143F0800301FB078123701E31BDE81F
:1017C000F843062207F0BEBD064A074907484FF412
:1017D000137307F058F8404080F311884FF003006E
:1017E00002DF97E768AF0100CCAF01008CA70100D2
:1017F000C43300202DE9F04F824687B008F0FBFC8F
:101800004B014201B2EB000843EAD06363EB0103F2
:101810009B004FEA880243EA987312EB000843EBFF
:101820000101C90041EA58714FEAC8034FEAD338B1
:10183000CE0B48EA41480196BAF1000F17D1764B1A
:10184000D3E900014C1C08BFB0F1FF3F0FD0734B30
:101850001A68B8EB000466EB01050023944275EBAF
:101860000303ACBF4FF001094FF0000901E04FF056
:1018700001096B4EDFF8BCB1A6F12407002404EB8C
:101880008403A50017F83330DA0715D5B9F1000F36
:1018900001D1980710D42B1917F83330590735D4D4
:1018A0002B1917F833301A0719D4254417F8353097
:1018B00043F0020307F835300134082C06F12806FE
:1018C000DDD1B9F1000F04D0534B019AC3F8008069
:1018D0005A60BAF1000F3DD107B0BDE8F08F02A900
:1018E000A6F11D0007F0AEFD002840F081804D4AB2
:1018F00004EB440302EB430302A9184606223160BD
:10190000009307F01FFD009B3360CEE716F80D3CF7
:10191000454A02EB03120F320DF107030DF11700D8
:1019200012F8011903F8011F8342F9D1B11F02A86F
:1019300007F088FD0028B3D03C493D4840F216230B
:101940005A4606F0A0FF404080F311884FF0030094
:1019500002DFA5E70020FBF7CDFA04460028BBD044
:1019600090F8D6305B07B7D590F82A30072BB3D85C
:1019700090F82C5090F82B1005EB8502C5EBC202B5
:1019800002F111031C308D4200EB0306CFB207D0E9
:1019900084F82C70BFF34F8F94F82B108F4238D0FF
:1019A0000135EDB2022D31D02721022211FB052293
:1019B00004F12B01C35C885CC3F34017C3F303033A
:1019C00043EA471320F03F0003438F188B5420460F
:1019D0003946FFF789FE727807F10800063A06F1EA
:1019E000080107F0AFFC73787B7084F82C5073E724
:1019F0000E490F4840F223235A4606F044FF404068
:101A000080F311884FF0030002DF70E70222002507
:101A1000CEE70232CCE700BF400900203835002075
:101A2000E83300200C33002044330020F4A90100E7
:101A30008CA7010068AF010010B50120FFF7DAFEA6
:101A40000A4B1A6840F2E7304FF400430021E3FBF1
:101A500002014FF47A720023EFF752FBBDE8104009
:101A600002460B460248034906F0AABC383500205E
:101A7000780A0020480900202DE9F84F8B461646C9
:101A80000AB1FF231370DFF8648000F0010908F148
:101A9000010A002404E04A4519D00134082C12D070
:101AA00004EB8405E80018F83530D907C3F3801239
:101AB000E7B2F0D4002EF0D033780134FF2B08BF0A
:101AC0003770082CECD1FF273846BDE8F88F50441A
:101AD0000622594607F026FC0028F5D0002EDCD05F
:101AE00018F83530DB07D8D4E6E700BFC433002050
:101AF0002DE9F041054682B00020FBF715FA0028D9
:101B000040D1FBF74DFC10F001043BD12878FF28B1
:101B10003CD005F1010841460DF10702FFF79CFB9F
:101B200007282BD99DF80760072E36D81E4F2A7834
:101B300017F8363007EBC60062F341034146062230
:101B4000023007F8363007F0FDFB28782246414680
:101B5000FFF792FF072822D8144900EB800407EB17
:101B6000C60211F83430507043F0200301F83430CD
:101B700017F8363043F0010307F83630002002B082
:101B8000BDE8F0810C2002B0BDE8F081084B0122D5
:101B900020461A7002B0BDE8F0810720F3E707EB9A
:101BA000C603FF225A70E3E73C350020C43300200F
:101BB000A03B00202DE9F04F064685B000200D46E1
:101BC0001446FBF7A5F918B10C2005B0BDE8F08F5D
:101BD000FFF7FEFB0028F7D0B1460DF10F0219F810
:101BE000010B4946FFF748FF072840F286809DF821
:101BF0000F80B8F1070F79D808EB8803474FDB0057
:101C0000581C08EB880A062249463844019307F01D
:101C100099FB317817F83A204FEACA0B61F3861224
:101C20002846102107F80B20F5F7DCFE17F80B20EB
:101C3000102160F38202204607F80B20F5F7D2FE50
:101C400017F80B20019B00F0010060F3C30212F0B3
:101C5000040F07F80B2007EBCA0A4FEA880B1AD0CB
:101C6000DFF8C4E0DFF8C4C09EF800102C4A0CF87E
:101C700001808AF8171002EB011C01318EF8001068
:101C80000CF1FF3C05F10F02691E12F801590CF826
:101C9000015F8A42F9D190BB03F1180006220021AE
:101CA000384407F07AFB0BEB0803DC0017F83330FD
:101CB00023F012033B55494630780022FFF7CCFA57
:101CC000072815D83B5D174A43F0200302EBC000FC
:101CD0003B5580F80180D844002017F8383043F095
:101CE000010307F8383005B0BDE8F08F07206CE736
:101CF0003B5D6FF345133B55EDE7122065E7D81DBB
:101D0000214610223844019307F01CFB0BEB08021C
:101D100007EBC2020021019B5162BDE7C4330020E2
:101D2000443300203C3500209E3B00203C33002003
:101D30002DE9F04F054683B00020FBF7E9F818B114
:101D40000C2003B0BDE8F08F0446FFF741FB0028EC
:101D5000F6D02F46224617F8010B3946FFF78CFEC6
:101D60000728064603D9022003B0BDE8F08FDFF84C
:101D7000BC8000EB800308EBC30118F833305B072D
:101D80004FEA80092ED5DFF8A8A09AF80020013A82
:101D900012F0FF0B23D0CB7D5B4521D0204801936F
:101DA00000EB0B11102200EB031007F0CBFA019BA4
:101DB00004EB840208EBC20118F8322012F0010F84
:101DC000E0B204F1010404D0520702D5CA7D5A459D
:101DD0001FD0082CECD19AF80020013A00E05A46B6
:101DE0008AF80020287839460022FFF735FA0728BC
:101DF00004D80C4B03EBC000FF2343704E4400207B
:101E000018F836306FF3000308F8363003B0BDE839
:101E1000F08F054C9AF80020E054CB75013ADFE7CB
:101E2000443300203C3500203C330020C4330020E4
:101E30009E3B002038B51C465B7903F0C003402B65
:101E400000D038BD19B10022FFF716FE0246072A5E
:101E5000F7D8094B02EB820113F83110C907F0D50E
:101E60001821282010FB0210184421460622BDE844
:101E7000384007F067BA00BFC433002038B50346C6
:101E80000D4613F8010B00221946FFF7F5FD072850
:101E900001D9022038BD094C2823182213FB002049
:101EA000044420460621F5F79DFD0028F1D0214687
:101EB0002846062207F046FA002038BDC433002029
:101EC00010B503460C4613F8010B00221946FFF724
:101ED000D3FD072801D9022010BD064B00EB80007E
:101EE00003EBC0030622596A204607F02BFA0020B4
:101EF00010BD00BFC433002070B5054600200E465B
:101F0000FBF706F808B10C2070BD0446FFF760FA35
:101F10000028F8D02946224611F8010BFFF7ACFD46
:101F200007281AD876B1012E0AD100EB80030C499C
:101F300011F8332042F0100201F83320204670BD22
:101F4000122070BD064B00EB800013F8302066F3C2
:101F5000041203F83020304670BD022070BD00BF6F
:101F6000C4330020314A3249F0B40023314C13709D
:101F700004EBC3025278072A02EB820505D811F858
:101F800035206FF3451201F8352014F833206FF334
:101F9000000204F833200133082BE9D10F7891F8BF
:101FA000285091F8504091F8782091F8A0600023D3
:101FB00063F300070F70204F63F3000563F3000421
:101FC00063F300023B7081F828501C4F91F8C85011
:101FD00081F8504081F8782091F8F04091F818216C
:101FE0003B7063F3000663F3000563F3000463F3DF
:101FF000000281F8A060124B124E134F81F8C850B6
:1020000081F8F0404FF0FF354FF0FF34C3E9004551
:1020100081F81821376020B1F0BC0C490C4808F059
:1020200089B8F0BC0A4808F08DB800BFA03B00207A
:10203000C43300203C3500209F3B00209E3B002005
:102040004009002038350020A0BB0D00391A0100DE
:1020500048090020072807D8044B00EB800013F83C
:102060003000C0F3C000704700207047C433002028
:1020700007280DD800EB8000064911F830301A0708
:102080004FEAC00004D59B0702D50844406A704758
:1020900000207047C4330020024B1B7803700248B5
:1020A000704700BF9E3B00204433002038B50C46EB
:1020B00050B1072922D82A4D15F83430DA072FD528
:1020C00005EBC404607838BD07293AD8254B04EBEA
:1020D000840213F83230DB0701D5204638BD224A8E
:1020E000224923484FF42F7306F0CDFB404080F384
:1020F00011884FF0030002DF204638BD1A4A1D49FF
:102100001B4840F2B62306F0BEFB404080F3118826
:102110004FF0030002DF124D15F83430DA07CFD448
:10212000114A1549124840F2B72306F0ACFB404073
:1021300080F311884FF0030002DF05EBC4046078E0
:10214000C1E7094A0D490A4840F2BA2306F09BFB51
:10215000404080F311884FF0030002DFB6E700BF74
:102160003C350020C433002068AF010040B10100BD
:102170008CA70100E0AF010084B001009CB0010019
:1021800010B5204B1B78834204460CD91E4B1C5DB6
:10219000072C19D81D4B04EB840213F83230DB07EF
:1021A00020D5204610BD1A4A1A491B4840F2C623C2
:1021B00006F069FB404080F311884FF0030002DF16
:1021C000114B1C5D072CE5D9114A144912484FF4F4
:1021D000327306F058FB404080F311884FF0030043
:1021E00002DFD7E70A4A0E490B4840F2C92306F03E
:1021F0004AFB404080F311884FF0030002DF204685
:1022000010BD00BF9E3B00203C330020C4330020A3
:1022100068AF01004CB101008CA701006CB1010056
:1022200040B10100072823D870B500EB8003114EA0
:1022300016F83330DB0704464FEA800505D52C44F9
:1022400016F83400C0F3401070BD0B4A0B490C481F
:102250004FF4357306F017FB404080F311884FF0C0
:10226000030002DF2C4416F83400C0F3401070BDA8
:1022700000207047C433002068AF0100B8AF0100F0
:102280008CA70100034A044B00280CBF10461846D7
:10229000704700BF043500207C350020144B1B78AC
:1022A0009BB1072970B50C460DD860B9114E01EBF2
:1022B00081038D0016F83330DA070BD52C4416F85D
:1022C0003400430703D4012070BD01207047C0F3E0
:1022D000001070BD084A094909484FF43F7306F0E1
:1022E000D2FA404080F311884FF0030002DFE5E7A7
:1022F0009F3B0020C433002068AF0100B8AF01004D
:102300008CA701001C4B1B78FBB11378FF2B1CD151
:102310002DE9F047194D06460023AF1F03EB830458
:102320005FFA83FE17F8344014F001004FEA830C83
:1023300003D0C4F38014B44209D00133082B05F153
:102340002805EBD10120BDE8F08701207047AC1FC4
:1023500001F1FF3814F801AF18F8019FCA45ECD11C
:10236000AC42F7D1634482F800E017F833305A07E3
:10237000E9D5C3F30010E6E79F3B0020CA330020F5
:1023800030B40E4B1C7874B1072A0CD80C4C02EBFD
:10239000820514F835502B0705D520B14B7903F091
:1023A000C003402B02D0002030BC7047282000FB27
:1023B0000240073030BC07F032B800BF9F3B00201E
:1023C000C4330020024B1878003818BF0120704732
:1023D0009F3B0020684620F007018D4601B502F0C2
:1023E000CBFBF4F73FFEF5F701F8BDE80140854669
:1023F000704700BF08B5094BD3F840213AB9012016
:10240000F5F7D2FBBDE808400220F5F7CDBB002070
:10241000C3F84001F6F7BAFEF1E700BF00B0004094
:102420000020F5F7C1BB00BF02F0E2BC012800D8D4
:10243000704708B5064A074907484FF41B7306F072
:1024400022FA404080F311884FF0030002DF08BDFC
:1024500074B10100BCB101008CA70100012800D8B3
:10246000704708B5064A0749074840F2772306F047
:102470000AFA404080F311884FF0030002DF08BDE4
:1024800074B10100BCB101008CA7010030B500227D
:102490008BB00B68154C16490892CDE90322CDE9A3
:1024A0000122069207940591D3E900549968A54248
:1024B0002CBFC1EB0501C1EB04010346009110469E
:1024C0001146F6F7D1FE022801D80BB030BD094AFB
:1024D00009490A4840F2952306F0D5F9404080F3B7
:1024E00011884FF0030002DF0BB030BD5D24010006
:1024F0005527010074B10100DCB101008CA7010077
:102500002DE9F04385B004464FF0FF0C0DF10F00AC
:10251000DDF830809DF834908DF80FC00D461646DA
:102520001F46FAF743F918B91EE0FAF73FF9D8B198
:1025300090F820309B070DF10F00F6D12D4B9A68D3
:10254000AAB9B9F1000F36D00122019200973346A3
:10255000294620464246FAF7E3F8D8B96FF043041B
:10256000204605B0BDE8F083224B9A681AB3CDE946
:1025700000793346294620464246FAF7D1F848B951
:10258000B9F1000FEAD1D8F80C10D8F80000FFF725
:102590007DFFE3E7184A1949194840F2112306F074
:1025A00072F9404080F311884FF0030002DFB9F167
:1025B000000FD3D1E7E7D8F80C201A60C3E9014532
:1025C0004046B04700220F4B009204461146104689
:1025D000F6F7B6FE0228C3D9074A0B49084840F26D
:1025E0004B2306F050F9404080F311884FF0030070
:1025F00002DFB5E7B435002074B10100F4A9010091
:102600008CA701002D240100DCB10100F0B54C4E77
:102610008BB0FAF7BDF8B368FF228DF80E209BB19E
:1026200033688BB10DF10E00FAF7C0F8044658B1CB
:1026300094F8203013F003050DF10E0006D0FAF7E0
:10264000B5F804460028F3D10BB0F0BD05ABD6E9D0
:102650000027E169E068009304ABB847074600280B
:1026600062D0B36831682846984717F10B0F1AD02B
:10267000483711D0334A3449344840F2DF2306F05A
:1026800002F9404080F311884FF0030002DF03E0BD
:1026900090F820309B0741D00DF10E00FAF786F834
:1026A0000028F5D1D0E7FF230DF10F008DF80F3092
:1026B000FAF77CF848BB3268059B00930992012326
:1026C000002201933260D6E90101049B06AAFAF7C1
:1026D00027F80028E0D01B4A1D491C4840F2DD23A2
:1026E00006F0D1F8404080F311884FF0030002DF7C
:1026F000D2E743F0020380F82030836998470DF158
:102700000F00FAF753F80028D5D090F820309A0738
:10271000F5D4C26831689142F1D1EAE7C168006836
:10272000FFF7B4FE0BB0F0BD94F82030A269E16869
:1027300043F0020384F8203020469047ACE700BF06
:10274000B435002074B1010004B201008CA701006F
:1027500000AA0100002208B511460A4B0120F5F736
:10276000CFF900B908BD084A0849094840F2A32337
:1027700006F089F8404080F311884FF0030002DF33
:1027800008BD00BFB003002074B1010000AA010021
:102790008CA7010010B5154804F062FF144B1860B7
:1027A00000B3144B00249C6000F02CFA002818DBC6
:1027B000224621460120F4F73DFC224621460B200B
:1027C000F4F738FC224621461820F4F733FC0120A8
:1027D000F4F7FEFB0B20F4F7FBFB1820F4F7F8FBF3
:1027E000204610BD6FF0120010BD00BF10B20100F6
:1027F000B0350020B4350020044A10B403461068F8
:1028000084688AB21946236810BC1847B035002086
:10281000084B1B689A6810B4546834B18AB2A44655
:10282000014610BC1846002360476FF0220010BC20
:10283000704700BFB0350020FFF7EABF00207047A7
:1028400010B582B0049C009400240194FFF758FE58
:1028500002B010BD10B582B0009090F82040C3695E
:10286000026904F00104D0E905010194FFF748FE74
:1028700008B1443001D102B010BD074A07490848E9
:10288000E42306F000F8404080F311884FF0030085
:1028900002DF02B010BD00BF74B1010014B201002C
:1028A0008CA7010030B5044683B0002835D0264BF4
:1028B0001A6882422BD0FF230DF107008DF80730F4
:1028C000F9F774FF034640B91FE094420ED00DF1B2
:1028D0000700F9F76BFF0346B8B193F82020920781
:1028E000F5D4DA6818461146002CEED193F8202072
:1028F0009D6942F0020283F82020A8470DF10700ED
:10290000F9F754FF03460028E7D103B030BD9B68B8
:102910006BB1214600209847CDE70B4A9368002B06
:10292000C9D011680029C6D000209847C3E7074ADC
:1029300007490848EE2305F0A6FF404080F31188C0
:102940004FF0030002DFB6E7B435002074B1010098
:1029500028B201008CA701000020704710B5044682
:10296000F9F716FF3CB120B320681030F9F74CFF9F
:1029700080B1002010BD1D4CA36843B32068002324
:10298000A36023600028F1D000681030F9F73CFF05
:102990000028EED1164A174917484FF49E7305F0E8
:1029A00072FF404080F311884FF0030002DF0020E7
:1029B00010BD0F4A1149104840F21F1305F063FF84
:1029C000404080F311884FF0030002DFCCE7084A53
:1029D0000B4909484FF4927305F055FF404080F3CE
:1029E00011884FF0030002DFC8E700BFB4350020B4
:1029F00074B1010054B201008CA7010030B2010093
:102A000040B20100024B9868B0FA80F0400970476C
:102A1000B43500206FF04700704700BFD0E90023B5
:102A2000002A04DB9A4238BF1A4610467047806875
:102A3000984238BF1846704710B51446F6F724FD83
:102A40002146F6F723FD0330030204D4092894BF7E
:102A50000020012010BD002010BD00BF262810B5A9
:102A600004461CD0272812D0252808D00A281ED9B1
:102A7000272821D80330400002F006F902E00220A6
:102A800002F002F92046BDE8104002F003B95020E0
:102A900002F0FAF82046BDE8104002F0FBB81A2018
:102AA00002F0F2F82046BDE8104002F0F3B8023020
:102AB000400002F0E9F8E5E7064A074907484FF405
:102AC000C37305F0E0FE404080F311884FF003002F
:102AD00002DFD7E774B101000CA801008CA7010048
:102AE00002F046B902F050B908B502F081F9BDE82C
:102AF000084002F04DBA00BF08B502F079F902F0C3
:102B000047FABDE8084002F0F3B900BF08B502F08B
:102B10006FF902F03DFA02F023FA02F04BFCBDE837
:102B2000084002F0E5B900BF08B50146154802F0BB
:102B300033F802F07DF950B102F0F2FA00F0A6F895
:102B400000280CDBBDE808400020FFF707BF02F0BB
:102B500037F902F0E5FA00F099F80028F2DA0A4AAB
:102B60000A490B4840F2E91305F08DFE404080F31E
:102B700011884FF0030002DF0020BDE80840FFF796
:102B8000EDBE00BF2924010074B101005CB2010058
:102B90008CA7010010B50446FFF7B8FF2046BDE83A
:102BA0001040FFF7C1BF00BF01F1100005F0BEBA31
:102BB00030B504468BB00D460122002104A807F071
:102BC00038FA00230E4A03932046032369460192F4
:102BD000029305F0C7FE002810DB4FF4004340F2DB
:102BE000E7300021E3FB05014FF47A720023EEF792
:102BF00087FA02460B4604A805F0BEFA0BB030BDBA
:102C0000A92B010010B50120F3F724FA044901248F
