:100000008084002009570000F1CF0100DD56000078
:10001000DD560000DD560000DD5600000000000047
:100020000000000000000000000000009D500000E3
:10003000DD5600000000000031500000DD560000D9
:1000400059510000811E0100595100005951000012
:1000500059510000595100005951000059510000F8
:1000600059510000595100005951000059510000E8
:1000700059510000595100005951000059510000D8
:1000800059510000595100005951000059510000C8
:1000900059510000595100005951000059510000B8
:1000A00059510000595100005951000059510000A8
:1000B0005951000059510000595100005951000098
:1000C0005951000059510000595100005951000088
:0C00D00059510000595100005951000026
:0400DC00FFFFFFFF24
:1000E00053B94AB9002908BF00281CBF4FF0FF319F
:1000F0004FF0FF3000F00CB8ADF1080C6DE904CE04
:1001000000F008F8DDF804E0DDE9022304B07047F0
:10011000704700BF2DE9F04F07468C460846099E00
:1001200015463C461946002B40F0C6808242B2FA82
:1001300082F746D94FB1C7F1200E24FA0EFE00FA1D
:1001400007F3BD404EEA030CBC404FEA15481FFAC6
:1001500085FEBCFBF8F9220C08FB19C309FB0EFA5B
:1001600042EA03439A4528D9EB1809F1FF3004D23B
:100170009A4502D9A9F102002B44A3EB0A03A4B2C9
:10018000B3FBF8F208FB123302FB0EFE44EA034411
:10019000A64514D92C1902F1FF3303D2A64501D983
:1001A000931E2C44A4EB0E0443EA00401EB1FC4015
:1001B000002334607360BDE8F08F4846DDE71346E6
:1001C000F0E702B9FFDE87BB831A01214FEA154E23
:1001D000AAB2B3FBFEFC200C0EFB1C330CFB02F896
:1001E00040EA0343984563D9EB180CF1FF3004D281
:1001F000984502D9ACF102002B44A3EB0803A4B24A
:10020000B3FBFEFC0EFB1C330CFB02F244EA03447E
:10021000A2424FD92C190CF1FF3304D2A24202D9C9
:10022000ACF102032C44A41ABEE7C7F1200C20FA5B
:100230000CF800FA07F324FA0CFCBD404CEA030268
:100240004FEA154EABB2B8FBFEFC110C0EFB1C8046
:100250000CFB03F941EA0040814504FA07F423D975
:1002600028180CF1FF3104D2814502D9ACF102010A
:100270002844A0EB090092B2B0FBFEFC0EFB1C0070
:100280000CFB03F842EA004398450FD9EB180CF138
:10029000FF3204D2984502D9ACF102022B44A3EB01
:1002A000080342EA014191E76146E2E76246F6E768
:1002B0006046A2E76346B6E7834205D90EB1C6E9B8
:1002C00000700021084676E7B3FA83F181B98342D2
:1002D00001D3BA420AD8BC1A60EB030301209C4642
:1002E000002E68D0C6E9004C002164E70846F7E715
:1002F000C1F1200C8B4022FA0CF41C4302FA01F5E8
:1003000000FA01F327FA0CF220FA0CFB4FEA144929
:100310001343BBFBF9F81FFA84FE09FB18BB1A0C48
:1003200008FB0EFA42EA0B42924507FA01F73ED962
:10033000A21808F1FF3004D2924502D9A8F10200B8
:100340002244A2EB0A029BB2B2FBF9F809FB182285
:1003500008FB0EFE43EA024296452AD9A21808F18C
:10036000FF3304D2964502D9A8F10203224443EA9E
:100370000040A0FB0593A2EB0E029A42CE4698469F
:1003800002D306D14F4504D2B9EB050E63EB040846
:10039000013886B1B7EB0E0362EB080707FA0CFCD5
:1003A000CB404CEA0303CF40C6E900379CE7404608
:1003B000C7E74346DBE73146FDE6000000000000EA
:1003C0002DE9F041D0E90B35866A5C193034A6423C
:1003D0008846174618D81C4DA3FB050118A3D3E97E
:1003E0000023FFF77DFEA41B20F07F40C8F800002B
:1003F00013A3D3E90023A4FB0501FFF771FE20F04E
:100400007F403860BDE8F0810F4C0DA3D3E9002395
:10041000A6FB0401FFF764FE05F1300120F07F40E8
:10042000C8F8000006A3D3E90023A1FB0401FFF7ED
:1004300057FE20F07F403860BDE8F081AFF30080C8
:100440008D49FD1A0700000000CA9A3B0000000019
:1004500000284FD02DE9F04F6B4C94F86A5015F0FE
:10046000010591B040F0BF8094F82500FF2300F013
:10047000030084F8263011F0D3F894F86A0042079C
:1004800029D494F8292094F8353004EB820204EB47
:100490008303D76AD3F8389087B15B4839460AF0AE
:1004A00053FD3B785B0605D5062105F055FC002879
:1004B00000F00482544849460AF046FD3B7813F0A8
:1004C0000E0F19D1236A002B00F0AA800C252846B4
:1004D00011B0BDE8F08F2A4604F16B01C0F3C000F3
:1004E00011F034FAFF2884F82600CAD0284611F00B
:1004F000DDF8C6E70AF094BA94F824300121C3F37A
:1005000042030CA88DF8303005F0ACFD00286FD008
:1005100099F80110024638460AF012FB3B49B4F83C
:10052000689031230026A360A0FB010134A3D3E926
:100530000023C4E9056626706660E660FFF7D0FD1B
:10054000206106F083FF8046B9F1000F07D13E78A5
:1005500006F00F06A6F10106B6FA86F6760994F8BB
:100560002400236966F3000010F0010684F82400DB
:1005700040F07481264A2748049303F24713A9FBED
:100580000001069402961360912303FB0911224B8C
:100590000793224B05934FF6FF7309924FF0020920
:1005A00003930EAF16A3D3E90023CDF83890089734
:1005B000FFF796FD4346CDE900604A4630460321E9
:1005C00006F0C4FD394609F045FD88B994F86A3053
:1005D00043F0010384F86A300AF0C8FE18B901201C
:1005E00011F000F873E70025284611B0BDE8F08F40
:1005F000236A002B3FF46AAF0AF0E6F90C2566E7A0
:100600008D49FD1A070000004447002000CA9A3BAC
:10061000BC470020002AE7841D970000B5AB00000E
:1006200009F094FC8246002800F0508109F09AFC01
:100630008346002800F047810BF054FD0646002851
:1006400000F03E814FF6FF73406F338506F11C03C7
:100650000B93002800F03C8106F1680206F164016A
:1006600005F086FBB6F86030DFF86CC223F4EF6368
:1006700023F0070343F4887343F00103A6F86030C6
:1006800096F8393003F03F0363F07F0386F8393082
:1006900096F87A3023F0070386F87A3096F83C30E3
:1006A00023F0070386F83C3096F8D6304FF0000868
:1006B0004FF01B10C6E9160C68F300037F2086F884
:1006C000D63086F8BD00FF2306220DF1310106F178
:1006D000D700A6F8C020C6E91288C6F87480A6F82C
:1006E0007880A6F82E80C6F8308086F83B80C6F861
:1006F0005080A6F8C480A6F8C880A6F8D080A6F8D6
:10070000CC808DF831308DF832308DF833308DF863
:1007100034308DF835308DF830808DF836301CF05F
:10072000B7FC96F8D61068F3410186F8D610FF237F
:1007300006220DF1390106F1DD008DF839308DF812
:100740003A308DF83B308DF83C308DF83D308DF8E7
:100750003E308DF838801CF09BFC96F8E430A6F80B
:10076000F08023F0070386F8E43086F8F280C6F8BC
:100770001481A6F81881A6F8308108F08FFF96F84A
:100780004A31A6F8488123F0030386F84A3196F8E7
:100790007A30A6F8508123F0180386F87A3096F85C
:1007A000763186F8538123F0070386F8763196F880
:1007B0009631C6F854A168F3451386F8963196F839
:1007C000BE31A6F8748168F3C303002286F8BE31F7
:1007D0000023C6E94E01C6E9502386F8E580A6F855
:1007E0009481C6F8EC80A6F8BC81A6F8C8810CF00C
:1007F000AFF8A6F8D2000CF0B1F8D6F8CC21374B00
:10080000A6F8D4001340C6F8CC310CF0ADF896F839
:10081000D03160F3020386F8D0310CF0ABF806F16A
:100820001C03236296F8D031C6F8D48160F3C50367
:10083000C4E918ABC6E97888C6E97688C6E90588B0
:1008400086F80080F66186F8D03111F0A3FF002809
:100850003FF452AE0AF0B8F8032538E60020204AEB
:10086000DFF88090049302260EAF019305920321D6
:10087000CDE902000694434600900897CDF81C90FD
:1008800032460E9606F0B8FC394609F0E3FB002824
:100890007FF4AEAE144A05924AF2D8320092CDE906
:1008A0000300CDE90100CDF81C900897069443465B
:1008B000012203210E9606F09FFC83E6122506E630
:1008C000584609F055FB504609F046FB0725FEE562
:1008D00006F16C007067BFE6480148010000FFF6B2
:1008E000B5AB00001D97000015A900000000000036
:1008F00070B590F824308AB0C3F342030D46044625
:1009000001210DF1230016468DF8233005F0AAFBD6
:100910007178024628460AF013F91D491AA3D3E953
:100920000023A0FB0101FFF7DBFB2369984205468A
:1009300020D21B1A00220192164A0293164BA21AC9
:10094000A3FB02320221920900230A4409AE099155
:1009500012490591CDE903330321D2B206960093E3
:10096000184606F0BBFC314609F074FB48B9256116
:100970000AB070BD02D9C21A0023DCE700200AB019
:1009800070BD0C200AB070BD8D49FD1A0700000033
:1009900000CA9A3B44470020898888881D97000038
:1009A00038B5194C9DF810E094F844C01CF00105CE
:1009B00022D163F3420C400194F83230A1874FEA10
:1009C000CE0E0EF0180E00F0200040EA0E0023F0CC
:1009D000380303430D4884F83230A2FB0001912311
:1009E00003FB021106A3D3E9002384F844C0FFF7F8
:1009F00077FB2064284638BD0C25284638BD00BF4B
:100A00008D49FD1A07000000E0470020002AE78416
:100A100010B59DF808C0044649014FEACC0000F02B
:100A2000180001F0200CA17D22844CEA000C0C4837
:100A300021F038014CEA010C9122A3FB000102FBDA
:100A4000031184F816C004A3D3E90023FFF748FB81
:100A5000606210BDAFF300808D49FD1A07000000F1
:100A6000002AE784000000002DE9F047044600F169
:100A7000350190F8440094F83230C0F3400060F340
:100A800086138CB084F8323006F018FD94F83220CA
:100A9000A38F4D48E46102F079020025A3FB000119
:100AA00084F83220912202FB0311C4E9055544A3C6
:100AB000D3E900232570FFF713FB3123C4E9015369
:100AC000236CE5600933A0F13102934232BF236108
:100AD00022612564064606F0B9FC236A07460DF13B
:100AE0002C08002B4CD0394D394BCDF82080069482
:100AF000651BA3FB05353448A38F4FF0000AA3FB09
:100B000000019122CDF80CA002FB0311236904938C
:100B1000304B0793304B05934FF0020928A3D3E9DC
:100B20000023CDF82C90FFF7DBFA104619464FF45E
:100B30007A720023FFF7D4FA2D090435EDB22A4664
:100B4000CDE901603B460321CDF800A0504606F0F8
:100B500053FB414609F07EFA054668B994F84430E3
:100B600043F0010384F844300AF0C4F90446F8B1B4
:100B700028460CB0BDE8F0870C200CB0BDE8F0872B
:100B8000CDE90A33216943460AAA032001F058F946
:100B90000B990029A7D0114809A3D3E90023A1FB91
:100BA0000001FFF79DFA0A9F20F07F4007449AE773
:100BB000484610F017FD20460CB0BDE8F08700BF96
:100BC0008D49FD1A07000000002AE784E047002055
:100BD000398EE3381D9700006DB1000000CA9A3BC2
:100BE0002DE9F04FC38D458E1D4490F81A310D4408
:100BF000174613F007028BB00446ADB20AD0531E5D
:100C0000042B00F25583DFE813F0AD011C028B01C9
:100C100042011F02B0F8F480A5EB080318041FFA84
:100C200083FB00F15F8194F93930002B0E46C0F24E
:100C30004D8294F8F03084F8F13094F8942194F8CF
:100C4000953194F8181184F8191193420AD094F848
:100C5000963103F00F03062B04D1002384F895216D
:100C6000A4F8C830B44BD4F814911A68944204BF65
:100C700000221A60B9F1000F00F04A81D9F8000093
:100C8000002800F04581B4F81C31B4F82AC042684D
:100C9000C4F814216345B4F81E21B4F8201100F003
:100CA0001D82B4F828C0A9F81E30182389F8043032
:100CB0000023A9F806C0A9F82020A9F8221089F875
:100CC0001C30494609F05AF909F062F9A368002B73
:100CD00009DAE168626823F0004391422CBF7F1873
:100CE000BF18A360FF1A608DB4F81C9110FB0BF0C5
:100CF00080B2B0FBF9F119FB01F39BB298421FFAE5
:100D000081FA80F0F4801B1A40F2E2418B4803FB29
:100D100001F1A1FB000186A3D3E90023FFF7E0F96D
:100D200020F07F400744E18D94F93930A8EB0508A5
:100D3000D0440E444644002B40F2E248E68508FBCE
:100D400009F6C0F2ED81D4F824117C4878A3D3E9E8
:100D50000023A1FB0001FFF7C3F920F07F48B34651
:100D600008F10108764AB4F82031B4F81E1175482C
:100D7000A4F82A903244B2FBF6F2A4F8C62042F25C
:100D8000107202FB03633044013BB0FBF6F0B3FB8F
:100D9000F6F683B2881D8342A185A4F8C260A4F848
:100DA000CE3002DD5B1A063B9BB2A4F8CA3094F841
:100DB0001A311B0744BF0023A4F8C43002210120CC
:100DC00014F09EFA002202218146012005F020F84D
:100DD0005D494FF4F872204604F0AAFF00F1050ABD
:100DE0005FFA8AFA594B009452460121002006F01E
:100DF0008DFA30F0020304D0554840F6B44101F0BA
:100E000017FE4E4EABFB066B49A3D3E900233046D9
:100E10005946FFF765F920F07F454E480723A5FBAB
:100E20000001301A03FB05116BEB01014FF47A72DC
:100E30000023FFF755F9CDE9015008940694CDF849
:100E40000080216994F93950434804914349444C46
:100E5000079411EA250138BF014605914FF6FE714E
:100E60003B46039152460121002006F0C5F930F0BF
:100E7000020304D0364840F6CE4101F0D9FDB9F165
:100E8000000F40F0478100200BB0BDE8F08F838D4C
:100E900090F81A01D4F8D4211D440635D4F8F8305E
:100EA000ADB26FF30200A4F8F450A3F109011D8163
:100EB00084F81A01D4F8D80122B194F87651AD071C
:100EC00040F17C81002800F09081D4F8DC2110688A
:100ED00043F8090C116053F8092CC4F8DC11002AFE
:100EE00000F080816FF076000BB0BDE8F08F09FB59
:100EF000110140F2E243114889B203FB01F1A1FB69
:100F000000010BA3D3E90023FFF7EAF83F1A0AE731
:100F10000F4840F6094101F08BFDD9F80000B2E618
:100F20006FF00F000BB0BDE8F08F00BFAFF3008093
:100F30008D49FD1A070000003C48002000CA9A3B7A
:100F4000FF5962027FC3C901800D0020E5B5000092
:100F500050E101008D49FD1A2505010091030100B2
:100F6000B5B50000DFF81883012009F017F8064630
:100F7000002800F04B81C34804F0A4FE0546002879
:100F800000F04481C04B1A68002A00F0158109F076
:100F900023F83368D4F814215A60C4F814612E1D64
:100FA00000F037812B79B94A03F01C0343F00303A7
:100FB0002B710C236B710023AB71EB7194F828310A
:100FC0002B72D4F82431A2FB03239B0AA5F8093025
:100FD000B4F81C31A5F80B30B4F81E31A5F80D306B
:100FE000B4F82031A5F80F3094F81A31C4F8FC7029
:100FF000032262F3020384F81A31A368002B0ADA91
:10100000E168626823F0004391422CBF7F18BF184B
:10101000FB1AC4F8FC309E4B01220935C4F8F85085
:1010200002211046C3E9024804F024FF00283FF4DF
:1010300059AF984840F65C3101F0FAFC6FF0760049
:1010400022E7DFF854828FE7D0F8F820D0F8D431C7
:1010500090F8F00084F8F10094F818018A4984F8B7
:10106000190194F8940184F8950100200860D4F8DF
:10107000D801A2F10901B3B194F87651AF0712D4A7
:1010800094F8CF51EE070ED4D4F8E051AB4200F003
:10109000DD8058B9187900F00300032800F0E580DE
:1010A000C4F8D83104E0002800F0A980D4F8DC317D
:1010B000186842F8090C196052F8093CC4F8DC11B0
:1010C000002B00F0AC806FF08B00DDE694F8E5308B
:1010D000002B3FF4AEAD84F8E520AEE5B4F82CC0AB
:1010E00094457FF4DEAD40F2E24C0CFB03FE42F28D
:1010F000107C0CFB01EC0CF1FF3CBCFBFEFCB4F8DB
:10110000C2E01FFA8CFCE6457FF4CBAD012389F8E1
:101110000430D6E501220221104604F079FEB2E641
:10112000226CA36C02FB1B33A36411F09FFB0546EA
:1011300094F8E400C0F3C20011F09AFB054406FBEA
:1011400005F5564B94F8282105F5742505F23F2541
:10115000A3FB0535AD0C08FB02F2A36C226505FB71
:101160000AF072080344963A934228BF1346256456
:10117000A6EB050B4A4DC4E911230023C4F8EC305B
:10118000A0FB05013CA3D3E90023FEF7A9FF3F4BD9
:101190003F1AD4F82401A3FB0030800A08FB00F0BA
:1011A00035A3D3E90023A0FB0501FEF799FFB4F8AE
:1011B0001C9120F07F48D5E51C60E8E694F8CF51FB
:1011C000EF073FF57FAED4F8E051AA422CD00028BB
:1011D0007FF47BAE107900F00300032862D0C4F8DE
:1011E000D82174E6C4F8E4117CE643F8092CC4E97C
:1011F0007511C4F8DC11002A7FF474AEF2E742F8EE
:10120000093CC4E97511C4F8DC1159E76FF06800B6
:101210003AE6204840F60C0101F00AFCC2E6C4F8A8
:10122000E4116FF08B002FE61568C4F8E051002838
:101230007FF44BAE106843F8090C116053F8092C89
:10124000C4E97611002A7FF44DAECBE71D68C4F8DF
:10125000E05100287FF42AAF186842F8090C1960A1
:1012600052F8093CC4E976112AE7D8790328F3D06B
:101270000A287FF415AFEFE78D49FD1A070000003B
:10128000B90A0100644900203C4800205917B7D131
:101290009806002050E10100E91F000083DE1B4397
:1012A00000CA9A3BD0790328C4D00A2897D1C1E755
:1012B00003484FF43B6101F0BBFB4FF0000853E6DD
:1012C00050E10100000000002DE9F04F0B68D2F85A
:1012D00000B01B6897B08A460A93037F00F11E0195
:1012E000C3F380130446154614A806228DF8473030
:1012F0001BF0CEFE9AF811000C90FF280DF1480962
:1013000000F083804A460DF147010FF085FE9DF8FD
:1013100047600236F6B28DF847600A9B277FD4F803
:1013200000C0CDF82CC003F17108FF094B4606F050
:101330000102414638460BF023FB00284BD19BF8B5
:10134000D6200D9066F341028BF8D620494606223E
:101350000BF1DD001BF09CFE9BF8D62067F300022A
:1013600041468BF8D6200BF1D70006221BF090FEE9
:101370002F1D032204F12E0105F108001BF088FE49
:1013800005F11806042204F12A0138461BF080FEFC
:10139000052204F13A0130461BF07AFE3046052161
:1013A00004F060FE6A7F94F83F1000F03F0060F3A5
:1013B00005026A77C1F30402AA77A68EEE8101289E
:1013C000B6B201F01F0206D91B3202F01F020B2A2F
:1013D00001D80D9B0EBB0A9BE6680B9800225A6150
:1013E00095F82030012762F3000385F8203021466C
:1013F000277108F0C3FD30683771314608F0BEFD33
:1014000008F0C6FD17B0BDE8F08F062214A94846C3
:101410001BF03EFE9DF847607FE7DAF8002053603E
:1014200094F8372094F8363043EA02232B829BF855
:10143000E430628E0E92490961F3C5038BF8E43003
:1014400011F014FA0D909BF8E400C0F3C20011F003
:101450000FFA0D9BB44A298A40F2E24808FB06F6CF
:10146000034406FB03F303F5742303F23F23A2FBBB
:1014700003239B0C6B6294F83130AC4A08FB03F3F6
:10148000AB637308963BAB62B4F83880A84B42F26A
:1014900010703244B2FBF6F2ABF8C6201FFA88F2A5
:1014A00000FB02623344013A881DB2FBF6F2B3FB43
:1014B000F6F3ABF8C2209AB28242ABF8CE2002DD3E
:1014C000521A063A92B2ABF8CA20394604220BF1FE
:1014D000E8001BF0DDFD234613F81C2FC2F340117A
:1014E000DA070F910D9100F1F7804FF48073A38319
:1014F0000A9B93F8260010F06FFB0146062204F1C8
:101500002B00002900F0E08004F124011BF0C0FD55
:101510000C9BFF2B04F1250000F0D98014A90622B2
:101520001BF0B6FD9DF84730A3774946062204F12B
:101530001F001BF0ADFD9BF8E430EA896286C3F31F
:10154000C2032A8AA28684F83830A4F83680584626
:101550000AF0D4FD2146A881E080DAF804400B9817
:1015600008F00CFDAB89E3801B2323710D9BD4F89D
:101570000080002B40F0BD809DF83C302377214651
:10158000404608F0FBFC08F003FD95F84500B5F86F
:101590004040B5F84270012100F0070010F0A4FFB0
:1015A000274407F5E177391881466248002731233F
:1015B000CBF80830A1FB000159A3D3E90023CBF8F5
:1015C0000470CBF80C70FEF78BFD6B6A0E9ADAF89C
:1015D0000C4020F07F40F61A40F2E24303FB024445
:1015E00002213A46CBF81000012004F011FC0A9DBC
:1015F000284609F065FC821C4F4B0095D2B2384654
:10160000012105F083FE04F2B2440128A4EB090491
:101610007AD00A9B93F82430DB0762D458460AF04C
:101620006DFDDFF81091A6FB09863DA3D3E90023E9
:10163000054631464046FEF753FDDAF80830CDF84E
:1016400018B0A3F13A0A3D4B07933D4B05934FF475
:10165000E4730893DBF81030049320F07F47394897
:101660000023A7FB000103930723B8EB000003FB53
:10167000071166EB01014FF47A720023FEF730FD8B
:1016800027A3D3E90023CDE90170A4FB0901FEF7EC
:1016900027FD053520F07F40EDB2009053462A46E5
:1016A0000121002005F0A8FD30F0020304D02648F7
:1016B00040F2C91101F0BCF901220221104604F0E8
:1016C000A7FB17B0BDE8F08F1BF0EDFC20E706226A
:1016D00000211BF0E8FC25E71B48F12101F0A8F9E7
:1016E00003E70023012200931846114605F00EFE81
:1016F00094E76B7F43F040036B7738460FF08AFA2C
:101700000123E88323773AE708F0D6FC0A9B83425B
:101710003FF47FAF0C4840F29F2101F089F978E750
:101720008D49FD1A0700000083DE1B43FF5962024A
:101730007FC3C90100CA9A3B690301005503010038
:10174000910301008D49FD1A00E201000000000034
:101750002DE9F04F8BB0CDE904011F460020BDF804
:1017600060309DF85490BDF858A0BDF85CB003936C
:10177000164609F009FE002800F0BE8109F00108B4
:101780000546404605F08AFE0290B8F1000F6AD186
:10179000149B02993A4640460BF0F2F8002840F0BC
:1017A000BC812B6A05F11C020692002B62D02B6AC9
:1017B0001C6807F0010A93F844000293C0F3C001CB
:1017C00000F0070010F08EFE029BB3F8401000F509
:1017D000E1700144B3F842000144D948D6A3D3E9EB
:1017E0000023A1FB0001FEF77BFC20F07F4020617D
:1017F00030460FF037FF95F833306FF3410385F82B
:101800003330FF2385F83430002E00F07981A9F1C0
:101810000203012B40F2858195F84430149969F355
:10182000420385F8443095F833306AF3000385F8B5
:101830003330062205F124001BF02AFC039B2B8683
:1018400005F11C00DDE9042300210096FFF7E0F814
:1018500010F0A0FF002840F07F812846FFF704F930
:101860000BB0BDE8F08F062104F076FA00288FD186
:101870001220F5E708F06AFB0690002800F0988136
:101880000AF030FC0446002800F0A081203004F06B
:1018900001FC04F11C03002840F07F81032104F1C6
:1018A0002400079310F0EAFC606F079BA4F82CB0AB
:1018B0004FF6FF72A4F82AA02285002800F0748158
:1018C00004F1640104F16802079304F051FAB4F8DA
:1018D00060209C4B22F4EF6222F0070242F48872EF
:1018E00042F00102A4F8602094F87A2022F0070266
:1018F00084F87A204FF01B124FF0000BC4E9162336
:101900007F2284F8BD20C4F874B0A4F878B0A4F89D
:101910002EB0C4F830B004F134000FF02FF994F871
:10192000392060F3050284F8392001210DF12700E8
:1019300010F0A4FC9DF82710834AA08D84F83BB0DA
:10194000A2FB0132D20802EB4202A1EB8202053275
:1019500084F83A2094F83920039BA4F8C4B002F02C
:101960003F0240F2E24184F8392094F83C20A4F888
:10197000C8B001FB0AFA7549A4F8D0B022F00302FE
:10198000514484F83C20B1FBFAF1714AA4F8C61026
:1019900042F2107101FB03A152440139B2FBFAF289
:1019A000B1FBFAFA0621A4F8C01000F1060C91B2BE
:1019B0006145079BA4F8CCB0A4F8C2A0A4F8CE104F
:1019C00002DD091A063989B294F8E420A4F8CA1095
:1019D0004FF0000B22F0070284F8E420A4F8F0B0E6
:1019E00084F8F2B0C4F814B1A4F818B1A4F830B176
:1019F000079307F053FE94F84A21069BC4F854312C
:101A000022F0030284F84A2194F87A20A4F848B11D
:101A100022F0180284F87A2094F87621A4F850B1C4
:101A200022F0070284F8762194F8962184F853B1C5
:101A30006BF3451284F8962194F8BE21A4F874B192
:101A40006BF3C302C4E94E0100210020C4E9500138
:101A500084F8BE21A4F894B1A4F8BCB1A4F8C8B12C
:101A60000AF076FFA4F8D2000AF078FFD4F8CC117F
:101A7000384AA4F8D4000A40C4F8CC210AF074FF14
:101A800094F8D02160F3020284F8D0210AF072FFAA
:101A900094F8D0211499C4F8D4B160F3C50284F845
:101AA000D02194F8D620C4F804B007F0010A6AF3F4
:101AB000410284F8D6203122A260C4E978BB062214
:101AC000C4E976BBC4F80CB004F1DD001BF0E0FA09
:101AD00094F8D620029969F3000284F8D62004F124
:101AE000D70006221BF0D4FA079B2B62C4E905BB82
:101AF00084F800B0E4615EE60C200BB0BDE8F08F26
:101B000010F0B6F900283FF482AE149938463246F8
:101B10000FF01CFF85F8340079E60B200BB0BDE810
:101B2000F08F00200FF0C2FD95F8333043F0020330
:101B3000C14685F833306FE68D49FD1A0700000075
:101B400000CA9A3B48014801ABAAAAAAFF596202FF
:101B50007FC3C9010000FFF62C6AA36D23B11E48A4
:101B600040F2B44100F064FF04F14C0104F148007C
:101B700004F002F9064618B32768A665D7F8544161
:101B8000C4B1204608F0E8F938460AF0B1FA00235B
:101B900003202B620BB0BDE8F08F0F480793BF21E5
:101BA00000F046FF079B79E604F16C00606787E66A
:101BB000072055E6084840F2BD4100F039FFE0E754
:101BC000054840F2B64100F033FFD5E7069808F02B
:101BD000C3F9072044E600BF5CE2010000000000FA
:101BE0002DE9F04F80468FB004460F46154600F1B0
:101BF000240106220CA818F81C6F1BF049FA94F86F
:101C00001C9018F0010FC9F3401BC6F3C016D9464B
:101C100040F0F4800023A383B97C97F8118011F081
:101C2000010104F12B004FF0060200F0D18004F115
:101C30001E011BF02DFAB8F1FF0F04F1250304F18A
:101C40001F0A00F0CF805246404604F11E010B935C
:101C50000FF0E2F90B9B1846A37F02330CA9A37780
:101C600006221BF015FA3B68D3F800A0EB896386C7
:101C70002B8AA386BAF83030E38610F0F5FD84F89D
:101C80003800D5F8008040460AF038FA7E68A8810E
:101C90002146E080206808F071F9AB89F3801B23AE
:101CA00034683371B9F1000F40F0AE8086F81CB093
:101CB0003146204608F062F908F06AF9D8F8043095
:101CC000D8F8086095F84400B5F80E90FC689E427C
:101CD00038BF1E46C0F3C00140F2E24300F00700E7
:101CE00003FB09F910F0FEFB203400220221241A24
:101CF000012004F08DF8504609F01EFB021D4A4BEE
:101D0000CDF800A0D2B20121002005F0FFFA30F09A
:101D1000020304D0454840F2C53100F089FE4FF07F
:101D2000000A534603220121CDF800A0504605F0D9
:101D3000EDFA40460AF0E2F9BB68CDF81880093B9D
:101D40009E1B3B4B07933B4B059340F2F5333A4FB9
:101D50000893D8F81030A9FB0798CDE903A3451DD7
:101D60002FA3D3E9002348464146FEF7B9F91046B0
:101D700019464FF47A720023FEF7B2F928A3D3E98B
:101D80000023029041464846FEF7AAF924A3D3E96E
:101D900000230190A4FB0701FEF7A2F9EDB220F0A9
:101DA0007F40009033462A460121504605F024FA30
:101DB00030F0020304D01D4840F2F63100F038FE46
:101DC00001220221104604F023F80FB0BDE8F08F85
:101DD0001BF069F9B8F1FF0F04F1250304F11F0AA4
:101DE0007FF431AF1846062200211BF05CF9A6777C
:101DF0000CA9504606221BF04BF934E70B484FF470
:101E0000517100F015FE05E76B7F43F040036B77DF
:101E1000281D0EF0FFFE0123E883337748E700BF5B
:101E20008D49FD1A070000000D0501005CE201006C
:101E3000110501002505010000CA9A3B00000000C1
:101E40002DE9F04F8FB04FF0FF0A1546DFF8F09004
:101E5000DFF8F0B009930A1D0021044608928DF8BE
:101E60002FA019600C91049105910DF134080CAF6D
:101E70000226CDE9019800972B460DF12F0221464D
:101E800000200D9605F084FA02282ED00D9B002B21
:101E900031D19DF82F00FF2835D00538C3B20F2B64
:101EA000E7D880B20AF032F90028E2D090F9393050
:101EB000002BDEDBBAF1FF0F02690C9B0CD00599F9
:101EC00007921846069305F0C3FA049B089A9918DE
:101ED0008842DDE9063219D8CDE904239DF82FA008
:101EE000C7E72146002005F099FA0D9B022BF8D098
:101EF0000D9B002BCDD05846732100F099FD9DF825
:101F00002F00FF28C9D1BAF1FF0F10D0DDE904324C
:101F10000D481344A3FB0001072202FB031106A393
:101F2000D3E90023FEF7DCF8099B803018600FB07E
:101F3000BDE8F08FAFF3008000CA9A3B00000000BC
:101F400031080100B4E201008D49FD1A00000000D3
:101F500070B582B01C4601921546064601AA0220C1
:101F6000FFF76EFF23680BB30198431B1B021FD4BE
:101F7000294605F06DFA1A4A03460721A0FB020222
:101F800001FB032114A3D3E90023FEF7A9F822687B
:101F900002442260002A09DB40F2E24006FB00F026
:101FA000904203D2121A8242FCD8226002B070BD65
:101FB0000146284605F04CFA094A03460721A0FBD2
:101FC000020201FB032104A3D3E90023FEF788F8F2
:101FD0002268121A2260DDE700CA9A3B0000000066
:101FE0008D49FD1A000000002DE9F041B0F8A41160
:101FF00088B0044640F2E2434748002603FB01F163
:1020000005AD0623C5E901668DF80F30A1FB00017F
:102010003FA3D3E900230596FEF762F80DF10F0305
:1020200001950093B4F89A31049004AA2046012146
:102030000EF000FC9DF80F8008F1FF3C5FFA8CFC6D
:102040000DF11603304604F5D27703EB4C0C04F582
:10205000D8764FF6FF7E3A88B8F1000F0AD02B46AB
:10206000724504D0198891424FF001001DD002330F
:102070009C45F5D10237BE42EDD1D4F8F83048BBCB
:10208000BDF8142040F2E24102FB01F1100AC4F84D
:1020900024111A70587094F81A31042262F3020362
:1020A00084F81A3108B0BDE8F081D4F8F81040F295
:1020B000E24302FB03F3100AC4F824310A704870AB
:1020C00094F81A31042262F3020384F81A3108B03A
:1020D000BDE8F081032203F8042C13F8052C94F8D2
:1020E0001A11052542F00302112003F8020C03F82F
:1020F000052C65F302010F20202203F8010C1A7051
:1021000084F81A1108B0BDE8F08100BFAFF3008079
:102110008D49FD1A0700000000CA9A3B000000002C
:1021200038B5044611F070F9A27DC2F341030133C2
:1021300003F00303032B34D063F34202A27503F1CF
:10214000250010F099F963680BB32369FBB112F015
:1021500069FF054605F07AF9C11C002012F012FF54
:1021600012F0ACFF12F05EFF294605F071F912493A
:1021700003460722A0FB010102FB03110CA3D3E9D4
:102180000023FDF7ADFF23691B1A236138BD05F05D
:102190005DF9C11C002012F0F5FEBDE8384012F0D8
:1021A0008DBF6FF34202A2752520CAE7AFF300800E
:1021B00000CA9A3B000000008D49FD1A0000000093
:1021C0002DE9F04F89B0044612F0ECFCC0B250B9D2
:1021D00010F09EF9B848214612F0B6FB09B0BDE8F0
:1021E000F04F12F0B5BC12F0FDFC054612F01CFEDB
:1021F000834612F023FE814613F05AF8064613F088
:102200003BF8824612F0D4FDEDB2804612F0B6FDE6
:1022100010F07EF9002DDDD0012007F0F9FF054612
:10222000002800F085811BF0FF0BF6B240F07781AB
:10223000002E40F0D380FF275A463B4631462046C9
:1022400011F0ACFA0028C5D02B7F626800218DF810
:102250001B105FFA88F803F00F01002A00F0DA8003
:10226000626892F82020900700F1D4800729B1D04D
:10227000A27D120740F16281002940F0B5806B7F9A
:10228000252B00F22A81042007F0C2FF0028A1D0EC
:1022900012F01CFF636A814643B9238C40F271221D
:1022A00002FB03F3B0FBF3F203FB120923681A6984
:1022B000824B0721A2FB030301FB02317CA3D3E97C
:1022C0000023FDF70DFFA0F242334B4582D312F0FD
:1022D00047FD6368059338460FF08CFCE37D9B0750
:1022E000814640F1CE81002800F0CB8101464FF0BD
:1022F000010B049112F084FC2B7F049907AA03922E
:1023000005F11E02CDE901B182460146C3F38013F7
:1023100000922046002211F05BFA504612F0F6FBC4
:1023200012F036FC002840F0C1816548214612F0C9
:102330000BFBB8F1000F40F0BF816168A37D91F8FD
:10234000202043F0800342F0010281F82020A37591
:1023500007F07CFF1623804603714FF6FF732D7F35
:10236000C380514624221C301AF092FE98F81C308B
:10237000C8F80840C5F3401565F3451388F81C30CC
:1023800012F050FE0021C8F810000120079D12F045
:10239000CDFB002E08BFFF2788F81970E37D2D1AAA
:1023A00013F00203C8F8145003D0B9F1000318BFAA
:1023B000012398F81A2063F3000288F81A2007F026
:1023C00045FF03464146D8F80000C8F80C3007F036
:1023D00053FF07F061FF09B0BDE8F08F5FFA8AF0A4
:1023E0000FF06CFC074627E7012915D16B7F0C2BFA
:1023F0007FF4F0AE2A7F009700230193D20905F104
:102400002403204611F03CF900287FF43CAF297FDB
:1024100001F00F01002955D0062953D0022900F000
:10242000A080012959D16B7F0C2B7FF4D3AE2A7F7A
:1024300000970DF11B030193D20905F1240300213C
:10244000204611F01DF9002847D06B7F002B3FF488
:10245000C1AE63682BB12B7F03F00F03072B7FF412
:10246000B9AE03209DF81B9007F0D2FE0546002868
:102470003FF4B0AE07F0EAFE4FF6FF73EB800523A2
:102480002B71B8F1000F68D17F20AB7E2876002E2B
:1024900008BFFF2769F341032868AB7629466F76AA
:1024A00007F0EAFE07F0F8FE94E600BFAFF3008005
:1024B00000CA9A3B00000000A93401008D49FD1AB2
:1024C000493601006B7F252B07D8A27D920602D5E5
:1024D0006268002A47D0252BB8D92B7F03F00F0361
:1024E000042B7FF477AE6B7F252B3FF673AEA37D75
:1024F000D9077FF56FAE12F083FB2B7F0278C3F311
:102500008013B3EBD21F7FF465AE0830062205F1CD
:102510001E011AF0ACFD00287FF45CAE95E7A07DAB
:102520005FFA89F1C0F3C0000FF088FB074683E62D
:1025300067484FF4307100F07BFA74E6FF2F8DF896
:102540001C70C3F3801978D0237EDB1BB3FA83F3AE
:102550005B09002B7FF490AE5CE712F01BFCC0B26D
:1025600093E76B7FB7E7962012F07EFC002012F015
:102570004FFB032007F04CFE814600283FF42AAEB3
:1025800007F064FE4FF6FF73A9F80630052389F8BB
:102590000430B8F1000F70D17F23002E89F8183075
:1025A00014BF3B46FF2389F8193099F81A30D9F83F
:1025B00000006FF3410389F81A30494607F05CFECA
:1025C00007F06AFE12F01CFB2B7F0646C3F3801354
:1025D0003278DB0102F0700243F0030313433370DF
:1025E0000C23384673700FF005FBE37D9F074ED533
:1025F00000284CD033780146304643F0400300F8C1
:10260000023B06221AF044FD062205F11E0106F1E6
:1026100008001AF03DFD304612F078FA12F0B8FAD0
:1026200000284FD112F04AFDA37D2A4843F0010350
:10263000A375214612F088F9CDE605F11E0A07AA16
:10264000514648460FF0B8FB00283FF4E0AEE37D6A
:1026500003F001034B457FF4DAAE5146062204F144
:1026600008001AF004FD297FB0FA80F35B0901F03D
:102670000F01002B7FF400AECCE612F08BFBC3B24F
:102680008BE7A27D04F11901C2F3801B31E6A37D23
:102690003278C3F38013304663F3861200F8022BBE
:1026A00004F1190106221AF0F3FCADE7084840F2E4
:1026B000A24100F0BDF938E612F06CFB059B83F8EF
:1026C000A1003AE6024840F2275100F0B1F9A9E72B
:1026D00080E50100BD34010070B50F4B0F4C104E6A
:1026E000E41AE408A40144F001044FF0FF324FF073
:1026F000FF33304613F0FAF8054603F079FA014645
:1027000030B1084822461AF08CF9284613F080F9B7
:1027100018F014FBE9E700BFF4DA0100E4DB010084
:10272000A8080020BCEB0100022808B501460FD024
:1027300005280DD001280DD0074B084A0848D21AA9
:10274000D208920142F001021AF06BF9002008BD94
:102750000420FCE70320FAE7F4DA0100E4DB0100DF
:10276000D4EB010010B5154C20461AF0ECFE68B908
:10277000134B144A14482168D21AD208920142F02D
:1027800001021AF04EF96FF0150010BD204619F045
:10279000E4FE204619F0E9FEA3682BB19B6C1BB147
:1027A0000A49002220469847A3689B6A1BB1034848
:1027B00098470020E9E71846E7E700BFA4D90100E1
:1027C000F4DA0100E4DB0100E5EB0100D1270000B1
:1027D0002DE9F04F844CA5686B6B8FB02BB1204670
:1027E000984710B9204619F0B1FE7F4819F0AEFEA7
:1027F00060B17E4C2368DBB97D480022002313F0D2
:1028000075F82060A0B9784819F0AFFE6B6B33BB48
:10281000784F7949DFF8E481794D7F1AFF0898F8FD
:102820000030032B00F2D380DFE803F0203DA7C285
:10283000236899689A896B6973B16B489847014618
:102840002068083013F0A8F920688689002EDDD1B1
:1028500013F0DEF82660D9E76FF05701F0E7624821
:1028600098470028D4D10FB0BDE8F08F654C5E4882
:102870000122214619F063FE0028F4D021784B1E76
:10288000012B01D9052907D10846FFF74DFF012388
:10289000286088F80030C2E7BA015B4842F00202C3
:1028A0001AF0BFF8BBE7DFF85CA1DFF860B19AF877
:1028B0000000FFF739FF2A68811A59444A4819F085
:1028C0003EFE2B681E1A04462E60002E6CD101239A
:1028D000CDE900A300220023062003F0FDF8DFF875
:1028E0003091C9F8000050B9B901039041F00101DD
:1028F00048481AF089F8039B88F80030B3E79AF843
:10290000001002292DD0052926D001292CD19BF8B1
:1029100002609AF800002E60D9F80060FFF704FF0B
:102920003A49024606F108001AF088FCD9F800007E
:1029300008301AF07BFC2B6898421CD2B90136484B
:1029400041F001011AF060F8D9F8000013F060F8C6
:10295000032388F8003027E0BBF80230C3F30D06EC
:10296000D7E7BBF80260D4E7BA012C4842F0010275
:102970001AF057F8CDE70223EBE7254E2A683368B3
:10298000194899899B68194419F0D9FD31682E6856
:102990008B89361A034404468B812E6026B9204861
:1029A00013F002F888F80060002C7FF438AF5AE783
:1029B0002A680D48212A28BF212205A919F0BFFD48
:1029C0002B681B1A04462B60002BEDD1C1E7154A7A
:1029D00015491648C82319F0F6FD1248C8210FB052
:1029E000BDE8F04F19F0D9BFA4D90100842F002011
:1029F000C4080020E4DB0100F4DA0100C25F00201B
:102A0000882F0020C35F0020FEEB0100BE5F002086
:102A1000802F002010EC01002EEC0100D4EB01000F
:102A2000A808002049EC01003C08020082EC0100EB
:102A300070B504460E464FF02002EFF3118382F387
:102A40001288BFF36F8F234819F087FD214819F0D2
:102A50008CFD002C37D125461E48042119F082FD3B
:102A60001C48FF2119F07EFDA91D1A48C9B219F0B2
:102A700079FD1848AA2119F075FD3DB1154D013CAD
:102A800014F8011F11BB134819F06CFD1148F1B285
:102A900019F068FD0F48C6F3072119F063FD0D48D2
:102AA000C6F3074119F05EFD0A48310E19F05AFDD0
:102AB000FEE701332F2A08BF1D46E25C002AF8D149
:102AC0002C445D1BC8E700252B46F6E7284619F085
:102AD00049FDD5E7A4D9010070B5184888B003F0C6
:102AE0008DF800220023CDE9062300236FF00802B1
:102AF000CDE90323CDE9013300931149114B12486D
:102B00004FF4806216F002F910490F480B4D104E39
:102B1000104C15F009FF4FF0FF324FF0FF332846FD
:102B200012F0E4FE0146304612F03EFFA368DB6976
:102B3000002BF0D020469847EDE700BF8C0800201E
:102B400020700020D9260000800900209FEC0100A1
:102B5000C4080020A4D90100436803F00303022B3A
:102B600070B504460E46816010D0032B04D0012BB3
:102B70000FD10025284601E005680020002363608E
:102B800010B1314619F01CFC284670BD00680025C4
:102B9000F4E7064A06490748452319F014FD03489F
:102BA000452119F0FAFE0025E7E700BFB4EC01006B
:102BB0003C08020082EC0100014B1860704700BF26
:102BC0001000002030B585B0CDE901010446002594
:102BD00001A90548039500F097FCDDE90230984211
:102BE000B8BF255405B030BDA1C501002DE9F74F90
:102BF000B0F81C90009219F0080F044622D0012969
:102C00000CBF49F0100949F02009A0F81C901434B9
:102C1000204615F0A7FE68B99B4A9C499C48AC2306
:102C200019F0D1FC9B48214619F0CDFC9648AC2107
:102C300019F0B3FE009B83F31188BFF36F8F03B0CD
:102C4000BDE8F08F944FDFF8488209F007090229A8
:102C500006D1204619F0D1FC0028D8D0012864D133
:102C6000D4F818B0A38BBBF1000F19DA0026256841
:102C700023F00703C4E9006643F00103A383A38B99
:102C800003F007024A45019203D0A268002A40F0EF
:102C9000138115B9002E00F059814FF0000A0DE1A3
:102CA00003F00702511F012920D8002123F0070358
:102CB000062A25689BB2C4E900110AD13DB1E28B16
:102CC00029460968013292B20029FAD1E28343F021
:102CD0000203A383204619F090FC06460028CED0BC
:102CE000A38B43F02003A3830026C8E7042A0DD159
:102CF00023F007039AB2A283204619F07EFC054612
:102D000088B142F02002A2830025EDE7634940F23A
:102D10001B133A46404619F056FC40F21B11384648
:102D200019F03BFE00252E46A9E7032834D1B9F15E
:102D3000000F0BD05A4940464FF4AB733A4619F096
:102D400042FC4FF4AB71384619F027FE23685BB99B
:102D50005449404640F257133A4619F034FC40F2C9
:102D60005711384619F019FE23691E685EB94E499D
:102D700040464FF4AD733A4619F025FC4FF4AD715F
:102D8000384619F00AFEA38B23F0070343F006032D
:102D9000A3830025AB4672E7042831D1B9F1020FB5
:102DA0000BD04249404640F25D133A4619F00BFC05
:102DB00040F25D11384619F0F0FDE38B5BB13C4900
:102DC00040464FF4AF733A4619F0FDFB4FF4AF7134
:102DD000384619F0E2FD23695E685EB93249404623
:102DE00040F261133A4619F0EEFB40F261113846A9
:102DF00019F0D3FDA38B23F0070343F00403C7E7C7
:102E0000052831D1B9F1010F0BD02A4940464FF4C2
:102E1000B2733A4619F0D7FB4FF4B271384619F045
:102E2000BCFD23685BB91F49404640F265133A4632
:102E300019F0C9FB40F26511384619F0AEFD23695F
:102E40009E685EB9184940464FF4B4733A4619F08B
:102E5000BAFB4FF4B471384619F09FFDA38B23F0F1
:102E6000070343F0050393E70C4940F26B133A461E
:102E7000404619F0A8FB002540F26B11384619F0C6
:102E80008CFD2E4686E700BF7AED0100A0ED010023
:102E900082EC0100B7ED0100D7EC01003C08020014
:102EA000F9EC010005ED010028ED01003FED010006
:102EB00055ED010064ED01004FF0010A43F00803F5
:102EC00004F11409A383484615F04CFD68B9384A4B
:102ED0003849AC23404619F076FB3748494619F08B
:102EE00072FB3348AC2119F058FD009B83F3118825
:102EF000BFF36F8FBAF1000F37D1002D47D116B154
:102F00002E492046B0474FF02003EFF3118B83F397
:102F10001288BFF36F8F4846CDF800B015F014FD4E
:102F200068B9234A26498123404619F04CFB2548BD
:102F3000494619F048FB1E48812119F02EFD4846EC
:102F400015F020FDA38B23F00803A383A38BDA06DF
:102F500025D523F01003A3830121B4F81C9009F0B8
:102F6000070900297FF473AE51E6A1680029C4D097
:102F7000D1F800A04B68019A9C4620465B46E0478A
:102F8000BAF1000FB9D05146DAF800A0F2E72946AD
:102F9000019A2D685B46204619F04BFBADE713F014
:102FA00020011EBF23F02003A3830221D5E700BF29
:102FB0007AED0100A0ED0100B7ED0100C92F00007E
:102FC000CCED0100E1ED0100F8B504460D4600F13D
:102FD00014064FF02003EFF3118783F31288BFF339
:102FE0006F8F304615F0B0FC68B90C4A0C490D489B
:102FF000812319F0E8FA0C48314619F0E4FA074841
:10300000812119F0CAFC304615F0BCFCA5613A4696
:1030100020460121BDE8F840FFF7E8BD7AED010048
:10302000CCED010082EC0100E1ED01002DE9F0475B
:1030300004460F4619F013FB051E5EDB04F114096C
:103040004FF02003EFF3118A83F31288BFF36F8FE1
:10305000484615F079FC68B9384A3949394881231E
:1030600019F0B1FA3848494619F0ADFA33488121D0
:1030700019F093FC484615F085FCE38BA28B4FF6C4
:10308000FF718B4202F0070650D0022E24D101338B
:10309000E38335464FF00108484615F063FC68B9F4
:1030A000264A2A492748AC2319F08DFA2848494670
:1030B00019F089FA2148AC2119F06FFC8AF31188C4
:1030C000BFF36F8FB8F1000F17D000233246394697
:1030D000204619F0AEFA10E0930701D0062E0FD16A
:1030E00000233B606368F3B9C4E900773546FEB955
:1030F000524602212046FFF779FD2846BDE8F087B9
:10310000052E18D0012E0BD012490E48124A40F25B
:10311000C91319F058FA104840F2C91119F03DFCD2
:103120006FF0040504E01F606760DFE76FF00A05D9
:103130004FF00008B0E76FF08505F9E77AED010080
:10314000CCED010082EC0100E1ED0100A0ED0100F9
:10315000B7ED010064ED0100D7EC010070B5044645
:1031600000F114054FF02003EFF3118683F312886A
:10317000BFF36F8F284615F0E7FB68B9274A284947
:103180002848812319F01FFA2748294619F01BFA0D
:103190002248812119F001FC284615F0F3FBA38B8E
:1031A00003F00703022B1CD0012B0CBF6FF00404AB
:1031B0006FF08504284615F0D5FB68B9174A1B49FE
:1031C0001848AC2319F0FFF91948294619F0FBF902
:1031D0001248AC2119F0E1FB86F31188BFF36F8F21
:1031E00018E0E38B5BB913490E48134A4FF4F873A8
:1031F00019F0E9F910484FF4F87119F0CEFBE38BA0
:10320000013B9BB2E3833BB9204632460221FFF7E4
:10321000EDFC0224204670BD0224CBE77AED0100CC
:10322000CCED010082EC0100E1ED0100A0ED010018
:10323000B7ED0100F9ED0100D7EC0100F8B50D463E
:10324000002939D006680C1FA41BE70824F00704E6
:1032500034446388DB070DD4184A19491948A3235D
:1032600019F0B1F91848294619F0ADF91348A3210E
:1032700019F093FB3946304619F01DFA384436F8F8
:103280003030C01A87420DD00C4A10490D48AB238C
:1032900019F099F90E48294619F095F90748AB211C
:1032A00019F07BFB638823F00103638039463046C5
:1032B000BDE8F84019F0BBBAF8BD00BF07EE010049
:1032C00028EE010082EC010039EE010071EE0100F0
:1032D00097EE01004B422DE9F04703EA010731EA7E
:1032E0000303066814461FD0042F3D46B94628BF85
:1032F0000425CF1B07F1FF3A1AEA070F0ED0334916
:10330000334A344840F2271319F05DF9324819F076
:103310005AF92F4840F2271119F03FFB7CB94FF0C2
:1033200000094846BDE8F087042904D8BDE8F04705
:10333000114619F0ADBA4FF000090425DAE7B36879
:10334000B3EBD40FEBD904F10B013944491BC90885
:10335000304619F006FA80460028E0D009F104054D
:1033600005EBC005354455447F422F40A7EB0909C2
:103370004C44A9F1040307349B1B24F00704A41B4D
:10338000B0EBD30F4FEAD3074FEAE40408D201466B
:103390003A46304619F031FA4146304619F090F974
:1033A0003946304619F087F93844844207D230460E
:1033B000224619F022FA2146304619F081F906EB2F
:1033C000C706738843F001037380AAE7D3EE0100B8
:1033D00007EE010082EC0100EEEE0100B2F5802F55
:1033E0002DE9F04104460E4617466AD33E493F4A4E
:1033F0003F4840F2A51319F0E6F83E4819F0E3F80B
:1034000040F2A511394819F0C8FA043FF51D3E44B1
:1034100025F0070526F00706761B172E4FEAD6077C
:103420000ED83549314A324840F2B51319F0CBF87D
:10343000324819F0C8F82D4840F2B51119F0ADFA2C
:103440002560B7FA87F4C4F12008C4F12404A4006D
:1034500007340023E408EB60631CBB42AF600ED965
:103460002749224A224840F2C51319F0ACF82348F4
:1034700019F0A9F81D4840F2C51119F08EFA05F1AE
:10348000100303EB88080022984529D1630043F01C
:1034900001036B8005EBC4013B1B58002A80488068
:1034A000A91925F834404A80AB5305EBC7032146E0
:1034B0005A8842F0010228465A80BDE8F04119F0CE
:1034C000FFB8042AA1D80F49084A09484FF4D67317
:1034D00019F079F8094819F076F84FF4D67191E7A8
:1034E00043F8042BD0E700BF0BEF010007EE01000B
:1034F00082EC010021EF010072EF010059EF0100A1
:103500009BEF010038EF01002DE9F04F91B08B46A1
:10351000029092461C4600259AF8000008B92846F9
:103520005FE325280AF1010707D0029B5946984717
:103530000028C0F25683013512E2182200210AA8A1
:1035400019F0B1FD9AF80130252B78D000221046F1
:10355000964694461646394617F8013B2B2B00F049
:103560009D8000F29480202B00F09B80232B00F0A4
:103570009B802EB19DF8306046F004068DF83060D7
:10358000BCF1000F05D09DF8306046F008068DF8BC
:103590003060BEF1000F05D09DF8306046F0100697
:1035A0008DF8306028B19DF8300040F020008DF893
:1035B00030002AB19DF8302042F040028DF83020D2
:1035C0009DF8302002F04400442803D16FF38612A6
:1035D0008DF830209DF830202A2B42F080028DF8A3
:1035E00030207BD19DF8312042F001024B1C8DF838
:1035F00031201A782E2A9DF831200CBF012100219C
:1036000061F341028DF8312074D15A782A2A6AD0A8
:10361000013300210A26184610F8012BA2F13007C9
:10362000092F40F28E809DF830200E91C2F34000A9
:1036300040EAD17161F341028DF830205AE00AF17D
:1036400002078DF833309DF83130D90740F14981B8
:1036500054F8049BB9F1000F07DA9DF8302042F0CE
:1036600004028DF83020C9F100095A0740F1428167
:1036700054F8048BB8F1000F80F241819DF831308D
:103680006FF341038DF831304FF0FF3837E12D2BC8
:103690000CD0302B7FF46DAF01225CE74FF0010CB2
:1036A00059E74FF0010E56E7012054E7012652E793
:1036B0000CFB0202303A33461E4616F8010BA0F10D
:1036C0003007092FF4D9994293D09DF830100D920C
:1036D000D20F62F341018DF830108AE70B460022C9
:1036E0004FF00A0CE8E79DF8312042F004028DF813
:1036F000312002331F4617F8012B6C2A41D025D800
:10370000682A2BD06A2A46D04C2A4CD01F4617F87C
:10371000012B9DF831308DF83320782A00F2D980C2
:10372000572A4DD8412A03D0453A022A00F2D180C7
:103730009DF83230042262F302038DF83230012307
:103740009EE006FB01213039034664E7742A26D047
:103750007A2ADBD19DF8313006220DE05A78682AAA
:103760009DF8312006D1012161F3C6028DF8312088
:103770009F1CCCE71346022262F3C6038DF831305A
:10378000C5E75A786C2A9DF8312001D10421EBE776
:1037900013460322F0E79DF831300522ECE79DF84F
:1037A00031300722E8E7BDF8303023F4F04323F04E
:1037B000020343F4804343F00203ADF83030A6E740
:1037C000A2F15801202900F2848001A050F821F0D4
:1037D00095380000D3380000D3380000D3380000FB
:1037E000D3380000D3380000D3380000D3380000AD
:1037F000D338000031370000D3380000953800007E
:1038000055380000313700003137000031370000F3
:10381000D338000055380000D3380000D3380000FA
:10382000D3380000D33800009D38000095380000E0
:10383000B9380000D3380000D3380000B938000090
:10384000D338000095380000D3380000D33800008A
:10385000953800009DF83210012003F0780360F3E2
:103860000201402B8DF8321002BF9DF8301041F05C
:1038700001018DF83010632A31D1003B18BF0123BC
:103880009DF83020C2F340010B4363F341028DF8F1
:103890003020D8E69DF832100220DEE79DF8322075
:1038A00003F07803A3F14000032161F302024342D5
:1038B0008DF832204341E3E79DF83220032113F0D5
:1038C000780F61F302028DF8322014BF0123002328
:1038D000D6E79DF8303043F001038DF830300023F7
:1038E000CEE79DF93020002AB4BFDDF834904FF0C8
:1038F000FF39BAE69B077FF5C7AEDDF838809DF843
:1039000031100023CDE90D339DF8323003F0070369
:10391000012BC1F3C30138D1CB1E042B22D8DFE821
:1039200003F003090921210054F8043BDA17CDE91B
:103930000A3206E0073424F00704F4E80223CDE954
:103940000A239DF8303013F0030656D002983B4608
:103950005246594619F00BF80028C0F2428105443E
:10396000BA46D9E554F8043B01294FEAE372CDE9A0
:103970000A3205D19DF828300A9300230B93E0E723
:103980000229DED1BDF92830D0E7022B23D1CB1E8E
:10399000042B13D8DFE803F0030A0A12120022688E
:1039A0000A920023201D0B930446CAE7E01D20F075
:1039B0000700F0E80223CDE90A23F5E754F8043BB9
:1039C0000A9301294FF000030B93D3D00229B8D1F9
:1039D000BDF82830D0E7042B09D1E31D23F00703FD
:1039E00003F10804D3E90023CDE90A23A9E7032B57
:1039F00004BF54F8043B0A93A3E79DF833007828EA
:103A0000AED8622822D825283FF48FAD5828A7D1F8
:103A10000DF126030093DDE90A0104AB0CAA18F0AE
:103A200060FF8246B8F1000F0DF126000CDB9DF817
:103A30003020A0EB0A036FF3861298458DF83020F2
:103A400002D9A8EB03030D9380463DE063381528A7
:103A500086D801A252F820F0D93A00003D3B000080
:103A600061390000613900006139000061390000EE
:103A70003D3B000061390000613900006139000000
:103A800061390000973B0000653B0000693B000086
:103A90006139000061390000B13A0000613900006D
:103AA000653B00006139000061390000653B0000A2
:103AB000B8F1000FDDF828A00ADB4146504619F0A6
:103AC000C1FA0AEB00080026BAF1000F0CD147E753
:103AD000504619F0B0FAF4E70A9B8DF81030002632
:103AE0000DF1100A0DF11108A8EB0A0306B101331C
:103AF0009DF83220D00668D5023352060D9948BF92
:103B00000E9A0B4448BF9B18B9F1000F76DD9DF863
:103B10003020A9EB0309C2F38003039353076DD44C
:103B2000500661D546B1029B594630469847002859
:103B300057DB039B01351E46302356E01E070FD48A
:103B400013F0100618BF2026DDE90A23002BBFF66C
:103B50005FAF524263EB4303CDE90A232D2657E7BB
:103B60002B26F1E7002653E70A9840B30DF1260310
:103B700000930CAA04AB002118F0B3FEBDF832305C
:103B800003F0EF0343F4F04343F010038246ADF833
:103B90003230002646E70A9B07293FF6E1AEDFE810
:103BA00001F00C04060C08080C0C1D70D8E61D80F2
:103BB000D6E6EA17C3E90052D2E61D60D0E6DFF888
:103BC000C8A006460AF105088EE7110748BF013371
:103BD00093E7184603935946029B98470028039B96
:103BE00004DA11B0BDE8F08F20234D444A46002A84
:103BF000A5EB090109F1FF39EBDC0D4636B1029B5B
:103C00005946304698470028EBDB01359DF83230A5
:103C1000D90601D41A0706D5029B59463020984789
:103C20000028DEDB01359DF83230DB0607D59DF834
:103C30003300029B594698470028D2DB01350D9E80
:103C40002E44731B002B16DC0298434652465946FD
:103C500018F08DFE0028C4DB0544A944A9EB050338
:103C6000002B7FF77DAE029B594620209847002805
:103C7000B7DB0135F2E7029B594630209847002810
:103C8000AFDB0135DDE700BFC6EF0100F0B58FB057
:103C9000D0F8A87005460E4619F092FC044608B10B
:103CA000037833B91C4A2B460B2107A818F098FC5F
:103CB00007AC01A9284619F087FC024660B11749F4
:103CC000174B18485B1ADB089B0143F0030321469E
:103CD00018F0BBFE00230193019BCDE90A4704A91C
:103CE000FF1A28460C9719F07FFC044602A815F02D
:103CF000EBF854EA00030BD10498059D6424A0FB63
:103D00000401DDE9022304FB0511FCF7E9F90D903C
:103D10000AA8B0470FB0F0BDCCEF0100F4DA010003
:103D20001CDC0100CFEF010070B58368114C6426E4
:103D300073434668B3FBF6F60F4B86B00546006842
:103D4000E41A00F079F9D5E90132E408A401991ADE
:103D5000CDE9033644F00304EB680090CDE901128D
:103D60000593064823460622694618F0A3FE06B0CE
:103D700070BD00BF1CDC0100F4DA0100F6EF0100A9
:103D80000146014814F006BE8D3C000008B5074905
:103D9000074B0848C91AC908890141F0030118F006
:103DA00033FEBDE808400448FFF7EABF1CDC010011
:103DB000F4DA010035F00100293D000030B510496A
:103DC000104889B0002219F01BFD0F4D0F49002249
:103DD0000023CDE9062300240E23CDE90334CDE9E9
:103DE00001440B4B00944FF48062284614F08EFF80
:103DF0000849284614F098FD204609B030BD00BFA0
:103E0000193E0000000B0020380B002060780020D5
:103E10000D42000055F00100014815F0B9BB00BF8C
:103E2000400800202029F8B505460C4609D9144958
:103E30001448154A872318F0C6FB1348872118F049
:103E4000ACFD002003460246012715F8011B09B10D
:103E5000A34200D3F8BD252902D182F00102F4E784
:103E6000002AF2D041F02006613E192EEDD87329C8
:103E700004BF07FA03F2104301330022E5E700BF55
:103E80008AF0010082EC01005DF001000C4A002381
:103E900010B513700B4A13600B4B0C4A1A604FF4A9
:103EA000004000F0D5FD00F0C1FA094818F086FD89
:103EB000BDE81040074908481423482219F05EBBAA
:103EC000C55F0020902F00201400002001CA0100CF
:103ED000982F002040900020A02F002070B5194B93
:103EE000194CE41A902C0BD918491948194A40F278
:103EF0004A2318F068FB174840F24A2118F04DFD9C
:103F0000BFF35B8F144B53E8006F721C43E8002132
:103F10000029F8D1BFF35B8F1EB92511094CAE42C1
:103F200000DB70BD237B53B123689B690BB1204636
:103F30009847636804221968204600F053FA013656
:103F40001034ECE724DC010034DC0100A2F00100B5
:103F500082EC01005DF00100942F002010B54FF0BD
:103F60002003EFF3118483F31288BFF36F8F0448AB
:103F700018F034FD84F31188BFF36F8F10BD00BFBC
:103F8000982F002010B5044C237813B9034815F07E
:103F9000FFFA0123237010BDC45F002040080020F9
:103FA0000C4BBFF35B8F53E8002F013243E8002135
:103FB0000029F8D1BFF35B8FBFF35B8F064B53E84B
:103FC000002F013A43E800210029F8D1BFF35B8FAD
:103FD000704700BF902F00208C2F00200020064B40
:103FE000BFF35B8F024653E8000F43E8002100292E
:103FF000F9D1BFF35B8F7047902F0020F8B5FFF722
:10400000EDFF0B4C0B4D2D1B07462D110026AE422C
:1040100000DBF8BD204618F0E7FC28B123681B69D7
:1040200013B139462046984701361034EFE700BFF8
:1040300024DC010034DC0100164B984237B50446FD
:1040400002D3154B984220D314480022002301A923
:1040500014F09AFB0546D8B90122019BBFF35B8F90
:1040600053E8001F43E800200028F9D1BFF35B8F1D
:10407000019821464122043018F0CBFF019C7E2399
:1040800084F8453084F846500434204603B030BDEF
:10409000034CFAE7ECD80100B4080200A02F00207E
:1040A000C6F0010050B1064B984206D303F5B46345
:1040B00098422CBF0020012070470020704700BFAD
:1040C000409000202DE9F84F424B1B78044603B97D
:1040D000A0B1FFF743FF054618B194B1284618F088
:1040E00093FD2CB93C4B1B68002B01DDFFF786FFCD
:1040F0003A4818F071FC041E18BF01242046BDE8A0
:10410000F88F374BBFF35B8F53E8002F013A43E83A
:1041100000210029F8D1BFF35B8F324B1B7893B994
:104120002B7ADB070FD418F082FD8046284618F062
:1041300049FD01464046FFF775FEDFF8ACB0DFF8F9
:10414000ACA0064636B92A4E2A4FBF1B3F114FF08E
:1041500000083CE0B6FA86F7C7F11F073946284643
:1041600018F033FD244B9842024602D3234B984269
:104170001BD31046FFF796FFB8B95A4515D0698989
:10418000C1F3891100F020F91D498146D8231D484B
:10419000524618F018FA1C48394643464A4618F069
:1041A00012FAD821504618F0F8FB012303FA07F75A
:1041B00026EA0706C6E7304618F016FC20B1336839
:1041C00029465B683046984708F101081036B84523
:1041D000F1DB83E7C45F0020902F0020982F0020A0
:1041E0008C2F0020C55F0020C6F001005DF00100AB
:1041F00024DC010034DC0100ECD80100B40802002A
:104200003C08020082EC0100E0F00100164B174A66
:104210009B1A002B10B50BDC15491648164A40F2C4
:10422000F14318F0D0F9144840F2F14118F0B5FB11
:10423000FFF754FE16F004FF104B186030B1104B1E
:104240001B68092B02DD0F4815F0A2F90D4C002068
:10425000FFF738FF0028FAD14FF0FF324FF0FF335D
:10426000204615F0D9F9F2E734DC010024DC010026
:1042700022F1010082EC01005DF00100C02F00205E
:104280008C2F002040080020284B37B51B68418147
:1042900004469847E0604FF02003EFF3118583F365
:1042A0001288BFF36F8F2248214618F08BFB85F3ED
:1042B0001188BFF36F8FBFF35B8F1E4B53E8002F46
:1042C000511C43E800100028F8D1BFF35B8F1A4B54
:1042D0001B7883B14FF02003EFF3118483F312882E
:1042E000BFF36F8F0020FFF7EDFE84F31188BFF35B
:1042F0006F8F03B030BD114B1B68002BF9D052B942
:1043000000220023CDE900230D484FF40042002392
:1043100017F092FCEDE70A2AEBD1094819F07CFA74
:10432000084803B0BDE8304015F032B91400002051
:10433000982F00208C2F0020C55F0020C02F002068
:10434000000B002040080020F8B50F4F3D7875B9EC
:104350000E4C0F4EFFF7C2FD361B3611B54207DB80
:104360000020FFF7AFFE0028FAD101233B70F8BD13
:10437000204618F039FB18B1236820465B6998473E
:1043800001351034EAE700BFC55F002024DC0100DE
:1043900034DC010007B504380190BFF35B8F50E8AF
:1043A000003F5A1E40E800210029F8D1BFF35B8F7F
:1043B000012B03D1034801A914F052FA03B05DF8B0
:1043C00004FB00BFA02F0020044A054B9B1AB1EB51
:1043D000D30F34BF52F8310000207047F4DA0100E7
:1043E00024DC010070B50D4C041B2411013405467A
:1043F0000E46E4B248B90A490A480B4AD12318F0DC
:10440000E2F80948D12118F0C8FA6B6801221C7142
:104410001E605A71BDE87040FFF7B4BD24DC010096
:10442000CBF1010082EC01009AF10100024903483E
:104430008023202219F0A2B8E0950020C42F00208C
:1044400037B50023094D01930120FFF73BFE0446D9
:10445000FFF7A6FD0022002301A9284614F094F9D5
:1044600008B1002CF0D1019803B030BDC42F00205A
:1044700007B50023019307480022002301A914F087
:1044800083F910B1FFF7DCFF0190019803B05DF8EC
:1044900004FB00BFC42F0020F0B5037A85B0DC0711
:1044A00001901ED4457A2D091BD000242646019880
:1044B000314618F08AFB0746FFF7F4FD70B134B9B6
:1044C000019B29461869FFF7ADFC044648B124FA60
:1044D00006F3D90702D53846FFF75CFF0136AE4236
:1044E000E5D3019B1A7A920704D55B69084C0393C4
:1044F000039B2BB9064801A914F0B2F905B0F0BD31
:104500001D6803A9204614F0ABF90395F0E700BF3E
:10451000C42F00200E2A2DE9F84F80460F4615467D
:104520000BD931493148324A40F23B1318F04BF86D
:104530002F4840F23B1118F030FAFFF799FF04467C
:1045400058B301234FF0000A032D4360A0F808A0E0
:104550000CD9037AC0F814A043F002030372A5F14A
:10456000020900F1140BB9F1000F0EDC637AC4F8F4
:10457000108065F30713032D637219D8AA0039461A
:1045800004F1140018F084FD07E0FFF771FF064600
:1045900030B92046FFF780FF34462046BDE8F88F4B
:1045A000CBF80000A9F10709C0F800A08346DAE7BC
:1045B0003946082204F11800D4F8148018F068FD78
:1045C000023D0837072D2E4628BF07264FEA8609E9
:1045D000394608F104004A4618F05AFDAD1BD8F8D8
:1045E00000804F44EED1D8E70EF2010082EC0100CA
:1045F000E2F101000EB403B503AB014653F8042BFE
:1046000004480193FEF780FF02B05DF804EB03B0AD
:10461000704700BF794800002DE9F0471D46089B10
:104620001746DA0604460E4605D499064CBF2A49B9
:104630002A49FFF7DFFFDFF8A8904FF00008A845F0
:104640002ADBDFF8A080DFF8A090DFF894A0002537
:10465000BD422FD2725D49462046FFF7CBFF0135A0
:10466000102D20D12149DFF87880DFF88490204692
:10467000FFF7C0FF0025AF4228D9725DA2F12003E9
:104680005F2B28BF2E2249462046FFF7B3FF013596
:10469000102D14D1BDE8F08749462046FFF7AAFF48
:1046A00008F10108CBE76A07D2D151462046FFF74F
:1046B000A1FFCDE741462046FFF79CFFCFE76B0700
:1046C000D9D141462046FFF795FFD4E74146204621
:1046D000FFF790FFDBE700BF8AFB010019F2010042
:1046E00024F2010022F201001CF2010026F2010076
:1046F00028F201002DE9F04F87B01C4601F00103BC
:1047000005929DF84090BDF948A00493074688465D
:1047100001F0020B01F0080618F0EFF9024600283C
:1047200044D03A493846FFF765FF0546BBF1000F14
:1047300008D018F0440F3BD1354922463846FFF7E0
:1047400059FF0544049B53B1324B334953F8292098
:10475000324B3846002A08BF1A46FFF74BFF3EB1DE
:104760002F4B304953F829203846FFF743FF0646C0
:10477000BAF1000F16DB059B002B45D0012303FA8D
:1047800009F9294B294C19F0100F18BF1C46514646
:104790009DF84400FFF718FE214602463846FFF711
:1047A00029FF0644701907B0BDE8F08F0546BDE744
:1047B0001F4B18680028C4D01E4B4FF47A781B6832
:1047C000B4FBF3F44FF46161B4FBF0F300FB13446A
:1047D00008FB04F44FF03C0CB3FBF1F201FB123187
:1047E000B4FBF0FEB1FBFCF300FB1E440CFB131109
:1047F00008FB04F40091B4FBF0F00F49CDE901E0AF
:104800003846FFF7F7FE9CE7084CC0E739F2010095
:104810003DF2010068DC010062F201002BF20100B0
:104820007CDC010065F2010035F2010030F201008C
:10483000E42F0020E82F002046F2010038B50C4696
:10484000E107054603D5084A0849FFF7D3FEE2060B
:1048500008D4A30628464CBF05490649BDE83840A0
:10486000FFF7C8BE38BD00BF2BF2010062F20100A5
:104870008AFB010019F2010038B54B681A68CB6851
:104880009A4205460C4602D1084618F097FB636829
:10489000BFF35B8F53E8002F511C43E80010002842
:1048A000F8D1BFF35B8FA3689D5463681A68E3680F
:1048B0009A4209D905490648064A762317F083FE2D
:1048C0000448762118F069F8002038BD9AF20100FA
:1048D00082EC01006BF201002DE9F0478B7A13F0B6
:1048E00007088AB004460E46174622D00A7A49893C
:1048F000C3F3C203C1F38911D243CDE9008302910E
:10490000F36802F001023946FFF7F4FE8146357A7A
:10491000ED4315F001050ED02146304618F0F1F9AF
:10492000B8F1000F39D0424639462046FFF786FFDE
:1049300033E0C146EBE7B8F1000F34D1E3685BB96F
:1049400028492948294A4FF4E97317F03CFE2748C3
:104950004FF4E97118F021F80027E368069306AADE
:104960003B46A168304618F0B8F9069A63681A60A9
:104970003AB1A368134413F8015CA5F10A035D4240
:104980005D41204618F01AFB069B1F44002BE4D122
:104990001DB117492046FFF72DFE20460AB0BDE89D
:1049A000F04718F00BBB304618F041F911490246A8
:1049B0002046FFF71FFE4FF0100A05AA2B4606A956
:1049C0003046CDF814A018F088F9059A002AAAD02C
:1049D0004B46009706A92046FFF71EFE059B1D4487
:1049E000EBE700BFCAF2010082EC01006BF20100AC
:1049F000D7F2010062F2010073B542F20F738B42ED
:104A000028BF0B4605680F4A04460521684617F083
:104A1000E7FD63680C495B6806460422284618F0E7
:104A200063F963683246694628465B6818F05CF9AA
:104A3000636806495B681722284618F055F902B0EA
:104A400070BD00BF96FF010011F30100F9F20100F3
:104A5000084A10B50123084C13600021A04204D875
:104A600001B11360054B186010BD40085B000121C7
:104A7000F4E700BFE82F002040420F00E42F0020A1
:104A8000014B01221A707047D65F0020024B034889
:104A900001221A7018F092BAD75F0020ACDC010036
:104AA0000148FFF7A9BF00BFACDC010010B5084604
:104AB0000C4618F07AF8054821460E22FFF70CFF45
:104AC0002046BDE8104018F09FB800BFACDC0100E4
:104AD000054B1B781BB141F2883018F062BEA42050
:104AE000002116F075BA00BFD75F00202DE9F0470E
:104AF000DFF88C90DFF88CA080460F46042499F8EC
:104B00000050CDB94FF0FF334FF0FF32504614F054
:104B10001BFA3A464146284613F0A8FA0646504684
:104B200014F00CFB184DFEB101232B7099F80030E6
:104B30006BB93846BDE8F0873A464146002013F08D
:104B400095FA0646EEE75CB92C704FF0FF34002072
:104B500013F008FB0028ECD02B78002BF3D1E8E70A
:104B6000013CFFF7B5FFF2E72B7813B1013C04D10C
:104B70002C702B78002BC2D1DBE7FFF7A9FFF8E7F9
:104B8000D75F00202C080020D65F00202DE9F843D5
:104B900005464FF02003EFF3118683F31288BFF32D
:104BA0006F8F224813F0D0FE68B9214A214922486C
:104BB000812317F008FD1D49204817F004FD1C480B
:104BC000812117F0EAFE194813F0DCFE1C4B1C682B
:104BD0009CB11C4FDFF870804FF00C09D4E9013212
:104BE000002D08BF13462BB198F8142009FB02F2E0
:104BF000B85C98472468002CF0D10C4813F0B2FE42
:104C000068B90B4A11490C48AC2317F0DCFC074982
:104C10000F4817F0D8FC0648AC2117F0BEFE86F30B
:104C20001188BFF36F8FBDE8F88300BF003000200C
:104C30007AED0100CCED010082EC0100E1ED010014
:104C40000430002010300020D82C0020A0ED0100FE
:104C5000B7ED010000F01F0301229A400A4BBFF399
:104C60005B8F400903EB800050E8003F43EA0201FC
:104C700040E8001CBCF1000FF6D1BFF35B8F1A4275
:104C800014BF0120002070471C30002030B51D4BA0
:104C90001C7DBFF35B8F04F01F0301229A401A4B67
:104CA000610985B0D04303EB810353E8001F01EA9B
:104CB000000543E8005CBCF1000FF6D1BFF35B8F49
:104CC000114217D0114D0C2202FB045207CA01AB4E
:104CD00083E807000E4A7AB193E8070018F002FA59
:104CE0000020FFF753FF0C235C432A1900232B51AC
:104CF000C2E9013305B030BD82F31188BFF36F8F75
:104D0000EEE700BFD82C00200C300020103000202F
:104D1000E5D001002DE9F041374B384C1D7D88B0BE
:104D200080462846FFF796FF60B96F4642462946FF
:104D3000384618F050F997E807000C2606FB0546A0
:104D400086E807000C236B43E218E05C6E0905F06F
:104D50001F0700283BD0B8F1FF3F10D0D2F808E081
:104D60002748284A4FF4004C00210023EEFB0C0199
:104D7000FBF7B6F90121A8EB000016F04BFD15F08A
:104D800085F90120FFF702FFBFF35B8F1E4B012265
:104D9000BA4003EB860353E8001F114343E80010B9
:104DA0000028F8D1BFF35B8F0C2303FB054494E884
:104DB000070005AB83E80700144A1AB193E807001F
:104DC00018F07DF9FFF762FF15F094FE0120104AFC
:104DD000BFF35B8F0123BB40DB4302EB860656E843
:104DE000002F1A4046E800210029F8D1BFF35B8F5D
:104DF00008B0BDE8F08100BFD82C002010300020A2
:104E00003F420F0040420F000C300020BFD0010095
:104E10001C300020014910220A60704710ED00E0AC
:104E200072B6404080F31188BFF36F8FBFF34F8F8E
:104E300030BF62B6BFF36F8F704700BF72B6494094
:104E400081F3118820BF80F3118862B6704700BFDC
:104E500073B506460C4601B3134B144D1448ED1AB6
:104E6000ED08AD0145F00105ADF80050D1E9012391
:104E7000096817F003FEADF80050D4E90423E16897
:104E80000C4817F0FBFDE1690B482A4617F0C9FDF5
:104E9000A1690A482A4617F0C4FD2146304602B0EF
:104EA000BDE8704013F0CAB9F4DA010004DC010077
:104EB00029F3010058F3010087F3010096F3010084
:104EC00043B2002B08DB012200F01F0002FA00F0C1
:104ED0005B09024A42F82300704700BF00E100E08E
:104EE00043B2002B0DDB01225B0900F01F0002FA28
:104EF00000F02033034A42F82300BFF34F8FBFF383
:104F00006F8F704700E100E0054B420900F01F0081
:104F100053F82220012303FA00F01040704700BF2D
:104F200000E100E070B54C1C072C05460E460FD979
:104F3000114A12491248592317F045FB11483146CE
:104F400007232A4617F03FFB0B48592117F025FD90
:104F50006BB2002BACBF03F160430B4B4FEA441420
:104F6000B8BF05F00F05E4B2AABF03F561435C5575
:104F700083F8004370BD00BFC4F30100FAF30100E1
:104F800082EC010015F4010014ED00E008B572B6E2
:104F9000044BDA691AB10022DA6118F036FB62B606
:104FA00008BD00BFD82C002030BFFFF7FDBF00BFF9
:104FB0000F4A08B50F4B22F07F029A60BFF34F8F64
:104FC000BFF36F8FD3F8882022F47002C3F88820D3
:104FD000EFF3148323F0040383F31488BFF36F8F7C
:104FE00013F0F2F916F052FA00F082FB13F0F6F922
:104FF0000000000000ED00E00A4A0B4993680968D0
:10500000C3F8B8100949C3F8B4004B6843F08053A3
:105010004B60002383F31188BFF36F8F9368D3F83D
:10502000B8007047D82C0020A4EB010000ED00E090
:1050300001B518F0D7FABDE8014016498A684FF06B
:1050400038001044EFF3098C80E8F01F202080F333
:105050001288BFF36F8F104F4FF000660A6A8A60A4
:105060003E60D2F8B4000023C2F8B43080F3118857
:1050700004B5104600F084FBBDE8044002F138009E
:1050800090E8F01F8CF3098801B513F017FFBDE815
:1050900001407047D82C002004ED00E01EF0040F02
:1050A0000CBFEFF30880EFF30980816911F8021C4F
:1050B0000229FFD001B517F093FF01BD42F8203C53
:1050C000009B42F81C3C0A49019B42F8183C029B99
:1050D00042F8143C21F001014FF0807342F8043C87
:1050E00042F8081C0023203A8265C0F8B4307047AB
:1050F000A3C601000A4A0346906878B113F1160F5F
:10510000D0F8A40005D0A0F120029A4205D883422D
:1051100003D2814228BF002070470020704700BFA3
:10512000D82C002008B50B4B044698600E46154657
:1051300013F0C4FE204600F023FB284686F30988BE
:10514000002163B681F31188BFF36F8F0022002323
:1051500017F0A7FAD82C002001B572B60B4AD06917
:1051600000281EBF0021D16118F04FFA62B6EFF39C
:105170000580A0F110004FEAC0000549014409C9AB
:105180009847BDE80140034908470000D82C00209B
:10519000BCD9010099510000044B9968186A8842F3
:1051A00003D003494FF080520A607047D82C00208A
:1051B00004ED00E02DE9F0473F4B404C404DE41A30
:1051C000E408A40144F00109074688463D484946E1
:1051D000164617F019FCAB6ADB0603D53A48494678
:1051E00017F012FCAB6A180704D5384844F00101E7
:1051F00017F00AFC324DAB6A990724D46FF01509F9
:105200002F4DAB6ADB0704D5314844F0010117F09C
:10521000FBFBAB6A9D0604D52E4844F0010117F054
:10522000F3FB274DAB6AD80625D4AB6A990722D485
:105230000024234A936A43F0FF03936200233370F0
:105240002046BDE8F08744F0010A2348514617F094
:10525000DBFBD5F83490AB6A1A06CFD51F4852460F
:10526000494617F0DEFBB8F1000FC9D0AB6A23F056
:105270008003AB62C4E76B681A05D9D53946484646
:10528000FFF738FF044618B180F309880224D0E7FD
:10529000AB6ADB06CCD5124A1249134840F24913D7
:1052A00017F091F9114817F08EF90D4840F24911A5
:1052B00017F073FBBDE700BFF4DA010004DC010066
:1052C00000ED00E055F401006BF401009EF40100D4
:1052D000DFF40100FEF40100B1F40100C9F40100A3
:1052E0002DF5010067F5010082EC0100B1F5010028
:1052F00070B5234B234C244D2448E41AE408A40140
:1053000044F00106314617F07FFBAB6A9B0103D5E1
:105310001F48314617F078FBAB6ADD0104D51D4804
:1053200044F0010117F070FB174DAB6A180304D568
:10533000194844F0010117F067FBAB6A590304D523
:10534000164844F0010117F05FFB0F4DAB6A9A035A
:1053500004D5134844F0010117F056FBAB6ADB0398
:1053600004D5104844F0010117F04EFB064A936A39
:105370006FEA03436FEA13439362002070BD00BFDE
:10538000F4DA010004DC010000ED00E0D4F50100D6
:10539000ECF50100FFF5010019F6010037F60100F8
:1053A0005CF6010076F601002DE9F0412A4B2B4C0A
:1053B0002B4DE41AE408A40144F0010807460E4608
:1053C0002848414617F020FBAB6AD90403D526488C
:1053D000414617F019FBAB6A1A0504D5234844F07F
:1053E000010117F011FB1E4DAB6A9B0512D544F06D
:1053F00001081F48414617F007FBA96BAB6A180468
:1054000008D51C48424617F00CFB1FB1AB6A23F4C9
:105410000043AB62124DAB6A590504D5164844F0FF
:10542000010117F0F1FAAB6ADA050DD5134844F023
:10543000010117F0E9FA0A4A936A002043F47F4316
:1054400093623070BDE8F081AB6A9B04F3D50C48E1
:1054500044F00101EDE700BFF4DA010004DC0100D3
:1054600000ED00E0A1F60100B7F601009EF4010096
:10547000C8F60100E1F60100F6F6010011F701009F
:10548000FEF401002DE9F0437C4B5E688BB00D46C5
:10549000C6F30804002787F31188BFF36F8F02F06B
:1054A0007F43B3F17F4F0DD102F00C03082B1AD1CB
:1054B0007349744B7448C91AC908890141F0010144
:1054C00017F0A2FA714A7249724840F2F23317F0AB
:1054D0007AF8714817F077F86C4840F2F23117F01B
:1054E0005CFA002505E012075CBF05460127002D88
:1054F000E8D000238DF80730E31E092B00F2A580C9
:10550000DFE803F005929672A3A3A3A3A39A5D4AD2
:105510005B4EDFF868816148B61AF608B60146F0BE
:105520000106314617F070FAD8F82C404FF0000908
:1055300014F002048DF8079005D05948314617F051
:1055400063FA002407E0D8F82C30002B1EDA554807
:10555000314617F059FA9DF80730A3B920222946A1
:1055600002A817F095FD099B002F00F08280C3F37D
:10557000080222B96FEA53236FEA4323099302A971
:105580002046FFF765FC0BB0BDE8F083D8F82C305F
:105590005B003CD54448314617F036FAAB6933F826
:1055A000022C4DF602739A4206D129683F483246D2
:1055B00017F037FA2C68CEE798F828303BB10DF198
:1055C000070201212846FFF7F5FD0446C3E798F8D6
:1055D00029302BB10DF107010120FFF7E5FEF4E7BB
:1055E000B8F82A309BB213B1FFF782FEEDE73049DD
:1055F000264A284840F2C32316F0E5FF2D4816F04E
:10560000E2FF40F2C321214817F0C7F9A3E7284978
:105610001E4A204840F2C72316F0D5FF264816F050
:10562000D2FF40F2C721EEE70DF107020021C9E7E2
:105630000DF107010020D0E71149124B1F48C91A8C
:10564000C908890141F0010179E70E4A0C4B1C4859
:105650001C499B1ADB0816F4F87F4FEA831318BF26
:10566000014643F001031848A4F1100217F0EDF9C8
:1056700067E723F4FF7323F001037FE700ED00E009
:1056800004DC0100F4DA010029F701002DF5010026
:1056900054F7010082EC010067F70100A5F7010053
:1056A000BCF70100DDF70100EBF701000AF801008B
:1056B0003C08020026F801004AF801007AF80100CF
:1056C000B3F801009EF80100CCF80100024A5369CA
:1056D00043F010035361704700ED00E0EFF30880E2
:1056E000EFF3098101B57246FFF7CCFE01BD00BFA3
:1056F000044800232021C2180133272B82F800130D
:10570000F9D1704700E100E018F0EAF8202080F3BA
:1057100011880B484FF0AA014FF4026217F0C3FC46
:1057200007484FF40261401880F30988EFF31480B2
:105730000221084380F31488BFF36F8FFFF738FC12
:1057400000860020064B9B68834207D1EFF3058358
:1057500023B1044A536843F08053536015F086BC6C
:10576000D82C002000ED00E0024B034A0348012141
:1057700000F08EB80000012000000020BCDC010019
:10578000D0F8A420054B203A1A60054A2021C3E92D
:1057900001121846012100F0A3B800BF20300020FC
:1057A00000000B15F8B52A4F0E460021B14214DA5D
:1057B0004468002C48D0C3B104F1FF3C14EA0C0F3C
:1057C0000DD0244A244B2548D21AD208920142F027
:1057D000010217F026F96FF015021046F8BD1F2CD4
:1057E000EFD905681CEA050FEBD1202CD5B2D0F813
:1057F00008C0026816D9B4F1004F15D8013CB4FABC
:1058000084F4C4F11F046400072D4CEA04040DD98C
:10581000104A114B1248D21AD208920142F00102EA
:105820002946D6E70824EFE73E24EDE722F01F02E1
:105830002A4342F0100244F00104C7F89850C7F818
:105840009C20C7F8A0406A1C01310C30AEE700BFB5
:1058500000ED00E0F4DB0100F4DA0100E3F8010000
:1058600006F90100044B0522C3F89420BFF34F8FC3
:10587000BFF36F8F704700BF00ED00E0BFF35F8F95
:10588000024B0022C3F89420704700BF00ED00E0F7
:1058900038B50E4D01232A780C46FFF783FF287098
:1058A000163011D140F21113094A0A490A4816F07C
:1058B0008AFE2146094816F086FEBDE838400448B5
:1058C00040F2111117F069B838BD00BFD85F002051
:1058D0002CF901003C08020082EC010063F9010090
:1058E00010B5134A002312780C46FFF75BFF10F146
:1058F000160F0AD00F4B0022072800DD10BDC3F899
:105900009800C3F8A0200130F6E70B4A0B490C4879
:105910004FF4987316F057FE21460A4816F053FECE
:10592000BDE8104004484FF4987117F036B800BF36
:10593000D85F002000ED00E02CF901003C080200D7
:1059400082EC01008FF90100274910B50C68082C82
:1059500013D94FF4A473254A2549264816F033FE7F
:1059600025480822214616F02EFE20484FF4A47147
:1059700017F013F84FF0FF3010BDFFF77FFF4868B6
:105980001E490022944200F10C001AD11C4B1C70DD
:10599000FFF768FFD1F89030C3F30723082B0ED030
:1059A0001849124A13484FF4D47316F00CFE1648E7
:1059B00016F009FE0D484FF4D47116F0EEFF0020EA
:1059C000DAE7C1F8982050F80C3C23F01F0313438A
:1059D00043F01003C1F89C3050F8043C43F001033D
:1059E000C1F8A0300132CDE7C8DC01002CF901007C
:1059F0003C08020082EC0100BCF9010000ED00E06F
:105A0000D85F0020F0F9010040FA0100014B186056
:105A1000704700BF180000204FF02003EFF3118201
:105A200083F31288BFF36F8F06490123C1F8403515
:105A30004FF08041C1F8783582F31188BFF36F8F42
:105A40000020704700E0014020B1034B800143F08B
:105A500001031847704700BF60DC0100074A034696
:105A6000106828B9D96831B1196921B1136070473C
:105A70006FF0770070476FF0150070472C300020F2
:105A8000052870B5054605D8012606FA00F111F083
:105A90002A0F0DD10C4B0D4A0D48D21AD208920193
:105AA00042F00102294616F0BCFF0024204670BDDA
:105AB000084817F0AFFB04460028F7D031460830FD
:105AC0000FF048FF2575F1E7F4DA0100CCDB0100A7
:105AD0007BFA0100480900202DE9F0410228DDE9A8
:105AE0000667044643D0062803D0002835D1214854
:105AF0001BE02149097801292FD13478012C10D0DD
:105B0000022C28D01D4A1E4BD21AD20892010146FF
:105B10001C4842F0010216F084FF00252846BDE82B
:105B2000F081144800240136013F17F073FB05464D
:105B30000028F3D000F10808012140460FF00AFFC9
:105B40002C75002EEAD0002FE8D03A463146404668
:105B500017F074FBE2E70C48E5E7084A084B0B48EE
:105B6000D21AD208920142F001022146D3E7064838
:105B7000DBE700BF14090020E8070020CCDB0100B0
:105B8000F4DA01008FFA0100E0080020A2FA010017
:105B900010B5124B1B78012B044616D1017D01294B
:105BA0000ED0032918D00E4B0E4A0F48D21AD20835
:105BB000920142F0010216F034FF6FF0150010BDA3
:105BC000042104F1080017F02AFB084B214618684D
:105BD0000FF0EAFE0020F2E70221F2E7E8070020DA
:105BE000F4DA0100CCDB0100B6FA0100303000200D
:105BF000014B1B681B6918472C300020124A38B52E
:105C0000124B134C1060134A1B68A41AE408A40139
:105C100043B9114844F0010116F0F6FE6FF0120589
:105C2000284638BDDB689847054630B1014644F048
:105C300001020A4816F0F5FEF2E7094844F00301B4
:105C400016F0E2FEECE700BF303000202C300020E0
:105C5000CCDB0100F4DA0100C6FA0100DFFA010032
:105C6000FBFA01002DE9F0411646C21D22F00302A5
:105C7000751E0F46ADB2186082B004461680002132
:105C8000042207FB050017F00EFABDB1023EB6B2C2
:105C900006FB077306FB07F81C44A8EB0308002566
:105CA000042204EB08000DEB0201019417F0F0F957
:105CB000B542A4EB070405F10105F1D102B0BDE83E
:105CC000F08100BF70B5056882B095B1EB1D23F07F
:105CD00003030422044629460DEB02001E8817F038
:105CE000D7F9019B23B1DA1D22F00302013E168091
:105CF0002360284602B070BD0B6870B50C4605469F
:105D000083B1073323F003031E880136B6B20422A1
:105D10002146284617F0BCF9EB1D23F003031E8033
:105D2000256070BD0126F2E702FB0100704700BF4D
:105D3000401A80B2B0FBF2F0704700BF531E11440E
:105D40009BB242B1DB430138CA1811F8013D00F89B
:105D5000013F9142F9D17047014402E010F8013B44
:105D60001BB98842FAD1002070470120704700BF5C
:105D700010600860704700BF0A68034600689042E0
:105D800005BF00220A6000201A607047D2F800C0E8
:105D9000CCF80000D2F800C0CCF8041010607047B6
:105DA000884203D01AB143681360704700207047DF
:105DB0000B68834209D02AB1586810601A680A60DB
:105DC00018467047002BF9D1FAE70023F8E700BF27
:105DD0002DE9F041DFF830800C4E0C2706F130043D
:105DE0004546221D214628460C3CFFF7C1FFB44220
:105DF000A5F10805F5D1043F3B1DA8F12008A4F149
:105E00003006EBD1BDE8F081AC3000203C31002001
:105E100010B40346154C8C4692B100EB40010CEBDC
:105E20004C00000100EB81012144487A0C7AA04229
:105E300004BF0130087210BC614618460FF04CBA1E
:105E400001EB4102120100EB400302EB8303234408
:105E50009C7ADA7AA24201D010BC704701329A7261
:105E6000034B01225A5410BC0FF074BAB830002012
:105E7000B430002070B506461C460D4622B3227889
:105E80006378D21A12F0030205D0012A40D0013300
:105E9000DBB223700FE00133DBB230212370042327
:105EA00011FB05311B4A60680C2313FB06131A44CF
:105EB0002146FFF76BFF184B012230465A55294601
:105EC0000FF048FA002070BD0FF02EFA0028D6D04F
:105ED000294630460FF014FA0028D0D005EB4502D1
:105EE00012010C4906EB460302EB83030B449A7A3A
:105EF000DB7A9A42C3D122786378D21A920702D011
:105F00000233DBB22370D4E902039847002070BD4E
:105F1000104670BDB8300020B43000204F4A135CEA
:105F2000002B00F099802DE9F04F00234C4F1354C3
:105F300087B01A464FF03C0BCDE901200BFB007BEC
:105F4000039300EB40030BF1040807EB03174FF03A
:105F500003090023D7E9090105AA0593FFF720FFEC
:105F600007F12406834698B3059C63782578ED1ADB
:105F700005F00305012D06D1013B6370D4E902024F
:105F80009047059C63782078C31A03F00303012B24
:105F90004FF0000231465FFA80FA0FD0B86AFFF77F
:105FA00007FF94F801C02378C4F804B0A3EB0C03F6
:105FB00003F00303012B84F801A045D0D7E90901C0
:105FC00005AAFFF7EDFE012D83462BD00028CBD18B
:105FD00097F82E3097F82F209A4203D087F82F3069
:105FE0000123019397F82C3097F82D209A4203D083
:105FF00087F82D300123039309F1FF395FFA89F9FE
:10600000B9F1FF0FA7F10C07A3D1DDE9013AC3B144
:10601000039BB3B91A465146504607B0BDE8F04F4E
:106020000FF05AB9B9F1000F01D10028D0D0DDF836
:1060300008A00A4A012302F80A30514650460FF0E0
:1060400089F907B0BDE8F08F42462146584684F8EA
:1060500001C0FFF79BFEB1E7704700BFB4300020DE
:10606000B83000204B1EDBB289B1411E00EB030C9F
:10607000002011F8013F3BB15BB25A1E13400130C2
:1060800013F0FF03C0B2F7D16145F2D17047084663
:10609000704700BF2DE9F0434A4D83B00746032601
:1060A0000124042138460CF0E9F838681E234FEA31
:1060B000D07C4FF0000E4FF001090CE00EF1010111
:1060C0001B2BC9B26AD94FF00109192951D08E464C
:1060D0009446013B1ED320FA03F202F001029445DC
:1060E000ECD109F101085FFA88F8B8F1060F0DD973
:1060F000714604FA03FCBAB320EA0C004FF0000C1E
:106100007145E6D10131C9B26246DCE74CD1C146E6
:10611000013BE0D280EA050301930DF1040C0DF17F
:10612000080E00221CF8013B3BB15BB2591E0B402C
:10613000013213F0FF03D2B2F7D1E645F2D1012AC2
:1061400009D983B2B3EB104F4FEA10421BD1C3B24F
:10615000B3EB106F17D1013E16F0FF06A1D16FF01F
:106160000D0003B0BDE8F08340EA0C004FF0010CD5
:10617000C6E7013304FA03F312B15B421840C9E7E2
:10618000013B1843C6E7C0F30721130A387000200B
:106190007970BA70FB7003B0BDE8F0834FF001086E
:1061A0000129A6D9C14690E71C2B04D91B2B06D97F
:1061B0009446C146ACE7BEF1000F99D0F6E77146B0
:1061C000EEE700BFD6BE898E30B5437F0568FF2B52
:1061D00014D003EB43028B4205EB021228D04FF0A0
:1061E000000C01E099420BD09E4613789468FF2B77
:1061F00003EB4302A44405EB0212F3D1002030BDAF
:10620000714518D0137890680FFA8EFE0EEB4E0E83
:106210004FEA0E1E05F80E301378FF2B06D003EB65
:10622000430305EB0315AB680344AB60604430BD2A
:106230009E464FF0000C13784377E4E7A2EB010C85
:106240001CF4000F10B4836844690AD12CF07F411C
:106250000B44A34214D91B1B002110BC8360416175
:106260007047891A21F07F418B4206D82144C91A10
:10627000002310BC8360416170475B1AA342EAD8D7
:10628000E11AF5E72DE9F04F87B00346427A019015
:106290000068029058680590002A00F0F480531EB0
:1062A000DBB200EBC3030F460393039B5A685E788F
:1062B0000492FF2F5ED007EB4704029B4FEA041ABB
:1062C000B84613F80A7003EB04140025019B4FF045
:1062D000FF0984F80090D3F800E05A7F0EEB0A0B18
:1062E0004A45DBF808100FD1C8E0091A06D1BBF8FF
:1062F0001EA0BCF81EC0E24500F286801EF80330E6
:10630000FF2B914672D01A4602EB42030EEB031CA0
:106310001B01DCF808008842E7D9B9F1FF0FCBF880
:1063200008108BF8002066D1019B83F81D80FF2A9E
:1063300008D002EB42020EEB021EDEF808305B1AB8
:10634000CEF80830A37801336370002DB1D04FF040
:106350000002EB6A2A700022AA6213B1296B104670
:1063600098476368002BA4D1D5E90B23FF2FC4E91C
:106370000823A0D1039B9878B0422FD0DDE903B960
:1063800006EB460206EB82029BF8001019F8223059
:106390000136F6B2B14208BF0026042B09EB820594
:1063A0001AD195F80180029908EB480301EB031418
:1063B0004FEA031AA17863785B1A13F0FF0325D024
:1063C0004FF0000309F82230EB6A0120A8620BB1FC
:1063D000296B98479BF80200B042D1D1039A0599E6
:1063E0009142A2F108034ED003935EE7CBF8081068
:1063F0008BF800301A460FFA89F909EB49094FEA80
:1064000009190EF8098092E7014686E7AA8A0199E0
:10641000D5F824904969D5E903EC4FF6FE70824225
:10642000C4F82890C4F804E0C4F820C024D04FF683
:10643000FF73D31AB3FA83F35B0984F82C304FF659
:10644000FD739A4288BF0022AB69A361EB69E360E8
:106450002B6A2361AB68A3600023A28363616A682F
:1064600020469946FFF7EAFE4FF00103C4F8249056
:10647000A4F81E90E37029E71A46E5E70EF80A2013
:1064800083F81D805EE707B0BDE8F08F2DE9F04F7F
:10649000827F8FB001230692C377002A5BD1437FAE
:1064A000FF2B814656D00EF0E7F9D9F8142099F861
:1064B0001C3099F81D80801AFF2B20F07F4700F0D8
:1064C0003C81D9F81830BB4294BF002301230393C9
:1064D000B8F1FF0FD9F800B000F045814FF0000A85
:1064E000CDF8109008EB48080BEB08144FEA081899
:1064F000A368BB4237D8A1781BF80880FF1A9A44DA
:1065000063785B1ADBB2012B2AD1A669002E54D026
:10651000039B002B4CD0E38B0593A36A3BB11A6815
:106520001AB11A7A002A00F0EF8000221A72059A36
:1065300094F82C00013292B2E28378B1A08B9042A1
:106540000CD2002B00F0FC801A7A012A06D04FF002
:10655000010C36E0C2770FB0BDE8F08F0139A170B1
:10656000B8F1FF0FBED1DDF81090514699F80B300D
:1065700099F80A209A420AD10132D2B2022A1CBFEB
:1065800013460693069A89F80B2008BF002309EBEF
:106590008303D9F82440D960002289F81F204B4694
:1065A000012204210320A4460FB0BDE8F04F60474C
:1065B00094F92D300793803341D1A36AF3B14FF0A2
:1065C000000C00221A72E568481E59685A60A070D3
:1065D000002DC5D0049B60695B69626A2669AAEBDD
:1065E0000000184420F07F40E378BCF1000F16D083
:1065F000CDE900364FF6FF73A847B1E7E5680139EA
:10660000A170002DACD019466369626A2669AAEBB5
:106610000300049B5B691844E37820F07F40B4F8E2
:106620001EC0CDE900366346A847A369002B039B33
:1066300018BF012303930023E383E37090E7B8F1CD
:10664000FF0FBAD0E28BA38B656805929A4228BFF0
:10665000D21A02FB055008900798CDE90A17121AC2
:10666000CDE90CA843460992A0464FF0000C2C46F9
:106670001BB203EB43030BEB03121B01D2F808E040
:10668000F444664539D3916999B3D18B908BD2F894
:10669000049092F92D7081420D4628BF0D1AB9F170
:1066A000000F3ED0A9EB0E0EBCB309FB05EEDDF8E2
:1066B0002090F1458CBF4FF0010E4FF0000E34BF1B
:1066C0004FF001094FF00009814292F803A098F8B9
:1066D00003200ED3924529D817F1800F26D0099AAE
:1066E000ED1B954202DDBEF1000F1FD0079ABA42A2
:1066F00019D01BF80330FF2BBAD14446DDE90B7AE1
:106700000A99DDF8348058E7A28B059882423FF65B
:106710000CAF4FF001021A7209E74FF0010EA146CB
:10672000D2E7CE46C0E7B9F1000FE2D04446DDE93A
:106730000B7A0A99DDF83480EFE6069B0393C7E6EF
:10674000E5680139A170002D3FF40AAF194663696D
:10675000626A2669AAEB0300049B5B69184420F077
:106760007F40E37844E700231946FFE6C37F002B10
:1067700040F022842DE9F04F827F8DB08346002ABD
:1067800040F08C80837AC17A01208BF81E009942F8
:10679000DBF81400079000F035840133DBB2022BE4
:1067A00008BF13460BEB83028BF80A309BF81D30B1
:1067B000D2680993079B0392134423F07F439BF80D
:1067C0000920CBF81430DBF800300093DBF80430FC
:1067D0000593531E0692DBB2002A00F0C581012208
:1067E0000B92059A02EBC30900230893FF23019340
:1067F000CA46DAF804809AF803C09AF8027067452E
:1068000044D09AF800207B1C3EB2DBB29A4208BF0B
:10681000002306EB460206EB82068AF8023018F8DF
:106820002600042808EB860442D9082842D861785B
:10683000009A01EB410502EB05156A7895F802E034
:10684000A2EB0E0212F0FF0234D0052841D0012A3B
:1068500040F01881062806D05846FFF7B5FCAB7803
:10686000A8606B7061789BF81C308B4200F0D98077
:10687000002008F82600E36AA0620BB1216B98475C
:106880009AF803C09AF802706745BAD1059A524542
:10689000AAF1080300F007819A46AAE7446A042196
:1068A000034601220420A4460DB0BDE8F04F604726
:1068B0001F46A4E7002208F82620E26A0120A06211
:1068C000002AF5D0216B90479AF803C09AF802701D
:1068D00095E7606848B9A06838B9E06828B92069C8
:1068E00018B9606930F07F40E4D0012A40F0CA80D6
:1068F0005846FFF769FCDBF81430A860074602939E
:106900000DF0BAFF029BC21A039B22F07F42D118FE
:106910008F42814640F2AF806B6904937A1AD5F8B2
:1069200004C0BCF1000F51D0A38A002B4ED0013B14
:106930009FB29445EB8BA78223D20CF1010ECDF8C8
:1069400018800A9418E0696ADFF81082844C884441
:10695000A04584BF01F1E87101F5D43170462C6A7D
:1069600094BF604601F5A571013B121A091B9BB249
:1069700094456962EB8301D29F42E4D3DDF818802D
:106980000A9C9F4221D90CF10100D5E908E106904B
:106990000A9405E001339BB260469F42024411D045
:1069A0006E486F4C71440818A042F3D80133069822
:1069B000A1F1E8719BB2A1F5D4319F42A1F5A57177
:1069C0000244EDD10A9C6962EF83AF836168A068DD
:1069D000049B0A44AA60AA6A03446B611AB1136853
:1069E0000BB1091A51604A4602992846FFF726FC66
:1069F000E268AB691344226993428CBF9B1A00235F
:106A0000AB61A37D03B1EB70E37D13B1013B85F86E
:106A10002C30019B2B706B786278019201336B7084
:106A200026E7FF238BF81C3018F82630062B13D0EE
:106A3000082B11D00DF020FFDBF81420831A1D0263
:106A400010D4039A23F07F431344DBF818209A42B2
:106A500088BFCBF818300BE76068DBF81420831A86
:106A60001D02EED5131A039A23F07F43934234BFDD
:106A7000D31A0023E9E76B69DA1B531804936B619F
:106A800000224CE704215B460122DBF82440084643
:106A9000A047059A8AF80270012352450893AAF18B
:106AA00008037FF4F9AE9BF81D30099A9B1A18BFB2
:106AB000012306930B9B002B5AD101995846FFF7EF
:106AC000E1FB9BF81D300093009B099A934200F074
:106AD0005D82089B002B00F0D7819BF81D3000934E
:106AE000009BFF2B00F0B982099BFF2B00F0C082B6
:106AF000009ADBF800301B4E02EB420203EB02135C
:106B00000A279D680DF0B8FEDBF81440031B23F044
:106B10007F430333AB422CBFE418641924F07F4455
:106B2000DBF828308046204698470DF0A5FEA0EB04
:106B3000080323F07F43A4EB0804033324F07F44CD
:106B4000A34207F1FF3740F22882002FDAD140F646
:106B50003E113046FBF76CFFD4E700BF5A2B17FFFE
:106B6000592B177F18DD0100069B0893FF23019323
:106B70000DF082FE079B9BF81D60C31A23F07F492E
:106B8000FF2EDBF80030009350D00023DFF8908216
:106B9000DFF890A2039F0293009A06EB460302EBF4
:106BA00003141B010493A3689F42C0F04882029A19
:106BB000B4F81EE0DDF810C01A440292DBF8182089
:106BC0009342A7EB0307A9EB030925BF4FF0FF335F
:106BD0008BF81C30D31A0023CBF81830A2786378D6
:106BE000A069A16A65689B1ADBB20593009B13F844
:106BF0000CC018B1059B022B00F035810023A36067
:106C00008BF81DC0002D40F0DA8019B1097A0129F6
:106C100000F01181059B23B1012B45D0BEF1000F7F
:106C200042D162709BF81D60FF2EB5D1069B099A78
:106C30000199964218BF012358460693FFF722FB9D
:106C40009BF81D30DBF800A0CDE9003B0022009B43
:106C5000FF2B0FD0009E33B203EB43030AEB031567
:106C60001B01AF6A17B1397A012925D01AF80360E0
:106C7000FF2EF0D1DDF804B0002A3FF425AF009BD1
:106C800009998B427FF425AF089B002B7FF428AF36
:106C9000DBF8043001939BF809305F1EFFB2002B34
:106CA0003FF41EAF0692FBE0236A002BB9D0616A65
:106CB00001209847A278B4E7019B1B7FFF2B4BD0A4
:106CC000019B039A9B69934246D9A3EB020C7A6815
:106CD000AB6895F800B0D31A02933B689A4280F0F3
:106CE000BD80BBF1FF0FA3EB020800F0B780D5F821
:106CF00018E0F0454FF0000331D3F1465A461C46E8
:106D00001CE081680B1F0429234409D9434528BF8F
:106D10004346994504D2B3EB0E0301D09C451ED9DE
:106D200083691AF8022001EB030C0C44A8EB0E0354
:106D3000FF2A04EB0E0912D0C84510D302EB420221
:106D40000AEB02101201816A0029DAD0097A0129BE
:106D5000D7D11AF80220EBE74FF0000CB7E7029A00
:106D60001A447A605C46AB604FF0FF0E00E01446B8
:106D700021B201EB41020AEB021C1201DCF808000F
:106D8000984280F052811B1AAB601AF80220FF2A49
:106D9000A646ECD1019BCDF800B001EB4101090101
:106DA00083F81DB01AF801302B700AF80160EB8BE4
:106DB000013BEB834FF002033B72012247E711B125
:106DC0000B7A012B37D0BEF1000F59D1A38B0A9358
:106DD0001A46681CD4E908C30021059004E028463F
:106DE000013A0144501C0FD0634403EB08005045A6
:106DF000F5D80598A3F1E873013AA3F5D43301441B
:106E0000501CA3F5A573EFD194F82C206362002ADF
:106E100000F0D3800A9BA1607344E3830DE000BFC0
:106E20005A2B17FF592B177FC4F808E08BF81DC0A9
:106E3000002D3FF4EBAE6270A760079B029ADBF86F
:106E400014109A182046FFF7F9F9009A0499019B4B
:106E500053546378019601336370E3E6029B7B60D1
:106E60000023AB60A3E7BEF1000F7FF4C7AE11B102
:106E70000B7A012BD8D0CBF818008BF81C60BDE63C
:106E8000627000220A92A4E79BF80930DBF8042024
:106E900001925F1EFFB2002B3FF41FAE0123069349
:106EA000019B002603EBC7074FF0010A7B78FA78B5
:106EB0007D689A420CD15BE0012B53D07B78397806
:106EC0000133DBB2994208BF00239A427B704FD056
:106ED0001BB203EB430103EB810305EB830015F8C1
:106EE0002330022B17D0032BE6D143789BF80820E0
:106EF0009A423AD9DBF8002003EB430302EB031379
:106F0000027983F82D208662C36A13B1016B806A0F
:106F10009847FA78D2E7D0E901C19CF80020D0F870
:106F20000CE0DBF80040DBF81430FF2A03D0D1F886
:106F30000080984523D09BF81D200B604FF000087F
:106F40000AE002EB420304EB03111B01D1F80890A5
:106F50008969C84411B9E25CFF2AF2D18CF800209B
:106F6000CEF80080C36A8662CFE7C0F828A0CBE7DE
:106F7000019ABA42A7F108030BD01F4696E702EB2D
:106F800042021301DEF80080E25CE5E7089B002B7B
:106F900058D0069B002B7FF4A0AD9BF81F30002239
:106FA0008BF81E202BB1DBF824405B460122032125
:106FB00078E40DB0BDE8F08F704789457FF62AAFC1
:106FC000681C0594044605E02846014401328945C1
:106FD00092B210D9634403EB08005045F4D8204620
:106FE000A3F1E8730144A3F5D43301328945A3F535
:106FF000A57392B2EED80A98059C1044636283B2DE
:107000000A9307E79BF81D309BF809100993DBF8FA
:1070100000300093DBF8043005934B1E0891DBB27F
:10702000A1B30B920392FFF7DCBBC31ABEF1FF0FB3
:10703000CCF808303FF4BBAE0FFA8EF1AAE6DB1BAA
:10704000A360F3E59BF80930DBF8042001925F1E92
:10705000FFB2002B7FF424AF9BE70DF0F3FB002879
:107060009BD1CBF818000DF007FCCBF8140094E787
:107070000DF002FC04460DF0D5FB9BF81D3000938B
:1070800000287FF435ADCBF8144031E5FF2306919D
:10709000019312E5F0B4049D9DF81470069C00283D
:1070A00037D11D4E01F1FF3C317232605FFA8CFC2A
:1070B00049B10CEB4C0C02EB0C11914281F82D0004
:1070C000A1F13001F9D15A1E73727560D2B283B149
:1070D00005EBC2025460104612F8083903EB430175
:1070E00003EB81018542A7EB030304EB8104DFB2CC
:1070F000F0D177B9079A3262089A72624FF6FF733D
:10710000099AB2623846C6E90577B3837781F0BC45
:1071100070470120F0BC7047783100200A4B2C22C8
:1071200002FB003210B4546A5CB100EB800200EB49
:10713000420003EB8003A446012210BC032102207D
:10714000604710BC704700BF783100202DE9F8433C
:10715000284EBDF82C8004462C2505FB0465084606
:1071600004EB840104EB4104696801EBC00706EB02
:10717000840697F803E011F8304079780EF1010C9D
:107180005FFA8CFC644598BF4FF0000C61452ED02F
:1071900079680EEB4E040EEB840E01EB8E044FF07B
:1071A000040901F82E906360089BA360099BE360CB
:1071B0000A9B23610C9BA361119B63620D9BE3619E
:1071C0000E9B23620F9BE362109B2363022362707A
:1071D000A362A4F8148087F803C0D5E9083598475E
:1071E000334649460022A847A06ABDE8F88301203B
:1071F000BDE8F8837831002010B58AB00C9C00946B
:107200000D9C01940E9C0294BDF83C400394109C8C
:107210000494119C0594129C0694139C0794149C4E
:10722000089400240994FFF791FF0AB010BD00BF35
:107230002DE9F84F284DBDF834709DF8388004468C
:1072400008462C2101FB045104EB840604EB4604A0
:1072500005EB84054C6804EBC00614F8309096F8F2
:1072600003E074780EF1010C5FFA8CFCE14598BFE5
:107270004FF0000C64459DF844902AD0D6F804A045
:107280000EEB4E040EEB840E0AEB8E044FF0050B52
:107290000AF82EB063600A9BA3600B9BE3600C9B13
:1072A00023610F9BE362109B236302236270A3623E
:1072B000A78284F8168084F8179086F803C0D1E975
:1072C000083698472B4600220421B047A06ABDE843
:1072D000F88F0120BDE8F88F7831002010B588B014
:1072E0000A9C00940B9C01940C9C0294BDF83440C1
:1072F00003949DF8384004940F9C0594109C0694C8
:1073000000240794FFF794FF08B010BD2DE9F04169
:107310001E4C844608462C2101FB0C410CEB8C05CD
:107320000CEB450C4D6805EBC00615F8307096F86F
:1073300003E0757804EB8C040EF1010C5FFA8CFC11
:10734000674598BF4FF0000C65451CD077680EEB81
:107350004E050EEB850E07EB8E054FF0070807F87C
:107360002E80EB62069B2B6302236A70AB6286F869
:1073700003C0D1E908369847234600220421B047CC
:10738000A86ABDE8F0810120BDE8F08178310020D5
:107390002DE9F041204D844608462C2101FB0C517B
:1073A0000CEB8C040CEB440C4C6804EBC00614F89A
:1073B000307096F803E0747805EB8C050EF1010C43
:1073C0005FFA8CFC674598BF4FF0000C644520D0F5
:1073D00077680EEB4E040EEB840E07EB8E044FF62F
:1073E000027827F82E80C4E90123069BE360079BFF
:1073F000E362089B23630223A36286F803C0D1E9FA
:10740000083698472B4600220421B047A06ABDE801
:10741000F0810120BDE8F0817831002070B50A4D7F
:107420002C2202FB0052D2E908360446084698474F
:1074300004EB840304EB430305EB8303B44600220F
:10744000BDE8704004216047783100200DF014BA87
:10745000401A20F07F40704770B5044600200D466A
:1074600003F056FD98B903F09BFF10F006060ED10D
:1074700034B106222946074815F00AFE304670BD91
:1074800006222946044815F003FE204670BD0C2054
:1074900070BD00BFAC310020A4310020012803469C
:1074A00005D8044A0448002B18BF10467047002036
:1074B000704700BFAC310020A4310020012810B576
:1074C00003460BD80846074C0749002B18BF0C464B
:1074D0000622214615F0DCFD204610BD0024204682
:1074E00010BD00BFA4310020AC310020022801D023
:1074F0000120704738B5044608461D4604F00EFECC
:1075000010B10020287038BD204638BD002303701C
:107510000B70704708B50248FEF7A0FA002008BDBE
:1075200024DE010030B5838983B0002B3AD0037D7F
:1075300004461BB3022B0FD02149224A2248521A7B
:10754000D208920142F00102194615F06AFA6FF072
:107550001505284603B030BD01A901F0DBFA019BF7
:10756000054613B1184615F012FE002DF1D1204644
:107570000EF04EFA0025284603B030BD01A9019354
:1075800000F0F0FB0028F2D015F001FE019D002D67
:10759000EDD0284602F02AF8687101990B4816F0E0
:1075A0004FF8E4E7064B07490948C91AC908890199
:1075B00041F0010115F028FA6FF01505C9E700BF89
:1075C000F4DA010024DB01007CDD010070080020FA
:1075D00068DD01002DE9F041DFF8B0802C4F82B06A
:1075E0000CE015F0D1FD2246BDF80210044601F072
:1075F000E5FF204615F0CBFD13F0A0FB0DF10201D5
:1076000001A802F0A9FA04464FF0FF324FF0FF3311
:1076100000211320002CE4D1019B93B102F070FBF8
:10762000019E304601F0E2FF019D70716B79032BE2
:1076300002D12B79172B0CD02946384616F000F8CA
:10764000DCE74FF0FF324FF0FF33404611F0E4FF2C
:10765000D4E74FF0FF3321464FF0FF320520EE888C
:1076600015F092FD31460246044605F11C0001F07A
:10767000EFFA304601F00CFB204624B115F087FDEF
:1076800020460EF0C5F9019DD6E700BF580800203E
:1076900070080020D0B5224888B002F0ABFF044645
:1076A00000282FD11F4801F0B7FF002600276FF0F8
:1076B0000902CDE90324CDE90667CDE901441A4B5F
:1076C0001A4900944FF4E072194811F01FFB194950
:1076D000174811F029F96FF00702CDE90324CDE92D
:1076E0000667CDE90144144B144900944FF400722D
:1076F000134811F00BFB1349114811F015F92046FE
:1077000008B0D0BD104B114A1148D21AD2089201CC
:1077100042F00102214615F084F9204608B0D0BDA0
:107720005808002044000020D5750000807C00200F
:10773000F80B0020B0DD010055770000607E0020CE
:10774000B80C0020BCDD0100F4DA010024DB0100EC
:1077500090DD01002DE9F04FAC4DAD4FDFF8B48264
:10776000DFF8B4A2DFF8B492DFF8B4B285B04FF01E
:10777000FF324FF0FF330221284614F013FD00289A
:1077800040F0AD80EB6803F4FC23B3F5005F00F03C
:10779000A2802B6A03F4FC23B3F5004F00F00681AE
:1077A0000024EA682B6A6FF352326FF35233EA60B7
:1077B0002B629C4A9C4B1E68BFF35B8F52E8003FD4
:1077C00023F0010142E800100028F7D1BFF35B8FDE
:1077D000DB0744BF0023C7E90033002E40F3ED80F0
:1077E000DAF80010D9F80030711A19443B68C8F86B
:1077F0000010002B00F006815A79002C75D1042A64
:1078000047D8022A00F2BA8040F2E9115846CDE981
:107810000032FBF70DF9019A009B0393002A40F018
:10782000B3804FF4BD715846FBF702F9039B002269
:107830001A6003A802F0F6FADAF80030F61AD9F85E
:1078400000301E443B68C8F800602BB15B79DA1E3B
:10785000012A16D9052B12D0002C88D020460EF014
:107860001DF92146064600200EF032F9B389044680
:1078700030465BB1FEF78CF913F060FAECE7002EAE
:10788000EAD00021694814F09BFDE5E70EF0C0F84E
:10789000F2E7052A16D100293FF469AF79681A6822
:1078A0003A608B4200F0EE8003934FF0FF324FF0CE
:1078B000FF330320FEF7E4F804460146039801F085
:1078C00009FAB3E740F2E91158460093FBF7B0F824
:1078D000009B0393A5E72B6900249C6061E740F2BD
:1078E00021215846FBF7A4F84CE7D01E012840F2AE
:1078F0008280052A00F09C800131627965D0511E9A
:107900003B68052900F2D180DFE801F003031B1B6F
:107910003003042A03945DD9052A1BD14FF0FF32AE
:107920004FF0FF330320FEF7ABF8044621460398DF
:1079300001F0D0F9039B00221A6003A802F072FA4A
:107940008AE70121C8F80010002B40F08A800394D8
:10795000002A3FD158464FF4BD71FBF769F8039BED
:1079600000221A6003A802F05DFA00E7002B78D12C
:10797000D8F80030002B74D00394CFE778681968EA
:10798000396083427CD00393022A71D04FF0FF32DA
:107990004FF0FF330120FEF773F80446002C3FF44C
:1079A00045AF0398214601F0EBF93FE7686A0022F2
:1079B000002311F081FD0446F3E64FF0FF33C8F8D1
:1079C0000030002C3FF4D3AE62790394042AA3D88C
:1079D000002ABFD0022A5DD001204FF0FF324FF0C5
:1079E000FF33FEF74DF80446002C4DD00398214696
:1079F00001F0C6F99EE700210C4814F0E1FCD8F82C
:107A0000001079E7002C7FF477AFB0E61C0000206F
:107A1000B8310020B43100207432002050320020F0
:107A2000C4DD01007C3200207832002044000020B8
:107A30000029E0D16279511E052936D801A050F8FD
:107A400021F000BF13790000137900005D7A000077
:107A50005D7A00006D790000137900000123C8F8F9
:107A600000307B6800222260E3B11C607C607EE60F
:107A7000002200230121002015F086FB04468DE73B
:107A8000796080E77A600FE7039B03A81C6002F02F
:107A9000C9F96CE6012100200022002315F074FBD7
:107AA0000446A1E7C7E9004461E64FF4D0715846A7
:107AB000FAF7BEFF03944DE72DE9F047DFF8A890F1
:107AC000D9F80030002B80460F46164612DD274CB1
:107AD000002521460622304615F0C9FA18B914F8D7
:107AE000013CBB4229D0D9F8003001359D4204F158
:107AF0000804EEDB1E4D1F4CD5F800A031464FEABE
:107B0000CA06701C2044062215F0C2FA012303FAAB
:107B100008F8D9F8003004F83A7034440F2B84F890
:107B200007801CDC01331A46C9F800302B600020A6
:107B3000102A08BF2860BDE8F0870E4B03EBC5058F
:107B40000120EA7922FA08F313F00103F3D100FAD5
:107B500008F842EA0802EA711846BDE8F0872A6888
:107B600001322A60E3E700BFC4310020CD3100209C
:107B7000C8310020CC310020F8B5194C6468A4004D
:107B800004D51546174A1268120700D4F8BD03F150
:107B9000080407460E46204602210EF03FF83E2319
:107BA00003700C234370012120460EF037F8034682
:107BB00004221A7020460B210EF030F808220770BC
:107BC000A0F801502FB9311D0330BDE8F84015F081
:107BD0005FBABDE8F8400021033015F064BA00BF79
:107BE0000000002008000020F0B5013887B01546DD
:107BF000092806D8DFE800F0092744050558056C78
:107C0000899E6FF0150007B0F0BD544B0D21188808
:107C100015F0DBFA0D21286008300DF0FFFF034658
:107C2000022200200724632118705A709870DA70BD
:107C3000187158719A71DC71187259729872D872F1
:107C4000187307B0F0BD454B4121188815F0BDFAF7
:107C50004121286008300DF0E1FF00240546402254
:107C600000F8014B214615F01EFA6A78AB7862F0F5
:107C7000580243F0030320466A70AB7007B0F0BDB2
:107C8000364B0921188815F0A0FA09212860083020
:107C90000DF0C4FF002400F8014B0822214615F026
:107CA00002FA204607B0F0BD89680020FFF7D4FB38
:107CB0002A4B0121188815F088FA01210446083062
:107CC0000DF0ACFF0346002018702C6007B0F0BD2B
:107CD000234E224F0FCE0DF1040CACE80F00336899
:107CE0003888ACF80030132115F06FFA13212860A2
:107CF00008300DF093FF002400F8014B122201A977
:107D000015F0C6F9204607B0F0BD144B18211888AD
:107D100015F05BFA1821286008300DF07FFF002471
:107D20000546012100F8024B0DF0BAFB68702046B1
:107D300007B0F0BD094B2121188815F046FA212122
:107D4000286008300DF06AFF0146002401F8114B4D
:107D500001300DF019FC204607B0F0BDB45F0020E3
:107D600038DE0100F0B583898FB00024022B09941E
:107D700040F26C8105460E46083003210DF02CFFC1
:107D8000AA8983789A42C0F0D6810288C34FC2F391
:107D90008523082B90B23A80C2F309040DD8BBB1F9
:107DA000013B072B14D8DFE813F0410113001A0040
:107DB00069008100130013009D003F2B08D109AA20
:107DC00029462046FFF710FF163040F044863888D9
:107DD000012115F00CFA054628460FB0F0BD352CF0
:107DE00000F27A812C2C00F23F81012C00F03686C3
:107DF000032CEDD1AA48AB49AB4AAC4B4FF0FF3452
:107E0000046041F6FF754FF0FF34C1E900450020E2
:107E10000021C2E900011F200021C3E9000102F096
:107E200055FC0121388815F0D0F9012105460830AC
:107E30000DF0F4FE9E4B9F499F4A00241C609F4B0F
:107E400004700C6014609E481C6020222146099535
:107E500015F029F9BFF35B8F9A4B53E8002F42F0DE
:107E6000010243E800210029F7D1BFF35B8F964B55
:107E70001868214614F0A4FA099DADE7621E082A8D
:107E8000A6D801A353F822F04F8200009181000090
:107E900069810000D17D0000D17D0000D17D00000E
:107EA000D17D0000D17D000047810000052C8FD1DD
:107EB000AB6804211D8815F088F9042103460830B9
:107EC00009930DF0ABFE0446E11CA8B204F0A0FC3F
:107ED000A4F801502070002800F031817F23E37066
:107EE000099D79E7621E4D2A3FF672AF01A353F850
:107EF00022F000BF218A0000FB890000B189000048
:107F0000D17D0000A78900006F8900005189000021
:107F100045890000398900002F8900001789000079
:107F2000E78800006188000059880000358800005B
:107F30002F880000278800001F880000F7870000B6
:107F4000EF870000C3870000AD870000778700003F
:107F5000538700003387000029870000198700003D
:107F6000E7860000D9860000D3860000A7860000BF
:107F700091860000598600004986000011860000A5
:107F800005860000D17D0000D17D0000F78500004E
:107F9000EF850000E9850000C58500009785000099
:107FA000698500005F85000051850000058500009F
:107FB000AB8400008D84000031840000FF8300004A
:107FC000EF830000D17D0000D17D0000D17D000055
:107FD000D17D0000D17D0000D17D0000D17D000069
:107FE000D17D0000D17D0000D17D0000D17D000059
:107FF000D17D0000D17D0000D17D0000D17D000049
:10800000D17D0000D17D0000D17D0000D17D000038
:10801000D17D0000D17D0000D17D0000CB83000028
:10802000D17D0000D17D0000AB830000062C00F064
:10803000FB841D2C7FF4CCAEAB68188804F0C0FA2A
:108040000146388815F0D3F80546C5E61F49204B90
:108050002048C91AC908890141F0010114F0D4FC73
:10806000254628460FB0F0BDA4F12D02082A3FF6A0
:10807000AFAE01A353F822F07B830000D17D000056
:10808000D17D0000D17D000023830000D17D000060
:10809000F3820000D17D000085820000B45F0020E3
:1080A000C431002000000020780D002008000020CE
:1080B000C03100207832002074320020503200207D
:1080C000543200207C3200204C3200201CDB0100A6
:1080D000F4DA01004CDE01007B2C00F0C6847C2C1D
:1080E00015D1AB681E885988B0B204F0D1FB0446A4
:1080F0000321388815F069F80321034608300993F5
:108100000DF08CFD0470099DA0F8016064E6632CFD
:108110007FF45EAEAA68BD4B1168526819600121F8
:108120005A6015F052F80121054608300DF076FD31
:108130000023037050E6B649B64BB74889E7E378A9
:108140005B425BB2CBE6072115F03FF807210346FF
:10815000083009930DF062FD0146002001F8010B83
:10816000FFF7ACF9099D37E6092115F02EF8092132
:108170000346083009930DF051FD00210446082202
:1081800000F8011B14F08FFF6023099D637123E643
:10819000412115F01AF841210346083009930DF0EA
:1081A0003DFD00210446402200F8011B14F07BFF36
:1081B000A379E27BE078E17A657863F03F03A3710D
:1081C000237C43F022032374A37E42F0280263F051
:1081D0000803E273A376627F94F8213060F07F0099
:1081E00042F07F0243F03003E0706277E07D94F864
:1081F000252084F8213094F8233040F0040042F028
:10820000010263F00603E07584F8252094F822004B
:1082100094F8282084F8233094F8273061F01B016B
:10822000E17245F02005FF2160F00F0042F00402EA
:1082300063F07F036570E176217784F8220084F88B
:10824000241084F8282084F82730099DC4E50921EA
:1082500014F0BBFF09210346083009930DF0DEFC42
:1082600000230C214FF0FF32037041706FF00E04B9
:108270008370C3700523099D017144718371C271BC
:108280000272A9E5654B1B68002B40F3D983644B50
:108290001B680BB3AF6897F800C06546BCF1000FD0
:1082A00000F0FE8300225F4E15460BE036F81430D6
:1082B0009942A3EB01030FD826F81430D3B29C45A2
:1082C00040F2EE8307EB82030132B3F80140B3F8CA
:1082D00003100F2C0D44E9D9012114F076FF012180
:1082E0000346083009930DF099FC12230370099D91
:1082F00072E5AB680121B3F803401D8814F065FFF7
:1083000001210346083009930DF088FC434B1A689D
:10831000002A40F09E831A2DE7D96442099D1C6013
:108320005AE5AB683D4C1D78012114F04EFF012148
:108330000346083009930DF071FC2368002B00F010
:108340008883374A1268002A40F083830270002D28
:1083500000F0B283012DC8D1002B00F37C8332489A
:10836000324B0021016020222E48196014F09BFE40
:108370002368099D5B4223602EE5AB6804211E88BB
:108380009F7814F022FF0421099008300DF046FC7C
:10839000B5B20446C31C29463A460220FFF7A6F8A8
:1083A0002070099DA4F8016016E5A868C17909F05C
:1083B00051F806463888012114F007FF01210546CF
:1083C00008300DF02BFC067006E5032114F0FDFECD
:1083D00003210346083009930DF020FC01460023D9
:1083E00001F8023B0130FFF791F8099DF4E4A86819
:1083F000C3788278417800780CF022F9D9E7AB682D
:108400009A78597818780CF093F9D2E7780D002013
:108410001CDB0100F4DA010064DE01007832002088
:10842000C03100205432002074320020503200202D
:10843000AA689578D1781688B2F80540EB0748BF4E
:1084400041F00301137948BFD170AD0744BF43F039
:108450000303137143EA010232F0030240F0478341
:108460004D0700F032835A0700F02F8314F0030207
:108470001CBF04F1FF3404F00102304604F072F92D
:108480000146388814F0B3FE0546A5E4AB681A78B7
:10849000D1074ABF07205878587092074ABF072172
:1084A0009978997004F054F983E7AB6805211E8828
:1084B00014F08BFE05210346083009930DF0AEFB46
:1084C0000446221DB0B2E11C04F020F9E3782070CC
:1084D000002B93FAA3F22379B2FA82F208BF4FF08D
:1084E000FF32002B93FAA3F3B3FA83F302F10102F4
:1084F00008BF4FF0FF33E2700133099D2371A4F8E8
:10850000016069E4092114F060FE09210346083086
:1085100009930DF083FB0AAB04460DF1220208A972
:108520000DF11E0004F0E6F8BDF82030BDF81E2065
:10853000A4F80120A4F80330BDF82230A4F80530D7
:108540000022BDF828302270099DA4F8073043E4CA
:10855000AB68188808F074FF38880121E1E5AB6842
:10856000187808F051FF24E70722A9680AA814F038
:108570008FFD0721388814F028FE072103460830B4
:1085800009930DF04BFB0446411C0AA808F00AFFB2
:108590002070099D20E40722A9680AA814F078FD3C
:1085A0000721388814F011FE07210346083009938B
:1085B0000DF034FB0446411C0AA808F0B9FE2070F7
:1085C000099D09E4022114F000FE0221034608304F
:1085D00009930DF023FB044608F04EFD0023607064
:1085E0002370099DFFF7F8BB08F048FDE1E6A86895
:1085F00008F086FDDDE6A86800F11702C11D09F04C
:10860000E5F9D6E6AB685988188804F069F8D0E631
:10861000052114F0DAFD05210346083009930DF019
:10862000FDFA0AA904460DF1220004F04DF8BDF848
:108630002230A4F801300022BDF828302270099DB4
:10864000A4F80330FFF7C8BBAB681E889A88598826
:10865000B0B203F0DDFF4AE5AA68002314889278DF
:108660000093CDE901330221A0B203F07BFE032188
:108670000546388814F0A9FD032103460830099304
:108680000DF0CCFA0570099DA0F80140FFF7A4BBDE
:10869000AA681189148853880291D1880191918820
:1086A00000910022DFE70AA80CF070F80321388857
:1086B00014F08BFD03210346083009930DF0AEFA48
:1086C00000230370BDF82830099DA0F80130FFF7A2
:1086D00083BBA86801238CE6AB68002218780121CF
:1086E0000CF026F865E6092114F06FFD0921034618
:1086F000083009930DF092FAFF2300223F21C17048
:108700000270437083700321099D0371437181716D
:10871000C2710272FFF760BBAB681E88002206219F
:10872000B0B207F0A9FEE2E4AA68002132F8026BB9
:10873000F6E7AA68114602F10C0331F8020B0A327F
:1087400007F082FF0146388814F051FD0546FFF717
:1087500043BB092114F039FD092103460830099370
:108760000DF05CFA002300F8013B082109F086FDBA
:10877000099DFFF731BBA8680AAA002300F1100188
:108780000CF0B0F81121388814F01FFD11210346B8
:10879000083009930DF042FA002300F8013B102243
:1087A0000AA914F075FC099DFFF716BBAB68188881
:1087B00003F0DEFE0146388814F019FD0546FFF788
:1087C0000BBBAB6808211E8814F0FFFC0821034690
:1087D000084409930DF022FA0446E11CB0B203F0FC
:1087E00057FE2070099DA4F80160FFF7F5BAA8684C
:1087F00008F0AEF9DDE5A9680A894B88088802927D
:10880000CA880192898800910022114603F0AAFDCE
:108810000146388814F0EBFC0546FFF7DDBAA8687E
:1088200008F0ACFBC5E5A86808F00EFBC1E508F050
:10883000E1FABEE5022114F0C8FC0221034608302B
:1088400009930DF0EBF900230370044608F0D0FA09
:108850006070099DFFF7C0BA304607F0B1FEA8E589
:10886000AC682288131F9BB243F6FC75AB4200F242
:108870002C8161880B1F9BB2AB4200F22681B4F8B9
:108880000F50AB1F40F67A469BB2B34200F21D81F7
:10889000B4F81160B6F5FA7F80F01781B4F813C010
:1088A000ACF10A0340F6764E9BB2734500F20D819F
:1088B000731C9BB205FB03F3B3EB8C0F80F20581B5
:1088C0006379104622790295CDE9036C0634A579C7
:1088D00001950094F8F73CFF0146388814F087FCB6
:1088E0000546FFF779BAAB681878002800F0E880F1
:1088F0005B78002B00F0E4808049814A00230B6004
:10890000136002F099FC0C2806464FF001013888EC
:1089100008BF002650E5AC686379B4F80320B4F8CA
:1089200001102078A4790094F8F73AF841E5AB6893
:108930001878F7F78DFD3CE5A96811F8010B02F0F6
:1089400009FC36E5A96811F8010B02F0B9FB30E526
:10895000022114F03AFC02210346083009930DF07D
:108960005DF9002303704370099DFFF735BAAC68C9
:108970002179228801290AD063889A4200F2AB80CB
:108980001F2A40F2A880B3F5804F00F2A480A57B97
:10899000A379104662790295657B019507340094AE
:1089A00002F080F905E5A9680120FEF755FD00E514
:1089B000092114F00AFC09210346083009930DF03F
:1089C0002DF900210446082200F8011B14F06BFB6E
:1089D00000F064FE030CC0F307250A0CE3701B0AC9
:1089E0006070A570C1F307202371130A099D61719E
:1089F000A071E2712372FFF7EFB9042114F0E5FBD7
:108A000004210346083009930DF008F900230721DB
:108A100003701B22C170099D42708370FFF7DCB99F
:108A2000AA68384BFFF778BBAB689978188803F0D1
:108A300053FD0146388814F0DAFB0546FFF7CCB940
:108A4000012114F0C2FB01210346083009930DF007
:108A5000E5F80C230370099DFFF7BEB9AA682A4BFD
:108A6000116819605268FFF75ABBAB681D880AA9E4
:108A7000A8B203F0E7FE05210446388814F0A5FBF0
:108A800005210346083009930DF0C8F80470A0F8DA
:108A90000150BDF82830099DA0F80330FFF79CB9BC
:108AA0001A4A1B49136808682B441360002113F00D
:108AB00087FC099DFFF790B9002BBFF650ACCAE7C1
:108AC0000E4B4FF0FF321A601BE7122114F08FFBA0
:108AD0000546FFF781B9012114F077FB0121054616
:108AE00008300DF09BF812230370FFF775B91121C0
:108AF00014F07DFB0546FFF76FB900BFC4310020BD
:108B0000C831002008000020000000205032002062
:108B10004C3200202DE9F84383890022032B0A60A0
:108B200044D905468846083004210DF055F8AB8934
:108B30004688B0F80090B34249D31B2E43D803F0C7
:108B400001FB4FEA19370446002844D0BB0802D184
:108B500037B3012F03D06FF01500BDE8F883037918
:108B600067F3010303716671A9683246E01D14F0D2
:108B70008FFA2146C9F30B0003F0F0FA0028ECD07D
:108B80002B4B2C492C48C91AC908890141F0010115
:108B900013F03AFF204603F0DBFA6FF01500DCE734
:108BA0000379022262F301030371DCE72149204BC0
:108BB0002248C91AC908890141F0010113F024FFB4
:108BC0006FF01500C9E71B49194B1D48F1E719491A
:108BD000174B1C48EDE7164B16491B48C91AC90824
:108BE000890141F0010113F00FFF184B1B689B0135
:108BF00002D46FF06800B0E74FF0FF334FF0FF3260
:108C00000120FCF73DFF0221C8F8000008300DF0FC
:108C100005F801241A2202704470D8F80000214699
:108C200008300CF0FBFF03466FF068001C7094E7FF
:108C3000F4DA01001CDB0100E8DE010084DE010043
:108C4000B8DE010098DE0100D4DE01000000002043
:108C5000F8B50E4B1B68DB0600D4F8BD02F1080422
:108C600005460E46204602210CF0D8FF034604219B
:108C7000052259701A7020460CF0D0FF00270770AB
:108C8000A0F801602B78C370F8BD00BF0000002081
:108C90000F2810B504460FD80A480B49D0F800C079
:108CA00031F81430094A6344036013680020013B23
:108CB00021F81400136010BD054841F60231F9F7A0
:108CC000B7FEE9E75032002054320020C0310020C6
:108CD000FCDE0100037F03F00303013B012B04D9F9
:108CE000224841F64551F9F7A3BE70B5044601F19B
:108CF000080528460421E6880CF090FF237F03F046
:108D00000303022B0CBF46F4005346F48053038048
:108D1000617F418028460CF081FF627F04F11F01D2
:108D200014F0B6F9124B1A68002A10DD114C1249E2
:108D300023680968591A914210D201330F2E23601B
:108D400006D80E4A32F81630013322F8163070BDBC
:108D5000064841F63E51F9F76BFEF2E7034841F64B
:108D60003851F9F765FE2368E7E700BFFCDE010034
:108D7000783200207432002050320020543200201B
:108D80002DE9F04F90F804C0C688BCF1030F8BB0FA
:108D900004460D4600F11C071ED0ACF1050CBCF1D9
:108DA000170F33D8DFE81CF03A00320032003200EF
:108DB0003200320032003200320032003200320023
:108DC00032003200320032003200B9008F01AC01B3
:108DD00015012B013D015E01C37F033B122B00F205
:108DE000BF81DFE813F01602BD01BD0145025E023E
:108DF000BD017002BD01BD01B9027902BD0194023D
:108E0000BD01BD01BD01BD01C101C101B24841F6B5
:108E100050410BB0BDE8F04FF9F70ABEAF4A037EF0
:108E2000A67E94F8198092E803005B425FB20B0CB7
:108E30008DF81E30237FADF81C1059060690C6F33E
:108E4000400600F1AA82A64B5B6803F00053002E97
:108E500040F0EE82002B5DD0A24B1B689B0759D5DA
:108E6000A14B1B68002B04F11E0A09DB207F524630
:108E7000C0F3801100F00F00FEF71EFE002849D15C
:108E8000237F03F00F03012B00F08183637F03F145
:108E9000060BA3F106095FFA8BF25FFA89F9053335
:108EA00005925FFA83FB4E460835022128460CF0F6
:108EB000B5FE059B43703E220270012128460CF04E
:108EC000ADFE024602231370594628460CF0A6FE5A
:108ED00001230370237F0AAA03F00F0313440546FE
:108EE00013F8103C437008F0C7F8804580F02883E1
:108EF0004046EA1CA91C08F08FF8AB780233AB702F
:108F000085F809900A3504F124013246284614F008
:108F1000BFF8AF550BB0BDE8F08FFF0700F14E82F0
:108F2000277F002F00F041826D4B5B689800F1D5E0
:108F30006C4B1B6840F20122134203F40078E9D025
:108F40000835002F40F04A82684A1368013304F163
:108F50001F091360B8F1000F00F0BE8202212846FD
:108F60000CF05CFE3E2303701F2343700121284652
:108F70000CF054FE03460A221A7028461E210CF0FB
:108F80004DFE0770A0F80160637FC370A37F03717B
:108F9000054649460622053014F07AF8062204F107
:108FA0002B0105F10B0014F073F8062204F12501E2
:108FB00005F1110014F06CF8E38E618EA28EA5F815
:108FC0001920A5F81710A5F81B3094F838306B77E6
:108FD000A0E7434B5B681F044FF000049AD50835A7
:108FE000022128460CF01AFE302303210370417041
:108FF00028460CF013FE0470A0F801608AE73C4B91
:109000001B68180286D50835022128460CF006FE9A
:10901000022157230370417028460CF0FFFD0680A3
:1090200078E72F4B5B6899007FF574AF2D4B1B6879
:109030001A037FF56FAF0835022128460CF0EEFDCC
:109040003E23037004234370012128460CF0E6FD03
:1090500014230370032128460CF0E0FD0680237FD3
:10906000837057E71E4B5B689B0004D51D4B1B6844
:109070001F0500F1A080627FA07F1E491E4B247F48
:10908000002A92FAA2F2B2FA82F2A3EB010308BF1D
:109090004FF0FF32002890FAA0F0B0FA80F04FEACB
:1090A000D30308BF4FF0FF30511C01309B010990E2
:1090B0000891124843F00203042206A9CDE9066490
:1090C00013F0F8FC26E70A46384631460BB0BDE8F7
:1090D000F04FFFF7BDBD00BFFCDE010050DC01001A
:1090E0000000002008000020C4310020C031002012
:1090F000780D0020F4DA01001CDB010038DF0100EC
:10910000C54B5B6899007FF505AFC44B1B685A07D8
:109110007FF500AF0835022128460CF07FFD3E2385
:1091200003700A234370012128460CF077FD0346A3
:10913000032228461A7009210CF070FDFB07054632
:1091400000F11F82237F2B70E18B228C638CA5F8AA
:109150000730A5F80160A5F80310A5F80520D9E6A9
:10916000AF4841F6195154E6AB4B5B689A007FF566
:10917000D1AEAA4B1B685B067FF5CCAE0835022149
:1091800028460CF04BFD3E2303700B234370012156
:1091900028460CF043FD072303700A2128460CF0F3
:1091A0003DFD0680A38C4380E38C8380238CC380A9
:1091B000638C0381AEE60835022128460CF02EFDB3
:1091C0003E23037006234370012128460CF026FD40
:1091D0000C230370052128460CF020FD237F03702B
:1091E000A0F80160627F002A92FAA2F3B3FA83F337
:1091F00008BF4FF0FF330133C370A27F92FAA2F38E
:10920000002AB3FA83F308BF4FF0FF330133037131
:1092100080E6814B5B6898007FF57CAE7F4B1B68D6
:10922000D9067FF577AE0835022128460CF0F6FC0A
:109230003E2303700D234370012128460CF0EEFC01
:10924000052303700C2128460CF0E8FC04F12001F2
:109250000546082220F8026B13F01AFF022204F1DF
:10926000280105F10A000BB0BDE8F04F13F010BF64
:10927000694B1B681A064FF000047FF54BAE0835AA
:10928000022128460CF0CAFC082304210370417017
:1092900028460CF0C3FC01230470A0F80160C370E1
:1092A00038E690F820100E2900F045815D4B5E4AAB
:1092B0005E48D21AD208920142F002020BB0BDE819
:1092C000F04F13F0AEBB0B463246394600200BB0D0
:1092D000BDE8F04FFEF750BC4F4B1B681F067FF5F3
:1092E00019AE08350221284694F820400CF096FC6F
:1092F000082304210370417028460CF08FFCB4FA57
:1093000084F35B090470A0F80160C37002E6424B6D
:109310005B68980058D5414B1B68990654D50835B1
:10932000022128460CF07AFC3E2303700B23437085
:10933000012128460CF072FC062303700A212846FE
:109340000CF06CFC0680238C4380638C8380A38CA0
:10935000C380E38C0381DDE52F4B1B681B054FF0B9
:1093600000077FF5D7AD0835022128460CF056FCE2
:10937000034608210C2259701A7028460CF04EFC46
:109380000770A0F8016094F82030C370B4F8213061
:109390008380B4F82330C380BCE5002104F11E03B0
:1093A0004246084607F062FF4DE5A07F04F1250321
:1093B000FF2204F11F0107F059FFB5E5184841F6F7
:1093C0009621F9F735FBABE50023CDE90133009396
:1093D0001A220221304602F0C5FF9BE502212846F1
:1093E000B8F1000F40F0B6800CF018FC3E2303707B
:1093F00013234370012128460CF010FC0123037055
:10940000122128460CF00AFC04461222414613F0B1
:109410004AFE27707EE500BF000000200800002003
:10942000FCDE0100F4DA01001CDB010064DF010056
:10943000002B3FF46FAD5E4B1B685A057FF56AAD9C
:10944000237F03F00F03012B04D05A4841F233412C
:10945000F9F7EEFA584B1B68002B04F11E060ADBE5
:10946000207F3246C0F3801100F00F00FEF724FB8E
:1094700000287FF44FAD0835022128460CF0CEFBC2
:109480003E23037012234370012128460CF0C6FBD3
:1094900003460B221A70284611210CF0BFFB012352
:1094A00003704370054607F0E7FD804576D2EA1C5D
:1094B0004046A91C07F0B0FDAB780233AB70237FA8
:1094C000C3F3C01306226B7204F1240105F10A00F4
:1094D00013F0DEFD2F741DE5022128460CF09EFBE3
:1094E0003E23037013234370012128460CF096FBA2
:1094F000034601221A70284612210CF08FFB0770D8
:10950000A0F80160637FC370A37F03F001030546E9
:10951000037149460622053013F0BAFDE38E618ED1
:10952000A28EA5F80D20A5F80B10A5F80F3094F821
:1095300038306B74EEE42B46324600211A20C6E622
:10954000237FC3F380135146AB700622E81C13F04F
:109550009FFDD5E40CF062FB3E221F230270437096
:10956000012128460CF05AFB0A2303701E212846CD
:109570000CF054FB04461E22002113F094FD2770CA
:10958000C8E40C4841F61B31F9F752FADAE5002637
:109590000C234FF00B0B0593B14685E4237FC3F3F7
:1095A00080133146AB700622E81C13F071FD86E78C
:1095B00008000020FCDE0100C431002070B500F17D
:1095C00008040E462046022115460CF027FB132303
:1095D00005210370417020460CF020FB012303702D
:1095E000A0F80160A0F8035070BD00BF0379032B01
:1095F00008D0053BDBB2172B01D900207047054A84
:10960000D05C7047037F03F00303032B0CBF0420DF
:109610000520704780DF0100124B4FF0FF32D0B4BD
:109620001A60114B114C124A20604FF0FF3641F680
:10963000FF77C3E900670F4B0F48104C0026002747
:10964000C2E900670E4A1F2600270021C3E9006710
:109650000C4B0160116021600B481960D0BC2022C6
:1096600013F021BDC4310020000000204C32002046
:10967000780D002008000020C03100207432002046
:1096800078320020503200205432002008F0F6BD1D
:1096900008B500230BF026F9002008BD0148002181
:1096A000704700BFFF41010010B5044608F03CFEC2
:1096B00068B909F0B1F998B90AF046F8C8B90AF0E2
:1096C00063F9F8B92046BDE810400FF061BF1248B9
:1096D00040F61A01F9F7ACF909F09EF90028EBD031
:1096E0000D4840F61F01F9F7A3F90AF02DF80028FC
:1096F000E5D0094840F62501F9F79AF90AF044F94E
:109700000028DFD0044840F62B01F9F791F92046F4
:10971000BDE810400FF03CBFB8DF01000860014811
:109720000FF036BF944000200FF032BF2DE9F84F04
:109730002F4E0C4691462378727831789A429CBF1E
:10974000B37823709945824648D013FB01F1294D27
:109750000133DBB29A4208BF00236A1823703DD060
:109760006B5A038000274FF0010B4FF0020826E0F0
:109770008BB3037903F00303013B012B32D9C2F809
:10978000048002F0E5FC2378727831789A429CBF1D
:10979000B37823704B4522D003F1010C5FFA8CFCA7
:1097A00013FB01F3624508BF4FF0000CEA1884F880
:1097B00000C014D0E95ABAF8003099420FD150686D
:1097C000012820F00303D3D80137C2F804B0FFB258
:1097D000002BD8D0D5E7C2F80480D4E7002738465C
:1097E000BDE8F88F0137C2F804B0FFB2C9E700BF87
:1097F000FC020020000300202DE9F043314FDFF888
:10980000C880324E83B0D7E9000101AAFCF7C8FA3C
:109810000446002840D0786800223946FCF7C8FA90
:10982000DDF80490D9F81C5035B12B78002B42D0CC
:109830002B78013BDBB22B7099F8203023B1012B40
:1098400033D1484604F084FEF3787078B27801335F
:109850000021DBB2984208BF0B469A4289F82010DB
:109860001DD03278C9F80040F17801FB0262C2F8DD
:109870000490F370002DC6D02B78002BC3D16B69F8
:10988000002BC0D0A8699847D7E9000101AAFCF7CE
:1098900087FA04460028BED103B0BDE8F08340F645
:1098A0008C214046F9F7C4F8E4E740F685214046AC
:1098B000F9F7BEF8C8E740F62E214046F9F7B8F8A8
:1098C000B6E700BF80400020B8DF01002C01002077
:1098D0002DE9F047334F3E78864228BF06464EB307
:1098E000314DDFF8C890EC7807F104086A78AB785E
:1098F0000134E4B2A24208BF0024A34240461BD078
:10990000FCF7E0F982464846BAF1000F12D0FCF7A6
:10991000D9F900283FD0C0F800A0EA782B7802FBE4
:10992000035358603B78EC70013E013B16F0FF0694
:109930003B70DBD1BDE8F0873B78002BFAD01C4DA3
:109940001C4EEC78DFF864804FF000096A78AB7841
:109950000134E4B2A24208BF00249C423046E9D060
:10996000FCF7B0F982464046BAF1000FE2D0FCF7AE
:10997000A9F980B1CAF80490C0F800A0EA782B7861
:1099800002FB035358603B78EC70013BDBB23B7049
:10999000002BDBD1CEE750460649BDE8F047FCF787
:1099A000ABB900BFDC320020CC010020C434002061
:1099B00044010020E03200202DE9F047614FDFF83C
:1099C0008881DFF8889186B0D7E9000103AAFCF707
:1099D000E7F90546002836D0039B002B00F09D8058
:1099E000187804AA02A905F08FF80446002856D07A
:1099F000DDE90313BDF8082091F800A0ADF80A20B6
:109A000005AE05930DF10A0505F09AF82146059A71
:109A1000BDF80A0005F0D2F8204605F04DF83246B0
:109A20002946504605F070F804460028ECD1D8F8D5
:109A300000000FF0ADFDD7E9000103AAFCF7B0F973
:109A400005460028C8D104AA02A90DF1070005F0B7
:109A50003FF8044600285DD0049B05939DF807A0BD
:109A6000BDF80830ADF80A3005AE0DF10A0505F075
:109A700067F82146059ABDF80A0005F09FF82046D0
:109A800005F01AF832462946504605F03DF80446DE
:109A90000028ECD1D8F800000FF07AFDCBE7039B4B
:109AA00005931B79013B162B0DD8DFE803F0120C50
:109AB0002E0C120C0C0C0C0C0C0C0C0C0C0C0C0CBE
:109AC0000C0C0C24120040F61B214846F8F7B0FF9E
:109AD0007AE7394678680022FCF76AF91C4B059949
:109AE000DB7828461B4A0B70FCF750F9D8F80000C9
:109AF0000FF04EFD9FE7394678680022FCF758F9D1
:109B00000599284602F076FF5EE705A9284602F08F
:109B10008DFF48B106B0BDE8F08740F6A601484683
:109B2000F8F786FF039B5BE7024639467868FCF747
:109B30003FF9059900293FF447AF054B2846DB78EC
:109B4000D0E700BF8840002090400020B8DF01002F
:109B5000FC0200207C4000202DE9F04F85B0CDE9CB
:109B600000015E4C5E4D5F4E009A00231360D6E903
:109B7000000103AAFCF714F98046002800F0968043
:109B8000039B59491A780198FFF7D0FD002840F04F
:109B90009280A3788DF80930E27807460DF109012B
:109BA0000DF10A00FFF7C2FD47EA000212F0FF02C2
:109BB000F2D1039B1979012940F08A8049497068E4
:109BC000FCF7F6F849494046FCF796F82B78282B25
:109BD00065D80133464903982B70FCF78DF82B7834
:109BE000002BC1D0DFF80C8198F8037098F80120A1
:109BF00098F802300137FFB2BA4208BF00279F42EF
:109C000019D03A48FCF75EF881460028ACD03848B5
:109C1000FCF758F8002851D0C0F8009098F80320BD
:109C200098F8003002FB038358602B7888F80370A3
:109C3000013B2B7098E7DFF8C080DFF8B09098F810
:109C40000370DFF8ACA098F8012098F802300137D3
:109C5000FFB2BA4208BF00279F42484684D0FCF7B3
:109C600031F883465046BBF1000F3FF47DAFFCF75F
:109C700029F840B30023CBF80430C0F800B098F8BE
:109C8000032098F8003002FB038358602B7888F893
:109C90000370013BDBB22B70002BD4D164E7174873
:109CA00040F2FE51F8F7C4FE2B7892E7E2780E49B5
:109CB0000198FFF73BFD05B0BDE8F08F0B49484622
:109CC000FCF71AF850E709495846FCF715F84BE736
:109CD000009910460B6005B0BDE8F08FFC02002033
:109CE000DC32002078400020FE020020E03200201C
:109CF000C4340020CC01002044010020B8DF010062
:109D000070B5444982B000234868019301AAFCF76A
:109D10004FF80446002852D03F492046FBF7ECFF9D
:109D2000019A13791C2B10D8DFE803F0160F0F16D9
:109D30000F160F0F0F0F0F0F0F0F0F0F0F0F0F0F2C
:109D40000F0F1F16161616161600344840F2C5419E
:109D5000F8F76EFE02B070BD002BFBD12F4840F229
:109D6000C141F8F765FE02B070BD137F95683C2BCA
:109D70002C682AD0537FD3B1606E20B100232849CC
:109D80006366FBF7B9FF94F86A306FF3000384F859
:109D90006A30002001F004FB0446002001F0B8F80E
:109DA00050EA4400D6D107F01DFC02B070BD94F813
:109DB0004420236263F3000284F84420E9E7174853
:109DC00040F29B31F8F734FEA6E76E68AEB1B36D92
:109DD00000226A6023B1114840F21441F8F728FECE
:109DE00006F14C0106F14800FBF7C6FF054650B1ED
:109DF0003068B56502F07CF9C5E7084840F21141CA
:109E0000F8F716FEE3E7054840F21741F8F710FEB1
:109E1000EEE700BF78400020E0320020B8DF01000C
:109E2000C43400202DE9F043046883B0804604B3B5
:109E3000434F444EDFF81091254624682B791C2BA4
:109E400010D8DFE803F02B0F0F2B0F2B0F0F0F0F86
:109E50000F0F0F0F0F0F0F0F0F0F0F0F1F3D2B2B9C
:109E60002B2B2B0040F2F2513846F8F7E1FD002C85
:109E7000E2D10023FF20C8F8003003B0BDE8F04372
:109E8000FFF726BD2B7F3C2B3DD0022B42D05BB190
:109E900040F229513846F8F7CBFD2B7923B940F22F
:109EA0007B513846F8F7C4FD3378282B24D801338A
:109EB000494628463370FBF71FFF002CBCD1D8E77A
:109EC000E8880F28D3D802F021F9436F054623B163
:109ED00040F2E4513846F8F7ABFD05F1680105F1B1
:109EE0006400FBF749FF034608B36B67284602F09E
:109EF000FFF8002CA0D1BCE740F2FE513846F8F73D
:109F000097FD3378D3E728464946FBF7F5FE002C4A
:109F100092D1AEE7284606F031FC002000F0EAFFBF
:109F20000028A4D107F05EFB002C85D1A1E70190A9
:109F300040F2E7513846F8F77BFD019BD5E700BFBB
:109F4000B8DF0100DC320020C43400200148FBF7F8
:109F5000B9BE00BFE03200200149FBF7CDBE00BF13
:109F6000E03200200148FBF7ADBE00BFC434002042
:109F70000149FBF7C1BE00BFC4340020024B034AB5
:109F8000DB780B70FBF702BFFC0200207C40002056
:109F9000014B18680FF0FCBA904000200D4B9A78E6
:109FA00093F803C0624509D8ACEB0201C9B28842FC
:109FB00002D86245197808D1002070475978891A6B
:109FC0006144C9B28842F7D8197802FB0133586856
:109FD000704700BF44010020094B9978DA7818785F
:109FE00093F801C08A4209D04A1CD2B201FB003169
:109FF000944508BF002248689A7070470020704757
:10A000004401002010B5114AD47892F801E092F88A
:10A0100002C0631CDBB29E4508BF00239C450CD0E8
:10A0200096461EF804CB1CFB04FC1EEB0C0404D06B
:10A030002EF80C006160D37010BD054840F24661F7
:10A04000F8F7F6FC00231B80FFDE00BFFC020020B7
:10A05000B8DF010030F0020310B50C4602D00B68E7
:10A06000022B08D04FF0FF324FF0FF3305480FF0BE
:10A07000D3FA206810BD044840F27A61F8F7D8FCA2
:10A08000F0E700BF94400020B8DF0100034A034618
:10A09000106800B17047136018467047A83200205E
:10A0A000044A136823B1984206BF002111600023BF
:10A0B00018467047A8320020014B1868704700BF4F
:10A0C000A8320020034A0346106800B170471360AD
:10A0D00018467047AC320020044A136823B19842F6
:10A0E00006BF00211160002318467047AC320020E3
:10A0F000014B1868704700BFAC32002030B50568CE
:10A1000087B00DB12B7813B9002007B030BD0446DD
:10A1100001220021684613F0A8FA2B780E4AC5F8F0
:10A1200018D06A61002BEFD00C4B0022114603209F
:10A130009C60FBF79FFE40B94FF0FF324FF0FF33BA
:10A1400068460FF069FA07B030BD054840F2F56186
:10A15000F8F76EFCF0E700BF2997000080030020AD
:10A16000B8DF010070B5264D2B6884B00C4616464A
:10A17000002B35D099421AD10223039303AB024638
:10A18000009303211F4B0020FDF7C0F830F00203BD
:10A1900011D14FF0FF331C484FF0FF320FF03CFA63
:10A1A000039B8BB12B680BB19C421BD014B36FF097
:10A1B0002D0004B070BD039B022BEAD1134840F27E
:10A1C0007A61F8F735FCE4E73046FFF797FFA0B96E
:10A1D0002B680BB19C420BD0002CE8D104B070BDB1
:10A1E0002960C9E700236FF077002B6004B070BDD1
:10A1F0002860DEE76FF07700DBE76FF00F00D8E74D
:10A20000A83200201D97000094400020B8DF010014
:10A210000D4B9A7893F803C0624509D8ACEB020164
:10A22000C9B2884202D86245197808D10020704727
:10A230005978891A6144C9B28842F7D8197802FB63
:10A2400001335868704700BFCC010020094B997852
:10A25000DA78187893F801C08A4209D04A1CD2B241
:10A2600001FB0031944508BF002248689A7070478E
:10A2700000207047CC01002038B50C46054604F09C
:10A2800021FC21462070034A2846BDE83840FBF7F0
:10A290007DBD00BF8C4000200122024B11460020F2
:10A2A000FBF7E8BD700300202DE9F047164E9DF83E
:10A2B00020A09946F37880465D1C7078EDB2A842E4
:10A2C00008BF0025B078A8421AD034460F46114680
:10A2D00014F8042B02FB03447CB11022204612F038
:10A2E000D7FE237FA7610AF0010A23F0030343EAA4
:10A2F0000A03C4E904982377F5702046BDE8F08787
:10A3000000242046BDE8F087F8010020054B98782E
:10A31000DA78197882421ABF043300FB013000203A
:10A32000704700BFF801002000B50D4B0278597846
:10A3300093F803C093F800E091429CBF9A780270B2
:10A3400094450AD0531CDBB2994208BF002305494B
:10A35000037002FB0E105DF804FB0020FBE700BF5A
:10A36000F8010020FC0100202DE9F047224CA178E3
:10A37000E27823788A4226D0261D01FB036111B3BF
:10A38000DFF87880DFF8789007460B7F9A07C3F3F1
:10A39000400A03F0010518D5E278A37821786078A7
:10A3A0009A4210D00133DBB298421ED09A42A37079
:10A3B00009D003FB016131B1BAF1000FE5D115B14C
:10A3C0000B7FDB07E1D5BDE8F087C8F808100B4B21
:10A3D000524651463846FBF74DFD0028DCD040F28E
:10A3E0006C714846F8F724FBD6E70023A370002AD7
:10A3F000E9D03146E0E700BFF8010020400300202B
:10A40000B8DF0100064B9A78D9781878914205D0C8
:10A4100002FB0033586810B12030704700207047AD
:10A420002C01002070B5134A9378D47811789C429F
:10A43000064650781BD003FB012101334C68DBB288
:10A44000984208BF002393707CB102230025206846
:10A45000094A237121462560E661FBF797FC01223A
:10A46000064B11462846FBF705FD204670BD00242B
:10A47000FBE700BF2C010020844000206003002087
:10A480002DE9F04F83B01D460C9C9DF83C30CDE982
:10A490000004DDE90DA93BB35C1E95F800B08846C9
:10A4A0001746E4B20BF101035FFA83FBD84508BFFE
:10A4B0004FF0000B5F45484616D0FBF703FC0646FD
:10A4C00050468EB1FBF7FEFB88B100237360066037
:10A4D0002A78009B12FB03F2019B9850013CE4B2E6
:10A4E000FF2C85F800B0DDD103B0BDE8F08F494600
:10A4F000304603B0BDE8F04FFBF7FEBB70B5334C00
:10A50000334DA279A188334E002084B02346688061
:10A5100004F10800FBF7A6FBE379A279301D1A4489
:10A5200008213346FBF79EFB02962E46A37916F8C8
:10A53000040BAA7869780393CDE90064EB1CFFF75C
:10A540009FFF254B2C22181D4421FBF78BFB234B2F
:10A550003C22181D0821FBF785FB2048FBF7B2FBC6
:10A56000044608B31E4A2046111FFBF701FC194898
:10A57000FBF7A8FB0446E8B11A4A2046111FFBF777
:10A58000F7FB1648FBF79EFB0446C8B1164A204667
:10A59000111FFBF7EDFB154B2922FF201A70FFF767
:10A5A00097F9002004B070BD11484FF4FF61F8F72F
:10A5B0003FFAD7E70E484FF40061F8F739FADBE7C6
:10A5C0000B4840F60801F8F733FADFE754000020A3
:10A5D0002C010020B0320020C4340020E0320020E2
:10A5E0008C400020844000207C400020DC32002091
:10A5F000B8DF010030B52C4B2C4D186087B00AF045
:10A6000003F9FBF7E5FB2A4A2A4C2B49CDE904253F
:10A610002A4A0220CDE9022404230C24CDE90014A7
:10A62000274A087408760B700B7200201521FCF77E
:10A6300031FD002832D101220021224813F015F803
:10A6400007F0E8FD044610B1204607B030BDFFF723
:10A6500055FF04460028F7D108F0C6F90446002843
:10A66000F2D100F0FFFB04460028EDD109F06AF8B2
:10A6700004460028E8D100F0ADFD04460028E3D1EF
:10A6800009F074F904460028DED102F027F90446E7
:10A690000028D9D1012006F025FFD5E70A4840F26D
:10A6A0000721F8F7C5F9C6E790400020995401004A
:10A6B000C1530100895301000C4700209C44002035
:10A6C000AC40002094400020B8DF010010B586B0F7
:10A6D00000F0D8FB002834D100F07EFD002839D1ED
:10A6E00002F0FEF800283ED12C4B00245C8020466E
:10A6F00006F0F8FE2A492B4A2B4B4C8054805C8094
:10A7000001222146684612F0B0FF284B224621461E
:10A710000320C3F808D0FBF7ADFB002837D14FF07A
:10A72000FF324FF0FF3368460EF076FF00F0B0FBCB
:10A7300038BB68460AF02AF8FFF7E0FEC8B906B051
:10A7400010BD1B4840F2A721F8F772F900F044FD54
:10A750000028C5D0164840F2AD21F8F769F902F09B
:10A76000BFF80028C0D012484FF43671F8F760F9EE
:10A77000BAE70F4840F2213106B0BDE81040F8F7C3
:10A7800057B90B484FF44571F8F752F9D1E708482B
:10A7900040F20731F8F74CF9C1E700BFFC02002096
:10A7A000F8010020CC0100204401002050030020CB
:10A7B000B8DF010010B582B00024CDE90044049B4D
:10A7C00007F016FF02B010BD10B50346007F1A69EE
:10A7D0009969012482B02040CDE90004586907F04E
:10A7E00007FF08B1773001D102B010BD03484F21F7
:10A7F00002B0BDE81040F8F71BB900BF00E001004F
:10A80000F8B505682F6E0646D7B16C6E00232B662F
:10A810000CB300211623696623714FF6FF73E380A2
:10A820001E2204F11C0012F03EFC3C232377A6609C
:10A8300021463846FFF7A2FBBDE8F840FFF7A8BB6A
:10A84000084840F61611F8F7F3F86C6E2F6E0023E7
:10A850002B66002CDDD1034840F61A11F8F7E8F812
:10A860006C6ED6E758E0010000B17047084B10B598
:10A8700002460C46022001219C60FBF7FBFA00B95E
:10A8800010BDBDE81040034840F6EA01F8F7D0B823
:10A89000B003002058E0010038B5044610F81C3B16
:10A8A000DBB1104D6369A8602BB10F4840F6FF0182
:10A8B000F8F7BEF8A8680D490A4B0022C4E9051054
:10A8C00011460120FBF7D6FA00B938BDBDE8384083
:10A8D000054840F60611F8F7ABB8BDE83840FFF779
:10A8E0008FBF00BFA003002058E0010001A80000B6
:10A8F00000B9704710B50C46FFF7DEFB844206D066
:10A90000BDE81040024840F6BB01F8F791B810BD11
:10A9100058E0010030B583B0124B079D124AEB1A84
:10A92000A2FB032313F47F5F4FEA931414D1A21CFC
:10A930000E4B0095D2B201210020FCF7E7FC30F06D
:10A94000020307D00A4840F6CE0103B0BDE830400C
:10A95000F8F76EB803B030BD054840F6C901F8F706
:10A9600067F8E4E7444700208988888869A80000E0
:10A9700058E0010000B5134B9A8C93F8291093F816
:10A980006AC003EB810122F4437222F00202C96A19
:10A9900042F00E029A84062000224FF4006E6FF3FC
:10A9A000420CA3F868E083F86AC048700A7093F814
:10A9B000351003EB810304229B6B58701A705DF80D
:10A9C00004FB00BF4447002070B5134C256AAB6DF3
:10A9D00023B1124840F64411F8F72AF805F14C016A
:10A9E00005F14800FBF7C8F9064670B12868AE6566
:10A9F00001F07EFB0025606E2562FFF7B9FA206E3C
:10AA00006566FFF7A9FA256670BD044840F6461151
:10AA1000F8F70EF8EAE700BF4447002058E00100CD
:10AA200030B5434C94F86A30D90785B046D5236ACF
:10AA300053B193F8202042F0020283F82020236AC9
:10AA400093F82030DA0754D43948FFF71FFB8442CB
:10AA500004D0384840F6FA11F7F7EAFF94F82430AA
:10AA6000DB0703AD2DD402220321334B00950020D8
:10AA70000392FCF74BFC2946FFF7ECFA00284AD179
:10AA80002E48FFF73BFB002836D12948FFF708FB8B
:10AA9000844204D0274840F61C21F7F7C9FF236AF7
:10AAA0000BB1FFF791FF94F86A306FF3000384F85D
:10AAB0006A30002000F05AFC044640B3002005B084
:10AAC00030BD022103911C4B00950321012200207F
:10AAD000FCF71CFC2946FFF7BDFA0028C3D0144838
:10AAE000FFF7DEFA844204D0124840F60521F7F75A
:10AAF0009FFF0C2005B030BD0E4840F61921F7F736
:10AB000097FF0B48FFF7CCFA8442C3D1C7E706F0A2
:10AB100069FD2046D3E70648FFF7C2FA8442E8D031
:10AB2000044840F61321F7F783FF0C20C7E700BF66
:10AB30004447002058E001001D97000060470020B6
:10AB400010B4047804F00F04531E022C1FFA83FC87
:10AB500020D0012C09D01031C9008CB1062C0FD0A7
:10AB60004FF4F3724FF42A7303E040F216224FF4CD
:10AB700087630CFB02334FF6FE70184010BC704721
:10AB800043781033DA0001EBC30101F55C7302F581
:10AB9000B372EEE7407810BC0CEB8C03C3EB0313ED
:10ABA00010305B00C10003F5C87001FB020080B2E9
:10ABB000704700BF2DE9F0411D468AB04FF6FF7384
:10ABC0009D429DF84060119C17D023780133DBB281
:10ABD000074690462370002B50D02B492B4B0D81FC
:10ABE00004F11C000022C860C1E900788E729960EF
:10ABF00001201146FBF73EF938B994F8240010F013
:10AC000001050CD00AB0BDE8F081214840F68E0164
:10AC1000F7F70EFF94F8240010F00105F2D104219B
:10AC200009A807F06DFB099B1A4A0694A2FB0312C0
:10AC3000991A02EB5102120A40F2471101FB12333A
:10AC4000154A1649A21AA1FB0212920914490232AE
:10AC50000133CDE90451CDE90255CDE90055D2B219
:10AC6000012128460993FCF739FB30F00203C9D0D3
:10AC700007484FF4E561F7F7DBFEC3E7044840F609
:10AC80008101F7F7D5FEA8E7C84700209003002010
:10AC900058E0010021F1D490444700208988888839
:10ACA000F1A800002DE9F047694C1F46694B94F864
:10ACB0006A6080468E4693E8030082B016F0010673
:10ACC00015469DF82CC09DF8302000908DF804109A
:10ACD00040F089800CF0070C02F003024FEA4C0CA4
:10ACE0004CEA022C94F82920BEF1010F04EB8202F9
:10ACF00008BF4FF0000802ABA4F868809E44D2F869
:10AD00002C80A28C98F800A01EF8083C22F4437214
:10AD100013F00E0F22F002022AF01F0103F00F03BE
:10AD20004CEA020C43EA01030CBF0122002262F349
:10AD30004513A4F824C088F8003003F00F03012B5A
:10AD40000AF00F0A46D094F86A3065F3420384F89B
:10AD50006A30DAB25B0708D567F3C30284F86A2069
:10AD60003D480A99062212F093F998F8003003F052
:10AD70000F02012A05F001093AD098F80120FAB132
:10AD8000BAF1010F4FD098F8003069F386136FF3D2
:10AD9000C71388F8003094F83530E46104EB83047D
:10ADA000AD01A36B05F040055A7845F004051D7010
:10ADB00012B9062159701646304602B0BDE8F08738
:10ADC00069F3861362F3C71388F80030062388F806
:10ADD0000130E0E7BAF1010FB5D098F80120B2B91F
:10ADE00084F84060AFE70C26304602B0BDE8F0873B
:10ADF000404669F3861367F3C71300F8083B0A99C6
:10AE0000062212F045F90C2388F80130C3E7052A21
:10AE100016D9063AD2B284F8402008F108010F484A
:10AE200012F036F98FE794F840200C4908F1080039
:10AE300012F02EF994F84030063388F80130A2E77A
:10AE400007484FF4CE71F7F7F3FD98F80120E0E7DB
:10AE50004447002058DC0100AF4700208547002010
:10AE600058E0010010B5064C04F1280007F0ECFD95
:10AE700004F1340007F0E8FDFFF77CFD002010BD71
:10AE80004447002008B5FFF7CBFD002008BD00BFF8
:10AE900038B50A4C04F128052846343407F0E4FD9F
:10AEA000204607F0E1FD284607F0CEFD204607F0DA
:10AEB000CBFDFFF75FFD002038BD00BF44470020F9
:10AEC000034A044B801AA3FB0030C0F38F10704775
:10AED0004447002089888888044A0068044B801A07
:10AEE000A3FB0030C0F38F10704700BF4447002021
:10AEF0008988888838B9054890F86A3013F0010FBE
:10AF000008BF002070470020704700BF4447002062
:10AF100028B9044B93F86A0000F001007047002044
:10AF2000704700BF4447002050B9064B93F86A00B1
:10AF300010F0010005D093F8250000F003007047E1
:10AF40000020704744470020F8B50C46064690F8AC
:10AF5000260006F0C7FC23780546C3F38010FCF7F3
:10AF60009DFA06220746014606F1710012F090F89C
:10AF700085B1237843F040032370A71C062229469D
:10AF8000384612F085F8237803F00F03012B03D025
:10AF90003846F8BD3D46F0E796F8260006F0C4FCBA
:10AFA00001460028F4D02378204643F0800300F8BF
:10AFB000083B062212F06CF83846F8BD1F296AD803
:10AFC0002DE9F04390F8293000EB830383B0D3F8E8
:10AFD0002C8098F8003003F00F03012B0D46044637
:10AFE00017465AD000F128090DF10601484607F02E
:10AFF0009BFD0DF107010646484607F095FD9DF8BB
:10B0000006209DF807309A4229D14146304611F872
:10B01000022BC2F3401CC2F3030343EA4C13C2F3F6
:10B02000801C43EA8C1302F08002134300F8023BB9
:10B03000062212F02DF82A46394606F10800063598
:10B0400012F026F8757094F86A30DB0717D49DF873
:10B05000063084F82930002003B0BDE8F08314499D
:10B06000144A154840F2BE6311F0ADFA134811F0CE
:10B07000AAFA104840F2BE6111F08FFCC5E794F8BF
:10B08000353004EB830331469A6B2046F5F730FCEC
:10B090000028DCD0E0E71220704780F840100A4614
:10B0A0004130394611F0F4FF002003B0BDE8F083D1
:10B0B00098E0010058E00100ACE00100CCE00100A4
:10B0C00003460A4601481946FFF778BF4447002067
:10B0D000F0B590F8353000EB830383B09D6B0E46DE
:10B0E00004460DF107013430174607F01DFD2946CF
:10B0F000062211F8023BC3F380139B0143F00403C3
:10B100000370B31D43700546023011F0C1FF324693
:10B11000394605F1080011F0BBFF94F86A30DB07EF
:10B120000AD594F8293004EB8303D96A0B7813F01D
:10B130000F0308D0062B06D09DF8073084F8353071
:10B14000002003B0F0BD2A462046F5F7D1FB0028C9
:10B15000F2D0F6E71F2803460A4603D802481946EC
:10B16000FFF7B6BF12207047444700202DE9F8438F
:10B17000099C9DF820802546814615F81C1B01314D
:10B18000C9B217461E46217081B10F4C0F4B268164
:10B19000002211460120C4E90097E56084F80A8086
:10B1A0009C60FAF767FE38B9BDE8F883084840F2BA
:10B1B000A921F7F73DFCE8E7BDE8F843044840F271
:10B1C000B621F7F735BC00BF28480020C003002097
:10B1D000FCE001000020704770B5154D002405F11A
:10B1E0001C0644B995F8444014F0010403D02B6ABE
:10B1F0000F4932460BB1002070BD0420FEF7B2FFAC
:10B20000034638B17833F6D00A4840F2D311F7F745
:10B210000FFCF0E795F8442060F3000285F8442025
:10B22000FFF768FE0028DCD106F0DCF9D9E700BFA3
:10B23000E0470020FCE0010038B5324C94F844307F
:10B2400003F0010258B35ABB9A07C3F341050BD56B
:10B250000120FCF723F90621FAF77EFD00284AD0E9
:10B2600094F84450C5F3410594F83200C0F3C1008E
:10B2700006F0F8F994F8333094F832206FF3410374
:10B28000FF2184F83330930684F8341002D5023D50
:10B29000012D1AD9BDE838401A48F5F7E5BB0AB9BF
:10B2A0000C2038BD236A002BFAD104F11C02214680
:10B2B0000420FEF757FF054688B17835F0D01248D4
:10B2C00040F2D311F7F7B4FBEAE7002006F0EEF9FD
:10B2D00094F8333043F0020384F83330DAE794F81B
:10B2E000443060F3000384F84430FFF703FE044663
:10B2F00018B1284638BD122038BD06F073F9204633
:10B3000038BD00BFE0470020FCE00100043008B574
:10B3100001F11C02C0B2FEF725FF10B1783001D157
:10B320000C2008BD034840F2D311F7F781FB0C2035
:10B3300008BD00BFFCE00100034A044B801AA3FBD8
:10B340000030C0F307107047E0470020398EE33823
:10B35000044A0068044B801AA3FB0030C0F30710B6
:10B36000704700BFE0470020398EE33838B9054800
:10B3700090F8443013F0010F08BF00207047002000
:10B38000704700BFE0470020044A92F8443003F0C1
:10B39000010303430CBF104600207047E047002024
:10B3A00090B90A4A92F8443013F001000DD092F897
:10B3B0003200126A03F00103C0F3401003FA00F0F8
:10B3C0001AB140F00400704700207047E0470020A9
:10B3D00050B9064B93F8440010F0010005D093F8E3
:10B3E0003200C0F3C100704700207047E0470020E2
:10B3F00010B5154B1548164C10224FF4F871FAF79A
:10B4000031FC144B0722181D2421FAF72BFC124B98
:10B410004022181D2C21FAF725FC104B4722181D3D
:10B420000821FAF71FFC0E490E4A0F4803234FF07C
:10B430001B0CA4F800C00B704FF4A47C1370A0F890
:10B4400000C0002010BD00BF38480020800D002043
:10B45000B65F002064480020644900206854002042
:10B46000DA5F0020D95F0020B85F00202DE9F043AB
:10B47000D0F800802C4983B005464FF4F87240465E
:10B48000FAF756FC05F14806294608F083FAE86CFD
:10B4900001AA3146FAF78CFC28B3244C4FF6FF770B
:10B4A00004F10409E17894F801C0A2784B1CDBB2E6
:10B4B0009C4508BF00239A422DD0227812FB01F24E
:10B4C00019EB020C27D0019929F802700A68CCF810
:10B4D000041002600860E86CE37001AA3146FAF7D4
:10B4E00067FC0028DED1D8F8540108F5AA7450B1E1
:10B4F00000232146C8F85431FEF7BEFEFEF7CCFE0D
:10B5000003B0BDE8F0830A4840F6C311F7F790FA9C
:10B51000D8F85401ECE7064840F6AF11F7F788FA7F
:10B5200000231B80FFDE00BF800D0020D003002021
:10B5300050E1010010B50C4640B90B4B002201212F
:10B5400002209C60FAF796FC30B910BD074840F61F
:10B550006311F7F76DFAF0E7BDE81040034840F6D5
:10B560006911F7F765BA00BF8806002050E10100B5
:10B5700008B5084B0022986011460120FAF77AFCC2
:10B5800000B908BDBDE80840034840F69511F7F73B
:10B590004FBA00BF5806002050E1010083685A6886
:10B5A000537FDB0900F1080101D0F5F78DBEF6F7F6
:10B5B00017BB00BF10B50C4660B92046FEF78CFDE6
:10B5C000844206D0BDE81040054840F6A101F7F7D7
:10B5D0002FBA10BD024840F69E01F7F729FAECE7B2
:10B5E00050E1010010B50C4660B92046FEF76AFD37
:10B5F000844206D0BDE81040054840F69701F7F7B1
:10B6000017BA10BD024840F69401F7F711FAECE7BB
:10B6100050E1010000B9704710B50C46FEF768FD17
:10B6200084420AD0FEF748FD844206D0BDE81040AF
:10B63000024840F68B01F7F7FBB910BD50E101005D
:10B6400010B4D0E975240346084664B1944221D071
:10B65000D3F8E0118A420BD01168C3F8D41100224C
:10B6600010BC02607047D3F8E011914204D18AB156
:10B670000968C3F8E011EFE7117901F0030103292C
:10B6800013D01268C3F8D4210022C3E9762210BC7B
:10B6900000607047D3F8DC111268C3F8D421A142CE
:10B6A00018BFC3F8D821F2D1EEE7D1790329D3D05E
:10B6B0000A29E6D1D0E700BF38B5044610F81C3B94
:10B6C000DBB1164D6369A8602BB1154840F67E11B9
:10B6D000F7F7AEF9A8681349104B0022C4E905102A
:10B6E00011460120FAF7C6FB00B938BDBDE8384065
:10B6F0000B4840F68511F7F79BB903F0FF020A4BA0
:10B70000114698600120FAF7B5FB0028EDD0BDE89E
:10B710003840034840F69511F7F78AB978060020BB
:10B7200050E1010071B50000580600202DE9F041FC
:10B73000054690F8E4000E4681073AD43548904615
:10B740001F46FAF7BFFA0446002845D095F8E430C2
:10B7500043F0020385F8E430031D37D0237984F8E1
:10B760000880032203F01C0362711343237100223B
:10B77000D5F8D431A2711122E2716772D5F8D821BF
:10B78000E3B195F87611880718D495F8CF11C90759
:10B7900014D4D5F8E0118B4229D002B3D5F8DC31AE
:10B7A0001A6822601C602368C5F8DC410BB9C5F833
:10B7B000E441012333710020BDE8F081002AEDD17E
:10B7C0002360C5E97544C5F8DC41EFE7124840F64F
:10B7D0000C01F7F72DF9C1E76FF06800ECE71A7973
:10B7E00002F00302032A0ED0C5F8D831D8E7196851
:10B7F000C5F8E011002AD1D11A6822601C602368C4
:10B80000C5E97644D2E7DA79032AF5D00A2AEBD1E2
:10B81000F2E700BF6449002050E10100F8B5054699
:10B820000C4691B10B7890F87A20012142F0100279
:10B8300003F01C0385F87A20002043F0030306225E
:10B8400061702370A070E270F8BD3848FAF73AFAD8
:10B85000064600285DD095F87A30071D43F01003A6
:10B8600085F87A3058D0037901224271D5F8D40195
:10B87000B47103F01C0343F0030306223371F27129
:10B88000D5F8D831B8B195F87621910713D495F849
:10B89000CF21D2070FD4D5F8E02190421FD053B367
:10B8A000D5F8DC010368336006603068C5F8DC61F8
:10B8B00060B10020F8BD63B1D5F8DC311A683260A0
:10B8C0001E603068C5F8DC610028F2D1C5F8E4617B
:10B8D000F8BD3060C5E97566C5F8DC61E8E7026867
:10B8E000C5F8E021002BDBD10368336006603068C7
:10B8F000C5E97666DCE7037903F00303032B02D086
:10B90000C5F8D801CEE7C379032BEDD00A2BF7D1C8
:10B91000EAE76FF06800F8BD054840F60C01F7F75C
:10B9200087F8337967F345133371FFDE64490020EC
:10B9300050E1010038B590F87631D0F8D8210D46A5
:10B940009907044612D5002A3CD0D0F8DC311A6899
:10B950002A601D602B6833B138BD42BB2A60C0E944
:10B960007555C0F8DC51C4F8E45138BDD0F8D41195
:10B970000029F2D090F8F0C090F8CF3190F8F100A3
:10B98000844503D094F8F200032823D013F0010378
:10B990000BD1D4F8E00181423DD072B33BB12D48C8
:10B9A00040F65721F7F744F801E0002A43D0D4F8D5
:10B9B000DC311A682A601D602B68C4F8DC51002B4A
:10B9C000CAD1D0E7D0F8D4312B60C0F8D451002BC5
:10B9D000C2D1C8E7087900F003000328D6D1C8799E
:10B9E000032801D00A28D1D1DB072AD57AB119481A
:10B9F00040F66921F7F71CF8D9E70A7902F003024B
:10BA0000032A20D0C4E97611002BD0D0C7E72960E3
:10BA1000C4F8D45138BD0868C4F8E001002ABDD18B
:10BA20000A682A600D60002B94D12B68C4E9765512
:10BA3000002B91D197E72960C4E97555C4F8DC5112
:10BA400038BD0123A5E7CA79032AE9D00A2AD9D14A
:10BA5000E6E700BF50E1010090F8E4309B072DE9D4
:10BA6000F0410E4670D405463E489046FAF72AF952
:10BA70000446002873D095F8E4303B4943F00203B4
:10BA800085F8E430D8F80830D8F8040003F00F0245
:10BA9000D5F8383101430B40C5F83831D5F83C3181
:10BAA0001340C5F83C31D8F80470D8F80880FDF789
:10BAB000F5FD2D4B3B43184027F0FF0300F0FF0737
:10BAC0003B4343F0076343F40323C5F8403195F843
:10BAD000E43008F00F0243F00103271DC5F84421AC
:10BAE00085F8E43035D0237903F01C0343F00303D9
:10BAF000381D2371002709236371E3710822394639
:10BB0000A77111F0D0FAFDF7C9FDD5F83831677388
:10BB1000034003F0FF0220F0FF0313431A0C01F06F
:10BB20000F012372A272C3F30723120A217328465E
:10BB30006372A773E773E2722146FFF7FBFE0123EE
:10BB400033713846BDE8F08101230B710020BDE858
:10BB5000F081064840F60C01F6F76AFFC3E76FF084
:10BB60006800EFE764490020D030780850E1010018
:10BB7000F8B590F8BE3103F007020446062A00F239
:10BB8000DC80DFE802F0044F4F4F50504F006E480A
:10BB9000FAF798F80546002844D094F8BE31B4F876
:10BBA000C221A4F8D220012161F3020384F8BE313E
:10BBB000061DB4F8C631A4F8D43000F0A3802B7968
:10BBC000AA810921697103F01C030021012243F0BD
:10BBD0000303A971697248212B71D4F8D431A97279
:10BBE000EA72A973D4F8D811EA731422EA711B22FD
:10BBF0002A723BB194F87621900703D494F8CF21B0
:10BC0000D2076BD5002977D0D4F8DC311A682A60C6
:10BC10001D602B68C4F8DC51002B4ED0B4F8C63040
:10BC2000A4F8C830F8BD03F00702B0F8C0C1B0F8FE
:10BC3000C411B0F8C271B0F8C661A0F85AC0042AA5
:10BC4000A0F85E1024D0062262F3020380F8BE3111
:10BC5000D4F8145135B3286820B32B7F4268C4F858
:10BC6000142143F00303228D2B770923EA806B779D
:10BC7000032215236984A5F820C0AF84EE842946E9
:10BC80002A71EB77FEF77AF9BDE8F840FEF780B944
:10BC9000B0F8C821A2B990F8BC31A0F8C82080F84B
:10BCA000BD31D5E7294841F2A901F6F7C1FE286860
:10BCB000B4F85AC0B4F85E10CFE7C4F8E451ADE769
:10BCC000A0F8C221002262F3020380F8BE31B0F86E
:10BCD000CA31A0F8C821A0F8C631B9E7D4F8E021EC
:10BCE000934217D000298FD11A7902F00302032A58
:10BCF0001DD0C4F8D83189E72B60C4E97555C4F864
:10BD0000DC5189E7114840F60C01F6F791FEB4F8D2
:10BD1000D22054E71A68C4F8E02100297FF474AFF8
:10BD20001A682A601D602B68C4E9765574E7DA79D1
:10BD3000032AF5D00A2ADCD1F2E7BDE8F84003482F
:10BD400041F2D301F6F774BE6449002050E10100CE
:10BD50002DE9F84390F8F43013F0010604460D463F
:10BD600040F09180B0F8F610691A0A0400F1928050
:10BD700090F93920002AC0F20C81D0F814519C4669
:10BD800094F8F02084F8F12094F8602094F8618011
:10BD9000B4F85E7013F01C0F08F0070802F00709F2
:10BDA0007AD1B4F85C6013F0E00F08D094F8612009
:10BDB0005B0963F3020284F861204FF4A477002D3D
:10BDC00000F0D7802868002800F0D38094F8603015
:10BDD00094F861104268C4F814211CF0020FC3F3F8
:10BDE0000202C1F3020E03F0070301F0070102D1C2
:10BDF000994500F0EA80238DEB801C232B710023F2
:10BE00006A7785F81EE02B772946FEF7B7F8D4F855
:10BE10001451002D00F0B6802868002800F0B28090
:10BE2000B4F85C304268C4F81421B3420AD3B3F5C5
:10BE3000A47F07D8B4F85E30BB4203D3B3F5A47F28
:10BE400040F2F580A4F85C60A4F85E702B7F228D30
:10BE5000EA8043F003034FF0030C0921697785F86A
:10BE600004C02B77B4F85A302B84B4F85830AB8424
:10BE700015236F84EE842946EB77FEF77FF8BDE843
:10BE8000F843FEF785B8D0E919010022F9F788FFD9
:10BE9000064650B1BDE8F883C3F3820161F30202A4
:10BEA00084F860204FF4A4767DE70220FEF776F850
:10BEB00080460028EED08948F9F704FF074600289D
:10BEC000E8D094F8F43066F30003C3F3421242EA78
:10BED000930212F0070684F8F430DBB240F0908051
:10BEE00094F8F020A4F8F6609B0784F8F12000F1A4
:10BEF000AF803E1D00F0CA8005237B7194F8F420CA
:10BF00003B79C2F382023A7294F8F420C2F34212EF
:10BF10007A7203F01C03B4F8F610D4F8D4217981B6
:10BF200043F00303D4F8D8113B7100201823B871F3
:10BF3000FB71002A00F0848094F876319D077FD44D
:10BF400094F8CF31D8077BD4D4F8E0319A4200F08E
:10BF5000AA80002900F0B480D4F8DC311A683A6075
:10BF60001F603A68C4F8DC71002A93D1C4F8E47108
:10BF700090E75B4841F20321F6F75AFD286894F8F0
:10BF8000F4C023E7564841F23221F6F751FD286804
:10BF900046E7FEF721F8054600283FF47BAF03682B
:10BFA000D4F814215A6094F93930C4F81401002BE4
:10BFB00094F8F4309C46BFF6E3AE94F8E520002AEE
:10BFC0003FF4DEAE84F8E560DEE688457FF413AF2B
:10BFD00001232B712946FDF7D1FFD4F81451002D10
:10BFE0005AD02868002857D04268C4F81421012389
:10BFF00029462B71FDF7C2FFBDE8F843FDF7C8BF26
:10C00000A18D29440631A4F8F610FDF7E5FFD8F814
:10C010000030D4F814215A60C4F81481FDF7DCFF15
:10C020000368D4F814215A60C4F8140161E70123AD
:10C030002B712946FDF7A2FFBDE8F843FDF7A8BF25
:10C04000002989D13A60C4E97577C4F8DC718BE7BF
:10C05000FDF7C2FF238DA8F806301C2388F81C606A
:10C0600088F8043094F86030D8F80000C3F3020375
:10C0700088F81D3094F86130C3F3020388F81E304D
:10C080004146FDF77BFFFDF783FF32E7144840F69A
:10C090000C01F6F7CDFC2FE7114841F21521F6F718
:10C0A000C7FC2868A0E71368C4F8E03100297FF4D2
:10C0B00053AF13683B6017603A68C4E9767753E77B
:10C0C000137903F00303032B02D0C4E9762243E77C
:10C0D000D379032BEDD00A2BF7D1EAE7644900208E
:10C0E00050E101000148F9F7EDBD00BF38480020DC
:10C0F0000149F9F701BE00BF3848002002494FF45A
:10C10000F872F9F715BE00BF800D002002464FF40B
:10C11000F8710148F9F708BE800D00200F280CD8EF
:10C1200010B5044622464FF4F8710548F9F7FCFDB6
:10C13000038DA34218BF002010BD0020704700BF30
:10C14000800D00200148F9F7BDBD00BF6448002004
:10C150000149F9F7D1BD00BF644800200F2800F263
:10C16000E2802DE9F04F044683B070480E46224627
:10C170004FF4F871F9F7D8FD038DA342054640F05E
:10C1800094806B4AD778507891787B1CDBB29842C8
:10C1900008BF0023994200F0B680104610F8041B37
:10C1A00011FB07F1471800F0AE8044527E60D37057
:10C1B0002B7803F0FF00002B00F09580DFF87481EE
:10C1C000D8F80030062B3DD8DFF86CA15B4B00227D
:10C1D000012103209D60F9F74DFE95F93930002BC0
:10C1E000C0F28C80DFF858B111F0CDF8DBF80040D8
:10C1F000544B041BA4FB0345E40B44EA4544A3420F
:10C200004FEAD5354FF00003AB41074652D3DFF874
:10C210003891D8F80070D9F80030013771794B485F
:10C2200019442246A1FB0004C9F800102B46214402
:10C23000F3F756FFCAF800000020C8F8007003B0FA
:10C24000BDE8F08F95F87A3095F86020DFF8E8A027
:10C25000C3F3001302F003009B0000F10901DBB2FD
:10C260002430C2F340020344C900D140DB00D34074
:10C2700001F596721344DAF80000354AB2FBF0F289
:10C280009A4245D80027384607F03CFFB8429DD077
:10C290000146304B30481B1ADB089B012F483A46B9
:10C2A00043F0030310F0D1FB90E76FF0150003B0EB
:10C2B000BDE8F08F284A274BDFF88C90D8F80010A3
:10C2C00027489B1ADB089B0143F00303ADF80030BD
:10C2D000D9F80020DAF8003010F0D0FBCBF800706D
:10C2E000002301279AE707F00DFF95F93930DFF8B1
:10C2F0004480DFF844A0002BBFF674AF21462846E7
:10C3000004F08CF86EE76FF0680003B0BDE8F08FC2
:10C3100057009631013F07EB4107FF1A4900B7FB71
:10C32000F1F7FFB2AFE76FF015007047800D002006
:10C3300014060020B4560020BC56002068060020D9
:10C340004048002000CA9A3BB85600200050D6DC76
:10C3500000E6DF0CA4DB0100F4DA010090E101004B
:10C36000B0E101002DE9F0470F28BDF82090BDF89D
:10C370002480BDF8287036D882460C4643481546BE
:10C380004FF4F87152461E46F9F7CEFC038D534523
:10C39000844628D154BB90F8963199064BD490F836
:10C3A000E430DA0743D49CF894219CF89531934209
:10C3B0003AD1BCF89621ACF8986102F0E00242F064
:10C3C0001002ACF896219CF93920ACF89A9101330F
:10C3D000002AACF89C81ACF89E718CF894314FDB4C
:10C3E0000020BDE8F0870220BDE8F087013C14F092
:10C3F000FF04D8D090F8952190F894319A4213D048
:10C4000090F8963103F00F02032A0DD104F00F04C7
:10C4100023F01F0344F010041C4380F8975180F868
:10C4200096410020BDE8F0870C20BDE8F087D0F8E9
:10C4300038319B07B7D49CF93930002B1EDB9CF8B0
:10C4400018219CF819319342EED19CF81A21ACF8CE
:10C450001C9101338CF8183122F00F02012342F0B5
:10C46000090200208CF82831ACF81E81ACF820714C
:10C470008CF81A21CCF82401BDE8F0871A20B3E724
:10C480006046514603F0CAFF0020ADE7800D002052
:10C490000F281DD8F8B506460D460E4832464FF413
:10C4A000F871F9F741FC038DB34204460ED100F157
:10C4B0003407002684F8E86105223946284610F042
:10C4C000E7FD94F8E8010028F4D1F8BD0220F8BD9A
:10C4D00002207047800D00200F2840D838B505464F
:10C4E0000C4622482A464FF4F871F9F71DFC038DDB
:10C4F000AB4225D190F8503190F851219A422CD17D
:10C50000292C19D8042C19D9621F242A16D8DFE83F
:10C5100002F01915151515151515151515151515FF
:10C5200019191915151515191515151515151515AB
:10C5300015151515151519003B2C03D0122038BD03
:10C54000022038BD90F9392080F852410133002A89
:10C5500080F8503105DB002038BD0C2038BD0220AA
:10C560007047294603F05AFF002038BD800D002097
:10C570000F2821D810B504464FF4F8710F48224611
:10C58000F9F7D2FB018DA1420ED190F8304190F81D
:10C590003121A2420AD190F939400132002C80F8B1
:10C5A000302105DB002010BD022010BD0C2010BD85
:10C5B00003F034FF002010BD02207047800D0020E2
:10C5C0000F2821D810B504464FF4F8710F482246C1
:10C5D000F9F7AAFB018DA1420ED190F8484190F8DD
:10C5E0004921A2420AD190F939400132002C80F849
:10C5F000482105DB002010BD022010BD0C2010BD1D
:10C6000003F00CFF002010BD02207047800D0020B9
:10C610001B2935D8B2F5A47F70B516462ED80F2841
:10C62000044629D802460D4626484FF4F871F9F71A
:10C630007BFB038DA3421FD190F8BE311A0725D48E
:10C6400090F8E420D1071DD490F8BC1190F8BD21DA
:10C650008A421FD003F00703032B04D0033303F0F7
:10C660000703012B14D8B0F8C8318BB9A0F8C85112
:10C67000A0F8CA61184670BD022070BD122070BDBE
:10C6800012207047D0F838219206DDD41A2070BDF0
:10C690000C2070BD90F8BE3190F93910A0F8C2514D
:10C6A00001326FF302030029A0F8C66180F8BC21B3
:10C6B00080F8BE3101DB002070BD214603F0AEFEE4
:10C6C000002070BD800D0020034A044B12881B8897
:10C6D00002800B80704700BFB65F0020B85F00206B
:10C6E000024A034B1080198000207047B65F00207B
:10C6F000B85F00204FF01B0CA0F800C04FF4A470EE
:10C70000A2F800C008801880704700BF0F281BD80F
:10C7100070B504460E4615464FF4F87102460B48B4
:10C72000F9F702FB028DA24203460BD190F860405C
:10C73000C4F30204347093F86130C3F302032B7026
:10C74000002070BD022070BD02207047800D0020C7
:10C75000024A034B1070197000207047DA5F002006
:10C76000D95F00200F282DE9F04143D806460C463A
:10C7700017464FF4F871024624489846F9F7D4FA60
:10C78000038DB34236D190F8CF5115F0080539D159
:10C7900090F8E430DB0704D5D0F8383113F4106F8B
:10C7A00030D090F8CC3190F8CD11994226D104F0D8
:10C7B0000704B0F8CE21A400013144F4806408F0ED
:10C7C000070344EA431307F0010780F8CC1122F471
:10C7D000DF6290F9391043EA472322F0070213433E
:10C7E0000029A0F8CE3106DA314603F017FE2846BC
:10C7F000BDE8F08102252846BDE8F0810C252846D9
:10C80000BDE8F0811A252846BDE8F081800D0020A2
:10C810000F2812D838B504460D46094822464FF471
:10C82000F871F9F781FA038DA34204D190F8BD3075
:10C830002B70002038BD022038BD0220704700BF99
:10C84000800D00200F281DD838B504460D460E482F
:10C8500022464FF4F871F9F767FA038DA3420FD11E
:10C86000418DB0F8CE30094A01FB03F3C3EB43110D
:10C8700003EB8103A2FB03239B092B80002038BD1F
:10C88000022038BD02207047800D0020D34D621079
:10C890000F281ED838B505462A460F480C464FF4D7
:10C8A000F871F9F741FA028DAA4203460FD1418D82
:10C8B00040F2E24201FB02F242F2107101FB04215C
:10C8C00001390020B1FBF2F1A3F8CE1038BD0220EF
:10C8D00038BD0220704700BF800D0020FEF788BDE4
:10C8E000F8B503F029FF154E154F0025AAB24FF4F5
:10C8F000F8713046F9F718FA0446681D04F11C0275
:10C900002146C0B20135FDF72DFC30B1783040F63C
:10C91000CD01384601D0F6F78BF84FF6FF720023B1
:10C92000102D22856367E1D106480749074A4380F5
:10C930004B801360BDE8F840FEF75ABD800D002023
:10C9400050E1010014060020D00300203C480020E4
:10C95000014B1888704700BFB65F0020014B188854
:10C96000704700BFB85F0020014B1878704700BFC8
:10C97000DA5F0020014B1878704700BFD95F0020B4
:10C980002DE9F84F1A4F82468B469046994600256E
:10C9900001E0102D29D0AEB232464FF4F87138467E
:10C9A000F9F7C2F9038DB342044605F10105F0D150
:10C9B00090F8D630C3F340034345EAD106224946F6
:10C9C000DD3010F054FB0028E3D194F8D63003F0AA
:10C9D00001035345DDD104F1D7000622594610F07A
:10C9E00046FB0028D5D1012000E00020BDE8F88FEB
:10C9F000800D002038B58B6808601D682B780C46C8
:10CA000053B16B6923B1074840F2ED31F6F710F8E6
:10CA1000054BC5E9053438BDBDE838400846FEF78A
:10CA2000BDBD00BF50E101009DB500002DE9F04FF4
:10CA30000B68DD880F2D85B06DD80E4607462A4657
:10CA400081484FF4F871F9F76FF9038DAB42044652
:10CA500060D1356890F876C12B7F03F00303032B78
:10CA60000CF0010140D195F81F8005F11C0200294E
:10CA700057D090F93930002B0CF00401C0F2E88057
:10CA8000002940F07881B8F1020F00F0A481B8F1DC
:10CA9000050F00F0BD85B8F1060F00F01783B8F15F
:10CAA0000D0F00F0F484B8F1110F2AD16B7F032B26
:10CAB00076D195F82030033B132B1AD8DFE813F01A
:10CAC000350619001900190019001900190019007C
:10CAD0001900190019001900F905190019001900A9
:10CAE0001900DA05190055064BB911B13D2380F83C
:10CAF000533101232B71002005B0BDE8F08F0029D0
:10CB0000F9D03D220123002084F853212B7105B078
:10CB1000BDE8F08F3368012200201A7105B0BDE82E
:10CB2000F08FB8F1190F3BD801A353F828F000BFDC
:10CB3000B5D3000029D10000D7CD000099CB00006B
:10CB4000F9D5000007D60000CDD0000079D0000054
:10CB50008BD5000017D5000011D3000045D600008A
:10CB600099D500008FD4000059D000002FD00000CC
:10CB7000E7D10000ADCA000069CF000063CE00001D
:10CB8000EFCD0000EFCD000091D10000EFCE00000E
:10CB900077CE0000C5CF000090F93930002B66DB5E
:10CBA00094F8E4309B07A4D42848F9F78BF806469C
:10CBB000002800F0F88594F8E430071D43F00203E4
:10CBC00084F8E43000F0E885337986F8088003F0D3
:10CBD0001C0343F00303337102237371D4F8D4119F
:10CBE0000023B3710723F371D4F8D831E9B194F875
:10CBF0007621900719D494F8CF21D20715D4D4F810
:10CC0000E021914200F0F285002B00F09D86D4F8DF
:10CC1000DC110B6833600E603168C4F8DC610029F8
:10CC20007FF467AFC4F8E46163E7002B00F0AA85E6
:10CC3000D4F8DC311A6832601E603168C4F8DC61F7
:10CC400000297FF456AFEDE7800D002064490020F5
:10CC5000002900F0B880B8F1020F00F0BC80B8F1F4
:10CC60000B0F00F06C86B8F1030F7FF414AF6B7FED
:10CC7000172B95D194F8F12094F8F0309B1A03F01B
:10CC80000303022B01F0AF81CD48F9F71BF80746EB
:10CC9000002800F08885061D01F08A813B7903F0A9
:10CCA0001C0343F003033B710D2304367B714FF0EB
:10CCB00004080023BB710C2187F80780304605F07B
:10CCC0000BFB3146082204F5857010F0E1F942466D
:10CCD00007F1100104F1980010F0DAF9D4F8D4311A
:10CCE000002B00F03B8694F87621920700F13686FF
:10CCF00094F8CF21D60700F13186D4F8E011D4F8AA
:10CD0000D8218B4201F08A82002A01F07E82D4F879
:10CD1000DC311A683A601F60C4F8DC713B68002B94
:10CD200001F0438094F8002194F8F1300221023B95
:10CD300061F30102032184F8F13084F8002184F8C2
:10CD4000F210082205F12A0104F5817010F0A0F913
:10CD5000042205F1320104F1940010F099F994F8DD
:10CD60007631B4F8C620A4F8C82043F0010384F853
:10CD700076310020C0E6B8F1020F2CD0B8F10B0FCD
:10CD800000F01585B8F1040F7FF481AE6B7F0D2B99
:10CD90007FF406AF082205F1200104F5857010F03C
:10CDA00077F9042205F1280104F1980010F070F9D8
:10CDB00094F87631326843F00103012184F876312A
:10CDC0000020117198E6B8F1070F00F05581B8F115
:10CDD000020F7FF460AE6B7F022B7FF4E1AE95F81B
:10CDE000202084F85321012300202B7184E66B7FDF
:10CDF000092B7FF4D5AEB8F1140F00F0C18590F87F
:10CE0000BC3190F8BD219A4201F01381B0F85A105C
:10CE1000B4F85EC0B0F85800B4F85CE094F8BE21F5
:10CE20004FF0000902F00702022A00F0CA8595F8C7
:10CE30001F80B8F1150F3FF45EAE61494846F8F720
:10CE40005BFF94F8BE3194F8E42003F007036FF31E
:10CE50004102042B84F8E4207FF44DAE6FF00F0004
:10CE60004AE66A7F012A7FF49BAE0023A0F8C8300F
:10CE700018462A7140E690F93930002BBFF690AE83
:10CE80006B7F052B7FF48CAE95F8202095F8213030
:10CE9000134313F0070340F0D28790F8CC1190F8B9
:10CEA000CD218A423FF425AE90F8CE2102F0030254
:10CEB000022A7FF41EAE90F8CF2180F8CD1190F8B1
:10CEC0006010A0F8C83063F3000280F8CF21084654
:10CED00061F3061012F0040284F86000C1F302014D
:10CEE00041F0C180336801211971104604E690F9C0
:10CEF0003930002BFFF654AE6B7F032B7FF450AE1E
:10CF000090F8CD2190F8CC319A423FF4F2AD90F8F0
:10CF1000CE2102F00303022B7FF4EBAD95F8213014
:10CF2000C2F382010B4095F820109B0043F00303ED
:10CF300001EA521243EA421313F01C0F80F8CE317B
:10CF400002D013F0E00F05D194F8CE3103F00303C3
:10CF500084F8CE3194F8CF31002243F0010384F8F5
:10CF6000CF31A4F8C820C4E56B7F012B7FF418AE45
:10CF700090F8E42097073FF5BDAD1148F8F7A2FE01
:10CF80000746002800F00F8494F8E430061D43F0B3
:10CF9000020384F8E43001F01F803B7903F01C03A6
:10CFA00043F00303204601263B71002413237E71C6
:10CFB000BC71FB713946FEF7BDFC2E7120469BE526
:10CFC0006449002090F93930002BFFF6E9AD6B7F02
:10CFD000032B7FF4E5AD90F8601090F8613095F880
:10CFE00020200B4303F0070313423FF484AD90F875
:10CFF000F03090F8F1209B1A03F00303022B3FF46A
:10D000007AADF53003F0BAFD94F8F12094F8F430DD
:10D010000221023A84F8F21084F8F120326843F0D9
:10D020000103012184F8F4300020117164E56B7F65
:10D03000182B7FF4B5ADB5480368002B00F055847C
:10D040009C4200F0528420230F222946204605B03E
:10D05000BDE8F04FFEF76ABB90F93930002BFFF6C0
:10D060009FAD6B7F092B7FF49BAD2946204605B011
:10D07000BDE8F04FFEF7F0BC6B7F022B7FF490AD64
:10D0800094F8941194F8950195F82030884202D0D4
:10D090000F2B00F0B28594F8BC2194F8BD11914299
:10D0A00002D0142B00F0208694F8CC1194F8CD21F6
:10D0B0008A4202D0162B00F08486122B04BF012373
:10D0C0002B710023A4F8C830184615E594F8F03009
:10D0D00094F8F1209A423FF463AD94F8F220032AC9
:10D0E0007FF45EAD6A7F012A7FF45AAD94F939204E
:10D0F000002AC0F2448794F8762184F8F1300021A8
:10D1000022F0030284F87621A4F8C81094F876314E
:10D110005D077FF5F0AC32686FF38203192184F864
:10D12000763100201171E7E490F93930002BBFF619
:10D1300037AD6B7F082B7FF433ADB5F82560438E98
:10D14000F31A190400F1778690F8F03090F8F12086
:10D150009B1A03F00303022B00F06586052205F1FC
:10D160002001F5300FF094FF94F8F42094F8F1309A
:10D17000A4F8FA606FF3000284F8F4200221023B65
:10D18000012284F8F21084F8F13000202A71B3E40F
:10D190006B7F032B7FF404AD90F93930002BC0F284
:10D1A000368390F8CD1190F8CC21914207D090F8B9
:10D1B000CE3103F00303013B022B40F2FA8594F8D1
:10D1C000F03094F8F1001B1A03F00303022B00F077
:10D1D000578594F8940194F89531984200F0A2850F
:10D1E0002A23162231E790F93930002BFFF6D8AC0C
:10D1F0006B7F182B7FF4D4AC90F8942190F8953184
:10D200009A423FF476AC90F8963103F00F03042B6A
:10D210007FF46FACB5F820C01FFA8CF3052B40F2F9
:10D22000CC856F8CB9B2B1F5486F00F2C6858B42E0
:10D2300000F2C385AE8CB3B2B3F5FA7F80F0BD8542
:10D24000E88C1FFA80FEAEF10A0240F6764892B2F0
:10D25000424500F2B28501339BB201FB03F3B3EB0D
:10D260008E0F80F0AA8595F828209142C0F0A58500
:10D2700084F8A02194F89621A4F898C1012363F3BF
:10D2800003020023A4F89A71A4F89C61A4F89E01FB
:10D29000A4F8C83095F82A1095F8293043EA0123FC
:10D2A000A4F8A23195F82C1095F82B3043EA01230D
:10D2B000A4F8A43195F82E1095F82D3043EA0123F7
:10D2C000A4F8A63195F8301095F82F3043EA0123E1
:10D2D000A4F8A83195F8321095F8313043EA0123CB
:10D2E000A4F8AA3195F8341095F8333043EA0123B5
:10D2F000A4F8AC3195F8353095F8361084F89621BD
:10D3000043EA0123A4F8AE31FFF7F3BB3C48002009
:10D3100090F93930002BBFF643AC6B7F012B7FF4C3
:10D320003FACD148F8F7CEFC0646002800F03B821F
:10D3300094F8763194F87A2023F0050343F005033E
:10D340006FF3C302301D84F8763184F87A2000F040
:10D3500047823379012203F01C03727143F0030307
:10D3600000223371D4F8D431B2710B22F271D4F8A7
:10D37000D821002B00F0B08294F876118F0700F1CD
:10D38000AB8294F8CF11C80700F1A682D4F8E0115F
:10D390008B4200F01F87002A00F05B87D4F8DC3155
:10D3A0001A6832601E60C4F8DC613368002B7FF4B9
:10D3B000A0AB37E490F93930002BBFF6F1AB6B7FAF
:10D3C0000C2B7FF4EDAB438EB5F82910CB1A180463
:10D3D00000F1318594F8F03094F8F1209B1A03F0B5
:10D3E0000303022B00F01F85A04B1A68002A00F0EF
:10D3F000E68595F8203084F82831B5F8213040F2E0
:10D40000E24202FB03F3C4F8243195F8242095F896
:10D41000233043EA0223A4F81C3195F8262095F81E
:10D42000253043EA0223A4F81E3194F81A3195F806
:10D43000272095F82800A4F8F41023F00F0343F0F8
:10D44000080384F81A3194F8193142EA0022A4F84A
:10D450002021013BD4F8142184F819317A60326814
:10D4600017603268C4F814210023336094F89421C3
:10D4700094F8953193423FF424AE94F8963103F03A
:10D480000E03042B7FF41DAE84F8952119E66B7F03
:10D49000022B7FF485AB94F8F01094F8F1308B42B6
:10D4A00004D094F8F230032B00F0AF8494F8CC1140
:10D4B00094F8CD318B4200F07C8395F8202085F8DC
:10D4C0002120232A12D084F8CD1194F8CF1194F89A
:10D4D00060306FF3000184F8CF110021A4F8C81068
:10D4E000C3F3020161F3061384F8603094F8CF317E
:10D4F00058077FF5FEAA1C232B712A7794F8603019
:10D50000C3F302036B7794F86130C3F30203002086
:10D51000AB77FFF7F1BA6B7F092B7FF441AB6B6AF6
:10D52000286A534903F00F02D4F8383101430B4005
:10D53000C4F83831D4F83C311340C4F83C312E6A79
:10D540006D6AFCF7ABF84A4A94F8303184F831310F
:10D550003243024026F0FF0302F0FF0294F8E41089
:10D560001A4342F00762002305F00F0541F0010164
:10D5700042F40322C4F8445184F8E410C4F8402172
:10D58000A4F8C8301846FFF7B7BA90F93930002B25
:10D59000FFF667ADFFF704BB6B7F062B7FF400AB94
:10D5A00090F84A31DA0740F1728313F002037FF4F6
:10D5B000A0AA90F8482180F84921A0F8C83095F831
:10D5C000203084F84B3195F8221095F8212094F8FA
:10D5D0004A3142EA0122A4F84C2195F8232095F81B
:10D5E000241043F0020342EA0122A4F84E2184F8F9
:10D5F0004A310020FFF780BA90F93930002BBFF68E
:10D60000C5ABFFF7CDBA90F93930002BFFF6C8AAA9
:10D6100094F8F02094F8F1309A423FF4C1AA94F8BB
:10D62000F230032B7FF4BCAA6B7F012B7FF4B8AAE6
:10D6300094F800216FF3010284F8002100202B717F
:10D64000FFF75ABA6B7F012B7FF4AAAA90F9393001
:10D65000002B80F2B08094F87A306FF3041384F8D2
:10D660007A30FFF746BA00BF644900203C480020EA
:10D67000D030780894F8BC2194F8BD3193423FF43F
:10D6800038AA0023092184F8BD21A4F8C83069779D
:10D69000B4F85A20B4F858002A841521B4F85C2054
:10D6A000E977B4F85E106984A884EA841846FFF725
:10D6B00023BA94F8943194F8951199423FF419AA39
:10D6C00094F9390095F821100028C0F290851A29A4
:10D6D00000F0238694F8961101F00F00042806D17B
:10D6E000A44884F8953100230360A4F8C830C90623
:10D6F0007FF5FFA918232B71D30700F1938495F8C8
:10D7000021302B77628DB4F8C230A18D29847D2021
:10D7100002FB03F300FB03F3EA834FF47A70B3FBDD
:10D72000F0F300206B84FFF7E7B994F8F01094F859
:10D73000F1308B423FF4DDA994F8F230032B7FF4F3
:10D74000D8A994F8762184F8F110002322F003027E
:10D7500084F87621A4F8C83095F8212085F8202097
:10D760000D21E9771846FFF7C7B994F8CC1194F862
:10D77000CD318B423FF4BDA995F82120232A7FF4B7
:10D78000A2AEB3E63160C4E97566C4F8DC61002975
:10D790007FF4AFA9FFF746BA774840F60C01F5F7DA
:10D7A00047F9FFF711BA6FF06800FFF7A5B96B7F73
:10D7B000012B7FF4F5A97148F8F784FA0646002892
:10D7C000F1D094F8762194F87A3042F0010223F0F7
:10D7D0001803011D84F8762184F87A307FF4B9ADFE
:10D7E000654840F60C01F5F723F9B2E50A68C4F87C
:10D7F000E021002B7FF40BAA0B6833600E603168C8
:10D80000C4E9766600297FF474A9FFF70BBA90F893
:10D81000E4309A073FF56DA95848F8F753FA0646E1
:10D820000028C0D094F8E43094F8CE2194F8CD11BB
:10D8300043F0020384F8E430022363F3010294F816
:10D84000CC3184F8CE218B4215D1013B84F8CD3107
:10D85000B4F8CE3194F8D01123F49F6240F2FC4327
:10D8600022F0040203EA81031343B4F8C620A4F8AB
:10D87000CE31A4F8C82094F8CE2195F8203003EAE0
:10D88000521195F82130C2F3820003409B0043EA15
:10D89000411302F00302134384F8CE31331D00F02C
:10D8A000CC830323737194F8D0213379C2F302023D
:10D8B00003F01C03327294F8D02143F00303337158
:10D8C000C2F3C2037372D4E975320021B17117211A
:10D8D000F171002B7FF450AD002A7FF45FAD33600F
:10D8E000C4E97566C4F8DC615FE594F9396094F8C1
:10D8F000942194F89511002EC0F2CC8091420AD068
:10D9000094F8962112F00B0F00F0F88102F00F024C
:10D91000062A00F0F38194F8F02094F8F160921B4D
:10D9200002F00302022A00F0518394F8CC6194F8CB
:10D93000CD21964200F0A4832A23FFF785BB6B7F9D
:10D94000012B7FF42DA986E60B7903F00303032B4B
:10D9500000F0DE81C4F8D811FFF75BB9D4F8D82104
:10D96000002A7FF4D4A93B60C4E97577C4F8DC7160
:10D97000FFF7D4B93C48002050E101006449002081
:10D9800090F8E43099073FF5B4A8DE48F8F79AF923
:10D99000814600283FF407AF94F8E43094F8BD21A5
:10D9A000B4F85A10B4F85800B4F85EC0B4F85CE0AB
:10D9B00043F0020384F8E43094F8BC31934240F021
:10D9C00058842A8C1A2A40F2AB81B4F8D280904550
:10D9D00028BF9046AA8CB5F822A0B5F826B01B2A1D
:10D9E00034BF0A461B22BAF5A47F34BFF2464FF477
:10D9F000A47ABBF5A47F34BFE3464FF4A47B8A42EC
:10DA000000F09582013B84F8BD31A4F8C021A4F850
:10DA1000C281A4F8C4B1A4F8C6A1B9F1000F00F006
:10DA2000F58294F8BE31052161F3020384F8BE311A
:10DA3000D4F814317B6033681F603368C4F8143144
:10DA400000233360B9F1000F3FF455A819F1040F1A
:10DA500000F0F783A9F8082099F80420A9F80C80B1
:10DA6000092302F01C02204642F00302002489F838
:10DA700005301523A9F80AB0A9F80EA0494689F87F
:10DA8000042089F8064089F80730FDF753FF204647
:10DA9000FFF732B8914205D094F8962112F00B0F9F
:10DAA0007FF427A8B5F820A01FFA8AF2052A7DD9AD
:10DAB000B5F822901FFA89F6B6F5486F76D8B242CB
:10DAC00074D8B5F824801FFA88FCBCF5FA7F6DD2B3
:10DAD000B5F826E01FFA8EF2A2F10A0740F6764B5F
:10DAE000BFB25F4562D80CF10107BFB206FB07F772
:10DAF000B7EB820F5AD295F828B05E4556D3A4F8FA
:10DB000098A1A4F89A91A4F89C81A4F89EE184F8C5
:10DB1000A0B195F82AE095F8297047EA0E27A4F8F5
:10DB2000A27195F82CE095F82B7047EA0E27A4F81F
:10DB3000A47195F82EE095F82D7047EA0E27A4F809
:10DB4000A67195F830E095F82F7047EA0E27A4F8F3
:10DB5000A87195F832E095F8317047EA0E27A4F8DD
:10DB6000AA7195F834E095F8337047EA0E27A4F8C7
:10DB7000AC7195F8357095F836E047EA0E27A4F8B1
:10DB8000AE71678DBE4200F07C8394F89621032528
:10DB900065F3030284F89621013984F89511002B6E
:10DBA0007EF4A9AF04601846FEF7A6BF1E23FFF758
:10DBB0004BBA94F8941194F895318B423FF45AADD6
:10DBC00095F8203085F8213094F939000028C0F20A
:10DBD000E1821A2B00F0A18394F8963103F00F0034
:10DBE000042806D1484884F8951100210160A4F862
:10DBF000C810DE067EF57DAF7CE594F8963143F0E3
:10DC0000200384F8963194F93930002BC0F2C0819A
:10DC100094F8182194F819319A4206D03B4841F6FD
:10DC2000DE31F4F705FF94F8193194F896210621B6
:10DC300061F30302013B012184F8193184F82811B2
:10DC4000356884F89621C2F3001394F81A21DB009A
:10DC500022F00F020B43134384F81A31B4F89C31BD
:10DC6000B4F89A21A4F81E310020B4F89E31A4F82B
:10DC70001C21A4F82031C4F824012971FEF73CBF0F
:10DC800094F8F230032B7FF4ABAAFFF7A2BA1D4839
:10DC9000F8F718F8064600283FF485AD94F84A31A5
:10DCA000071D43F0010384F84A3100F0D68133792F
:10DCB00003F01C030C2243F003033371F2714FF0A5
:10DCC000FF3332726FF00E0206217272F372052278
:10DCD000337300237171B371B27231462046FDF780
:10DCE00029FE01232B716AE494F8BE3184F8BD212A
:10DCF00043F0080384F8BE31FFF7E3B92323FFF7AD
:10DD0000A3B900BF644900203C48002050E1010055
:10DD1000CB79032B3FF470AD0A2B7FF41BAE6BE580
:10DD2000804657E694F8CE31914243F0030384F8DD
:10DD3000CE3111D1B4F8CE2194F8D0014B1E22F48B
:10DD40009F6284F8CD3140F2FC4322F0040203EAE2
:10DD500080031343A4F8CE3194F8CE3195F8201007
:10DD6000C3F3820001EA531103F0030295F8213056
:10DD700003409B0043EA4113134313F01C0F84F844
:10DD8000CE3102D013F0E00F05D194F8CE3103F07C
:10DD9000030384F8CE3194F8CF310122134384F881
:10DDA000CF3100202A71FEF7A7BEC4F8E471FEF758
:10DDB000B9BF23231622FFF748B91E231022FFF70D
:10DDC00044B994F8602094F8CF3184F8CD1123F051
:10DDD0000903114643F0080362F3061184F860104A
:10DDE00013F0040F84F8CF31C2F30202336800F05D
:10DDF000E9801C21197100232B776A7794F8613030
:10DE0000C3F30203AB77FFF75CB994F8762184F88B
:10DE1000F110002322F0030284F87621A4F8C83020
:10DE20001846FEF769BE01232B712A2384F853316B
:10DE30000020FEF761BE01232B712823F6E70121A4
:10DE40000DF10F008DF80F20F8F70CF9012800F202
:10DE5000D88095F821308DF80F300DF10F00012199
:10DE6000F8F700F9012800F2CC806A8C638ED31A8F
:10DE7000190400F14D8294F8F11094F8F0305B1A17
:10DE800003F00303022B00F0388294F8CC0194F8DD
:10DE9000CD31834218D094F8CE3103F00303022B26
:10DEA00012D194F8CF3184F8CD016FF3000394F8C8
:10DEB000F40084F8CF31C3F3800363F341000023FF
:10DEC00084F8F400A4F8C83095F8213095F82000C3
:10DED000A4F8F6209B0094F8F42003F01C0343EA16
:10DEE000401302F00202134384F8F430D4F81431E2
:10DEF0007B6033681F603268C4F8142100233360EC
:10DF000094F8F4200620023984F8F20012F01C0084
:10DF100084F8F1103EF4F0AD94F86010C2F3820280
:10DF200062F3061184F860101846FEF7E5BD002183
:10DF3000804584F8BD31A4F8C81000F08480A4F8AE
:10DF40005EB0B9F1000F00F05B81013B84F8BD3198
:10DF500094F8BE31A4F8C021032161F30203A4F8B0
:10DF6000C281A4F8C4B1A4F8C6A184F8BE312A8441
:10DF7000A5F82480A5F822B0A5F826A062E5002126
:10DF80002046FDF74BFC00287EF4B6ADFFF7BEB887
:10DF9000CC4B84F895110021196094F8963113F058
:10DFA000100340F0FF8001222A711846FEF7A4BD3D
:10DFB000C54840F60C01F4F73BFDFEF76FBE1C6050
:10DFC000FFF717BA01221A71FFF77BB894F8F22015
:10DFD000032A7FF4B1ACA8E4BB4840F60C01F4F787
:10DFE00027FDFEF7DABF94F8E530023284F8F1201D
:10DFF000002B40F0208194F8F23084F8E530FEF7F1
:10E0000043BE336801221A711E230FE794F8BE3114
:10E01000A4F85880042161F30203A4F85CA084F8FA
:10E02000BE3105E5A84841F2C941F4F701FDFFF70B
:10E0300066BB4FF00009FEF7FCBEA34840F60C019A
:10E04000F4F7F6FC2DE4F2457FF479AFE3457FF475
:10E0500076AF336801211971F4E49B4840F60C0156
:10E06000F4F7E6FC23E632681C2010712B77697701
:10E0700094F861201846C2F30203AB77FEF73CBD6B
:10E08000B5F820901FFA89F2052A7FF68FADB5F812
:10E0900022801FFA88FEBEF5486F3FF687AD7245B5
:10E0A0003FF684ADAF8CBEB2B6F5FA7FBFF47EAD5D
:10E0B000EA8CADF8042092B2A2F10A0A40F6764B3F
:10E0C0001FFA8AFADA453FF671AD06F1010A1FFA26
:10E0D0008AFA0EFB0AFABAEB820FBFF467AD95F825
:10E0E00028B0DE45FFF462ADA4F89C71BDF8047061
:10E0F000A4F89891A4F89A81A4F89E7184F8A0B12C
:10E1000095F82A8095F8297047EA0827A4F8A271A3
:10E1100095F82C8095F82B7047EA0827A4F8A4718D
:10E1200095F82E8095F82D7047EA0827A4F8A67177
:10E1300095F8308095F82F7047EA0827A4F8A87161
:10E1400095F8328095F8317047EA0827A4F8AA714B
:10E1500095F8348095F8337047EA0827A4F8AC7135
:10E1600095F8357095F8368047EA0827A4F8AE711F
:10E17000678DBE4500F0AA801CF0020F94F896212E
:10E180003FF405AD022666F3030284F896210122CE
:10E190002A7101E5232B3FF41FADD4F8B831C4F840
:10E1A000EC3019E51823D0072B715CD41A232B7798
:10E1B000628DB4F8C230A18DEA8302FB03F37D22A5
:10E1C00002FB03F329844FF47A72B3FBF2F36B84FE
:10E1D000FEF777BF1968C4F8E011002A7FF4DEA8C3
:10E1E0001A6832601E60C4E97666FFF7DEB823293C
:10E1F0003FF470AAD4F8B811C4F8EC10FFF76ABA6B
:10E20000A4F85880A4F85CA0B1E61A7902F00302E1
:10E21000032A77D0C4E97633FEF779BD1968C4F8CC
:10E22000E011002A7EF473AD1A683A601F60C4E9F9
:10E230007677FEF773BD244841F69611F4F7F8FBA4
:10E24000D9E62148019240F60C01F4F7F1FB019A5E
:10E2500000E41A7902F00302032A00F09480C4E972
:10E260007633FFF79BB8184841F60B41F4F7E0FB13
:10E270009CE794F8BE2112F0060F3FF4A2ABFEF724
:10E28000D1BDA78D67457FF480AC40F2E24707FB24
:10E2900006F642F2107707FB0262013AB2FBF6F291
:10E2A000B4F8C26092B296427FF46FACB4F8962193
:10E2B00002F0E00242F00102A4F8962101222A7144
:10E2C0006AE400BF3C48002050E10100B4F82CE0B3
:10E2D000B6457FF451AF40F2E24607FB06F642F244
:10E2E000107707FB0262013AB2FBF6F2B4F8C260A3
:10E2F00092B296427FF440AFD8E7336801221A7198
:10E300002A2393E5DA79032A8ED00A2A82D18BE771
:10E31000336801221A71282388E594F8182194F8AB
:10E3200019319A4206D01C4841F29841F4F780FB1B
:10E3300094F8193194F89621062161F30302013B08
:10E3400084F8193184F89621C2F3001394F81A2145
:10E350000121DB000B4322F00F02134384F8281144
:10E36000B4F89C21B4F89A1184F81A310020B4F85A
:10E370009E31C4F82401A4F81C11A4F81E21A4F8AD
:10E380002031FEF7B6BBDA79032A3FF429AF0A2A17
:10E390007FF465AF24E700BF50E101002DE9F843A9
:10E3A0003C4F3D4EFA7804463D1D2EE042464FF468
:10E3B000F8713046F7F7B8FC028D9045034632D12C
:10E3C000D9F804100A79487902F00302022A35D0FC
:10E3D000002834D1D3F8E02100200860002A44D07E
:10E3E000D3F8E42102B11160C3F8E411FA78BB78E4
:10E3F00079789A4205D00133DBB2994208BF0023F5
:10E40000BB70013C14F0FF0438D0BB7839789342DC
:10E4100034D013FB01F315EB03092FD035F803803B
:10E42000B8F10F0FC2D9D9F804100B796FF30103BB
:10E430004FF6FF700B71FBF7E5FDD7E700B393F8DC
:10E44000D00110F0400FC5D06FF38610012A83F879
:10E45000D001BFD10A79022060F301020A71D3F81A
:10E46000E02100200860002ABAD1D3F8D421C3F8F3
:10E47000E011002AB4D1C3F8D411B5E7BDE8F883A0
:10E4800093F8D02142F04002404683F8D021FBF7B8
:10E49000B9FDABE714060020800D00202DE9F04304
:10E4A000D0F8144183B0064644B1012520682146C6
:10E4B00044680D71FBF762FD002CF7D1D6F8D4113A
:10E4C00031B3DFF88080DFF8809006F1680707E05D
:10E4D00029463A462046F7F759FCD6F8D411B9B187
:10E4E0003046FDF7ADF805464046F7F7EBFB04462E
:10E4F0000028EDD140F647114846F4F799FA29462D
:10E500003A462046F7F742FCD6F8D4110029E7D165
:10E51000328D0E4B00960532D2B201210020F8F761
:10E52000F5FE30F0020304D0074840F60C11F4F772
:10E530007FFA4FF6FF73FF20338503B0BDE8F04349
:10E54000FFF72CBF6854002050E1010035B50000F2
:10E55000F0B5C469228D4FF6FF739A428BB000F07C
:10E56000848090F82730012B054600F00281022BB1
:10E570007DD0002B00F0E38094F85331002B79D14B
:10E58000278ECDE90833AB8C7E1CB6B2002B00F091
:10E59000A38094F93930002BC0F21D8195F8263004
:10E5A0000022DB07A4F8C02040F1E9800025A4F890
:10E5B000C450B4F8C8302BB1B34240F248819B1B21
:10E5C000A4F8C830B4F8D0302BB1B34240F20F8178
:10E5D0009B1BA4F8D030B4F8CC2094F8F03094F819
:10E5E000F1105AB1B24200F2DA80B4F8C82000202B
:10E5F000A4F8CC0012B98B4200F037815B1A03F00B
:10E600000303022B00F0D48094F8182194F81931F8
:10E610009A4200F0008100222286DDE9086315B9E4
:10E62000BA4200F0D280013291B213B9002E00F04C
:10E63000AF80228DE46904950020A24D039105323C
:10E64000CDE9010006940096D2B201210595F8F7B4
:10E6500045FE30F0020308D0FBF72EFD844204D0C3
:10E66000994840F2B261F4F7E3F90BB0F0BD3D23F5
:10E6700084F8533194F9391000291ADB94F85011B9
:10E6800094F85101091AC9B2032912D094F8E41080
:10E6900011F004000DD13D2B0BD0278EAB8C7E1CCE
:10E6A000CDE90800B6B2BBB141F0040184F8E41032
:10E6B00074E78649A4F85A21086884F870318442C6
:10E6C00004BF002008601721204684F858110BB0C1
:10E6D000BDE8F040FFF7E2BE95F8263013F00103E5
:10E6E0007FF464AFB4F8C010002948D0B14240F2C2
:10E6F000C380891BB4F8C450A4F8C010002D3FF4A7
:10E7000058AFAE4280F08F80AD1BABB2062B4FF0FE
:10E710000005A4F8C43025867BD994F93930AB4282
:10E72000BFF647AF002F74D1D4F8E8506B0815F04E
:10E73000010518BF43F00043C4F8E83039E794F806
:10E740007A3018073BD5A38DB4F8CE10981D8142BE
:10E75000C4BFCB1A063BB4F8CA00CCBF9BB20B4671
:10E7600098425AD0A4F8CA30A4F8CC30A4F8D010FB
:10E7700002E70023A4F8D030A4F8CC30FCE6B4F8CB
:10E78000C450002DBDD1B4F8C250A4F8C450B5E7B0
:10E7900000297FF44EAF002D7FF44BAF65E75B1A85
:10E7A00003F00303921B022BA4F8CC207FF42CAFC0
:10E7B00094F8F230013B012B3FF626AF2BE794F89B
:10E7C0007631D9077FF5D8AEBDE713B9002E3FF4F7
:10E7D0004CAF29462DE708AA09A92846F1F7F0FD14
:10E7E000D4F8D431002B58D000232386D6E6FBF78B
:10E7F000F3FB0146002834D0238D0022A4F8D0205A
:10E80000C3801A2303710068FBF7B8FBFBF7C0FB5A
:10E81000E1E60125CDE6228EFFE6B4F8D00000281F
:10E820007FF4AAAEA0E7294B218D1A68944204BF59
:10E8300000221A6017220823A4F85A1184F85821DC
:10E8400084F870312046FFF729FE0BB0F0BD1F4B56
:10E85000218D1A68944204BF00221A6017222223D5
:10E86000EAE70123A4F8D030B5E60522023B84F89C
:10E87000F22084F8F130C7E61449A4F85A21086858
:10E88000844208BF0B6017213E2384F8581184F896
:10E8900070312046FFF702FEE7E6FF20FFF77EFD1E
:10E8A000D4F8D421002A9FD1D4E91901F7F778FAD6
:10E8B000002899D194F83C305A077FF56FAEA38DAC
:10E8C00023866BE615B6000050E101003C480020AD
:10E8D000D0F8D431002B00F0DE8001392DE9F0476B
:10E8E000DFF8B481DFF8B4910446CDB24FF0010AED
:10E8F00011E04046F7F7E6F90746002866D004F134
:10E90000680231463846F7F741FAD4F8D431013D70
:10E91000EDB2002B7AD094F8CF21D10703D494F82C
:10E920007621920758D5D4F8D82193426ED1FF2D85
:10E930006CD0D4F8D4112046FCF782FE037903F0A2
:10E940000303032B0646D4D1C379033B142BD0D841
:10E9500001A252F823F000BFB5E90000B5E90000BC
:10E96000F3E80000F3E80000F3E80000F3E800003B
:10E97000F3E80000B5E90000ADE90000F3E80000AD
:10E98000F3E80000F3E80000F3E80000F3E800001B
:10E99000F3E80000F3E80000F3E80000F3E800000B
:10E9A000F3E8000011EA000011EA000094F93930A0
:10E9B000002B9EDA94F8763143F0020384F8763126
:10E9C0004046F7F77FF90746002898D140F20B71CF
:10E9D0004846F4F72DF892E71A7902F00302032A69
:10E9E000A5D1DA79032A01D00A2AA0D194F8F1102E
:10E9F00094F8F0208A4212D094F8F220032A96D09C
:10EA00001A681AB1D4F8D8118A4233D0BDE8F08719
:10EA100094F8CF3143F0010384F8CF3169E794F8DB
:10EA2000310194F830118842EAD194F8490194F800
:10EA300048118842E4D194F8950194F894118842E1
:10EA4000DED194F8BD0194F8BC118842D8D194F875
:10EA5000CD0194F8CC118842D2D194F800316AF3F8
:10EA60000103023A84F80031032384F8F12084F88A
:10EA7000F2305CE7C4F8D421D4F8DC21D4F8E40106
:10EA8000116819601360C4F8E03100287FF44FAFBB
:10EA9000C4F8E4314BE770476854002050E10100AE
:10EAA00010B504460120FFF779FC20460121BDE89E
:10EAB0001040FFF70DBF00BF0149F7F71DB900BFB8
:10EAC00068540020014BD878704700BFD003002065
:10EAD00030B50C4B93F802C0DC781D78A4450FD0FC
:10EAE0001CFB05FC0433864613EB0C0007D08EF8A4
:10EAF000004033F80C4043680C801360186830BD48
:10EB0000002030BDD003002000B50C4B93F802C0AC
:10EB100093F800E084450ED004331CFB0EFC13EB8D
:10EB20000C0006D033F80CC04368A1F800C0136095
:10EB300018685DF804FB0020FBE700BFD00300204D
:10EB4000094B9978DA78187893F801C08A4209D08D
:10EB50004A1CD2B201FB0031944508BF002248682C
:10EB60009A70704700207047D003002010B5114AFA
:10EB7000D47892F801E092F802C0631CDBB29E45A3
:10EB800008BF00239C450CD096461EF804CB1CFB06
:10EB900004FC1EEB0C0404D02EF80C006160D37052
:10EBA00010BD054840F25B71F3F742FF00231B8064
:10EBB000FFDE00BFD003002050E10100F0B5537923
:10EBC00083B0144605460E463BB3237903F0030297
:10EBD000032A0DD04FF6FF72954204BF6FF3010375
:10EBE00023712146284603B0BDE8F040FBF70ABA7E
:10EBF0004FF6FF739D4216D1306884423DD0002805
:10EC0000EFD0C34840F28571F3F712FF2146284642
:10EC100003B0BDE8F040FBF7F5B9BD484FF4ED6136
:10EC2000F3F706FFD1E7BB482A464FF4F871F7F730
:10EC30007BF8E379023B0746162B2ED8DFE813F06A
:10EC4000DF00CC003A003300A90026002D0026008A
:10EC500098004B002D0041002D002D002D002300B9
:10EC60002D00260047011A010801EB00BB00A8484F
:10EC700040F27771F3F7DCFE0020A74903B0BDE84E
:10EC8000F040F7F739B8237A032B1AD097F8E4301D
:10EC90006FF3410387F8E430AEE73068A042ECD070
:10ECA0000028AED19DE797F8003143F0030387F8C1
:10ECB0000031A1E797F8763143F0020387F8763107
:10ECC0009AE797F8763123F0030387F8763100232B
:10ECD000A7F8C83090E790F93930002BEADB251D02
:10ECE00000F02C81237903F01C0343F0030323710C
:10ECF000172363710023A3710323E371082207F232
:10ED00007911281D0EF0C4F997F87731237497F81C
:10ED1000783163740C2104F1120003F0DDFAD7F8A6
:10ED2000D431002B00F0E38097F87621910700F1B1
:10ED3000DE8097F8CF21D20700F1D980D7F8E01113
:10ED4000D7F8D8218B4200F0FF80002A00F009811B
:10ED5000D7F8DC311A6822601C602368C7F8DC41F0
:10ED60003268002B00F0C080002A80D003B0F0BDD4
:10ED700090F8763123F0060343F0060387F87631E6
:10ED8000B7F8C630A7F8C83097F8743187F87531EE
:10ED900032E790F93930002B85DA90F8763123F09C
:10EDA000030380F876310023A0F8C83090F8F030E3
:10EDB00080F8F13020E790F8F43090F86020C3F349
:10EDC000820363F3061287F8602097F8CF316FF360
:10EDD000000387F8CF310FE7082204F1120100F594
:10EDE00081700EF055F9042204F11A0107F1940024
:10EDF0000EF04EF997F8763143F00203BEE7237A1E
:10EE0000132B08BF162380F8533190F85131013B82
:10EE100080F85131F0E690F93930002BD5DA90F8CE
:10EE2000E4203E4B6FF3410280F8E42093E80300B6
:10EE300002AB03E9030097F8CE3197F8602042EA6D
:10EE4000930303F0070302A90B4413F8083CB8E747
:10EE500090F8CE31022262F3010380F8CE3190F9AE
:10EE60003930002BB1DA2D4B93E8030002AB03E9F4
:10EE70000300E0E790F8E43090F8BC116FF3410331
:10EE800080F8E43090F8BD318B423FF4B5AE90F895
:10EE9000BE2102F00703032B05D0033303F0070361
:10EEA000012B3FF6FAAEB7F8C231A7F85830B7F8E1
:10EEB000C631A7F85C3002F00703052B22D0B7F863
:10EEC000C8316BBB87F8BD11A7F8C83094E690F83D
:10EED000BE3103F00702012A7FF48EAE022262F3F4
:10EEE000020380F8BE3187E6C7F8E4413CE7D7F873
:10EEF000D821002A7FF42CAF2360C7E97544C7F8F6
:10EF0000DC412DE7042363F3020287F8BE2173E698
:10EF100050E10100800D002064490020E0E1010083
:10EF2000A7F8C231002363F30202A7F8C831B7F88B
:10EF3000CA3187F8BE21A7F8C6315DE6104840F611
:10EF40000C01F3F775FDCDE61968C7F8E011002A4A
:10EF50007FF4FEAE1A6822601C602368C7E976441D
:10EF6000FEE61A7902F00302032A02D0C7E97633DB
:10EF7000EEE6DA79032AEDD00A2AF7D1EAE700BFF4
:10EF800050E1010090F8F13090F8F020934203BF77
:10EF9000013380F8F03000200C20704790F84420B6
:10EFA000B0F84030C2F30212022A14BFDB089B08FB
:10EFB00090F85E20808F14BF0A3B0B3B9BB2D206B9
:10EFC00044BF043B9BB2984228BF1846704700BF1D
:10EFD00010B5044630B12378002203F01F032370DC
:10EFE000A27010BD024840F60C01F3F721FDF2E7D4
:10EFF00050E101002DE9F047044690F8F10094F843
:10F00000F03098420E46174600F08A801B1A03F033
:10F010000303022B10D094F939201546002D6CDB28
:10F0200094F8503194F851219B1ADBB2012B00F077
:10F03000A2800020BDE8F08794F8BD2194F8BC318F
:10F040009A4206D094F8BE3103F00603042B00F078
:10F05000508294F8F2506B1E052B00F23C82DFE8E0
:10F0600013F07F00E10141013A02FC00F10099F840
:10F07000043043F0030389F8043094F8E430DA07ED
:10F0800040F19086D4F838315B0740F18B8611232C
:10F0900089F80730032389F8098089F8083089F84E
:10F0A0000550002384F80131D4E97532002B00F0BB
:10F0B0006E8694F87611880700F1698694F8CF116E
:10F0C000C90700F16486D4F8E0118B4200F0C487D0
:10F0D000002A01F08080D4F8DC311A68C9F80020D9
:10F0E000C3F80090C4F8DC91D9F80030002B00F090
:10F0F000A28694F8F03084F8F13094F8E530002BD3
:10F100008ED0022B00F0BE81062B00F08980012BEF
:10F1100000F08F80C14840F21251F3F789FC7FE77D
:10F1200094F93920002A1546C0F2DD8194F876C1A1
:10F130001CF001087FF472AF94F8191194F818E1EB
:10F140008E4500F092820122831E84F8F22084F81A
:10F15000F13094F8BC2194F8BD319A427FF472AF3B
:10F16000324639462046F1F73BFD002840F0B88191
:10F170006FF08B005EE7AA48F6F7A4FD054600286D
:10F1800041D0061D00F00D832B79002203F01F03F0
:10F190002B71AA7194F85131013B84F851312B79CC
:10F1A00002226A7143F003032B71EA71D4F8D4315F
:10F1B00094F85221D4F8D8112A72B3B194F8762178
:10F1C000900712D494F8CF21D2070ED4D4F8E021BE
:10F1D000934200F0648559B91A7902F00302032AB8
:10F1E00000F02D86C4F8D83104E0002900F09182A7
:10F1F000D4F8DC311A682A601D602B68C4F8DC5131
:10F20000002B00F07A81B4F8C80000287FF411AF19
:10F21000B4F8C230012B40F27882A4F8C83008E775
:10F22000E18D628E0A443A44204691B2FCF790FD8B
:10F23000F6E6324639462046F1F7D2FC00287FF444
:10F24000EFAE95E7618EE38D1944394489B22046CB
:10F25000FCF77EFD94F93950E0E67148F6F732FD8F
:10F260000546002800F03C81281D00F028852B79F8
:10F2700003F01F032B710023AB7194F8F03084F876
:10F28000F1302B7943F003032B7101236B711223AF
:10F29000EB71D4E97532002B00F0448294F87611BA
:10F2A000890700F13F8294F8CF11C80700F13A8234
:10F2B000D4F8E0118B4200F0B085002A00F0E2851E
:10F2C000D4F8DC311A682A601D602B68C4F8DC5160
:10F2D000002B00F01184B4F8C63094F93950A4F82A
:10F2E000C8309BE694F80031990740F0F9804C480B
:10F2F000F6F7E8FC8146002800F0F28010F1040ADD
:10F3000000F03E8599F8043003F01F0389F80430BB
:10F3100094F939304FF00008434589F8068080F2AF
:10F32000598294F80181B8F1000F7FF4A0AE04F186
:10F330007B052B46424604F5817104F2811005F0ED
:10F34000D1FA2946102204F19C000DF0A1FE0822FA
:10F3500004F1940104F1B5000DF09AFE94F8933095
:10F3600084F88B8043F0010384F8933094F8B43030
:10F3700084F88C8068F3000384F8B43094F87A3011
:10F3800084F88D8043F0080384F87A3099F80430CB
:10F3900084F88E8043F00303C4E92B8884F88F80BF
:10F3A00084F8908084F8918084F8928089F8043001
:10F3B000012389F80530052389F80730D4F8D431C2
:10F3C000002B00F04B8294F87621920700F14682E0
:10F3D00094F8CF21D50700F14182D4F8E011D4F898
:10F3E000D8218B4200F03385002A00F07E85D4F8C6
:10F3F000DC311A68C9F80020C3F80090D9F8003051
:10F40000C4F8DC91002B00F0618494F8003194F989
:10F41000395043F0030384F80031FFE550E1010067
:10F4200064490020E28D638E134494F8F4203B4439
:10F4300012F001029DB263D1B4F8FA30EB1A18044D
:10F4400094F939503FF5EAAD002DC0F24D8394F8A0
:10F45000F03084F8F13004F13405052204F1F501AF
:10F4600028460DF015FE28460521F6F7FBFD94F819
:10F470003950012360F3050584F8395084F8E831E8
:10F480006DB2CBE5628EE18D94F8F4300A443A44D3
:10F4900013F0010397B240F09480B4F8FA20BF1A39
:10F4A0003F043FF5BDAD04F13405052284F8E53095
:10F4B00004F1F50128460DF0EBFD05212846F6F78D
:10F4C000D1FD94F83930012260F3050384F8393016
:10F4D00084F8E821A4E5BD4840F2E141F3F7A8FA39
:10F4E00094F939509AE594F8E51000297FF496AD27
:10F4F0001CE62046FCF73CFBABE5C4F8E45182E691
:10F50000B348F6F7DFFB80460028E9D010F1040984
:10F5100000F0758498F8043094F8F41003F01F0399
:10F5200088F80430A38D98F804202B440633002576
:10F5300088F8065065F30001A4F8FA30082384F82F
:10F54000F41042F0030288F80530012388F8042003
:10F5500088F8073009F10400052204F1F5010DF0E7
:10F5600097FDB4F8FA30A8F80D30D4F8D431002B58
:10F5700000F0C68294F87621920700F1C18294F8D7
:10F58000CF21D50700F1BC82D4F8E011D4F8D821FE
:10F590008B4200F08B84002A00F0FB84D4F8DC312D
:10F5A0001A68C8F80020C3F80080D8F80030C4F802
:10F5B000DC8194F93950002B7FF430ADC4F8E4813C
:10F5C0002CE58348F6F77EFB054600283FF428AD7E
:10F5D000061D00F01B842B7994F8F42003F01F0320
:10F5E0002B71A38D3B4400210633A971A4F8FA3096
:10F5F0002B7961F3000243F0030384F8F4202B71AC
:10F60000082201236A71EB710522301D04F1F50116
:10F610000DF03EFDD4F8D431B4F8FA20A5F80D2051
:10F62000002B00F0798294F87621910700F1748222
:10F6300094F8CF21D20700F16F82D4F8E011D4F80A
:10F64000D8218B4200F04384002A00F0AC84D4F827
:10F65000DC311A682A601D602B68C4F8DC51002B6D
:10F660007FF4DEACC4F8E451DAE494F831E194F8C4
:10F670003091CE455FD0AEEB090E1EF0010F3FF486
:10F68000CDAC94F8E430DB0740F15A82FAF7A4FCE1
:10F690000546002800F0958094F8303184F8313127
:10F6A000037F228DC28043F003030377092343774E
:10F6B000C377032303714146082220300DF0F3FC89
:10F6C000D4E95023110C85F82020C2F3072285F8D5
:10F6D00021201A0C85F8243085F82210C3F3072363
:10F6E000090A85F82620120A85F8231085F82530A6
:10F6F00085F8272029460868FAF740FCFAF748FC05
:10F7000094F8F03094F8F10080E40133A4F8C830A4
:10F7100090E42B60C4E97555C4F8DC51002B7FF4EC
:10F7200072ADEAE6002A7FF4CBAD2B60C4E97555D3
:10F73000C4F8DC51CCE594F849E194F84881C64519
:10F7400000F09880AEEB080E1EF0010F3FF466AC9F
:10F7500094F84A31DD0740F15A82990740F12A8333
:10F76000FAF73AFC014660B394F8483184F849311D
:10F77000238DC38003230371037F43F003030377C7
:10F78000062343770C23C37794F84B3180F820305D
:10F79000B4F84C31A0F82130B4F84E31A0F8233041
:10F7A000A9E70A4840F60C01F3F742F9ECE494F8B3
:10F7B000BD1194F8BC31994200F08C822046FCF7D0
:10F7C000D7F994F8F03094F8F1001FE450E101000B
:10F7D0006449002004F17B052B46424604F5817103
:10F7E00004F2811005F07EF82946102204F19C00F5
:10F7F0000DF04EFC082204F1940104F1B5000DF067
:10F8000047FC94F8933084F88B8068F3000384F805
:10F81000933094F8B43084F88C8043F0010384F87A
:10F82000B43094F87A3084F88D8043F0080384F87B
:10F830007A30C4E92B88514684F88E8084F88F8012
:10F8400084F8908084F8918084F892802046FBF7B9
:10F85000E5FFD4F8D431002B7FF4B5ADD4F8D8212E
:10F86000002A7FF4C4ADC9F80030C4E97599C4F822
:10F87000DC91C7E594F8958194F894E1F04596D031
:10F88000DFF8AC82D8F800E0BEF1000F00F09882FB
:10F8900074457FF4C3AB94F896E10EF00F0EBEF101
:10F8A000080F00F232850FF2080959F82EF000BF58
:10F8B0001DFA000099F9000047F900000DF0000062
:10F8C0000DF000000DF000000DF000000DF0000044
:10F8D000D5F80000E28D638ED4F8B01113443B4498
:10F8E00094F8962121F8023C042363F3030284F880
:10F8F0009621D4E9752EA1F11303002A00F0CB82E2
:10F900001CF0020F40F0C78294F8CF01C00700F14D
:10F91000C282D4F8E001824200F0E684BEF1000F1A
:10F9200000F06D84D4F8DC21106841F8130C1360EA
:10F93000C4F8DC3151F8132C002A7FF46FABC4F803
:10F94000E431FFF76BBB1CF0020F7FF467ABFAF7F3
:10F9500043FB014600283FF434AF94F896010B7F37
:10F96000032243F0030362F30300182584F8960191
:10F97000208D0A710B774D77B4F898310B84B4F869
:10F980009A314B84B4F89C318B84B4F89E31CB848B
:10F990000F23C880CB77AEE694F89731002B40F068
:10F9A0001183002AC0F29E8394F89621C4F8243172
:10F9B000062060F3030294F8A00184F89621012543
:10F9C000B4F89A2184F82851002800F08883B2FB0B
:10F9D000F0F313FB00F3B4F898019BB2984298BF80
:10F9E0001A46A4F81C2194F8963194F81A21B4F818
:10F9F0009C01A4F81E01C3F30013DB0022F00F02E8
:10FA000043F0020313430139B4F89E21A4F82021E6
:10FA100084F81A3184F81911FFF702BB4548F6F74C
:10FA200051F9054600283FF4CCAE021D00F0C48316
:10FA300018236B71B4F898212A81B4F89A216A814D
:10FA40000023B4F89C21AA81AB71B4F89E212B74D9
:10FA5000EB742B754FF0FF336B75AB75EB752B7635
:10FA60006B76AB76EB762B776B77AB772B79EA817E
:10FA700003F01C0343F00303B4F8C6202B7194F881
:10FA80009631C8F80040072161F303030F21E971A3
:10FA9000A4F8C82084F89631C4F8B461A368002B98
:10FAA0000ADAE068616823F0004388422CBF32180C
:10FAB0007218D31AC4F8B4311F4B13350122C4F89D
:10FAC000B051022110469C60F6F7D4F900283FF4AB
:10FAD00078AE1A4840F6DF61F2F7AAFF94F8F030EA
:10FAE00094F8F100FFF792BA94F8E530002B3FF458
:10FAF000AEAC84F8E520AEE4C4F8E451FFF7EBBB0C
:10FB0000D4F8D821002A7FF449ADC8F80030C4E900
:10FB10007588C4F8DC814CE5D4F8D821002A7FF43C
:10FB200096AD2B60C4E97555C4F8DC5197E500BF6C
:10FB30003C48002064490020A806002050E1010054
:10FB4000CE48F6F7BFF8054600283FF43AAE10F16C
:10FB5000040800F08D812B79002103F01F032B7125
:10FB6000A97194F83131013B84F8313109236B716B
:10FB700094F939308B422B7943F003032B71ACBFDE
:10FB800008230E23EB71082208F104000DF08BFA14
:10FB9000D4E94E23110C2A72C2F307226A721A0C9E
:10FBA0002B73A972C3F30723AA73090A120AE97215
:10FBB0006B73EA73D4F8D431002B00F0D68094F83C
:10FBC0007621910700F1D18094F8CF21D20700F17E
:10FBD000CC80D4F8E011D4F8D8218B4254D0002A3C
:10FBE00000F04982D4F8DC311A682A601D60C4F83C
:10FBF000DC512B68002B00F0FF80B4F8C62094F88D
:10FC0000F03094F8F100A4F8C820FFF7FFB99B4842
:10FC1000F6F758F8054600283FF4D3AD281D00F04C
:10FC2000CB812B7903F01F032B710023AB7194F868
:10FC30004931013B84F8493194F84A3143F00103DA
:10FC400084F84A312B7943F003032B7106236B713F
:10FC50000C23EB712B726FF00E036B720523AB72EA
:10FC60004FF0FF33EB722B73D4E97532002B7ED04B
:10FC700094F8761189077AD494F8CF11C80776D40E
:10FC8000D4F8E0118B42AAD11968C4F8E011002A17
:10FC9000A8D11A682A601D60C4E97655A9E71A68D8
:10FCA000C4F8E02100297FF4A3AA1A682A601D6025
:10FCB0002B68C4E97655002B7FF4A5AA1DE4704893
:10FCC00040F60C01F2F7B4FEFFF7D1BAC4F8E491A4
:10FCD000FFF79BBB94F8CC1194F8CD318B423FF4E5
:10FCE0009DA994F8CE3103F00305032D00F00781A0
:10FCF000002D7FF492A96148F5F7E4FF054600283E
:10FD00003FF45FAD94F8D02194F8CE3194F86010B0
:10FD100022F03F0242EA930284F8D02194F8CF21E6
:10FD2000C2F3400262F3C301012262F3010384F8CB
:10FD3000CE3184F860100430FFF74AF92B7943F094
:10FD400003032B7103236B711623EB7194F8CE31EF
:10FD5000C3F382032B7294F8CE31C3F342136B7258
:10FD6000D4F8D431002B7FF42AAFD4F8D821002A5C
:10FD70007FF438AF2B60C4E97555C4F8DC5138E71F
:10FD80003F4840F60C01F2F753FEFFF7BBBA002ADA
:10FD90007FF4A1A9C9F80030C4E97599C4F8DC91D1
:10FDA000FFF7A2B90D2389F80880022589F80730EA
:10FDB000FFF775B9324840F68A61F2F739FE00E57F
:10FDC00094F8963103F00F03082B00F29E8201A0F5
:10FDD00050F823F01DFA000099F9000047F90000DF
:10FDE0001DF000001DF000001DF000001DF00000DF
:10FDF0001DF00000D5F80000C4F8E451FDE62048ED
:10FE000040F60C01F2F714FEFFF784BB1C4840F6E5
:10FE10000C01F2F70DFEFFF7DEBB1968C4F8E01124
:10FE2000002A7FF44DAA1A682A601D602B68C4E975
:10FE30007655FFF74DBAC4F8E491FFF75AB9DA796D
:10FE4000032A3FF432AF0A2A7FF4CCA92DE71968C0
:10FE5000C4F8E011002A7FF4CAAA1A68C9F8002081
:10FE6000C3F80090D9F80030C4E97699FFF7CABA10
:10FE7000034840F60C01F2F7DBFD6CE66449002014
:10FE800050E101001A7902F00302032A79D0C4E993
:10FE90007633FFF715BABEF1000F7FF443AD41F89A
:10FEA000132CC4E97533C4F8DC3143E51968C4F890
:10FEB000E011002A7FF472AB1A68C8F80020C3F87A
:10FEC0000080D8F80030C4E97688FFF772BB196863
:10FED000C4F8E011002A7FF4BAAB1A682A601D60EA
:10FEE0002B68C4E97655FFF7BABB1A7902F0030212
:10FEF000032A00F0D080C4E97633FFF778BA1D07F3
:10FF000084F8CD11C3F3820240F1D680022262F35D
:10FF1000840384F8CE3194F8CE315D064FEA531253
:10FF200040F1C180022262F3471384F8CE31831E70
:10FF300094F8CE2194F8605094F8610084F8F13080
:10FF400094F8CF31C2F3820105F0070500F00700F5
:10FF5000C3F380038D4208BF00215B00B0EB521F4A
:10FF600043F001034FEA521208BF002243EA421352
:10FF700043EA8103062284F8F43084F8F220FFF784
:10FF800068B8DA79032A3FF44EAF0A2A7FF47FAFCC
:10FF900049E71A7902F00302032A00F09880C4E9C5
:10FFA0007633FFF7FBBA1A7902F00302032A6BD00B
:10FFB000C4E97633FFF74BBBBC4840F60C01F2F7BF
:10FFC00037FD2EE6BA48F5F77DFE054600283FF4DA
:10FFD000F8AB031D00F05B812B7903F01C0343F0A9
:10FFE00003032B7103236B710023AB711123EB719E
:10FFF0000F232B7294F897316B72D4E97532002B72
:020000021000EC
:1000000000F0E08094F87611880700F1DB8094F826
:10001000CF11C90700F1D680D4F8E0118B4200F06F
:100020004981002A00F03981D4F8DC311A682A604D
:100030001D60C4F8DC512B68002B00F0DD8094F8C3
:10004000943184F895310023C8F8003094F8F10019
:1000500094F8F030FEF7DABF1968C4F8E011002A0E
:100060007FF439A81A68C9F80020C3F80090C4E9E1
:100070007699FFF739B81A7902F00302032A00F0E3
:100080002B81C4E97633ADE5DA79032A3FF425AF55
:100090000A2A8DD121E7DA79032A3FF4DEAE0A2A53
:1000A0007FF429AFD9E6D10740F12681012262F31E
:1000B000471384F8CE313AE7D10794F8CE3140F1B6
:1000C000DD80012262F3840384F8CE3123E7DA79FC
:1000D000032A3FF4F1AE0A2A7FF461AFECE6A4F8FC
:1000E0001C2180E47248F5F7EDFD054600283FF439
:1000F00068AB031D00F0B5802B7903F01C0343F0BF
:1001000003032B7118236B710023AB711023EB7168
:10011000B4F898312B81B4F89A316B81B4F89C31E2
:10012000AB81B4F89E31EB8194F8A0312B74B4F814
:10013000A231A5F81130B4F8A431A5F81330B4F801
:10014000A631A5F81530B4F8A831A5F81730B4F8E1
:10015000AA31A5F81930B4F8AC31A5F81B30B4F8C1
:10016000AE31A5F81D30D4E97532002B3CD094F89F
:100170007611880738D494F8CF11C90734D4D4F84D
:10018000E0118B425CD0002A52D0D4F8DC311A68DE
:100190002A601D60C4F8DC512B68002B38D094F81D
:1001A000962194F8F100052363F3030284F8962165
:1001B00094F8F030FEF72ABF3C4840F60C01F2F705
:1001C00037FC35E4002A7FF42FAF2B60C4E9755566
:1001D000C4F8DC512FE71A7902F00302032A46D053
:1001E000C4E97633FEF777BF002ACED12B60C4E98D
:1001F0007555C4F8DC51CFE7C4F8E4511FE7107916
:1002000000F00300032806D0C4E97622FFF78ABB7A
:10021000C4F8E451C3E7D079032801D00A28F3D108
:10022000106841F8130C1360C4E97633FFF782BB02
:100230001A7902F00302032A0DD0C4E97633A4E749
:100240001968C4F8E011002A9FD11A682A601D605D
:10025000C4E97655A0E7DA79032AF6D00A2AECD168
:10026000F3E7124840F60C01F2F7E2FB44E7DA79D3
:10027000032A3FF4F7AE0A2AB2D1F3E612F00402E1
:1002800018BF042262F3840384F8CE3143E60748A2
:1002900040F60C01F2F7CCFB9EE61A7902F003025D
:1002A000032A13D0C4E97633BEE600BF50E1010053
:1002B000644900201968C4F8E011002A7FF4B4AE44
:1002C0001A682A601D60C4E97655B4E6DA79032A13
:1002D000F6D00A2AE6D1F3E7DA79032A3FF4D9AC5B
:1002E0000A2A7FF4CEAED4E41068C4F8E001BEF16F
:1002F000000F95D0FFF716BB12F0040218BF0422BE
:1003000062F3471384F8CE3111E6054840F6CA710E
:10031000F2F78EFB94F8F03094F8F100FEF776BE19
:1003200050E1010010B50C4630B994F8E4306FF399
:10033000820384F8E43010BD054840F2AF21F2F7A3
:1003400077FB94F8E4306FF3820384F8E43010BD57
:1003500000E2010000B97047024840F2A721F2F71D
:1003600067BB00BF00E20100012800D0704710B554
:100370000C46F9F7A1FE844206D0BDE810400348C0
:1003800040F29F21F2F754BB10BD00BF00E2010014
:100390002DE9F041079C9DF81880218D1D464FF6F0
:1003A000FF73994226D00646174601462A46204644
:1003B000FEF720FEF0B923780133DBB223700BB3D4
:1003C0001349144B0D8104F11C000022C860C1E9DF
:1003D000006781F80A80996001201146F5F74AFD0F
:1003E00050B9FF20FDF7DAFF2046FF21BDE8F041BC
:1003F000FEF76EBABDE8F081074840F22A21F2F715
:1004000017FBEEE7044840F21D21F2F711FBD7E796
:10041000C8560020B806002000E20100038E23B178
:1004200090F8E42012F0040300D0704710B542F0B9
:10043000040288B00E4C80F8E42005310122CDE999
:100440000232CDE90434CDE900330690CAB2184631
:100450000321F6F743FF30F0020307D0054840F2CE
:10046000E31108B0BDE81040F2F7E2BA08B010BDE1
:100470002503010000E2010070B50E461546FBF7AA
:100480004DFE002840D004465EB990F8F02090F868
:10049000F1309A4203D090F8F230032B26D00C2092
:1004A00070BD90F8760110F0040012D194F8F0209D
:1004B00094F8F1309A42F2D094F8F230032BEED156
:1004C00094F8003184F8016160F3010384F800318D
:1004D00070BD94F8502194F851319342DFD101332B
:1004E00084F8526184F85031002070BD10222946F2
:1004F00000F281100CF0CCFDB4F8003103F0FC03E5
:10050000A4F80031304670BD022070BD704700BFB6
:1005100000B97047024840F2A941F2F789BA00BF1A
:100520005CE201002DE9F041079C9DF81880218DC7
:100530001D464FF6FF7399422DD0064617460146D9
:100540002A462046FEF756FD28BB23780133DBB24E
:10055000237043B30220FDF721FF02212046FEF75E
:10056000B7F91449144B0D8104F11C000022C86036
:10057000C1E9006781F80A80996001201146F5F70A
:1005800079FC50B9FF20FDF709FF2046FF21BDE8A7
:10059000F041FEF79DB9BDE8F081084840F24941BD
:1005A000F2F746FAEEE7054840F23641F2F740FA34
:1005B000D0E700BFE0560020C80600205CE2010042
:1005C0002DE9F041064682B00020FAF7CFFE60B375
:1005D000036A04464BB393F8202042F0020283F8EA
:1005E0002020076A0FB301460020FAF78FFE054668
:1005F000B8B93F68D7F8543107F5AA78D3B118468F
:10060000F9F7AAFC162387F858314FF6FF73A7F8BD
:100610005A311C340223C7F85C4187F87031C6F8A0
:100620000080284602B0BDE8F0810C25284602B0C3
:10063000BDE8F0810348019340F25721F2F7F8F941
:10064000019BDCE75CE201002DE9F84307468846A0
:1006500091461E46FBF762FD00286AD090F874218F
:1006600090F875319A42044642D190F8F02090F803
:10067000F1309A4203D090F8F230032B38D0FBF7D8
:1006800061FD0546A0B30430FEF7A2FC31461022FE
:1006900004F281100CF0FCFC94F87A3013F018038B
:1006A00029D0182B21D10822414604F279100CF0F0
:1006B000EFFC99F8003084F8773199F8013084F82C
:1006C00078312B7943F0030301222B710A236A71DD
:1006D000EB7129463846FBF741FD30B994F8743187
:1006E000013384F87431BDE8F8832846FBF730FD08
:1006F0000C20BDE8F8832B7943F003032B711723FB
:1007000008226B7103234146EB71A8180CF0C0FC62
:1007100099F800302B7499F801306B74082105F1B9
:10072000120001F0ABFD042105F11A0001F0A6FD55
:10073000CFE70220BDE8F88330B583B001A8FFF70A
:100740003FFF044610B1204603B030BDFAF70EFE5D
:10075000054650B195F8443000226FF3000320465F
:1007600085F844302A6203B030BD034840F2E521E9
:10077000F2F75EF9EEE700BF5CE20100836870B556
:100780001D682C6ADCB1A36D00222A6223B11248D5
:1007900040F20131F2F74CF904F14C0104F1480048
:1007A000F5F7EAFA064680B12068A665FBF7A0FCDB
:1007B00095F844306FF3000385F8443070BD064867
:1007C00040F2FE21F2F734F9DDE703484FF44171BE
:1007D000F2F72EF9E8E700BF5CE20100F8B50F255B
:1007E00002274FF6FF762846FBF798FC0446C0B177
:1007F00090F93930002B14DBFEF7C4FB034604F1FB
:10080000F5009BB900F0BAF994F8F42094F8F030B0
:1008100084F8F27042F00102013384F8F42084F885
:10082000F030013DADB2B542DDD100231846F8BD30
:10083000086070472DE9F04F91B0CDE90912069399
:1008400090F9393002691A9FDDF86C800790002B0F
:100850000B9202DA134614330B9300264FF0FF0974
:10086000CDE90D66DFF830B28DF833903446CDF81F
:100870001490B246049635463DE09DF83300FF28BB
:1008800055D0B9F1FF0F09D00E9B534506D05846FD
:1008900040F2C311F2F7CCF89DF83300831E122BFF
:1008A00026D8042878D9059BFF2B71D1053880B252
:1008B000FBF72CFC079B83421AD0099A90F9393038
:1008C000002A40F08280002B12DB0369DDF83490AF
:1008D000DDF824A0283308930A9B1B684B45C0F021
:1008E0008380089BDDF838A004934D469DF8339033
:1008F0003B78A34254D90FAB0293684B01930DABE5
:10090000009302210EAB0DF1330200200F91F6F798
:100910003FFD02284ED00F9B002BAED058464FF41F
:10092000DD71F2F785F89DF83300FF28A9D10A9B05
:100930001B689D4238BF1D463B78A34226D9049BC5
:10094000574906982B44A1FB0323C3F34F1290424F
:100950004FEA531340F29780049EDDF818C002E07E
:10096000944540F2908008EB440008F81430120AD5
:100970004270387801342835E4B27319A1FB03239F
:10098000A042C3F34F124FEA5313E9D80A9B1D60EC
:100990003C7011B0BDE8F08F3B780590A342AAD817
:1009A0009DF83330FF2BF3D10A9B1B689D4238BF63
:1009B0001D46EBE70F9B022BADD102210020F6F77D
:1009C0002DFD0F9B022BF8D0A5E7002B0169DDF868
:1009D00034904CDA01F13C0308930A9B1B684B45A9
:1009E0004FF0140ABFF47DAF9D4238BF1D463B78DF
:1009F000A34231D9049B0B9ACDF86C8013449A44DE
:100A0000B0462E465546DDF86CA013E0069AC3F3B7
:100A10004F18904506F128064FEA18204FEA531365
:100A200035D20AF814308CF801003B785FFA8EF466
:100A3000A34222D931464846F6F70AFD049B184ADC
:100A40003344A8420AEB440CA2FB032304F1010E39
:100A5000DCD235464646D0460A9B1D60069BB34213
:100A60003FF63FAF9DF83330FF2B91D15FE701F1A7
:100A7000280308934FF0000A2EE70A9B35461D60B5
:100A80004646D0462DE70A9B00251D6080E70A9B5D
:100A90000025D0461D60E5E7B4E201003108010001
:100AA000CDCCCCCCC3680268596858680968C08945
:100AB00009691033F1F74CBA10B50446D0F8FC20A0
:100AC000016900F59273408DF1F742FAD4F82431B0
:100AD0000849D4F8F820A1FB03139B0AC3F30721AC
:100AE0001370517094F81A31042262F3020384F8EF
:100AF0001A3110BD5917B7D110B590F9393000210E
:100B000084B08B42BCBFD0F8EC30C0F8B8314FF0A5
:100B1000060204468DF80B20B8BF00F5DC72D0F851
:100B2000B00103910DF10B01B4F89A31A8BF03AAEB
:100B3000CDE9001000212046FFF77CFE94F89631A5
:100B4000082262F3030384F8963104B010BD00BF9D
:100B500010B5084C0522014620460CF099FA0521F3
:100B60002046F5F77FFA044B1870FFF737FE002098
:100B700010BD00BFD8060020E907002008B50349D2
:100B800005220CF085FA024B187808BDD806002023
:100B9000E907002030B502FB011C02781C499DF8D2
:100BA0000C50944481FB0C216144491101EBC10EAE
:100BB00001EB8E010446ACEB0101C8B22070C40801
:100BC00001F0070113F804C04CFA01F111F0010122
:100BD0001DD1B0FBF5F205FB1202D2B203F1FF3ECC
:100BE0001C1D084600F1080C1EF8013F5FFA8CFC42
:100BF00013F0010F00F101014FEA530302D032B1AB
:100C0000013AD2B2C8B28445F2D1A645EAD130BD8C
:100C1000A7C867DD4288008850407047F0B52F4D67
:100C20002F4C48404FF0030C070AC0B207EB872750
:100C300000EB802E05EA470605EA4E0004EA471756
:100C400004EA4E1E3E4340EA0E0000EB002706EB8E
:100C5000062E06EB0E2600EB0720360CC0F30740ED
:100C600040EA062000EB00100CF1FF3C08441CF0A9
:100C7000FF0C80B2D8D141401A48A0FB01400C1AA9
:100C800000EB5400400900EBC00400EB8400081A9C
:100C9000C0F3C40400F00705145D2C41E407C0B2A2
:100CA0001AD401FB03F3561EC3F307430432604614
:100CB00000F1080516F8011FEDB211F0010F00F167
:100CC00001044FEA510102D033B1013BDBB2E0B283
:100CD000A842F2D1B242EBD1F0BD00BF1021020018
:100CE000408408004D91CFBA2DE9F843184D194EB4
:100CF000002406F1FF39AF1E4FF0010806E0013471
:100D0000082C05F1060506F128061ED004EB840325
:100D100019F83330DA07F2D539787A78C3F38013CB
:100D200008FA04FCA34041EA0C0C13433146284660
:100D30000622013487F800C07B700CF0A9F9082C5A
:100D400005F1060506F12806E0D1BDE8F88300BFED
:100D50005E5900201D5800202DE9F047204E214DFE
:100D6000DFF88480DFF884900024A5F1020AB71E22
:100D70001AF834304FF0010C13F0010F30460CFA22
:100D800004FC294606F106064FF0060221D098F829
:100D9000003063B115F8013C072B03EB830E06D836
:100DA00019F83E3013F0040F01D0DB0611D51AF804
:100DB000343097F800E0C3F340034EEA0C0C97F888
:100DC00001E087F800C0A3404EEA03037B700CF0FB
:100DD0005FF90134082C05F10805C9D1BDE8F08799
:100DE00032570020F2560020DC5F00201C58002003
:100DF0000820704710B50020FAF796F8F0B9FAF716
:100E0000E7FA10F0010019D10D4A0E4C02EBC003B5
:100E10005B78072B03EB830105D814F831306FF3AF
:100E2000451304F8313012F830306FF3000302F844
:100E3000303001300828E9D1002010BD0C2010BD51
:100E4000F05600201C5800202DE9F04F074683B0D3
:100E50000020FAF769F800286FD1FAF7B9FA10F014
:100E600001046AD197F800A0BAF1FF0F69D0414E92
:100E700007F1010B0AF0010A4FF0FF092546A6F120
:100E8000020809E0B9F1FF0F01D15FFA85F90135D8
:100E9000082D06F1080617D018F83530D807C3F327
:100EA0004002EFD55245F2D10622304659460CF0A9
:100EB000DEF800283ED018F83530D907E2D50135E4
:100EC000082D06F10806E7D1B9F1070F3DD83A78A9
:100ED00018F83930284E022062F3410315FB09004F
:100EE00008F839304044062259460CF0D1F83B78D6
:100EF000771E03F0010304EB84055FFA84FA17F808
:100F00003520C2F38011D20704F101044FEAC50570
:100F100001D599421BD0082C06F12806EBD108EB2D
:100F2000C903FF225A7018F8393043F0010308F85A
:100F30003930002003B0BDE8F08F0C2003B0BDE8CD
:100F4000F08F204603B0BDE8F08F0720F2E730466F
:100F50000622594601930CF08AF8019B0028DAD149
:100F60007B5D43F020037B5508EBC90383F801A0A8
:100F7000D9E700BFF25600201D5800202DE9F041AE
:100F800006460020F9F7D0FFF0B9FAF721FA10F081
:100F9000010419D196F80080B8F1FF0F35D01C4D2F
:100FA0000136AF1E08F0010817F83430C3F34002D1
:100FB000DB0701D542450AD00134082C05F10805AC
:100FC000F2D10220BDE8F0810C20BDE8F0810622BC
:100FD000284631460CF04BF80028EDD107EBC4034E
:100FE0005B78072B08D80B4A03EB830312F8331006
:100FF00060F3451102F8331017F834306FF3000333
:1010000007F834300020BDE8F0812046BDE8F081CB
:10101000F25600201C58002007282DE9F041044614
:101020000E46904617D8124D04EB8403A70015F81E
:101030003330DB0715D52744282115F83730C3F3A3
:10104000801301FB0451337040460622BDE8F04195
:1010500001310CF01DB807484FF48971F1F7E8FC35
:10106000E1E7044840F21311F1F7E2FCE3E700BFC7
:101070001C58002020E301000820704710B5002014
:10108000F9F746FF08B10C2010BDFAF789F930F0E6
:101090000100F8D1184B194C197893F828202070CA
:1010A00060F3000160F30002197083F8282093F8C0
:1010B000501093F8782060F3000160F3000283F889
:1010C000501083F8782093F8A01093F8C82060F3AC
:1010D000000160F3000283F8A01083F8C82093F8A1
:1010E000F01093F8182160F3000160F3000283F818
:1010F000F01083F8182110BD1C580020DB5F002081
:101100002DE9F04F83B0034600200093F9F700FF6C
:1011100018B10C2003B0BDE8F08FFAF741F930F0B8
:10112000010BF6D1009BDFF82C8113F801AB5C4674
:101130000AF0010A08F1FF371E4604EB840207EBB0
:10114000C20517F83230C3F38012DB074FEA840977
:1011500001D5524508D00134082C08F12808ECD1FB
:10116000022003B0BDE8F08F4046062231460BF066
:101170007EFF0028EFD12A7852073346064631D544
:10118000DFF8D48098F80020013A12F0FF0A56D018
:10119000ED7D554524D03148019300EB0A11102212
:1011A00000EB05100BF074FF2D48019B0BEB8B023D
:1011B0005FFA8BFC17F8321011F0010F0BF1010BE5
:1011C00007EBC20204D0490702D5C17D514538D092
:1011D000BBF1080F00F12800E8D198F80020013A8F
:1011E00088F80020009A1F4D92F800A0A5F102088F
:1011F0000AF0010A9B4618F83620D107C2F34000D6
:1012000001D550450FD00136082E05F10805F2D161
:101210004C44002017F834306FF3000307F83430E3
:1012200003B0BDE8F08F0622284659460BF01FFF99
:101230000028E8D108EBC606FF237370E8E73246C2
:10124000CEE7D575084A02F805C098F80020013AA3
:10125000C6E700BF1D580020DB5F00209C57002020
:101260001C580020F2560020945700202DE9F0472A
:101270005C7904F0C004402C01D0BDE8F0871E4624
:101280000F4601B3DFF8A090002400F0010A09F135
:10129000FF3803E0082C09F12809EED004EB8403A1
:1012A000254618F83320C2F38013D20704F1010455
:1012B000F0D55345EED14846062239460BF0D7FE0D
:1012C0000028E7D104E0072AD7D8DFF86080154668
:1012D00005EB8505EF0018F83530DB07CDD507F1B4
:1012E0001809C1440622314648460BF0D1FE0024BD
:1012F00001E0102CC1D0A0B2FAF710FF034600F1B4
:10130000DD050134062249462846002BF1D00BF0BA
:10131000AEFE0028EDD1791C414428460622BDE8E6
:10132000F0470BF0B5BE00BF1D5800201C58002030
:101330002DE9F84F82461A4E1AF8018B894600248F
:1013400008F00108771E04EB8402D50017F832304C
:10135000C3F38012DB0704F1010401D5424506D036
:10136000082C06F12806EED10220BDE8F88F3046A1
:10137000062251460BF07BFE83460028F0D105F192
:101380001802174406213846F4F7E6FC0028EBD093
:101390000622394648460BF07BFE5846BDE8F88FDA
:1013A0001D5800202DE9F84F8146164E19F8018B83
:1013B0008A46002408F00108771E04EB840207EB3C
:1013C000C20517F83230C3F38012DB0704F10104C1
:1013D00001D5424506D0082C06F12806EDD10220A1
:1013E000BDE8F88F3046062249460BF040FE8346A2
:1013F0000028F0D1696A062250460BF049FE584693
:10140000BDE8F88F1D58002010B504460020F9F7FC
:101410007FFD08B10C2010BDF9F7C2FF30F00100CC
:10142000F8D134B1012C02D1044B1C7010BD122034
:1014300010BD024B1C70204610BD00BFDC5F0020B9
:10144000034B4FF47A7202FB00F01860704700BF44
:10145000905900202DE9F047824600208846F9F790
:1014600057FD10B10C20BDE8F087F9F799FF30F077
:101470000104F7D11A4E1AF8019B771E09F00109F1
:1014800004EB8402D50017F83230C3F38012DB0777
:1014900004F1010401D54A4506D0082C06F12806BE
:1014A000EED10220BDE8F0873046062251460BF00F
:1014B000DEFD0028F1D1B8F1000F0BD0B8F1010F1B
:1014C00005D17B5D43F010037B55BDE8F08712200A
:1014D000BDE8F0877B5D68F304137B554046C2E7A7
:1014E0001D580020D0B43049304C002304EBC30217
:1014F0005278072A02EB820C05D811F83C206FF3D2
:10150000451201F83C2014F833206FF3000204F870
:1015100033200133082BE9D1254A264C00231370D0
:101520000A7863F300020A7091F8282063F300023E
:1015300081F8282091F8502063F3000281F85020B0
:1015400091F8782063F3000281F8782091F8A020C8
:1015500063F3000281F8A02091F8C82063F3000231
:1015600081F8C82091F8F02063F3000281F8F020A0
:1015700091F8182163F3000281F818210E4A1370C4
:101580000E4B4FF0FF364FF0FF37C3E900670C4BAF
:10159000236020B1D0BC0B490B4808F063BBD0BC22
:1015A000094808F00DBC00BF1C580020F056002070
:1015B000DC5F002090590020DB5F0020802C0020A1
:1015C000A0BB0D00A9180100882C0020034A044B81
:1015D00000280CBF10461846704700BF5C59002019
:1015E00030570020A8B10C4A126810B54FF40043E0
:1015F00040F2E7300021E2FB03014FF47A7200234E
:10160000EEF76EFDBDE8104002460B46034808F0B9
:10161000D1BB024808F0D4BB90590020882C002090
:101620000D4A08B50023138070B90C4B0C4A1B7887
:101630000020108003B908BDF9F7B2FE0028FAD1E6
:10164000BDE80840FFF750BB1846F9F7C1FEC307D5
:10165000EBD4FFF781FBE8E730570020DC5F002088
:101660005C5900200E4A08B500231380C2070ED42F
:101670000C4B0D4A1B780020108003B908BDF9F708
:1016800047FC0028FAD1BDE80840FFF72DBB1846FB
:10169000F9F74AFC0028EBD1FFF75EFBE8E700BF53
:1016A00030570020DC5F00205C5900202DE9F04F0E
:1016B00089B0044601900CF072F84B014201121AF5
:1016C00043EAD06363EB01039B0043EA9273920009
:1016D000121841EB0301CB0043EA5273C2F31032FC
:1016E00042EA4340D90B02900391B4B9644AD2E96B
:1016F0000032B2F1FF3F08BFB3F1FF3F0DD0C31A74
:1017000061EB02025F4909688B4272F10003ACBFD2
:101710004FF0010B4FF0000B01E04FF0010BDFF831
:1017200068915A4F0024A7F11E084E4604EB84032B
:10173000A50018F83330DA0715D5BBF1000F01D139
:10174000980710D42B1918F83330590733D42B19B4
:1017500018F833301A071BD4254418F8353043F0F5
:10176000020308F835300134082C06F1060607F1AB
:101770002807DBD1BBF1000F04D0414B029A1A605D
:10178000039A5A60019B002B4DD109B0BDE8F08F40
:101790000DF110094946A7F117000BF0DEFC0028F7
:1017A00067D1494606223046C7F806900BF070FC18
:1017B000C7F80660D0E717F8072C354B0DF1100974
:1017C00003EB021ACA4529D308AB9A450ED2314918
:1017D0003148324A40F217230AF0F5FE30480AF049
:1017E000F2FE2E4840F217210BF0D7F80AF10F0253
:1017F0000DF10F030DF11F0012F8011903F8011F7D
:101800009842F9D1484639460BF0A7FC00289ED0F3
:10181000244840F2EB21F1F70BF998E70AF11003A5
:101820009945D4D3E2E70020F9F764FB0446002889
:10183000ABD090F86A305B07A7D590F82630072B1D
:10184000A3D890F8293000EB830304A9DE6A28307E
:1018500001F06AF972780546023231460BF018FC45
:1018600029462046F9F770FB9DF8103084F829309E
:101870008BE70C484FF43E71F1F7DAF891E700BFBF
:10188000802C002090590020645700203A580020F6
:101890009C57002090E30100ACE0010064E30100EC
:1018A000E8E3010020E3010010B50120FFF7FEFE90
:1018B0000A4A12684FF4004340F2E7300021E2FB8D
:1018C00003014FF47A720023EEF70AFCBDE81040E2
:1018D00002460B46024808F06DBA00BF905900203E
:1018E000882C0020072813D870B500EB80030C4D1E
:1018F00015F833301A0704464FEA8006C3F3C000D8
:1019000005D59B0706D5344405EBC405686A70BD50
:101910000020704703484FF44771F1F789F8F2E768
:101920001C58002020E3010007280BD800EB80039F
:10193000054A12F833104B0704D5282303FB002077
:101940001E307047002070471C5800202DE9F84FCA
:101950008B4617460AB1FF2313701B4D002400F07D
:10196000010A05F1FF3906E052451FD00134082C69
:1019700005F1280515D004EB84065FFA84F819F800
:101980003630D907C3F38012EED4002FEED03B7867
:101990000134FF2B08BF87F80080082C05F12805CB
:1019A000E9D14FF0FF084046BDE8F88F28460622EF
:1019B00059460BF05CFB0028F5D0002FD6D019F863
:1019C0003630DB07D2D4E2E71D5800202DE9F04F76
:1019D000804685B000200F469146F9F799FA18B174
:1019E0000C2005B0BDE8F08F0446F9F7D9FC30F0C3
:1019F0000103F5D1C2460DF10F021AF8010B514651
:101A0000FFF7A4FF072840F2D1809DF80F60072E52
:101A100000F2C88006EB8600664DC300581C062203
:101A20005146284400930BF033FB06EB860398F8ED
:101A3000001015F833204FEAC30B61F3861205EB53
:101A4000C3031021384605F80B200193F4F784F9FD
:101A500015F80B30102160F38203484605F80B306F
:101A6000F4F77AF915F80B3000F0010060F3C303C6
:101A70005A0705F80B304FEA860B4AD400286ED17E
:101A800000984D4F18300622284400210BF00BFB24
:101A90000BEB060315F8332022F0120205F8332071
:101AA00098F80090A7F1020809F0010918F83430FD
:101AB000C3F34002DB0701D54A4517D00134082C97
:101AC00007F10807F2D10BEB060315F833206FF38B
:101AD000451205F833205E44002015F8363043F0F7
:101AE000010305F8363005B0BDE8F08F0622384610
:101AF00051460BF0BCFA0028E0D10BEB060308EBD3
:101B0000C40415F83320667042F0200205F8332033
:101B1000E1E72A4A019813782949C37501EB0310BC
:101B200028490190CE54B84203F10103137024D91F
:101B300007F11003984225D3019B5A1E07F10F03AA
:101B4000013F13F8011902F8011FBB42F9D10BEB59
:101B5000060315F83300C0F3C000002890D0009BA6
:101B6000D81D1022494628440BF092FA0BEB0603CD
:101B700005EBC30300225A6282E703D0019B1033B6
:101B80009F42D9D21049114A114840F217230AF056
:101B90001AFD10480AF017FD0C4840F217210AF010
:101BA000FCFEC9E7072005B0BDE8F08F122005B0A4
:101BB000BDE8F08F1C580020F2560020DB5F0020AB
:101BC0009C5700209457002090E3010064E301003B
:101BD000ACE00100E8E30100072807D8044B00EB64
:101BE000800013F83000C0F3C00070470020704739
:101BF0001C580020072812D800EB8000094A12F870
